:100000000C9435000C945D000C945D000C945D0024
:100010000C945D000C945D000C945D000C945D00EC
:100020000C945D000C945D000C945D000C945D00DC
:100030000C945D000C945D000C945D000C945D00CC
:100040000C944A020C945D000C94BA020C94940235
:100050000C945D000C945D000C945D000C945D00AC
:100060000C945D000C945D00160511241FBECFEFAB
:10007000D8E0DEBFCDBF22E0A4E6B1E001C01D9212
:10008000A031B207E1F711E0A0E0B1E0E8EBF3E165
:1000900002C005900D92A436B107D9F710E0C5E370
:1000A000D0E004C02197FE010E94D807C433D107D5
:1000B000C9F70E94EC020C94DA090C94000080E469
:1000C00080937C0080917A00806480937A00809194
:1000D0007A0086FDFCCF809178002091790090E035
:1000E000922B08953FB7F89480916B0190916C0129
:1000F000A0916D01B0916E0126B5A89B05C02F3F60
:1001000019F00196A11DB11D3FBFBA2FA92F982F3D
:100110008827820F911DA11DB11DBC01CD0142E0B8
:10012000660F771F881F991F4A95D1F70895CF92C0
:10013000DF92EF92FF920F931F93CF93DF936C01A7
:100140007A018B01C0E0D0E0CE15DF0581F0D80147
:100150006D918D01D601ED91FC910190F081E02D22
:10016000C6010995892B11F02196EECF7E01C701BA
:10017000DF91CF911F910F91FF90EF90DF90CF9083
:100180000895089580E090E00895FC01538D448D1A
:10019000252F30E0842F90E0821B930B541710F032
:1001A000CF96089501970895FC01918D828D98173F
:1001B00061F0828DDF01A80FB11D5D968C91928D4B
:1001C0009F5F9F73928F90E008958FEF9FEF089548
:1001D000FC01918D828D981731F0828DE80FF11D11
:1001E000858D90E008958FEF9FEF0895FC01918D2C
:1001F000228D892F90E0805C9F4F821B91098F7325
:10020000992708958FE691E00E94F60021E0892B5E
:1002100009F420E0822F0895FC01848DDF01A80FEE
:10022000B11DA35ABF4F2C91848D90E001968F731E
:100230009927848FA689B7892C93A089B1898C913D
:10024000837080648C93938D848D981306C002888C
:10025000F389E02D80818F7D80830895EF92FF9256
:100260000F931F93CF93DF93EC0181E0888F9B8DD9
:100270008C8D981305C0E889F989808185FD26C099
:10028000F62E0B8D10E00F5F1F4F0F731127E02E1E
:100290008C8DE8120CC00FB607FCFACFE889F989FB
:1002A000808185FFF5CFCE010E940C01F1CF8B8DAF
:1002B000FE01E80FF11DE35AFF4FF0829FB7F8945B
:1002C0000B8FEA89FB89808180620AC09FB7F8940E
:1002D000EE89FF896083E889F98980818370806471
:1002E00080839FBF81E090E0DF91CF911F910F91BC
:1002F000FF90EF900895CF93DF93EC01888D8823D2
:10030000C9F0EA89FB89808185FD05C0A889B98982
:100310008C9186FD0FC00FB607FCF5CF808185FF5D
:10032000F2CFA889B9898C9185FFEDCFCE010E94CB
:100330000C01E7CFDF91CF91089580E090E0892B09
:1003400029F00E94020181110C9400000895009789
:1003500069F0FC0101900020E9F73197AF01481BDB
:10036000590BBC018FE691E00C94970080E090E07F
:1003700008958F929F92AF92BF920F931F93CF9346
:10038000DF93CDB7DEB7A1970FB6F894DEBF0FBEEF
:10039000CDBF19A2423008F44AE08E010F5D1F4F15
:1003A000842E912CA12CB12CA50194010E94B6079A
:1003B000E62FB901CA0101501109EA3014F4E05DD9
:1003C00001C0E95CD801EC93232B242B252B61F78A
:1003D000C8010E94A701A1960FB6F894DEBF0FBE18
:1003E000CDBFDF91CF911F910F91BF90AF909F90A4
:1003F0008F9008950E94C509EF92FF920F931F936B
:10040000CF93DF93EC01198218821B821A821D821E
:100410001C8261157105B9F17B01FB01019000207F
:10042000E9F731978F01061B170BB8016F5F7F4FFC
:1004300080E090E00E94FF08009759F0998388833C
:100440001B830A832C813D81232B81F4FC011082C4
:100450000DC088819981009711F00E947608198259
:1004600018821D821C821B821A820DC01D830C8380
:10047000B70188819981DF91CF911F910F91FF90F2
:10048000EF900C94D309DF91CF911F910F91FF90C2
:10049000EF9008951F920F920FB60F9211242F9391
:1004A0003F938F939F93AF93BF93809167019091F8
:1004B0006801A0916901B0916A013091660123E061
:1004C000230F2D3720F40196A11DB11D05C026E88C
:1004D000230F0296A11DB11D209366018093670131
:1004E00090936801A0936901B0936A0180916B01B8
:1004F00090916C01A0916D01B0916E010196A11DCA
:10050000B11D80936B0190936C01A0936D01B0932A
:100510006E01BF91AF919F918F913F912F910F905D
:100520000FBE0F901F9018951F920F920FB60F924B
:1005300011242F933F934F935F936F937F938F93E8
:100540009F93AF93BF93EF93FF938FE691E00E9449
:100550000C01FF91EF91BF91AF919F918F917F918E
:100560006F915F914F913F912F910F900FBE0F9020
:100570001F9018951F920F920FB60F9211242F9370
:100580008F939F93EF93FF93E0917F01F091800110
:100590008081E0918501F091860182FD12C09081F9
:1005A000809188018F5F8F7320918901821751F0AC
:1005B000E0918801F0E0E159FE4F958F809388012A
:1005C00001C08081FF91EF919F918F912F910F90AA
:1005D0000FBE0F901F901895CF93DF9300D000D0DF
:1005E00000D0CDB7DEB7789484B5826084BD84B581
:1005F000816084BD85B5826085BD85B5816085BD1E
:1006000080916E00816080936E00109281008091D5
:10061000810082608093810080918100816080935D
:100620008100809180008160809380008091B10082
:1006300084608093B1008091B00081608093B000AD
:1006400080917A00846080937A0080917A00826041
:1006500080937A0080917A00816080937A00809103
:100660007A00806880937A001092C100E0917F0147
:10067000F091800182E08083E0917B01F0917C0128
:100680001082E0917D01F0917E018FEC80831092C9
:100690008701E0918301F091840186E08083E091FD
:1006A0008101F0918201808180618083E0918101EC
:1006B000F0918201808188608083E0918101F091D6
:1006C0008201808180688083E0918101F0918201C4
:1006D00080818F7D80830E945F000A962091640153
:1006E00030916501821793073CF00E945F00909360
:1006F000650180936401EFCF88E191E00E94A7013A
:1007000084E291E00E94A7010E945F004C01990FD2
:10071000AA08BB08C501B4010E944A056B017C010F
:100720006091640170916501072E000C880B990B94
:100730000E944A059B01AC01C701B6010E940B074C
:1007400020E030E044EB53E40E94A9056B017C01FA
:1007500087E291E00E94A70186E591E00E94A7014F
:1007600080E391E00E94A70186E591E00E94A70145
:1007700087E391E00E94A70184E291E00E94A70133
:1007800020E030E64EEA53E4C701B6010E94AC0710
:1007900087FF0AC020E030E044E351E4C701B6011E
:1007A0000E94430518161CF06DE371E047C020E07D
:1007B00030E84DE952E4C701B6010E94AC0787FD5D
:1007C0000DC020E030E84AEC52E4C701B6010E94B7
:1007D000430518161CF063E471E030C020E030ECF3
:1007E00048E253E4C701B6010E94AC0787FD0DC083
:1007F00020E030E44FE353E4C701B6010E94430513
:1008000018161CF068E471E019C020E030E641E8F9
:1008100053E4C701B6010E94AC0787FD0DC020E07C
:1008200030EA4CE853E4C701B6010E9443051816AC
:100830001CF06EE471E002C066E271E0CE01019648
:100840000E94FC014D815E8169817A818FE691E091
:100850000E94970089819A810E94760883E591E041
:100860000E94A701A7019601C701B6010E94B10726
:10087000882319F088E591E01AC026013701E89431
:1008800077F82FEF3FEF4FE75FE7C301B2010E9418
:10089000B10781110FC02FEF3FEF4FE75FE7C301B3
:1008A000B2010E94430518162CF48CE591E00E94D9
:1008B000A70176C02FEF3FEF4FE75FE4C701B60116
:1008C0000E94AC0718161CF480E691E0F0CF2FEFE1
:1008D0003FEF4FE75FECC701B6010E94430587FD7C
:1008E000F3CF20E030E0A901C701B6010E94430523
:1008F00087FF09C06DE28FE691E00E942E01F7FAB2
:10090000F094F7F8F0942AE037ED43EA5BE3C7018F
:10091000B6010E949F062B013C010E947D076B01DE
:100920007C010E9448059B01AC01C301B2010E94F9
:100930009E062B013C014AE0C701B6010E94B901A5
:100940006EE28FE691E00E942E0120E030E040E26E
:1009500051E4C301B2010E94A9052B013C010E9490
:100960007D076B01E12CF12C4AE0C701B6010E9422
:10097000B901C701B6010E9448059B01AC01C30142
:10098000B2010E949E0620E030E040E251E40E9465
:10099000A9050E947D0780E090E04AE00E94B9012D
:1009A00084E591E00E94A701B7FE0EC06DE28FE6DC
:1009B00091E00E942E0166277727CB0168197909FB
:1009C0008A099B094AE003C04AE0C501B4010E94BC
:1009D000B90184E291E00E94A7010E9472006B01BC
:1009E0007C018AEF882E912CA12CB12C0E947200E0
:1009F000DC01CB018C199D09AE09BF09883E9340EB
:100A0000A105B10598F321E0821A9108A108B10867
:100A100088EEC80E83E0D81EE11CF11C81149104FD
:100A2000A104B10419F70E949D016ECEEFE6F1E03A
:100A30001382128288EE93E0A0E0B0E08483958375
:100A4000A683B7838AE091E09183808385EC90E070
:100A50009587848784EC90E09787868780EC90E088
:100A6000918B808B81EC90E0938B828B82EC90E079
:100A7000958B848B86EC90E0978B868B118E128EF3
:100A8000138E148E08950E94850508F481E0089560
:100A9000E89409C097FB3EF4909580957095619518
:100AA0007F4F8F4F9F4F9923A9F0F92F96E9BB27CE
:100AB0009395F695879577956795B795F111F8CF4A
:100AC000FAF4BB0F11F460FF1BC06F5F7F4F8F4FB5
:100AD0009F4F16C0882311F096E911C0772321F0AB
:100AE0009EE8872F762F05C0662371F096E8862F43
:100AF00070E060E02AF09A95660F771F881FDAF79A
:100B0000880F9695879597F90895990F0008550FC6
:100B1000AA0BE0E8FEEF16161706E807F907C0F083
:100B200012161306E407F50798F0621B730B840B8B
:100B3000950B39F40A2661F0232B242B252B21F465
:100B400008950A2609F4A140A6958FEF811D811D05
:100B500008950E94BC050C942D060E941F0638F0D3
:100B60000E94260620F0952311F00C9416060C9492
:100B70001C0611240C9461060E943E0670F3959F9A
:100B8000C1F3950F50E0551F629FF001729FBB2784
:100B9000F00DB11D639FAA27F00DB11DAA1F649F20
:100BA0006627B00DA11D661F829F2227B00DA11DD3
:100BB000621F739FB00DA11D621F839FA00D611D59
:100BC000221F749F3327A00D611D231F849F600D7A
:100BD000211D822F762F6A2F11249F5750409AF0A3
:100BE000F1F088234AF0EE0FFF1FBB1F661F771F2F
:100BF000881F91505040A9F79E3F510580F00C94FA
:100C000016060C9461065F3FE4F3983ED4F3869594
:100C100077956795B795F795E7959F5FC1F7FE2B99
:100C2000880F911D9695879597F9089597F99F6775
:100C300080E870E060E008959FEF80EC0895002464
:100C40000A941616170618060906089500240A9431
:100C500012161306140605060895092E0394000CB7
:100C600011F4882352F0BB0F40F4BF2B11F460FF46
:100C700004C06F5F7F4F8F4F9F4F089557FD90586F
:100C8000440F551F59F05F3F71F04795880F97FB50
:100C9000991F61F09F3F79F087950895121613060A
:100CA0001406551FF2CF4695F1DF08C01616170639
:100CB0001806991FF1CF869571056105089408956E
:100CC000E894BB2766277727CB0197F908952F92E1
:100CD0003F924F925F926F927F928F929F92AF92CC
:100CE000BF92CF92DF92EF92FF920F931F93CF9319
:100CF000DF93CDB7DEB7CA1BDB0B0FB6F894DEBFB0
:100D00000FBECDBF09942A88398848885F846E84D5
:100D10007D848C849B84AA84B984C884DF80EE801F
:100D2000FD800C811B81AA81B981CE0FD11D0FB628
:100D3000F894DEBF0FBECDBFED0108955058BB271C
:100D4000AA270E94B6060C942D060E941F0638F0B2
:100D50000E94260620F039F49F3F19F426F40C94E3
:100D60001C060EF4E095E7FB0C941606E92F0E9492
:100D70003E0658F3BA17620773078407950720F0F9
:100D800079F4A6F50C9460060EF4E0950B2EBA2FBC
:100D9000A02D0B01B90190010C01CA01A001112481
:100DA000FF27591B99F0593F50F4503E68F11A162D
:100DB000F040A22F232F342F4427585FF3CF4695BE
:100DC00037952795A795F0405395C9F77EF41F16E0
:100DD000BA0B620B730B840BBAF09150A1F0FF0FAA
:100DE000BB1F661F771F881FC2F70EC0BA0F621F96
:100DF000731F841F48F4879577956795B795F79586
:100E00009E3F08F0B0CF9395880F08F09927EE0F1A
:100E10009795879508950E941F070C942D060E94B0
:100E2000260658F00E941F0640F029F45F3F29F083
:100E30000C94160651110C9461060C941C060E9429
:100E40003E0668F39923B1F3552391F3951B550B97
:100E5000BB27AA2762177307840738F09F5F5F4F8D
:100E6000220F331F441FAA1FA9F335D00E2E3AF0CC
:100E7000E0E832D091505040E695001CCAF72BD0E4
:100E8000FE2F29D0660F771F881FBB1F2617370735
:100E90004807AB07B0E809F0BB0B802DBF01FF2767
:100EA00093585F4F3AF09E3F510578F00C94160628
:100EB0000C9461065F3FE4F3983ED4F386957795F2
:100EC0006795B795F7959F5FC9F7880F911D969520
:100ED000879597F90895E1E0660F771F881FBB1F7C
:100EE000621773078407BA0720F0621B730B840B29
:100EF000BA0BEE1F88F7E09508950E94460688F029
:100F00009F5798F0B92F9927B751B0F0E1F0660FCD
:100F1000771F881F991F1AF0BA95C9F714C0B1300E
:100F200091F00E946006B1E008950C946006672F6E
:100F3000782F8827B85F39F0B93FCCF3869577953D
:100F40006795B395D9F73EF4909580957095619526
:100F50007F4F8F4F9F4F08950E94850508F48FEFB4
:100F600008950E948505880B990B0895A1E21A2E19
:100F7000AA1BBB1BFD010DC0AA1FBB1FEE1FFF1F3D
:100F8000A217B307E407F50720F0A21BB30BE40B8D
:100F9000F50B661F771F881F991F1A9469F76095D4
:100FA0007095809590959B01AC01BD01CF0108958E
:100FB000EE0FFF1F0590F491E02D09940F931F93FE
:100FC000CF93DF938230910510F482E090E0E091BE
:100FD0000E02F0910F0220E030E0A0E0B0E0309788
:100FE00019F1408151810281138148175907C8F0D6
:100FF0008417950769F4109731F012960C931297A5
:1010000013961C9327C000930E0210930F0222C068
:101010002115310519F04217530718F49A01BD0143
:10102000EF01DF01F801DBCF21153105F9F0281BB5
:10103000390B2430310580F48A819B81611571055B
:1010400021F0FB019383828304C090930F0280936D
:101050000E02FE01329644C0FE01E20FF31F81939F
:10106000919322503109398328833AC020910C0290
:1010700030910D02232B41F42091020130910301A4
:1010800030930D0220930C02209100013091010158
:101090002115310541F42DB73EB74091040150911F
:1010A0000501241B350BE0910C02F0910D02E217B3
:1010B000F307A0F42E1B3F0B2817390778F0AC017B
:1010C0004E5F5F4F2417350748F04E0F5F1F509358
:1010D0000D0240930C028193919302C0E0E0F0E096
:1010E000CF01DF91CF911F910F910895CF93DF939F
:1010F000009709F481C0FC01329713821282A091FB
:101100000E02B0910F02109781F420813181820F7D
:10111000931F20910C0230910D022817390751F5C9
:10112000F0930D02E0930C0267C0ED0120E030E087
:10113000CE17DF0740F44A815B819E0141155105BE
:10114000F1F0EA01F5CFD383C28340815181840F4E
:10115000951FC817D90759F488819981840F951F65
:101160000296918380838A819B8193838283211558
:10117000310529F4F0930F02E0930E023DC0E9011E
:10118000FB83EA8349915991C40FD51FEC17FD07E2
:1011900061F480819181840F951F0296E901998302
:1011A0008883828193819B838A83E0E0F0E01296BA
:1011B0008D919C911397009719F0FD01DC01F7CFF9
:1011C0008D919C9111979D012E5F3F4F820F931F30
:1011D00020910C0230910D022817390769F43097DD
:1011E00029F410920F0210920E0202C01382128292
:1011F000B0930D02A0930C02DF91CF910895A0E06F
:10120000B0E0E5E0F9E00C946B06EC01009721F406
:10121000CB010E94DE07B4C0FC01E60FF71F9C0162
:1012200022503109E217F30708F4A8C0D9010D9143
:101230001C91119706171707B0F00530110508F437
:101240009BC0C80104978617970708F495C0025001
:101250001109061B170B019311936D937C93CF011A
:101260000E94760889C05B01A01AB10A4C01800E69
:10127000911EA0910E02B0910F02612C712CE12CF5
:10128000F12C109709F446C08D919C911197A815E7
:10129000B905B1F56C0142E0C40ED11CCA14DB04DF
:1012A00078F14C018A189B08640142E0C40ED11CFD
:1012B0001296BC9012971396AC91B5E0CB16D10460
:1012C00040F0B282A38391828082D9016D937C9396
:1012D00009C00E5F1F4F800F911FF901918380831A
:1012E000EB2DFA2FE114F10431F0D7011396FC93A2
:1012F000EE93129741C0F0930F02E0930E023CC0B0
:101300006816790608F43C017D0112960D90BC9197
:10131000A02DB7CF80910C0290910D0288169906EE
:10132000E1F466167706C8F48091000190910101FE
:10133000009741F48DB79EB740910401509105018B
:10134000841B950BE817F907C8F4F0930D02E0939E
:101350000C02F901718360830FC0CB010E94DE078C
:101360007C01009759F0A801BE010E94CA09CE0174
:101370000E947608C70104C0CE0102C080E090E060
:10138000CDB7DEB7EEE00C94870681E090E0F894EC
:101390000C94DA09FB01DC0102C001900D9241506E
:1013A0005040D8F70895FB01DC0101900D92002018
:0813B000E1F70895F894FFCF66
:1013B800000010028000000000002E019700C50008
:1013C8007B01F600D400E80043616C6962726174C5
:1013D800656421000D0A005669727A69656E7300AA
:1013E8004772C48164690056616C7565004E6F72FE
:1013F8007468004561737400536F757468005765AD
:1014080073740020202020006E616E00696E6600F3
:041418006F76660085
:00000001FF
