:100000000C94B1000C94CE000C94CE000C94CE0055
:100010000C94CE000C94CE000C94CE000C94CE0028
:100020000C94CE000C94CE000C94CE000C94CE0018
:100030000C94CE000C94CE000C94CE000C94CE0008
:100040000C94CE000C94CE000C94CE000C94CE00F8
:100050000C94CE000C94CE000C94CE000C94CE00E8
:100060000C94CE000C94CE0000407A10F35A00A0FD
:10007000724E18090010A5D4E80000E87648170071
:1000800000E40B54020000CA9A3B000000E1F505B1
:10009000000080969800000040420F000000A086FB
:1000A00001000000102700000000E803000000002D
:1000B0006400000000000A000000000001000000D1
:1000C00000002C76D888DC674F0823DFC1DFAE59EB
:1000D000E1B1B796E5E3E453C63AE651997696E87E
:1000E000E6C28426EB898C9B62ED407C6FFCEFBC02
:1000F0009C9F40F2BAA56FA5F490055A2AF75C932D
:100100006B6CF9676DC11BFCE0E40D47FEF520E662
:10011000B500D0ED902E0300943577050080841E45
:10012000080000204E0A000000C80C333333330FA0
:10013000986E12831141EF8D2114893BE65516CF3D
:10014000FEE6DB18D1844B381BF77C1D901DA4BB49
:10015000E424203284725E228100C9F124ECA1E5FE
:100160003D2711241FBECFEFD8E0DEBFCDBF11E089
:10017000A0E0B1E0E4E7FDE102C005900D92AA35F0
:10018000B107D9F721E0AAE5B1E001C01D92A93875
:10019000B207E1F70E9451050C94B80E0C940000D0
:1001A000CF93DF9380935A0190935B0195B1C1E0A7
:1001B000D0E09E0102C0220F331F8A95E2F7822F02
:1001C0008095892385B984E70E943A048FEF0E94C5
:1001D0003A0485B100905A0102C0CC0FDD1F0A9489
:1001E000E2F7C82BC5B960915A0170915B0188E8AC
:1001F0000E946F04CCE5D1E09983888360915A0115
:1002000070915B018AE80E9491049B838A836091CC
:100210005A0170915B018CE80E9491049D838C834C
:1002200060915A0170915B018EE80E946F049F8378
:100230008E8360915A0170915B0180E90E94910464
:100240009987888760915A0170915B0182E90E94C9
:1002500091049B878A8760915A0170915B0184E9C0
:100260000E9491049D878C8760915A0170915B0177
:1002700086E90E9491049F878E8760915A01709150
:100280005B0188E90E949104998B888B60915A01E7
:1002900070915B018AE90E9491049B8B8A8B60912B
:1002A0005A0170915B018CE90E9491049D8B8C8BAB
:1002B00060915A0170915B018EE90E9491049F8BBD
:1002C0008E8BDF91CF9108952F923F924F925F9244
:1002D0006F927F928F929F92AF92BF92CF92DF9256
:1002E000EF92FF920F931F93CF93DF93CDB7DEB7BB
:1002F0006F970FB6F894DEBF0FBECDBF20915A01A5
:1003000030915B0146E0BE016F5F7F4F87EF0E9437
:10031000400489808D8E9A809E8E8B808F8E8C81FA
:1003200090E0A0E0B0E0AC01BD01032E3CE0440F42
:10033000551F661F771F3A95D1F7302D9D81892F64
:1003400090E0A0E0B0E0880F991FAA1FBB1F880FA4
:10035000991FAA1FBB1F880F991FAA1FBB1F880FB9
:10036000991FAA1FBB1F842B952BA62BB72B2E8161
:10037000822B0F2EFCE56F2EF1E07F2EF02DF30186
:100380004081518160E070E06C017D01689413F858
:10039000F594E794D794C7941694D1F7C41AD50A64
:1003A000E60AF70A689412F8B595A7959795879588
:1003B0001694D1F7440F551F661F771F4C015D013E
:1003C000841A950AA60AB70AA5019401A281B381ED
:1003D0000E94C2074B015C01072E7BE0B594A794F5
:1003E000979487947A95D1F7702DA7019601C7014C
:1003F000B6010E94A7079B01AC01012E1CE0559598
:100400004795379527951A95D1F7102DA481B58179
:100410000E94C207DC01CB01072E7EE0B595A795AF
:10042000979587957A95D1F7702D880D991DAA1DFE
:10043000BB1D80937D0190937E01A0937F01B093BB
:1004400080016C017D01FF0CCC08DC2C7601282F8B
:10045000392F4A2F5B2F6C2D7C2D8C2D9C2D345FDA
:100460004140510961097109810991092F833A8736
:100470004B875C876D877E878F87988BA22EB32EE4
:10048000C42ED52EE62EF72E082F192F0E94CA074C
:10049000298B3A8B4B8B5C8B698F7A8F8B8F9C8FE0
:1004A000D30119963C91199718962C91932F990F77
:1004B000990B492F592F692F792F892F0E94CA072D
:1004C0000CE00E94FA08222E332E442E552E688707
:1004D0007987882E992EF30133852285932F990FE2
:1004E000990BA988BA88CB88DC88E98CFA8C0B8DAB
:1004F0001C8D492F592F692F792F892F0E94CA07E8
:1005000008E00E941309A22CB32CC42CD52CE8843B
:10051000F984082D192D0E94310970588F4F9F4F73
:10052000D30116962D903C901797A22CB32CC12C7A
:10053000D12CE12CF12C00E010E00E94CA0701E26E
:100540000E941309288739874D8B5E8B6F8B788FBC
:10055000582E492EA0E00E94430909F465C10F2ED0
:10056000FCE52F2EF1E03F2EF02DF101318920899D
:10057000932F990F990BA988BA88CB88DC88E98CCE
:10058000FA8C0B8D1C8D492F592F692F792F892FAC
:100590000E94CA07298B3A8B4B8B5C8B662E772E79
:1005A000882E992ED1011F963C911F971E962C9153
:1005B000932F990F990BAF80BA84CB84DC84ED84A0
:1005C000FE840F851889492F592F692F792F892F7C
:1005D0000E94CA0701E10E94FA08A988BA88CB885C
:1005E000DC88E62CF72C082D192D0E943109A22E4B
:1005F000B32EC42ED52EE62EF72E8F83192F8D8C79
:10060000482D50E060E070E0DB01CA01072E7CE07D
:10061000880F991FAA1FBB1F7A95D1F7702D9E8C4A
:10062000492D50E060E070E0440F551F661F771FB2
:10063000440F551F661F771F440F551F661F771FF6
:10064000440F551F661F771F482B592B6A2B7B2B96
:100650008F8C482980E090E0A0E1B0E0841B950BEE
:10066000A60BB70B3C014D01990C6608762C430193
:10067000282F392F4A2F5B2F662D762D862D962D0C
:100680000FE10E94FA08622E732E842E952EB62F4B
:10069000A72F8A879B87F10135852485932F990F92
:1006A000990B492F592F692F792F892F03E20E9427
:1006B000FA080F810E943109A22EB32EC42ED52E26
:1006C000E62EF72E082F192F262D372D482D592DC0
:1006D0006B2F7A2F8A859B850E943A090F2EF5E3AE
:1006E000AF2EF02D0F2EFCE0BF2EF02DC12CD12C03
:1006F000E12CF12C00E010E00E94CA07A884B98424
:10070000CD88DE88EF88F88C052D142D0E942508F1
:100710002F833A874B875C876D877E878F87988B7F
:100720000DE00E941309922E832E742E652E562EF4
:10073000472E88879987D10157963C9157975696AF
:100740002C91932F990F990BA92CB82CC72CD62C30
:10075000E52CF42C082F1985492F592F692F792F53
:10076000892F0E94CA070E94CA0709E10E94130943
:10077000AF80BA84CB84DC84ED84FE840F85188935
:100780000E94310928873987442E552E662E772EF0
:10079000882E992EF10135892489932F990F990B71
:1007A000492F592F692F792F892F0E94CA0703E1FA
:1007B0000E941309A22EB32EC42ED52EE62EF72E9C
:1007C000082F192F28853985442D552D662D772D15
:1007D000882D992D0E94310908E00E941309A22E4C
:1007E000B32EC42ED52EE62EF72EE82F192FD101C9
:1007F00053963C91539752962C91932F990F990BA6
:10080000492F592F692F792F892F04E00E94FA0868
:100810000E2F0E9431090E94580620E030E040E887
:100820005BE30E943A0703C060E070E0CB016F9683
:100830000FB6F894DEBF0FBECDBFDF91CF911F91F1
:100840000F91FF90EF90DF90CF90BF90AF909F906F
:100850008F907F906F905F904F903F902F90089572
:1008600084B1886284B924988CB583658CBD2C9A38
:100870002C9808958EBD0DB407FEFDCF8EB508955A
:10088000DF92EF92FF920F931F93CF93DF938B0131
:10089000D42E95B141E050E07A0102C0EE0CFF1C6D
:1008A0002A95E2F72E2D2095922395B90E943A04BD
:1008B000DD2051F0E8010D0D111D80E00E943A0489
:1008C0008993C017D107C9F785B1E82AE5B8DF9148
:1008D000CF911F910F91FF90EF90DF900895CF93EC
:1008E000DF9395B1C1E0D0E002C0CC0FDD1F6A9567
:1008F000E2F72C2F2095922395B90E943A0480E0CC
:100900000E943A04D82F80E00E943A0495B1C92B86
:10091000C5B92D2F30E0A901582BCA01DF91CF9125
:1009200008950E946F0408951092C50087E6809391
:10093000C400E0ECF0E080818D7F808386E08093CE
:10094000C20088E18093C1000895CF93C82F8A30F8
:1009500019F48DE00E94A504E0ECF0E0808185FFB1
:10096000FDCFC093C600CF9108958F929F92AF9212
:10097000BF92EF92FF920F931F93CF93DF93CDB768
:10098000DEB72A970FB6F894DEBF0FBECDBF4A017F
:100990005B019F938F930E947E098EE091E09F936D
:1009A0008F930E947E09CE0101967C018C0122E08A
:1009B00041E0C501B4010E945E09FF92EF920E94DE
:1009C0007E0982E191E00E9494090F900F900F90B0
:1009D0000F900F900F902A960FB6F894DEBF0FBEBF
:1009E000CDBFDF91CF911F910F91FF90EF90BF90FE
:1009F000AF909F908F900895EAE7F0E0808187683C
:100A00008083ECE7F0E08081806480830895EAE7EA
:100A1000F0E0808180648083808186FDFDCF8091BD
:100A2000780090917900089584E191E09F938F93ED
:100A30000E947E090F900F9015C00E94070520911B
:100A40008101309182012817390730F40E9407058F
:100A5000909382018093810183EF91E00197F1F7F8
:100A600000C000000E940705609181017091820121
:100A7000C2968617970708F7072E000C880B990B6C
:100A80000E946006AB01BC0180E090E00E948D0EE8
:100A900089E291E09F938F930E947E090F900F90BF
:100AA00008950E94940480E091E0909386018093E1
:100AB00085018FE391E00E9494090E94FC041AB81A
:100AC00080E88BB94F9903C00E9414050AC080E0EA
:100AD00090E00E94870E0E9422067093820160932C
:100AE00081018FEF84B90E94300482E090E00E947F
:100AF000D0000E946401AB01BC0185E491E00E943A
:100B0000B5040E940705BC0180E090E00E945E06EB
:100B10006B017C016091810170918201072E000CB4
:100B2000880B990B0E9460069B01AC01C701B601BE
:100B30000E94B00520E030E044EB53E40E943A0705
:100B4000AB01BC018EE491E00E94B5042FEF89E671
:100B500098E1215080409040E1F700C00000C9CFEB
:100B60000E94C4050C9400070E94F90658F00E94E8
:100B7000F20640F029F45F3F29F00C94D906511198
:100B80000C9434070C94DF060E94110768F3992334
:100B9000B1F3552391F3951B550BBB27AA27621779
:100BA0007307840738F09F5F5F4F220F331F441F86
:100BB000AA1FA9F335D00E2E3AF0E0E832D09150BA
:100BC0005040E695001CCAF72BD0FE2F29D0660FA7
:100BD000771F881FBB1F261737074807AB07B0E8EA
:100BE00009F0BB0B802DBF01FF2793585F4F3AF0F0
:100BF0009E3F510578F00C94D9060C9434075F3F62
:100C0000E4F3983ED4F3869577956795B795F79575
:100C10009F5FC9F7880F911D9695879597F908955D
:100C2000E1E0660F771F881FBB1F621773078407F9
:100C3000BA0720F0621B730B840BBA0BEE1F88F708
:100C4000E09508950E9429066894B1110C94340728
:100C500008950E94190788F09F5798F0B92F992797
:100C6000B751B0F0E1F0660F771F881F991F1AF097
:100C7000BA95C9F714C0B13091F00E943307B1E0C2
:100C800008950C943307672F782F8827B85F39F0C1
:100C9000B93FCCF3869577956795B395D9F73EF430
:100CA00090958095709561957F4F8F4F9F4F0895D8
:100CB00097FB16F40E94E2060C949C06E89409C087
:100CC00097FB3EF490958095709561957F4F8F4F7F
:100CD0009F4F9923A9F0F92F96E9BB279395F69595
:100CE000879577956795B795F111F8CFFAF4BB0F13
:100CF00011F460FF1BC06F5F7F4F8F4F9F4F16C077
:100D0000882311F096E911C0772321F09EE8872F00
:100D1000762F05C0662371F096E8862F70E060E0BC
:100D20002AF09A95660F771F881FDAF7880F969535
:100D3000879597F90895E894F92F96EBFF2381F0B2
:100D4000121613061406440B9395F695879577951E
:100D5000679557954040FF23B9F71BC09927089521
:100D6000882351F49850D2F7872B762F652F542F74
:100D7000432F322F20E0B1F3121613061406440B52
:100D800088233AF09A95440F551F661F771F881FD6
:100D9000CAF755234AF4440F551F11F460FF04C0ED
:100DA0006F5F7F4F8F4F9F4F880F9695879597F96D
:100DB000089597F99F6780E870E060E008959FEFDD
:100DC00080EC08959095809570956095509540952C
:100DD000309521953F4F4F4F5F4F6F4F7F4F8F4F54
:100DE0009F4F089500240A94161617061806090640
:100DF000089500240A941216130614060506089591
:100E0000092E0394000C11F4882352F0BB0F40F418
:100E1000BF2B11F460FF04C06F5F7F4F8F4F9F4F58
:100E2000089557FD9058440F551F59F05F3F71F0DA
:100E30004795880F97FB991F61F09F3F79F0879541
:100E40000895121613061406551FF2CF4695F1DFCA
:100E500008C0161617061806991FF1CF869571055A
:100E6000610508940895E894BB2766277727CB018E
:100E700097F908950E944D070C9400070E94F2060E
:100E800038F00E94F90620F0952311F00C94D90651
:100E90000C94DF0611240C9434070E94110770F3A0
:100EA000959FC1F3950F50E0551F629FF001729F0F
:100EB000BB27F00DB11D639FAA27F00DB11DAA1F1E
:100EC000649F6627B00DA11D661F829F2227B00D6B
:100ED000A11D621F739FB00DA11D621F839FA00DF6
:100EE000611D221F749F3327A00D611D231F849F46
:100EF000600D211D822F762F6A2F11249F5750409D
:100F00009AF0F1F088234AF0EE0FFF1FBB1F661F17
:100F1000771F881F91505040A9F79E3F510580F0E0
:100F20000C94D9060C9434075F3FE4F3983ED4F355
:100F3000869577956795B795F795E7959F5FC1F784
:100F4000FE2B880F911D9695879597F90895DB01E3
:100F50008F939F930E94B707BF91AF91A29F800D7F
:100F6000911DA39F900DB29F900D112408950E9492
:100F70004F09A59F900DB49F900DA49F800D911DCA
:100F800011240895B7FF0C94B7070E94B707821B7E
:100F9000930B0895DF93CF931F930F939A9DF02D9A
:100FA000219FF00D8B9DF00D8A9DE02DF10D039F8B
:100FB000F00D029FE00DF11D4E9DE00DF11D5E9DB7
:100FC000F00D4F9DF00D7F936F93BF92AF925F93A3
:100FD0004F93D5010E944F098B01AC01D7010E94AC
:100FE0004F09EB01E80FF91FD6010E941A082F9153
:100FF0003F91D6010E944F09C60FD71FE81FF91F66
:10100000AF91BF910E941A082F913F910E944F0902
:10101000C60FD71FE81FF91FD6010E944F09E60F20
:10102000F71F9801BE01CF0111240F911F91CF919D
:10103000DF9108950E944F09460F571FC81FD91FFF
:1010400008F431960895689401C0E894F92FF12BC3
:1010500012F00C945708A0E0B0E0E1E3F8E00C9443
:10106000C908092E059422F40E94B308112392F4B2
:10107000F0E80F26FFEFE094F09400951095B094FF
:10108000C094D094A194BF0ACF0ADF0AEF0AFF0AE6
:101090000F0B1F0B0E94620807FC0E94B308CDB71C
:1010A000DEB7ECE00C94E508689401C0E8948F92F8
:1010B0009F92CF93DF930E946208DF91CF919F9020
:1010C0008F90089588249924F401E401B0E49F935B
:1010D000AA279A158B049C04ED05FE05CF05D007C1
:1010E000A10798F4AD2FDC2FCF2FFE2FE92D982CE0
:1010F000892E982F872F762F652F542F432F322F2D
:101100002227B85031F7BF9127C01B2EBF91BB27B4
:10111000220F331F441F551F661F771F881F991FFB
:10112000881C991CEE1FFF1FCC1FDD1FAA1FBB1FB1
:101130008A149B04EC05FD05CE05DF05A007B10769
:1011400048F08A189B08EC09FD09CE09DF09A00BBD
:10115000B10B21601A94E1F62EF49401AF01BE01A7
:10116000CD01000C0895609570958095909530950F
:101170004095509521953F4F4F4F5F4F6F4F7F4F99
:101180008F4F9F4F08952F923F924F925F926F9291
:101190007F928F929F92AF92BF92CF92DF92EF9207
:1011A000FF920F931F93CF93DF93CDB7DEB7CA1B88
:1011B000DB0B0FB6F894DEBF0FBECDBF09942A88B3
:1011C000398848885F846E847D848C849B84AA845B
:1011D000B984C884DF80EE80FD800C811B81AA81E8
:1011E000B981CE0FD11D0FB6F894DEBF0FBECDBFB3
:1011F000ED0108950F93083090F0982F872F762FE8
:10120000652F542F432F322F22270850F4CF220F5F
:10121000331F441F551F661F771F881F991F0A958C
:10122000B2F70F91089597FB10F8169400080F93EA
:10123000083098F00850232F342F452F562F672F52
:10124000782F892F902DF4CF0594979587957795D2
:10125000679557954795379527950A95AAF70F9162
:1012600008952A0D3B1D4C1D5D1D6E1D7F1D801FA9
:10127000911F08952A193B094C095D096E097F09E0
:10128000800B910B08950024A7FD00942A173005C8
:101290004005500560057005800590050895A29FE2
:1012A000B001B39FC001A39F700D811D1124911D3A
:1012B000B29F700D811D1124911D0895EF920F931F
:1012C0001F93CF93DF93E80147FD02C034E001C0D4
:1012D00034E1042E000C550B57FF03C05195419586
:1012E0005109E32E022F242FAE010E94A50BCE013F
:1012F000DF91CF911F910F91EF900895A0E0B0E0A2
:10130000E4E8F9E00C94D308AE014B5F5F4FFA01BB
:1013100061917191AF0180918501909186010E9448
:10132000C409E2E00C94EF080F931F93CF93DF936F
:10133000E0918501F0918601238121FF1BC08C0182
:10134000D0E0C0E0F80181918F016091850170913A
:101350008601DB011896ED91FC911997882331F0F5
:101360000995892B79F3DFEFCFEFECCF8AE0099570
:10137000892B19F08FEF9FEF02C08D2F9C2FDF91EB
:10138000CF911F910F910895ABE0B0E0EAECF9E046
:101390000C94C3086C017B018A01FC011782168240
:1013A000838181FFCCC1CE0101963C01F60193817E
:1013B000F70193FD859193FF81917F01882309F4C3
:1013C000BAC1853239F493FD859193FF81917F01F4
:1013D000853229F4B60190E00E94ED0DE7CF912C03
:1013E000212C312CFFE1F315D8F08B3279F038F451
:1013F000803279F08332A1F4232D20611DC08D321B
:1014000061F0803369F4232D216016C0832D826042
:10141000382EE32DE4603E2E2AC0F32DF8601DC067
:1014200037FC2DC020ED280F2A3040F08E32B9F461
:1014300036FC81C1232D2064322E19C036FE06C031
:101440008AE0989E200D1124922E11C0EAE02E9E73
:10145000200D1124222EF32DF0623F2E08C08C3671
:1014600021F4832D8068382E02C0883641F4F701BC
:1014700093FD859193FF81917F018111B3CF982FC7
:101480009F7D9554933028F40C5F1F4F9FE3998301
:101490000DC0833631F0833771F0833509F059C0C0
:1014A00021C0F801808189830E5F1F4F88248394B7
:1014B000912C530113C02801F2E04F0E511CF8018A
:1014C000A080B18036FE03C0692D70E002C06FEFCE
:1014D0007FEFC5010E94E20D4C018201F32DFF77E1
:1014E0003F2E16C0280122E0420E511CF801A080B8
:1014F000B18036FE03C0692D70E002C06FEF7FEF50
:10150000C5010E94D70D4C01F32DF0683F2E8201DA
:1015100033FC1BC0822D90E088169906B0F4B6010A
:1015200080E290E00E94ED0D2A94F4CFF50137FCA3
:10153000859137FE81915F01B60190E00E94ED0D2B
:1015400021102A9421E0821A91088114910471F7E4
:10155000E8C0843611F0893641F5F80137FE07C03E
:1015600060817181828193810C5F1F4F08C060810F
:101570007181072E000C880B990B0E5F1F4FF32D06
:10158000FF763F2E97FF09C09095809570956195E5
:101590007F4F8F4F9F4FF0683F2E2AE030E0A3012E
:1015A0000E94290E882E861845C0853731F4232DD8
:1015B0002F7EB22E2AE030E025C0932D997FB92EE0
:1015C0008F36C1F018F4883579F0B5C0803719F03E
:1015D000883721F0B0C0E92FE061BE2EB4FE0DC007
:1015E000FB2DF460BF2E09C034FE0AC0292F2660EF
:1015F000B22E06C028E030E005C020E130E002C095
:1016000020E132E0F801B7FE07C06081718182817C
:1016100093810C5F1F4F06C06081718180E090E074
:101620000E5F1F4FA3010E94290E882E8618FB2DE6
:10163000FF773F2E36FE0DC0232D2E7FA22E89145C
:1016400058F434FE0BC032FC09C0832D8E7EA82EC8
:1016500005C0B82CA32C03C0B82C01C0B92CA4FE23
:101660000FC0FE01E80DF11D8081803321F49A2D19
:10167000997EA92E09C0A2FE06C0B394B39404C0FB
:101680008A2D867809F0B394A3FC11C0A0FE06C091
:10169000B21488F4280C922C9B180EC0B21460F47B
:1016A000B60180E290E00E94ED0DB394F7CFB21442
:1016B00018F42B1802C0982C212CA4FE10C0B601DF
:1016C00080E390E00E94ED0DA2FE17C0A1FC03C0D4
:1016D00088E790E002C088E590E0B6010CC08A2D52
:1016E000867859F0A1FE02C08BE201C080E2A7FC1F
:1016F0008DE2B60190E00E94ED0D891438F4B60138
:1017000080E390E00E94ED0D9A94F7CF8A94F30164
:10171000E80DF11D8081B60190E00E94ED0D811071
:10172000F5CF222009F442CEB60180E290E00E947B
:10173000ED0D2A94F6CFF6018681978102C08FEFD6
:101740009FEF2B96E2E10C94DF08A9E0B0E0EBEA12
:10175000FBE00C94C9086A01122FB02E2BE320176E
:1017600020F0FF24F394F00E02C02CE3F22E0F2D94
:1017700027E0AE014F5F5F4F0E94FF0CBC01498123
:10178000842F8970813031F0E1FC06C0E0FE06C094
:1017900090E205C09DE203C09BE201C090E05E2D97
:1017A000507143FF3CC0911102C083E001C084E04E
:1017B000811718F4212F281B01C020E051110BC004
:1017C000F601822F30E2882319F031938150FBCF4C
:1017D000C20ED11C20E0992329F0D6019C93F6017A
:1017E00031966F01C6010396E2FE0AC03EE4D601BF
:1017F0003C9341E411964C93119712963C9306C08A
:101800003EE6F601308341E641833283FC01322F0C
:1018100040E2332309F442C041933150FACF42FFF2
:1018200044C0911102C083E001C084E0811718F424
:10183000212F281B01C020E051110BC0F601822F7F
:1018400030E2882319F031938150FBCFC20ED11CB6
:1018500020E0992329F0D6019C93F60131966F017F
:10186000C6010396E2FE0BC039E4D6013C933EE488
:1018700011963C93119736E412963C9307C039E6D3
:10188000F60130833EE6318336E63283FC01322FA7
:1018900040E2332319F041933150FBCFFC01E20FBA
:1018A000F11D10828EEF9FEFA6C021E030E0911174
:1018B00002C020E030E0161617061CF4FB0131963A
:1018C00002C0E1E0F0E02E0F3F1FBB2021F0EB2D26
:1018D000F0E0319602C0E0E0F0E02E0F3F1FE12F74
:1018E000F0E02E173F071CF4121B212F01C020E04F
:1018F0008E2D887159F4F601822F30E2882319F079
:1019000031938150FBCFC20ED11C20E0992329F0E6
:10191000D6019C93F60131966F0151110BC0F6016F
:10192000822F90E3882319F091938150FBCFC20E50
:10193000D11C20E00F2D060F9A81342F307144FF07
:1019400003C0913309F40150101624F4093018F043
:1019500008E001C001E0AB0177FF02C040E050E0C9
:10196000FB01E41BF50BA1E0B0E0AC0FBD1FEA0FDB
:10197000FB1F8EE2A82E4B01801A91080B2D10E060
:101980001195019511094F3FBFEF5B0721F4D60177
:10199000AC9211966D01641775072CF084169506AC
:1019A00014F4818101C080E3415051093196D60180
:1019B00011967D014017510724F0D6018C936701E1
:1019C000E2CF6417750739F4963320F4953319F490
:1019D000311101C081E3F6018083F701822F90E28B
:1019E000882319F091938150FBCFF701E20FF11D8D
:1019F000108280E090E02996ECE00C94E508283015
:101A000008F027E03327DA01990F311D87FD916037
:101A100000966105710539F432602E5F3D9330E325
:101A20002A95E1F708959F3F30F0803871056105F0
:101A300009F03C5F3C5F3D93913008F08068911D58
:101A4000DF93CF931F930F93FF92EF92192F987FFD
:101A50009695E92F96959695E90FFF27EE53FF4F40
:101A600099273327EE24FF24A701E7010590089466
:101A7000079428F4360FE71EF81E491F511D660F04
:101A8000771F881F991F0694A1F70590079428F4E3
:101A9000E70EF81E491F561FC11D770F881F991F9B
:101AA000661F0694A1F70590079428F4F80E491FC5
:101AB000561FC71FD11D880F991F661F771F0694D9
:101AC000A1F70590079420F4490F561FC71FD81F90
:101AD000990F661F771F881F0694A9F784911095A8
:101AE000177041F0D695C79557954795F794E794A9
:101AF0001A95C1F7E8E6F0E06894159015913591D4
:101B00006591959105907FE27395E118F10A430B79
:101B1000560BC90BD009C0F7E10CF11E431F561F2D
:101B2000C91FD01D7EF4703311F48A95E6CFE89476
:101B3000015030F0080F0AF40027021708F4202F94
:101B40002395022F7A3328F079E37D932A95E9F7DC
:101B500010C07D932A9589F60694979567953795D9
:101B600017951794E118F10A430B560BC90BD009CE
:101B700098F023957E9173957A3308F070E37C9307
:101B80002013B8F77E9170617D9330F0839571E3F7
:101B90007D9370E32A95E1F71124EF90FF900F9168
:101BA0001F91CF91DF91992787FD90950895FC01B2
:101BB0000590615070400110D8F7809590958E0F78
:101BC0009F1F0895FC016150704001900110D8F7EB
:101BD000809590958E0F9F1F08950F931F93CF931D
:101BE000DF93FB01238121FD03C08FEF9FEF2CC00A
:101BF00022FF16C046815781248135814217530741
:101C000044F4A081B1819D012F5F3F4F3183208338
:101C10008C93268137812F5F3F4F3783268314C0F3
:101C20008B01EC01FB010084F185E02D0995892BE6
:101C3000E1F6D80116968D919C911797019617960B
:101C40009C938E931697CE01DF91CF911F910F91A8
:101C50000895FA01AA27283051F1203181F1E89442
:101C60006F936E7F6E5F7F4F8F4F9F4FAF4FB1E08F
:101C70003ED0B4E03CD0670F781F891F9A1FA11D8A
:101C8000680F791F8A1F911DA11D6A0F711D811D8B
:101C9000911DA11D20D009F468943F912AE0269F50
:101CA00011243019305D3193DEF6CF010895462FAF
:101CB0004770405D4193B3E00FD0C9F7F6CF462F90
:101CC0004F70405D4A3318F0495D31FD40524193F9
:101CD00002D0A9F7EACFB4E0A695979587957795B6
:101CE0006795BA95C9F700976105710508959B013D
:101CF000AC010A2E06945795479537952795BA95C6
:101D0000C9F7620F731F841F951FA01D0895A6E1D8
:101D1000B0E044E050E00C949C0E242F0E94AB0EE7
:101D2000252F0E94AB0E0C94950E0E94AA0E272F11
:101D30000C94AB0EDC01CB01FC01F999FECF06C07F
:101D4000F2BDE1BDF89A319600B40D924150504079
:101D5000B8F70895262FF999FECF1FBA92BD81BD1D
:101D600020BD0FB6F894FA9AF99A0FBE019608951D
:041D7000F894FFCF15
:101D74000000000200000000A50400000000203D57
:101D840020000A0043616C6962726174696F6E209D
:101D940073746172746564210043616C6962726179
:101DA40074696F6E20636F6D706C65746521004893
:101DB400656C6C6F0050726573737572650057695A
:0A1DC4006E6420416E676C6500003C
:00000001FF
