S01E00004D6574656F726F6C6F676963616C2053746174696F6E2E737265634E
S11300008AC10000A7C10000A5C10000A3C100006F
S1130010A1C100009FC100009DC100009BC1000060
S113002099C100000C94DA0E95C1000093C1000040
S11300300C9424288FC100008DC100008BC10000E6
S113004089C1000087C1000085C1000083C1000090
S113005081C100007FC100007DC100007BC10000A0
S113006079C1000077C1000075C1000073C10000B0
S113007071C100006FC100006DC100006BC10000C0
S113008069C1000067C1000065C1000004240B249D
S11300905D257B245D255D255D2556255D255D2536
S11300A05D255D255D255D255D255D255D255D253C
S11300B05D255D255D255D255D255D255D255D252C
S11300C05D255D255D255D255D255D255D255D251C
S11300D05D255D255D255D255D255D255D255D250C
S11300E05D255D255D255D255D255D255D255D25FC
S11300F008250E251F25302544256364696E6F701D
S1130100737578585B0000407A10F35A00A0724E61
S113011018090010A5D4E80000E87648170000E4A8
S11301200B54020000CA9A3B000000E1F5050000F0
S113013080969800000040420F000000A086010055
S11301400000102700000000E80300000000640025
S1130150000000000A000000000001000000000090
S11301602C76D888DC674F0823DFC1DFAE59E1B1B4
S1130170B796E5E3E453C63AE651997696E8E6C2C3
S11301808426EB898C9B62ED407C6FFCEFBC9C9FCA
S113019040F2BAA56FA5F490055A2AF75C936B6CEC
S11301A0F9676DC11BFCE0E40D47FEF520E6B500E0
S11301B0D0ED902E0300943577050080841E08004E
S11301C000204E0A000000C80C333333330F986EFE
S11301D012831141EF8D2114893BE65516CFFEE6BB
S11301E0DB18D1844B381BF77C1D901DA4BBE42481
S11301F0203284725E228100C9F124ECA1E53D27FE
S11302000D0A436F6E74656E742D547970653A20CF
S11302106170706C69636174696F6E2F782D777784
S1130220772D666F726D2D75726C656E636F646584
S1130230640D0A0D0A00436F6E74656E742D4C656F
S11302406E6774683A20000D0A557365722D416714
S1130250656E743A207467722F312E310D0A416332
S1130260636570743A202A2F2A0D0A000D0A0020B3
S1130270485454502F312E310D0A486F73743A206C
S113028000504F535420000D0A557365722D416779
S1130290656E743A207467722F312E310D0A4163F2
S11302A0636570743A20746578742F68746D6C0D8E
S11302B00A0D0A0020485454502F312E310D0A489B
S11302C06F73743A2000474554200000010800066B
S11302D004000145000082000040002043616C6975
S11302E062726174696F6E20636F6D706C657465A2
S11302F0210A0043616C6962726174696F6E2073D4
S1130300746172746564210A00496E697469616C70
S1130310697A696E670011241FBECFEFD0E4DEBF97
S1130320CDBF12E0A0E0B1E0ECE3F6E700E00BBFE4
S113033002C007900D92AA3BB107D9F726E0AAEBB9
S1130340B2E001C01D92A83BB207E1F70E94DB288E
S11303500C941C3B55CECF93DF93529A5A9884E762
S11303600E9464278FEF0E94642784EF0E94642711
S113037087E50E9464275A9A62E070E088E80E9448
S11303809727C9EAD3E09983888362E070E08AE81A
S11303900E94B6279B838A8362E070E08CE80E9407
S11303A0B6279D838C8362E070E08EE80E949727D5
S11303B09F838E8362E070E080E90E94B62799876C
S11303C0888762E070E082E90E94B6279B878A876B
S11303D062E070E084E90E94B6279D878C8762E022
S11303E070E086E90E94B6279F878E8762E070E0FE
S11303F088E90E94B627998B888B62E070E08AE9CD
S11304000E94B6279B8B8A8B62E070E08CE90E9485
S1130410B6279D8B8C8B62E070E08EE90E94B62734
S11304209F8B8E8BDF91CF9108952F923F924F92A5
S11304305F926F927F928F929F92AF92BF92CF9270
S1130440DF92EF92FF920F931F93CF93DF93CDB779
S1130450DEB76F970FB6F894DEBF0FBECDBF22E0B4
S113046030E046E0BE016F5F7F4F87EF0E946A274E
S113047089808D8E9A809E8E8B808F8E8C8190E069
S1130480A0E0B0E0AC01BD01032E3CE0440F551FD9
S1130490661F771F3A95D1F7302D9D81892F90E003
S11304A0A0E0B0E0880F991FAA1FBB1F880F991FF7
S11304B0AA1FBB1F880F991FAA1FBB1F880F991F54
S11304C0AA1FBB1F842B952BA62BB72B2E81822B07
S11304D00F2EF9EA6F2EF3E07F2EF02DF301408109
S11304E0518160E070E06C017D01689413F8F5942B
S11304F0E794D794C7941694D1F7C41AD50AE60A98
S1130500F70A689412F8B595A79597958795169468
S1130510D1F7440F551F661F771F4C015D01841AE4
S1130520950AA60AB70AA5019401A281B3810E9483
S11305302D2E4B015C01072E7BE0B594A794979474
S113054087947A95D1F7702DA7019601C701B6015A
S11305500E94E92D9B01AC01012E1CE055954795A5
S1130560379527951A95D1F7102DA481B5810E944E
S11305702D2EDC01CB01072E7EE0B595A79597952E
S113058087957A95D1F7702D880D991DAA1DBB1DED
S11305908093CA039093CB03A093CC03B093CD0371
S11305A06C017D01FF0CCC08DC2C7601282F392F3F
S11305B04A2F5B2F6C2D7C2D8C2D9C2D345F41405C
S11305C0510961097109810991092F833A874B8780
S11305D05C876D877E878F87988BA22EB32EC42E5F
S11305E0D52EE62EF72E082F192F0E94332E298B95
S11305F03A8B4B8B5C8B698F7A8F8B8F9C8FD3015B
S113060019963C91199718962C91932F990F990B41
S1130610492F592F692F792F892F0E94332E0CE0EF
S11306200E94542F222E332E442E552E688779870C
S1130630882E992EF30133852285932F990F990BD8
S1130640A988BA88CB88DC88E98CFA8C0B8D1C8D40
S1130650492F592F692F792F892F0E94332E08E0B3
S11306600E946D2FA22CB32CC42CD52CE884F984C1
S1130670082D192D0E948B2F70588F4F9F4FD30137
S113068016962D903C901797A22CB32CC12CD12CEC
S1130690E12CF12C00E010E00E94332E01E20E94D4
S11306A06D2F288739874D8B5E8B6F8B788F582EF3
S11306B0492EA0E00E949D2F09F465C10F2EF9EA8E
S11306C02F2EF3E03F2EF02DF10131892089932F55
S11306D0990F990BA988BA88CB88DC88E98CFA8CA5
S11306E00B8D1C8D492F592F692F792F892F0E942B
S11306F0332E298B3A8B4B8B5C8B662E772E882E70
S1130700992ED1011F963C911F971E962C91932FE1
S1130710990F990BAF80BA84CB84DC84ED84FE847A
S11307200F851889492F592F692F792F892F0E94F6
S1130730332E01E10E94542FA988BA88CB88DC8823
S1130740E62CF72C082D192D0E948B2FA22EB32EE8
S1130750C42ED52EE62EF72E8F83192F8D8C482D7F
S113076050E060E070E0DB01CA01072E7CE0880FF6
S1130770991FAA1FBB1F7A95D1F7702D9E8C492D06
S113078050E060E070E0440F551F661F771F440F70
S1130790551F661F771F440F551F661F771F440F91
S11307A0551F661F771F482B592B6A2B7B2B8F8C69
S11307B0482980E090E0A0E1B0E0841B950BA60BF3
S11307C0B70B3C014D01990C6608762C4301282F88
S11307D0392F4A2F5B2F662D762D862D962D0FE10E
S11307E00E94542F622E732E842E952EB62FA72F7F
S11307F08A879B87F10135852485932F990F990B5F
S1130800492F592F692F792F892F03E20E94542FE2
S11308100F810E948B2FA22EB32EC42ED52EE62E2E
S1130820F72E082F192F262D372D482D592D6B2FD4
S11308307A2F8A859B850E94942F0F2EF5E3AF2E85
S1130840F02D0F2EFCE0BF2EF02DC12CD12CE12C6D
S1130850F12C00E010E00E94332EA884B984CD88E6
S1130860DE88EF88F88C052D142D0E94862E2F83A8
S11308703A874B875C876D877E878F87988B0DE0DF
S11308800E946D2F922E832E742E652E562E472E87
S113089088879987D10157963C91579756962C9102
S11308A0932F990F990BA92CB82CC72CD62CE52C77
S11308B0F42C082F1985492F592F692F792F892F47
S11308C00E94332E0E94332E09E10E946D2FAF80C7
S11308D0BA84CB84DC84ED84FE840F8518890E945D
S11308E08B2F28873987442E552E662E772E882EF7
S11308F0992EF10135892489932F990F990B492F4A
S1130900592F692F792F892F0E94332E03E10E94DA
S11309106D2FA22EB32EC42ED52EE62EF72E082F21
S1130920192F28853985442D552D662D772D882D31
S1130930992D0E948B2F08E00E946D2FA22EB32EBA
S1130940C42ED52EE62EF72EE82F192FD10153965B
S11309503C91539752962C91932F990F990B492FB1
S1130960592F692F792F892F04E00E94542F0E2FBD
S11309700E948B2F0E947E2C20E030E040E85BE355
S11309800E94862D03C060E070E0CB016F960FB625
S1130990F894DEBF0FBECDBFDF91CF911F910F91B1
S11309A0FF90EF90DF90CF90BF90AF909F908F908B
S11309B07F906F905F904F903F902F900895FC012F
S11309C06634710508F473C083A1853309F071C0DE
S11309D084A1803E09F06FC085A19091C002891363
S11309E06CC093A589136BC085A58F78803829F0D6
S11309F081E08093BA0280E0089592A5945F6153E8
S1130A007109DF01A90FB11D9A968C91807C71F058
S1130A109E5F11C081E0890FDF01A80FB11D9A9676
S1130A202C91211102C09E5F06C0982F292F30E01F
S1130A302617370778F3292F30E0DF01A20FB31F01
S1130A409B968C91813099F088E0890FDF01A80F83
S1130A50B11D9B968C91965F980F292F30E0261735
S1130A60370778F283E08093BA0280E00895DF01CB
S1130A70A20FB31FD3962C91243029F082E08093E7
S1130A80BA0280E008952AE0290F30E0265D3F4F46
S1130A90E20FF31FABEBB2E02FEB32E091919D93A9
S1130AA0A217B307D9F791E09093BF02089580E0AD
S1130AB0089580E0089580E0089580E0089580E03E
S1130AC008952A98962F6F71862B8EBD0DB407FE5C
S1130AD0FDCF1EBC0DB407FEFDCF992324F41EBC2C
S1130AE00DB407FEFDCF2A9A8EB508952A986F712A
S1130AF0862B8EBD0DB407FEFDCF4EBD0DB407FE93
S1130B00FDCF2A9A0895FB012A982AE32EBD0DB43D
S1130B1007FEFDCF009769F0DF01A80FB91F1EBCC7
S1130B200DB407FEFDCF9EB59193EA17FB07B9F705
S1130B3001C0DF011C922A9A0895FB012A982AE732
S1130B402EBD0DB407FEFDCF09C09F01280F391F2C
S1130B5091919EBD0DB407FEFDCF03C00097A9F788
S1130B6003C02E173F07A1F72A9A08951F93CF9326
S1130B70DF93182F1076C12FD0E08091C30290E04C
S1130B80C817D907A1F043E06FE180EAAFDFAE01F7
S1130B905595479555954795559547955595479539
S1130BA0559547956FE180E8A1DF1093C302DF916B
S1130BB0CF911F910895CF93C82FD8DF6C2F80E079
S1130BC080DFCF910895CF93DF93C82FD62FCEDF48
S1130BD04D2F6C2F80E48ADFDF91CF910895CF935E
S1130BE0682F84EDF0DF61E082EDEDDF8AEEE3DF74
S1130BF080FDFCCF60E082EDE6DF89EDDCDFC82F0D
S1130C0088EDD9DF2C2F30E0322F2227A901482B81
S1130C10CA01CF910895CF93DF93D62FC72F682FA2
S1130C2084EDD1DF6D2F86EDCEDF6C2F87EDCBDF2A
S1130C30C8E203C08C2F8A95F1F78AEEBCDF80FDF1
S1130C40F9CFDF91CF910895682F677085E7BBCF07
S1130C500895CF93DF93EC01229A2A9A84B1886293
S1130C6084B924982B982D9880E58CBD8DB581602E
S1130C708DBD4FEF60E08FEF39DF80E090E00197AA
S1130C80F1F71092C2021092C10260E088E09BDF8B
S1130C9060E089E098DF60E08CE095DF60E08DE063
S1130CA092DF6FEF8AE08FDF69E18BE08CDF60E039
S1130CB084E089DF6AE185E086DF6FEF86E083DF29
S1130CC06FE187E080DF60EB88E37DDF6FE388E23C
S1130CD07ADF60E389E277DF69EF80E374DF67EF4F
S1130CE081E371DF6DE080EC6EDF60E081EC6BDF4F
S1130CF042E362EC80E8FADE62E186EC64DF6CE0F9
S1130D0087EC61DF62E184EC5EDF6CED8AEC5BDF33
S1130D1065E08BEC58DF688184EE55DF698185EEF0
S1130D2052DF6A8182EE4FDF6B8183EE4CDF6C8190
S1130D3080EE49DF6D8181EE46DF60E071E080E1A5
S1130D406ADF8FE113DF40EC6BE180E8CFDE44E043
S1130D506FE180E8CBDEDF91CF91089581E13FDF41
S1130D6092FB882780F908950F931F93CF93DF9305
S1130D70EC018B016FE180E0A4DE83FDFBCF8CE10D
S1130D801ADF81FF10C040E86FE180E8AFDE40E881
S1130D906FE180EAABDE42E06CE180EAA7DE80E34B
S1130DA095E70197F1F760E082E00DDF6AE183E007
S1130DB00ADF6C2F86E007DFCE01965E692F87E09D
S1130DC002DF40E060E08AE791DEB801CE01B5DEE3
S1130DD048E06FE180E88ADEDF91CF911F910F91A7
S1130DE00895AF92BF92CF92DF92EF92FF920F934A
S1130DF01F93CF93DF936C017B0189E3DCDE8823AF
S1130E0009F456C06091C102C091C20280E0DBDEE9
S1130E106C2F81E0D8DE60E08AE353DEC82F60E007
S1130E208AE34FDED0E0D82BD093C202C093C10234
S1130E3060E08AE346DEB82E60E08AE342DEA82E54
S1130E4060E08AE33EDE082F60E08AE33ADE07FFD3
S1130E5010C081E0C81AD1080B2D10E01A290450E3
S1130E601109C016D10608F48601B701C8014BDE8A
S1130E7002C000E010E07E0181E0E81AF108E1140C
S1130E808AE1F8063CF06FEF8CE09DDE69E18DE0CD
S1130E909ADE07C06C2F61508CE095DE6F2D8DE0DB
S1130EA092DE40E46EE180E821DE802F912F02C0C3
S1130EB080E090E0DF91CF911F910F91FF90EF9030
S1130EC0DF90CF90BF90AF900895CF92DF92EF92D2
S1130ED0FF920F931F93CF93DF93EA0189019091BF
S1130EE0DC02981761F0E091D902F091DA0240E057
S1130EF050E060E070E084EF91E009955EC061111C
S1130F005CC02D30310508F458C0E090D902F0904F
S1130F10DA02E114F10409F450C0C090CD02D0907B
S1130F20CE02F601E40FF51F808590E00E942A317D
S1130F30892BB9F1F601EC0FFD1F218530E0205318
S1130F4031092A30310580F5F601EC0FFD1F838548
S1130F5090E0AC01405351094A30510540F5C901B4
S1130F60880F991F220F331F220F331F220F331FA5
S1130F70280F391FF601EC0FFD1F828590E0C09702
S1130F80280F391FC901880F991F220F331F220F01
S1130F90331F220F331F280F391FCA01820F931FDB
S1130FA008C080E090E005C080E090E002C080E0EE
S1130FB090E0A801BE01F701099580E0DF91CF918F
S1130FC01F910F91FF90EF90DF90CF900895CF92F3
S1130FD0DF92EF92FF92CF93DF93EC01DB0141307C
S1130FE061F46B0188E0C81AD108E12CF12C81E18D
S1130FF0C80ED11CE11CF11C11C0423061F46B011C
S113100088E0C81AD108E12CF12C86E0C80ED11C66
S1131010E11CF11C03C0C12CD12C7601A230B10516
S1131020F0F09D01FE01408150E060E070E0762F19
S1131030652F542F44278181482BC40ED51EE61EEC
S1131040F71E3296225031092230310560F7CD0166
S113105002978E7F0296C80FD91FA170BB27AB2BB6
S113106061F0888190E0A0E0B0E0BA2FA92F982F1A
S11310708827C80ED91EEA1EFB1EA70166277727FC
S1131080411551056105710571F0EE24FF24C40E6C
S1131090D51EE61EF71EA7016627772741155105C1
S11310A06105710591F7C60180959095DF91CF9107
S11310B0FF90EF90DF90CF900895009741F026E0E5
S11310C0FC01A5EFB2E001900D922A95E1F7089595
S11310D0CF93DF93FC0130812091F10223273091DB
S11310E00101232391F43196C2EFD2E0A2E0B1E0F2
S11310F0AC014C5F5F4F819129919D918227892397
S113110031F4E417F507B9F703C081E001C081E0C9
S1131110DF91CF910895FC01328DFB0120813213C0
S11311200DC0DC015B9631964E963D9121913213B0
S113113007C0A817B907C9F781E0089580E00895AA
S113114080E0089569327105C8F0FC0124852830D7
S1131150B9F425852630B1F436A12091F102321379
S113116013C0B796A2EFB2E08A9631912D91321353
S11311700DC0E817F907C9F781E0089580E00895E4
S113118080E0089580E0089580E0089580E0089567
S1131190CF93DF93FC016A327105E0F084858830D7
S11311A0D9F4858581111AC096859534C1F4268DAC
S11311B09091F102291313C0DF015F96C2EFD2E0D0
S11311C0B2962D91999129130AC0AE17BF07C9F79A
S11311D081E005C080E003C080E001C080E0DF91D1
S11311E0CF910895FC01A5EFB2E09C012A5F3F4F27
S11311F0868181938D918583E217F307C9F708955A
S1131200CF93DF93EC01188E198E80E48C8B1D8AAA
S11312108E8B40E064E170E0CE010E96D8DE988FAC
S1131220898FDF91CF910895AC01A1EFB2E0FC0169
S11312307A9625EF32E0908194839D919193A21741
S1131240B307C9F7CA01DCCF0895FC01BA968696A4
S11312502291620F711D24816483442311F0208341
S113126001C01082672F7727E817F90789F70895D7
S1131270CF93DF93EC018CA19AA19CA38AA38DA1A7
S11312809BA19DA38BA3CE01E0DF1AAA1BAA80E534
S11312908EA7DF91CF910895CF93DF93EC01A2DF66
S11312A01C8A82E08D8BA5EFB2E0FE0176962BEFCF
S11312B032E0808182878D918193A217B307C9F7A9
S11312C0A1EFB2E0FE017C9625EF32E080818287B7
S11312D08D918193A217B307C9F7BE018AE290E00A
S11312E043DDDF91CF9108950F931F93CF93DF9345
S11312F0EC018B0177DFCE0197DF1AA28CA1883F26
S113130018F09DA19F5F9DA3885F8CA3BE01C801B7
S11313102BDDDF91CF911F910F910895FC0120895E
S113132030E0322F22278189282B2451310986A5C8
S113133082958F70A90164E0869F40195109112498
S1131340CA01992314F480E090E008959A012F5F74
S11313503F4FFA014491442369F0FB01F696DC0106
S1131360AE0FBF1FF9014D936F5F7F4F44913196CC
S11313704111F9CFCB010895222391F0A42FB52F69
S1131380AB014A5C5F4FFC01E40FF51F922F3D91C6
S113139031939150E1F72150620F711D6F5F7F4FC0
S11313A0CB010895FA0101900020E9F731979F01DC
S11313B0241B350BE1CF0895EF92FF920F931F93F7
S11313C0CF93DF9300D000D01F92CDB7DEB79091BA
S11313D0DC029813A5C08091DB0281112AC0009120
S11313E0CD021091CE0246EC52E060E070E0C801FC
S11313F0ADDF4091D3025091D402BC01C801A6DFF5
S11314004091D1025091D202BC01C801CBDF44EB20
S113141052E0BC01C8019ADF4091CF025091D00242
S1131420BC01C80193DF47E852E0BC01C8018EDF6C
S113143079C0813009F068C00091CD021091CE02CC
S113144041E852E060E070E0C80180DF4091D302DF
S11314505091D402BC01C80179DF4091D10250916E
S1131460D202BC01C8019EDF4FE652E0BC01C801B4
S11314706DDF4091CF025091D002BC01C80166DFFC
S1131480E090D702F090D802E114F10449F04CE660
S113149052E0BC01C8015ADFA701BC01C80156DFF4
S11314A047E452E0BC01C80151DF46E352E0BC010D
S11314B0C8014CDF7C01E091D502F091D602DF0136
S11314C00D900020E9F7CD0101974AE0BE016F5F5E
S11314D07F4F8E1B9F0B0E9453310091CD021091C0
S11314E0CE02AE014F5F5F4FB701C8015BDF40E042
S11314F052E0BC01C8012ADF4091D5025091D602C6
S1131500BC01C8014FDF0EC04091D1025091D202FC
S113151060E070E08091CD029091CE0243DF02C082
S113152080E090E00F900F900F900F900F90DF915C
S1131530CF911F910F91FF90EF900895FF920F9319
S11315401F93CF93DF93EC018B01F42E4BDE8F2D91
S113155080618FA784E0F81205C041E0B801CE0194
S113156087DE09C00115110511F401E010E041E026
S1131570B801CE017DDE188A88E2898BCE0154DE63
S113158084E088AB19AA42E06CE170E0CE014A968F
S11315901EDD9AAB8BABBE0186E390E0E5DBDF9109
S11315A0CF911F910F91FF9008950F931F93CF93A5
S11315B0DF93EC018B01CB018896988B898BCE014C
S11315C01FDE1AAA1BAAB801645E7F4F42E0CE0157
S11315D04A96FDDC9AAB8BABBE01C801C696C4DB50
S11315E0DF91CF911F910F9108959C0161157105B1
S11315F051F0DB01E1EFF2E045EF52E09D91919370
S1131600E417F507D9F72115310511F0C90155CDB6
S113161008959093C602809305010895CF93DF93B4
S1131620EC01E0DD188A8CE2898BCE01FDDD82E1DC
S11316308FA740E061E070E0CE011ADE1EA21FA277
S11316408091090188A719A68D5F8093090182E022
S11316508EAB84E08FAB85E088AF19AE80E68EA7B1
S11316608AE088AB19AA42E060E270E0CE014A96B3
S1131670AEDC9AAB8BABBE018AE390E075DBDF9105
S1131680CF910895DC01FA016115710541F0680FED
S1131690791F84918D9331966A177B07D1F708954A
S11316A0CF92DF92EF92FF920F931F93CF93DF932A
S11316B07C018091F1028823C1F1D701C5EFD2E00A
S11316C00BEF12E0FE012FEF2D93919115969C9351
S11316D015970E171F07C1F7D72EC62E88E0F701FE
S11316E0848786E085874BEC52E068E070E0C701B0
S11316F00E96C8DFF70176968991819311860C17AF
S11317001D07D1F7CC2DDD2DA1EFB2E0F7017C96BA
S113171025EF32E0899182878D918193A217B307D7
S1131720C9F7B7018AE290E01FDBDF91CF911F91E7
S11317300F91FF90EF90DF90CF90089581E090910A
S1131740C802923009F480E008955093CF03409387
S1131750CE0321E02093C8026093C702DC01E9ECC8
S1131760F2E02DEC32E08D918193E217F307D9F783
S11317700895DF92EF92FF920F931F93CF93DF931D
S1131780EC01F62EE42ED52EA4EEB2E0BC0185EFDA
S113179092E04AEE52E02D91FB012193BF01FC013E
S11317A02191CF01FB012583A417B507A1F788E098
S11317B08C871D8643ED52E069E070E0CE010E9601
S11317C061DF8CE2898B809100018B8B8F5F80932A
S11317D0000186E08F8BAAEEB2E081EF92E08E01E9
S11317E0065E1F4FB8014EEE52E02D91FB0124839B
S11317F0FC012191CF01FB012193BF01A417B5077F
S1131800A1F7CE01FDDCDCA2EDA28BE08AA3FBA252
S1131810FE01B696CE018E9611928E179F07E1F7C0
S11318208091090188A78D5F8093090180E68EA7C6
S113183082E08FA793E098AB19AA1AAA1BAA1CAA44
S11318401DAA8EAB94E09FAB88AF8EEE89AF42E0C9
S113185060E270E0C801BBDB9AAB8BABBE018AE3EC
S113186090E082DADF91CF911F910F91FF90EF907A
S1131870DF9008950F931F939093E0028093DF020B
S11318807093DE026093DD02A22FB32FEAEEF2E042
S11318902EEE32E08D918193E217F307D9F7A02F52
S11318A0B12FE4EEF2E02AEE32E08D918193E2175B
S11318B0F307D9F75093E2024093E10281E0809369
S11318C0E3028091EE028F5F883018F48093EE0279
S11318D002C01092EE028091EE021F910F910895C2
S11318E08F929F92AF92BF92CF92DF92EF92FF922C
S11318F00F931F93CF93DF934C015B017A0169012E
S1131900E8012CDA8823A9F09092D2028092D102C5
S113191082E08093DB02B092DA02A092D9028601BF
S11319209701AE016CED79E085E697E0A3DF809343
S1131930DC02DF91CF911F910F91FF90EF90DF9028
S1131940CF90BF90AF909F908F900895DF92EF92C9
S1131950FF920F931F93CF93DF938C01EB0120979A
S113196009F050C08091C802893069F48091060161
S113197090910701892BD9F4F1D9882321F069ECDE
S113198072E0C8018DDE8091C802813081F4E6D90D
S1131990882369F069EC72E0C80182DE8091C80294
S11319A088608093C802109207011092060180910A
S11319B00601909107010196909307018093060117
S11319C08091E302813009F096C1C8D9882309F4D3
S11319D095C182E08093E302809108018F5F809338
S11319E008014091E1025091E2026091EE0290E21E
S11319F0699FB00111248F71682BC801BADEE12CF4
S1131A00F12CB0C19FDB882369F1D80155968C91E4
S1131A10813011F4C80140DC8091C80283FF71C198
S1131A20F8018589823009F06FC144E050E069EC27
S1131A3072E0C8014C960E943131892B09F067C1CC
S1131A40A8014A5E5F4FE091CE03F091CF0360910D
S1131A50C70289EC92E0099582E08093C802E12CE8
S1131A60F12C80C1BE01C80193DB882309F452C163
S1131A70D80157968C9157978130A1F492968C9106
S1131A80883009F04AC1E091EF02F091F0023097FA
S1131A9019F0C8014A960995BE01C80125DCE12C5C
S1131AA0F12C60C1C633D10508F43AC1863009F07F
S1131AB03AC1F80184A18B3009F0E7C01093CE023B
S1131AC00093CD026AEE72E0C80125DB882309F495
S1131AD02DC1D8019F96DC909F97D2FE17C0E0914C
S1131AE0DF02F091E002309759F095968C9120E056
S1131AF030E040E050E063E0829586958770099578
S1131B0086E08093E302E12CF12C2CC1C80106DCB1
S1131B107C018091E3028230C1F59D2D90718D2D61
S1131B208271823109F540E060E070E0C80106DDB1
S1131B3088E1F80187A7E091DD02F091DE02309799
S1131B4041F0D80193968C9182958695877009957A
S1131B5002C080E090E023E02093E302BC01C801CE
S1131B6024DDE12CF12CFEC081E08093E30291118D
S1131B7004C0B7016F5F7F4F02C060E070E044E0D3
S1131B80C801DCDCE12CF12CEDC0833009F03EC04F
S1131B90E114F10409F4DFC084E08093E302E091EE
S1131BA0DF02F091E002309709F454C0D8019E9608
S1131BB04C9142954F70B4E04B9FA0011124CE018B
S1131BC008974E5D5F4F8417950708F4AC01C70171
S1131BD0840F951FC817D90720F49E01241B350BC9
S1131BE001C09701D80195968C9160E08295869505
S1131BF087700995882351F049E0B701C8019EDC3C
S1131C0085E08093E302E12CF12CACC08091E302E7
S1131C10853051F4F80187A584FF8BC086E080935A
S1131C20E302E12CF12C9EC08630A1F4D8019F96EA
S1131C308C9184FD04C0B7016F5F7F4F02C060E0E8
S1131C4070E044E0C8017ADC87E08093E302E12C91
S1131C50F12C88C0F80187A580FF0CC0B7016F5F25
S1131C607F4F41E0C8016ADC85E08093E302E12C08
S1131C70F12C78C0E114F10409F45EC040E0B7012E
S1131C80C8015CDCE12CF12C6DC09091C602891373
S1131C9056C095A180910501981354C0D7A4D1FED4
S1131CA005C0C801BBDCE12CF12C5CC0D4FE4DC0E6
S1131CB0C80134DB7C019093C5028093C402892B54
S1131CC041F4D0FE4FC040E060E070E0C80136DC73
S1131CD049C0F801E6A4E694E694E694E694F4E0B8
S1131CE0EF9E7001112482E2E80EF11C2897CE15B4
S1131CF0DF0570F137C0E12CF12C34C0E12CF12C5C
S1131D0031C0E12CF12C2EC0E12CF12C2BC0E12CA4
S1131D10F12C28C0E12CF12C25C0E12CF12C22C09F
S1131D20E12CF12C1FC0E12CF12C1CC0E12CF12C76
S1131D3019C0E12CF12C16C0E12CF12C13C0E12CBC
S1131D40F12C10C0E12CF12C0DC0E12CF12C0AC0B7
S1131D50E12CF12C07C0D8019F968C9180FD7ECF99
S1131D60E12CF12CC701DF91CF911F910F91FF90CE
S1131D70EF90DF9008950895613059F4A42FB52FA2
S1131D80E5E8F3E02BE833E08D918193E217F30764
S1131D90D9F708951092FE0282E0809370001092A9
S1131DA0B20094EF9093B3008093B00087E08093E7
S1131DB0B10008951F920F920FB60F9211248F93C2
S1131DC08091FE028F5F8093FE028091FE02833336
S1131DD038F01092FE028091FF028F5F8093FF0221
S1131DE08F910F900FBE0F901F901895CF92DF9296
S1131DF0EF92FF920F931F93CF93DF936C0181E0D7
S1131E008093FD0260E073E080E890E00E94F106B8
S1131E107C0110928003BC0180E093E097DDEC012B
S1131E20E114F10491F48091FC02813071F4109278
S1131E30FF021092FC0200E510E025E833E041E8DF
S1131E4053E06BEB7EE0C6014BDD8091FF0290E036
S1131E5020910C0630910D062817390728F41092AA
S1131E60FD0281E08093FC02209731F4B70180E009
S1131E7093E00E94DF045BC0C050DD4F4EE050E0B1
S1131E80BE018DE491E00E944531892BD9F48CE0A8
S1131E9096E09F938F938CE591E09F938F93DF93CC
S1131EA0CF930E94C23260910C0670910D0680E1BE
S1131EB090E00E94193B0F900F900F900F900F909D
S1131EC00F9035C04DE050E0BE018EE691E00E94D7
S1131ED04531892B61F585E096E09F938F9386E0E9
S1131EE096E09F938F9387E096E09F938F938BE088
S1131EF096E09F938F938AE096E09F938F9389E077
S1131F0096E09F938F938CE791E09F938F93DF9359
S1131F10CF930E94C23285E096E00E9452268DB78C
S1131F209EB740960FB6F8949EBF0FBE8DBFDF914B
S1131F30CF911F910F91FF90EF90DF90CF90089574
S1131F40CF93DF93E1E6F0E080E880831082C0E085
S1131F508C2F8A95F1F782E291E00E94290681E0B4
S1131F600E942406CA95F1F715DF789466E774E0B9
S1131F7084E10E940B066EE171E082E291E035DBC0
S1131F8080E590E046DB4CEB5EE061E08AE091E0C6
S1131F90DCDB0AC060E073E080E890E00E94F106B8
S1131FA0BC0180E093E0D2DCC9DB8111F3CF6EE0A9
S1131FB071E081E893E028D082E08093FB02D3E0D3
S1131FC0C4E002C0823091F481E893E081D8882390
S1131FD021F084E08093FB0214C04CEB5EE062E0ED
S1131FE081E893E0B2DBD093FB0207C0833029F48D
S1131FF0A5DB811102C0C093FB028091FB028430F7
S113200009F7DF91CF910895AF92BF92DF92EF92DB
S1132010FF920F931F93CF93DF9300D000D0CDB7DF
S1132020DEB7FC011082118212821382DB019C91C3
S1132030992309F448C07F018B010F5F1F4FD12CF6
S113204020E0233078F4492F50E0405351094A30BE
S1132050510540F4E1E0F0E0EC0FFD1FE20FF11D4B
S113206090832F5F2223A1F09E3291F4E1E0F0E00F
S1132070EC0FFD1FE20FF11D10825701AD0CB11CD6
S1132080CE0101960E940231F5018083D39420E0B1
S1132090D8019D918D01992319F0B3E0BD1588F6FF
S11320A0E3E0DE1212C0E1E0F0E0EC0FFD1FE20F0E
S11320B0F11D1082CE0101960E940231D7011396C0
S11320C08C9380E003C081E001C081E00F900F9009
S11320D00F900F90DF91CF911F910F91FF90EF9090
S11320E0DF90BF90AF900895CF93DF9342305105B6
S11320F0C0F0DB01FC019A01CD91DD91C193D19334
S11321002250310922303105B8F79A0122503109A1
S11321102E7F2E5F3F4F820F931F620F731F4170FC
S113212055274115510549F0DB01FC01480F591FA2
S11321309D919193E417F507D9F7DF91CF91089515
S1132140CF93DF93EC01A881B9811097F9F04C91FA
S1132150413258F04A3331F1FD0131969F0191919A
S1132160913228F09A33D1F704C0942F9D019A3309
S113217081F4CD0101962817390771F4403379F4BD
S11321801296B983A88380E090E00EC08FEF9FEF92
S11321900BC080E090E008C08FEF9FEF05C08FEF89
S11321A09FEF02C09D01E5CFDF91CF9108958F92FB
S11321B09F92AF92BF92CF92DF92EF92FF920F93D2
S11321C01F93CF93DF93FC012481222309F446C09B
S11321D0EC01C2A4D3A4E4A4F5A45C01FEE2AF0E16
S11321E0B11C01E010E0A7019601B50189810E94AC
S11321F07623811135C01C828E8D9F8DA8A1B9A133
S1132200B701A601481B590B6A0B7B0B8E899F896A
S1132210A88DB98D481759076A077B0718F58B8075
S1132220912C82E088169104F8F08E899F89A88DFC
S1132230B98DC80ED91EEA1EFB1E01E010E0A701ED
S11322409601B50189810E947623E1E08E1A9108F6
S1132250F1E08F16910449F780E007C080E005C0E3
S113226081E003C080E001C080E0DF91CF911F9145
S11322700F91FF90EF90DF90CF90BF90AF909F9021
S11322808F9008958F929F92AF92BF92FF920F9377
S11322901F93CF93DF93EC014A015B018AA59BA5B1
S11322A0ACA5BDA584179507A607B707E1F0CE0135
S11322B07EDFF82E811118C001E010E0A501940121
S11322C0BE01625D7F4F89810E942423882331F0FF
S11322D0FF24F39488248A94982C54018AA69BA6FC
S11322E0ACA6BDA601C0F12C8F2DDF91CF911F911B
S11322F00F91FF90BF90AF909F908F900895CF93D0
S1132300DF93EC011C828FEF9FEFDC018AA79BA770
S1132310ACA7BDA7CE01B6DF811123C0FE01E45DE9
S1132320FD4F8081918185359A4AE9F4E85CF1405A
S113233080819181A281B381BB2786349144A445D5
S1132340B10599F0C058DF4F488159816A817B817A
S1132350772781E0463451446445710539F480E0BF
S113236005C083E003C082E001C080E0DF91CF912B
S113237008950097C9F0DC01ED91FC911197309715
S1132380A9F020812223A1F02681378112968D9114
S11323909C9113972817390769F481810E941D23A2
S11323A080FD0AC080E0089589E0089589E00895D9
S11323B089E0089589E0089583E008952F923F927B
S11323C04F925F926F927F928F929F92AF92BF9241
S11323D0CF92DF92EF92FF920F931F93CF93DF93ED
S11323E0CDB7DEB76D970FB6F894DEBF0FBECDBF85
S11323F06C01CB01B42ED6011D921C92A1DE7C018E
S113240099230CF402C2FC01EE0FFF1FE357FC4FAB
S1132410008111810115110509F4F9C1F601118337
S11324200083D8018C91882369F011968C910E94C5
S11324301D2380FD07C0BB2009F4EBC182FFEBC163
S11324408AE08BC2F8011082E1828E2D0E946622FE
S113245080FDE3C1BB2009F400C282FDE0C1FDC1DF
S11324608081882329F0448055806680778004C069
S11324704E2C5F2C672E762ED9014D925D926D9273
S11324807D929D0170964E175F0751F74E01B1E1A1
S11324908B0E911C6894772471F8F501C190D1904A
S11324A0E190F1905F01C114D104E104F10439F029
S11324B0B701A601C80123DF811102C00DC0872D19
S11324C0A814B90451F703C0C12CD12C7601833070
S11324D009F4A7C18111A7C1D801D9968D919C9106
S11324E0DA978115924009F0A0C1F801EC5BFF4F27
S11324F040805180612C712C411451046104710499
S113250029F43E964080518062807380F801468AA7
S1132510578A608E718EA6ADA3838FEF8A0F8230A7
S113252008F085C1F3ADF98B2F2FF8012283222304
S113253009F47FC1822F90E09C012150310982234C
S11325409323892B09F077C1FF9620803180F8010D
S113255031862086C1018F709927892B09F06DC1BE
S1132560EF5BFF4F80809180A12CB12C81149104EA
S1132570A104B10429F43D9680809180A280B380A7
S1132580F80104ACF5ADE02D309709F458C1B0E082
S1132590A30192010E94232E6A8F7B8F8C8F9D8FC3
S11325A09F0140E050E02E8B3F8B488F598FC10133
S11325B0929582958F7089279F708927280F391FDC
S11325C0411D511DDA01C9012A8D3B8D4C8D5D8D54
S11325D0280F391F4A1F5B1F2A8B3B8B4C8B5D8B4B
S11325E082169306A406B50608F42BC1C501B401EE
S11325F0621B730B840B950BE9892E2F30E040E0AE
S113260050E00E94F82DDA01C90121153105410578
S1132610510509F418C1263FFFE03F074105510564
S113262018F0E2E0E98B02C0F1E0F98B863F9F4F9E
S1132630A105B10508F028C149015A0182E0880EBC
S1132640911CA11CB11CD80152968D929D92AD9201
S1132650BC925597F801C28ED38EE48EF58E8E8986
S11326609F89A88DB98D8C0D9D1DAE1DBF1D868FB4
S1132670978FA0A3B1A34A895B896C897D894C0D8E
S11326805D1D6E1D7F1D46A357A360A771A7F98921
S1132690F33069F5232809F0D8C0F801E65AFF4F52
S11326A080819181A281B381F80182A393A3A4A321
S11326B0B5A3880C991CAA1CBB1C880C991CAA1CC9
S11326C0BB1CFFEF8F0EF1E09F1EA11CB11C072E57
S11326D079E0B694A794979487947A95D1F7702D5E
S11326E0481459046A047B0408F4B1C0F9C02328CF
S11326F009F4AFC02A8D3B8D4C8D5D8D820F931FE5
S1132700A41FB51FF80182A393A3A4A3B5A3F989B9
S1132710F23029F4880C991CAA1CBB1C08C1A3E044
S1132720B0E0A50194010E94232EDC01CB01B695F3
S1132730A7959795879521E082229924AA24BB2402
S1132740880E991EAA1EBB1EF2C0B701A6014F5FD8
S11327505F4F6F4F7F4FC80195DD811139C0D8019C
S113276015961C92F801E45DFD4F808191818535B9
S11327709A4A89F5F80186A597A5A0A9B1A9823539
S11327809245A146B14451F5F801EE5EFD4F8081BA
S11327909181A281B38182379247A144B14609F560
S11327A0349680819181A281B381F80186879787CD
S11327B0A08BB18BE65EFD4F80819181A281B381B4
S11327C0F80182879387A487B587F3E0F98B0BC060
S11327D0E3E0E98B08C0F3E0F98B05C0E3E0E98BA3
S11327E002C0F3E0F98BE989D801EC9380918B0363
S11327F090918C03019690938C0380938B0317968E
S11328009C938E93169780E0A8C08BE0A6C08CE0C2
S1132810A4C080E0A2C080E0A0C083E09EC08AE0A3
S11328209CC081E09AC08DE098C08DE096C08DE098
S113283094C08DE092C08DE090C08DE08EC08DE09C
S11328408CC08DE08AC08DE088C08DE086C08DE0AC
S113285084C08DE082C08DE080C040E050E0BA01C9
S1132860C8014DDD813009F02FCEF801E051FE4F53
S11328709E012F5F3F4F5901A801405D5D4FE12C40
S1132880F12C70E060E0ECCD49015A0162E0860E63
S1132890911CA11CB11CD80152968D929D92AD92AF
S11328A0BC925597F801C28ED38EE48EF58E8E8934
S11328B09F89A88DB98D8C0D9D1DAE1DBF1D868F62
S11328C0978FA0A3B1A38A899B89AC89BD898C0DFC
S11328D09D1DAE1DBF1D86A397A3A0A7B1A7DACEE9
S11328E08FEF9FEFDC01F80186879787A08BB18B70
S11328F082879387A487B58780E88583E25AFF4F50
S113290080819181019709F420CFF3E0F98B6BCF9B
S11329108FEF9FEFDC01F80186879787A08BB18B3F
S113292082879387A487B58780E885835CCFFFEF90
S11329308F0EF1E09F1EA11CB11C072E79E0B69406
S1132940A794979487947A95D1F7702D48145904D5
S11329506A047B0408F47FCFDBCF6D960FB6F8943E
S1132960DEBF0FBECDBFDF91CF911F910F91FF90BE
S1132970EF90DF90CF90BF90AF909F908F907F901B
S11329806F905F904F903F902F9008950F931F93F7
S1132990FC019A01AB012250310941095109828994
S11329A09389A489B5890297A109B1092817390720
S11329B04A075B0768F4A281B0E00E94232E06A1B7
S11329C017A120A531A5600F711F821F931F03C09B
S11329D060E070E0CB011F910F910895AF92BF9218
S11329E0CF92DF92EF92FF920F931F93CF93DF93D7
S11329F0423051056105710508F4AAC0FC01C28882
S1132A00D388E488F5884C155D056E057F0508F0CC
S1132A10A4C06A017B01EC018081823009F44BC0BF
S1132A20833009F469C0813009F09CC08A0116958D
S1132A300795040F151FC801892F99278695468D80
S1132A40578D60A171A1480F591F611D711DCF01E0
S1132A5019DC81118CC05801FFEFAF1ABF0A117045
S1132A60FE01E00FF11F16A5C501892F9927869550
S1132A704E8D5F8D68A179A1480F591F611D711D8D
S1132A80CE0100DC811177C081E0B822CA0DDB1DC4
S1132A908EA5612F70E0782BC0FE09C072956295F7
S1132AA06F7067277F70672780E090E06FC07F704A
S1132AB080E090E06BC0452F562F672F7727868DD7
S1132AC0978DA0A1B1A1480F591F6A1F7B1FCF0189
S1132AD0D9DB811154C0B701A601440F551F661FED
S1132AE0771F4E7F517066277727C40FD51F6EA5B9
S1132AF07FA580E090E04AC0868D978DA0A1B1A10A
S1132B00689416F876956795579547951694D1F776
S1132B10480F591F6A1F7B1FCF01B4DB811133C0DB
S1132B20B701A601440F551F661F771F440F551F99
S1132B30661F771F4C7F517066277727C40FD51FF8
S1132B408EA59FA5A8A9B9A9BC01CD019F701EC0DF
S1132B5061E070E080E090E019C061E070E080E046
S1132B6090E014C061E070E080E090E00FC06FEF8F
S1132B707FEFCB010BC06FEF7FEFCB0107C06FEF8F
S1132B807FEFCB0103C06FEF7FEFCB01DF91CF91DC
S1132B901F910F91FF90EF90DF90CF90BF90AF9077
S1132BA00895AF92BF92CF92DF92EF92FF920F936C
S1132BB01F93CF93DF93EC018B017D836C83CE80D5
S1132BC0DF80E884F98481E0C816D104E104F104CB
S1132BD009F489C0E881F98182899389A489B58936
S1132BE0C816D906EA06FB0608F07FC0C114D10452
S1132BF0E104F104C1F48081833041F482A193A102
S1132C00A4A1B5A10097A105B10559F480859185CA
S1132C100817190708F06BC062A173A184A195A1DC
S1132C2035C06C017D01A28080E1A89E5001112471
S1132C300A151B0530F1B701A60188819981CEDE02
S1132C406B017C018FEFC816D806E806F80609F474
S1132C5050C082E0C816D104E104F10408F44BC06A
S1132C60E881F98182899389A489B589C816D9062E
S1132C70EA06FB0608F041C00A191B090A151B05E0
S1132C80D0F6B701A6018881998180DECA86DB86E9
S1132C90EC86FD86611571058105910581F1980128
S1132CA0329522952F7023273F702327DC01CB0117
S1132CB0820F931FA11DB11D8E879F87A88BB98B8F
S1132CC0888199818E960F701127000F111F02952C
S1132CD01295107F1027007F1027080F191F1B8BD8
S1132CE00A8B80E00DC082E00BC082E009C082E064
S1132CF007C081E005C082E003C082E001C082E039
S1132D00DF91CF911F910F91FF90EF90DF90CF90C3
S1132D10BF90AF9008954F925F926F927F929F926F
S1132D20AF92BF92CF92DF92EF92FF920F931F93D5
S1132D30CF93DF93423051056105710508F4D6C085
S1132D40FC01C288D388E488F5884C155D056E05BE
S1132D507F0508F0CFC0680179012A013B01EC012D
S1132D608081823009F462C0833009F484C08130E8
S1132D7009F0C4C08A0116950795040F151FC801F0
S1132D80892F99278695468D578D60A171A1480F8B
S1132D90591F611D711DCF0175DA982E8111CDC0A7
S1132DA05801FFEFAF1ABF0A117040FE20C0FE01A8
S1132DB0E00FF11F86A5282F2F7030E1C39EC001BC
S1132DC01124822B86A781E08C834E8D5F8D68A1B0
S1132DD079A1C501892F99278695480F591F611D2F
S1132DE0711DCE014FDA882309F490C08BC0FE0117
S1132DF0E00FF11FC6A681E08C834E8D5F8D68A124
S1132E0079A1C501892F99278695480F591F611DFE
S1132E10711DCE0137DA882309F483C075C0FE0121
S1132E20EA0DFB1DC6A681E08C8387C0452F562F73
S1132E30672F7727868D978DA0A1B1A1480F591FC1
S1132E406A1F7B1FCF011EDA982E811176C0B30151
S1132E50A201440F551F661F771F4E7F51706627CE
S1132E607727425D5F4FFE01E40FF51FD182C082D8
S1132E7081E08C8362C0868D978DA0A1B1A16894F6
S1132E8016F876956795579547951694D1F7480F98
S1132E90591F6A1F7B1FCF01F5D9982E81114DC090
S1132EA0B301A201440F551F661F771F440F551F1E
S1132EB0661F771F4C7F517066277727425D5F4FEF
S1132EC0FE01E40FF51F0081118122813381002767
S1132ED011272227307FC02AD12AE22AF32AC0826E
S1132EE0D182E282F38281E08C8327C068949924A2
S1132EF091F823C06894992491F81FC06894992488
S1132F0091F81BC0982E19C0982E17C081E0B822E2
S1132F10689413F8F694E794D794C7941694D1F769
S1132F207ECFE1E0BE22FE01EA0DFB1D96A5907F57
S1132F308D2D8F70C92EC82A72CF892DDF91CF9124
S1132F401F910F91FF90EF90DF90CF90BF90AF90C3
S1132F509F907F906F905F904F9008954F925F92F3
S1132F606F927F928F929F92AF92BF92CF92DF9295
S1132F70EF92FF920F931F93CF93DF93EC012A01FB
S1132F803B014115510561057105B9F48A849B849F
S1132F90AC84BD8481149104A104B10459F18A89DB
S1132FA09B89AC89BD8988169906AA06BB0630F1AF
S1132FB0812C912C5401839421C010DD6B017C0180
S1132FC0623071058105910508F48BC08FEFC81636
S1132FD0D806E806F80609F489C08A899B89AC8971
S1132FE0BD89C816D906EA06FB0608F484C0530155
S1132FF0420104C0812C912C540183947501640115
S11330002FEFC21AD20AE20AF20A8A899B89AC8992
S1133010BD89C816D906EA06FB0660F082E0881668
S11330209104A104B10408F46BC0C12CD12C760125
S11330306894C1F8B701A601CE01D0DC6115710511
S11330408105910599F06F3F2FEF72078207920770
S113305009F45BC0613071058105910509F45AC01A
S1133060C814D904EA04FB0459F659C00FEF1FEF42
S11330702FEF3FE0B701A601CE014DDE81112AC03A
S1133080411451046104710441F097018601B301B4
S1133090A201CE0140DE81111DC0CA86DB86EC860A
S11330A0FD868E859F85A889B9898F3F2FEF92076A
S11330B0A207B207C9F10197A109B1098E879F87B9
S11330C0A88BB98B8D8181608D836C2D7D2D8E2D88
S11330D09F2D33C0813069F161E070E080E090E0C1
S11330E02CC061E070E080E090E027C06FEF7FEFDC
S11330F08FEF9FEF22C06C2D7D2D8E2D9F2D1DC037
S113310060E070E080E090E018C06FEF7FEF8FEF39
S11331109FEF13C061E070E080E090E00EC060E0DB
S113312070E080E090E009C06C2D7D2D8E2D9F2DE8
S113313004C06FEF7FEF8FEF9FEFDF91CF911F916F
S11331400F91FF90EF90DF90CF90BF90AF909F9042
S11331508F907F906F905F904F9008957F928F92A1
S11331609F92AF92BF92CF92DF92EF92FF920F9312
S11331701F93CF93DF93DC011496CD91DC911597C7
S1133180219609F4FDC01E968D909D90AD90BC9043
S1133190519781149104A104B10409F4F3C07B0193
S11331A08C016E01BFE0CB22DD24C114D10409F0EF
S11331B0D1C0EFEF8E1A9E0AAE0ABE0ADC011E963B
S11331C08D929D92AD92BC9251971A964D915D91BC
S11331D06D917C911D97411551056105710549F467
S11331E0ED91FC9180859185C817D90708F0CCC072
S11331F0B1C0DC01ED91FC91228130E02150310914
S1133200CE01929582958F7089279F7089272823F4
S11332103923232B09F09EC0CF01E0DB4B015C0175
S1133220623071058105910508F4B0C06F3F7F4F8E
S11332308F4F9F4F09F4ACC0D801ED91FC91828966
S11332409389A489B58988169906AA06BB0608F449
S113325070C0EF2809F49EC0D8011A964D915D9173
S11332606D917C911D97CF0179DE4B015C01611555
S113327071058105910509F48FC0613071058105DF
S1133280910509F48BC06F3F7F4F8F4F9F4F09F417
S113329087C0D8018D919C910E94D710811182C062
S11332A0F80180819181FC01BE96825D9D4F11924F
S11332B0E817F907E1F7D801ED90FC90B501A401F6
S11332C0C70164DBF70162A773A784A795A7E12C64
S11332D0F12C7724739419C07482D8018D919C9138
S11332E00E94D710811160C0D801ED91FC9182A594
S11332F093A5A4A5B5A50196A11DB11D82A793A769
S1133300A4A7B5A7BFEFEB1AFB0AD801ED91FC9176
S1133310828190E0E816F906F8F282A593A5A4A5A7
S1133320B5A58E199F09A109B10982A793A7A4A7DE
S1133330B5A7F80182869386A486B586B501A40153
S11333408081918123DBD8011E966D937D938D93AB
S11333509C935197F801D583C483808191818E9683
S1133360CC0CDD1CCC0CDD1CCC0CDD1CCC0CDD1C15
S1133370CC0CDD1CC80ED91ED38AC28A80E015C0CD
S113338084E013C084E011C084E00FC082E00DC06B
S113339081E00BC084E009C087E007C082E005C07B
S11333A081E003C081E001C081E0DF91CF911F91F2
S11333B00F91FF90EF90DF90CF90BF90AF909F90D0
S11333C08F907F9008951F93CF93DF9300D000D008
S11333D000D0CDB7DEB79C838B837E836D83142F9F
S11333E07A836983CE0101960E94A010992334F157
S11333F0FC01EE0FFF1FE357FC4F0190F081E02D1D
S1133400309709F01082EB81FC813097E9F010824B
S11334102B813C81880F991FFC01E357FC4F3183BA
S11334202083232B69F0113069F440E0BE016B5F07
S11334307F4FCE0103960E94DE110EC08BE00CC0BC
S113344080E00AC080E008C0880F991FFC01E357A0
S1133450FC4F1182108280E026960FB6F894DEBFEE
S11334600FBECDBFDF91CF911F9108952F923F9250
S11334704F925F926F927F928F929F92AF92BF9280
S1133480CF92DF92EF92FF920F931F93CF93DF932C
S1133490CDB7DEB7AE970FB6F894DEBF0FBECDBF83
S11334A07CA36BA3009709F492C2842E1C01DC0157
S11334B01D921C924E71BE016D5D7F4FCE0101962F
S11334C00E94DE118111ECC2CE0147969E8B8D8B3A
S11334D0CBA0DCA0F60180818F3211F08C3519F479
S11334E0FFEFCF1ADF0A282D2F712DA71F82188610
S11334F019861A86D6018C91803268F460E070E0F7
S1133500CE0101964EDB1C8A1B8AE12CF12C882308
S113351009F492C298C26894BB24B5F8A12C712C0A
S11335206894662463F8412C562C4EA6F60103C019
S1133530FD0101C0FD019F01DF018D918F32C1F3B7
S11335408C35C1F36D897E89DB01CB010B96BD926D
S1133550A817B907E1F74A2D572DC12CD12CE62C19
S1133560F42C912C3AA729A77EA36DA3392DBFEF84
S1133570CB1ADB0A7191713208F43AC27F3209F432
S11335802EC27C3509F42BC27E3219F04E155F052C
S113359090F028E0E216F10409F06EC27E3209F0E0
S11335A06BC2330F330F452D5EA50F2EFBE0EF2EBC
S11335B0F02DF12CDCCF77230CF45EC2072F10E042
S11335C00232110509F42CC2A9EAB1E08D918823D5
S11335D009F4FFC190E008171907C1F786E025C276
S11335E0326006C08FE9870F8A3110F4316070525F
S11335F0ADA1BEA1A40FB51F7C934F5F5F4FB7CFA2
S1133600452B09F439C2DB019C91953E11F4E5E0A8
S1133610EC93F8E0EF16F10411F4990C990C992D40
S11336209370913009F48061992D9C70943009F461
S11336308860DB011B968C936A2D772DCE01019651
S1133640B0DA8111E3C14F85588969897A89898102
S11336509A810E9442118111D9C1EB88FC88F7013B
S113366080818823D1F0638563FD0FC04D895E8915
S1133670DA019701255F3F4F04C02E173F0709F475
S1133680C0C191918D919817C1F36A2D772DCE0108
S1133690019664DD8823B9F2B9C1ED89FE89938569
S11336A092FDC0C185E0C1C164FFBEC1D7015A9675
S11336B08D919C915B97A0E0B0E0E981FA81208133
S11336C0233061F4F7014489558960E070E0BA0160
S11336D055274427842B952BA62BB72B8F839887AC
S11336E0A987BA8723CF882309F453C0843009F00B
S11336F048C060E070E0CE01019653DA811118C031
S11337004F85588969897A8989819A810E944211F1
S113371081110EC0EB89FC898081853E71F088237C
S113372061F061E070E0CE01019618DD882341F379
S1133730843009F4A5C18111A6C14F8558896989CE
S11337407A8989819A810E94421181119CC1EB89F5
S1133750FC89CF0180961192E817F907E1F76D898A
S11337607E894BE050E08B899C890E947410E9812A
S1133770FA8181E08483FDA5F860FDA7EB88FC88CD
S113378010C02DA528602DA7EB88FC88882349F05C
S113379087C1D7011B968C91817109F07AC182FC93
S11337A07AC1BDA5B3FFC4C080E090E0A0EFBEE441
S11337B0F70186879787A08BB18B1386D701148E68
S11337C0158E168E178EC980DA80828C938CA12C6C
S11337D0B12CF6018081833069F454968D919C91CB
S11337E05597A0E0B0E0DC0199278827882A992A18
S11337F0AA2ABB2AD7015B961C921E925A97559609
S11338001C921E92549781E0F601848381149104E2
S1133810A104B10409F489C022A533A544A555A582
S113382029A73AA74BA75CA7B2E08B169104A10481
S1133830B10408F412C182899389A489B5898816D0
S11338409906AA06BB0608F00AC18DA29EA2AFA2E1
S1133850B8A64DA15EA16FA178A5C601BFD82B0162
S11338603C016115710581059105E1F16130710536
S11338708105910509F4F5C06F3F7F4F8F4F9F4F2E
S113388009F4F1C000E010E098014DA15EA16FA120
S113389078A5C60140DA8111E7C0F60186859785CF
S11338A0A089B1898F3FFFEF9F07AF07BF0759F08A
S11338B00196A11DB11DF60186879787A08BB18B58
S11338C08581816085834DA25EA26FA278A6F601F0
S11338D082899389A489B589481659066A067B06A4
S11338E008F4B7CF89819A81F1E08F1A9108A10871
S11338F0B108DC011A968D929D92AD92BC921D97EF
S113390049A55AA56BA57CA50E944211882369F09C
S1133910C7C08111C5C0F701838584FDBEC081FE87
S113392002C080FDBCC083FE03C0FDA5F062FDA7FC
S1133930E981FA8182A593A5A4A5B5A5F101828F99
S1133940938FA48FB58FF78EE68EEDA5D1011496D3
S1133950EC93149715961C9209811A81D7015A96F3
S11339608D919C915B97A0E0B0E0F8012081233019
S113397061F4F7014489558960E070E0BA01552784
S11339804427842B952BA62BB72BF1018687978789
S1133990A08BB18BF701848D958DA68DB78DF10128
S11339A082879387A487B58716821782108611862B
S11339B0168A178A108E118E11830083D8011696E9
S11339C08D919C9117979383828380E069C089E0ED
S11339D067C08FEB870F8A3108F402CE03CE6DA146
S11339E07EA1932E29A53AA5C20ED31E80E008CE4F
S11339F06DA17EA1932E29A53AA5C20ED31E84E003
S1133A00FFCDFA01838582FF4FCE06C0ED89FE8982
S1133A109385843051F444CEE114F104C9F40CC00C
S1133A2086E003C084E001C085E0EB88FC88982D23
S1133A309C7109F058CE6DCF182D1C7119F5E12C2D
S1133A40F12C86E015C0182D1C7109F04FCE10C062
S1133A50882D8C7109F09DCE5ECF82E005C082E096
S1133A6003C082E001C081E0882309F45ECF18C05E
S1133A70882309F46ACF14C0EB88FC8886E0E3CF7E
S1133A8087E001C086E0FDA5F860FDA7EB88FC880F
S1133A90EFCF87E005C088E003C084E001C087E081
S1133AA0AE960FB6F894DEBF0FBECDBFDF91CF91B7
S1133AB01F910F91FF90EF90DF90CF90BF90AF9048
S1133AC09F908F907F906F905F904F903F902F903A
S1133AD008952F923F924F925F926F927F928F92AE
S1133AE09F92AF92BF92CF92DF92EF92FF920F9389
S1133AF01F93CF93DF93EC014B016A015901F90144
S1133B00118210820E94B91181116AC18D818111C3
S1133B1067C18C8181FF63C18E819F81A885B9852E
S1133B20AC01BD014C0D5D1D611D711D4817590788
S1133B306A077B0708F43DC1C114D10409F439C1F3
S1133B404E815F8168857985DB01CA019170AA275E
S1133B50BB27892B8A2B8B2B09F0E5C0E881F981DF
S1133B6012811150DB01CA01072E79E0B695A795A1
S1133B70979587957A95D1F7702D182309F040C051
S1133B80452B462B472B79F46E857F858889998947
S1133B90611571058105910591F440E050E0BA0189
S1133BA0CF01DCD906C04A895B896C897D89CF0144
S1133BB0D5D9611571058105910509F4FAC0613003
S1133BC071058105910519F482E08D8309C16F3F68
S1133BD0FFEF7F078F079F0719F481E08D8300C1F2
S1133BE06A8B7B8B8C8B9D8B4E845F8468887988F1
S1133BF045284628472821F46E877F87888B998B30
S1133C00E881F98142A553A564A575A58E899F898C
S1133C10A88DB98D481759076A077B0741F4CF016E
S1133C200E94D710882319F081E08D83D9C02880A1
S1133C3039804A895B896C897D89C1010E94C614D7
S1133C40611571058105910519F482E08D83C8C061
S1133C502B013C01410E511C611C711C7601EF2C9F
S1133C60FF24E694E114F10409F43EC0F101428119
S1133C70242F30E0C701810F911D2817390718F44C
S1133C807901E11AF1088701A3019201B401F1015C
S1133C9081812CD5882319F081E08D83A1C0E8812E
S1133CA0F98182A593A5A4A5B5A584199509A609AA
S1133CB0B709A70160E070E084179507A607B70766
S1133CC078F4982F8827990FB401680F791F40E082
S1133CD052E0CF018E960E947410E881F98114821B
S1133CE0FE2CEE24FF0C4CC04E815F8168857985E3
S1133CF08A859B85AC85BD85481759076A077B076C
S1133D0070F0C1010E94D710882319F081E08D83DF
S1133D1067C0E881F98142A653A664A675A64E8AB7
S1133D205F8A688E798E8E819F81917020E032E067
S1133D307901E81AF90ACE14DF0408F476014E89F1
S1133D405F89688D798D888199810E9442118823C9
S1133D5019F081E08D8344C08E819F81A885B98547
S1133D609170AA27BB278E9628813981A701B401B7
S1133D70820F931F0E947410E881F98121E024834B
S1133D808E0C9F1C8E819F81A885B9858E0D9F1DE9
S1133D90A11DB11D8E839F83A887B987F5018081FA
S1133DA091818E0D9F1D91838083CE18DF0809F0C9
S1133DB0C7CE8E819F81A885B9854A855B856C8530
S1133DC07D85481759076A077B0720F48A879B87F4
S1133DD0AC87BD878C8180628C8380E001C087E0E2
S1133DE0DF91CF911F910F91FF90EF90DF90CF90D3
S1133DF0BF90AF909F908F907F906F905F904F9007
S1133E003F902F9008950F931F93CF93DF93EC016E
S1133E100E94B911982F811196C08C8185FF93C09F
S1133E204A8D5B8D6C8D7D8D888199810E944211B4
S1133E30982F811188C0EE8DFF8D838580628387E2
S1133E408A859B85AC85BD85848F958FA68FB78F1A
S1133E508E859F85A889B989938F828FB58BA48B12
S1133E6080E090E0A0EFBEE4868B978BA08FB18FAB
S1133E70138A128A8C818F7D8C83E881F98181E099
S1133E8084830990D881C02DCE010E94D710982F29
S1133E90811159C08881833009F04CC08D818130F3
S1133EA009F048C0BE01625D7F4FFB01CE01825D17
S1133EB09D4F1192E817F907E1F785E59AEAFE01AB
S1133EC0E45DFD4F9183808382E592E5A1E6B1E450
S1133ED08EA79FA7A8ABB9AB82E792E7A1E4B1E6AE
S1133EE07A9780839183A283B3838E859F85A889E3
S1133EF0B989349680839183A283B3838A859B8511
S1133F00AC85BD85349680839183A283B3838A8DE7
S1133F109B8DAC8DBD8D9C01AD012F5F3F4F4F4FED
S1133F205F4F2AA73BA74CA75DA701E010E089815A
S1133F30DDD31D8240E050E060E0898145D491E00A
S1133F40811101C090E0892FDF91CF911F910F91D2
S1133F500895CF93DF93EC0156DF811107C0CE01A2
S1133F600E94B911811102C019821882DF91CF9188
S1133F7008954F925F926F927F928F929F92AF9229
S1133F80BF92CF92DF92EF92FF920F931F93CF9342
S1133F90DF9300D000D000D0CDB7DEB79E838D83F1
S1133FA06A017B010E94B911811193C1AD81BE8167
S1133FB015968C91159781118CC11A968D919D91AE
S1133FC00D90BC91A02D8C159D05AE05BF0538F450
S1133FD0ED81FE81248121FD02C06C017D01AD8152
S1133FE0BE8116964D905D906D907C901997FD0161
S1133FF01682178210861186C114D104E104F104DB
S113400009F464C100811181D80112968C90912C1D
S1134010A12CB12C072E79E0880C991CAA1CBB1C7E
S11340207A95D1F7702D411451046104710409F497
S113403040C0B1E04B1A510861087108C701B601CC
S11340406150710981099109A50194010E94F82D1B
S113405029833A834B835C83C301B201A501940194
S11340600E94F82D89819A81AB81BC8182179307C4
S1134070A407B507F0F088279927DC018819990966
S1134080AA09BB09482259226A227B22AD81BE813A
S113409016964D925D926D927C921997C418D5082C
S11340A0E608F70852964D915D916D917C91559774
S11340B037C0ED81FE814685578560897189411538
S11340C051056105710531F540E050E0BA01C801C0
S11340D00E94AE17AB01BC01413051056105710569
S11340E031F482E0AD81BE8115968C93F2C04F3FCE
S11340F0BFEF5B076B077B0729F481E0ED81FE814D
S11341008583E7C0AD81BE811E964D935D936D930B
S11341107C935197ED81FE81428B538B648B758B1D
S1134120411551056105710509F499C08C149D046C
S1134130AE04BF0408F05FC0AD81BE8114968C91BB
S1134140149781FF0CC08D919C910E94AE17AB0116
S1134150BC01411551056105710549F44AC0AD81A1
S1134160BE818D919C910E94EE14AB01BC014F3F26
S1134170BFEF5B076B077B0729F4ED81FE8181E0CC
S11341808583A7C0423051056105710568F0AD8192
S1134190BE81ED91FC9182899389A489B5894817E0
S11341A059076A077B0728F0ED81FE8182E0858349
S11341B090C0AD81BE8152964D935D936D937C9377
S11341C05597FD0186819781A085B185880D991D3C
S11341D0AA1DBB1D86839783A087B187C818D908F9
S11341E0EA08FB088C149D04AE04BF0408F4A4CFB1
S11341F002C075016401ED81FE8186819781A085ED
S1134200B1858C0D9D1DAE1DBF1D86839783A08730
S1134210B187D701C6019170AA27BB27892B8A2BA6
S11342208B2B09F1808191810E94C614611571055F
S11342308105910531F482E0AD81BE8115968C93A0
S113424048C00B2EB9E0F694E794D794C794BA9576
S1134250D1F7B02DC60ED71EE81EF91E07C0C12C1B
S1134260D12C760103C0C12CD12C7601ED81FE81C5
S113427086819781A085B185AC01BD015170662707
S11342807727452B462B472B69F046895789608D44
S1134290718DC416D506E606F70621F0C68AD78ABC
S11342A0E08EF18EED81FE814285538564857585AE
S11342B0481759076A077B0758F482879387A487AE
S11342C0B58784818062848380E003C080E001C07C
S11342D080E026960FB6F894DEBF0FBECDBFDF9107
S11342E0CF911F910F91FF90EF90DF90CF90BF90EF
S11342F0AF909F908F907F906F905F904F900895B4
S1134300299A8FEFE1C5089529988FEFDDD582E3CF
S1134310809390038FEFD8D58F3F41F08091900325
S11343208111F8CFEDDF80E090E0089581E090E026
S11343300895FF920F931F93CF93DF93C82FD42F29
S1134340152F062FF72E88234CF440E050E0BA01D5
S113435087E3EFDF823008F03CC0CF77CC30F1F058
S1134360CFDFD2DF892BC1F08C2F8064ADD58F2DA8
S1134370ABD5802FA9D5812FA7D58D2FA5D5CC233B
S113438029F121C08FEFA0D5CAE08FEF9DD58823F6
S113439004F5C150D1F71DC08FEF1BC08CE494D538
S11343A08F2D92D5802F90D5812F8ED58D2F8CD5A2
S11343B081E08AD5CC3031F3E7CF87E885D5E4CFE7
S11343C081E082D5E1CFC830C1F3FACF85E97CD54D
S11343D0DBCFDF91CF911F910F91FF9008950F9341
S11343E01F93CF93DF93082F192FEB0184E1809360
S11343F091038FEF69D58F3F39F480919103811137
S1134400F8CF80E090E020C08E3FE1F4E02FF12F60
S11344108FEF8EBD0DB407FEFDCF9EB5DF019083F7
S11344208EBD0DB407FEFDCF9EB511969C932297C9
S11344303296209771F78FEF47D58FEF45D581E0FE
S113444090E002C080E090E0DF91CF911F910F9146
S113445008951F93CF93DF93EC01162F82E380938B
S113446090038FEF31D58F3F31F08091900381110C
S1134470F8CF90E027C0812F27D51D3F09F1FE0119
S11344809E013E5FDF0190819EBD0DB407FEFDCF0E
S113449011969C919EBD0DB407FEFDCF3296E21796
S11344A0F30781F78FEF10D58FEF0ED58FEF0CD573
S11344B0282F2F7181E090E0253021F080E002C0A8
S11344C081E090E0DF91CF911F910895CF92DF9228
S11344D0EF92FF920F931F93CF93DF9300D000D0FE
S11344E0CDB7DEB7811191C08091280181FF03C04F
S11344F08091280195C082E58CBD1AE08FEFE4D449
S11345001150E1F740E050E0BA0180E012DF813061
S113451009F082C084E6809391034AEA51E060E0A6
S113452070E088E006DF813009F03DC0CE010196DD
S11345306C017E0195E0E90EF11C86018FEFC4D475
S1134540F80181938F01EE16FF06C1F78B8181304C
S113455009F062C08C818A3A09F05EC080919103AF
S1134560882341F040E050E060E070E489EAE1DE55
S11345708111F4CF80919103882309F44DC040E068
S113458050E0BA018AE3D5DE811146C08FEF9CD496
S1134590F60181936F01EE16FF06C1F7898186FD4E
S11345A036C084E035C040E050E0BA0189EAC1DE9B
S11345B0823018F001E011E002C002E019EA8091B3
S11345C09103882339F040E050E0BA01812FB1DE35
S11345D08111F5CF809191038823F1F040E052E0FE
S11345E060E070E080E1A5DE811116C000938F03C6
S11345F087DE002339F0809128018E7F8093280183
S113460080E58CBD809128010BC081E009C08CE05D
S113461080938F0375DEEFCF10928F0371DEF2CF9C
S11346200F900F900F900F90DF91CF911F910F91EA
S1134630FF90EF90DF90CF900895811103C0809197
S11346402801089581E00895FF920F931F93CF935B
S1134650DF93EB0181113FC00115110509F43DC041
S11346608091280180FD3BC080918F0383FD09C0A8
S1134670012E19E0220F331F441F551F1A95D1F73D
S1134680102D0230110528F40F2EF1E1FF2EF02D2C
S113469004C00F2EF2E1FF2EF02DBA01A9018F2DD7
S11346A048DE811112C060E072E0CE0198DE892BF1
S11346B021F0DE5F01501109B1F782E1F81205C063
S11346C040E050E0BA018CE034DE1ADE81E0012BD8
S11346D039F480E005C084E003C084E001C083E0D5
S11346E0DF91CF911F910F91FF900895CF92DF92A8
S11346F0EF92FF920F931F93CF93DF93EB01690126
S11347007A01811151C00115110509F44FC080913E
S1134710280180FD4DC08091280182FD4BC080910D
S11347208F0383FD09C00B2EB9E0CC0CDD1CEE1CFD
S1134730FF1CBA95D1F7B02D0130110589F4B701EA
S1134740A60188E1F6DD811129C06EEFCE0181DE7C
S113475031E020E0892B09F030E0032F122F1EC036
S1134760867029F0A80160E070E087E9E2DDB70116
S1134770A60189E1DEDD811111C06CEFCE0169DE95
S1134780892B21F0DE5F01501109B9F76DEF80E04C
S113479090E05FDE892B11F401E010E0B1DD81E0EF
S11347A0012B49F480E007C084E005C084E003C025
S11347B083E001C082E0DF91CF911F910F91FF90C0
S11347C0EF90DF90CF900895EF92FF920F931F9395
S11347D0CF93DF93CDB7DEB760970FB6F894DEBF03
S11347E00FBECDBF811181C18091280180FD7FC1A1
S11347F08A01862F90E08733910508F05EC1FC01A1
S1134800EA5BFF4F0C941A2E7FDD11E0892B09F42B
S113481069C110E067C140E050E0BA0189E089DD78
S113482081114DC160E170E0CE010196D8DD892B84
S113483009F447C189818295869586958370813074
S113484031F5298530E0322F22278A85280F311D42
S113485088858F7390E0A0E0B0E0DC019927882779
S11348600196A11DB11D820F931FA11DB11D072E1D
S11348707AE0880F991FAA1FBB1F7A95D1F7702D74
S1134880F80180839183A283B38310E02BC18985CF
S11348908295869586958370288590E0F4E02F9F15
S11348A0800D911D11249C012F5F3F4F8F818370D8
S11348B090E0982F8827990F990F820F931FA0E0FB
S11348C0B0E03E813F702B85221F2227221F320F2A
S11348D02A852370220F230F275004C0880F991FA5
S11348E0AA1FBB1F2A95D2F7F80180839183A28364
S11348F0B38310E0F7C080918F0382FF2FC040E0A4
S113490050E0BA018DE815DD8111DDC08FEFDCD2F6
S113491060E170E0CE01019662DD892B09F4D5C017
S11349200F2EF0E3FF2EF02D8FEFCED2FA94F1107C
S1134930FBCF2B8522952F7080E190E0A0E0B0E0C2
S113494004C0880F991FAA1FBB1F2A95D2F7F8012C
S113495080839183A283B38310E0C4C040E050E01D
S1134960BA0189E0E6DC8111B2C060E170E0CE01F9
S1134970019635DD892B09F4ACC080918F0381FF4A
S113498020C02B852F738C85881F8827881F90E073
S11349900196820F911D820F911D2E8522952695D9
S11349A026952370215002C0880F991F2A95E2F79B
S11349B0A0E0B0E0F80180839183A283B38310E088
S11349C091C08C85282F237082958695877090E0FE
S11349D0F8E02F9F800D911D112401962B852C77D3
S11349E030E035952795359527952F5F3F4F829F6A
S11349F0A001839F500D929F500D1124CA01A0E085
S1134A00B0E0F80180839183A283B38310E06AC08D
S1134A1080918F03FA01808310E064C040E050E08D
S1134A20BA0189E086DC811156C060E170E0C801FA
S1134A30D6DC11E0892B09F455C010E053C040E0E6
S1134A4050E0BA018AE075DC811147C060E170E092
S1134A50C801C5DC11E0892B09F444C010E042C050
S1134A6040E050E0BA018AE364DC811138C0780187
S1134A700C5F1F4F8FEF28D2F70181937F010E1730
S1134A801F07C1F710E02EC040E050E0BA018DE8E6
S1134A9050DC811126C08FEF17D260E470E0C801AA
S1134AA09EDC11E0892BF1F010E01CC080912801FC
S1134AB081608093280110E015C014E013C011E058
S1134AC011C011E00FC011E00DC011E00BC011E0E6
S1134AD009C011E007C011E005C011E003C011E0F6
S1134AE001C011E00DDC812F03C084E001C083E02C
S1134AF060960FB6F894DEBF0FBECDBFDF91CF91A5
S1134B001F910F91FF90EF9008950F931F93CF93F0
S1134B10DF938EE465D081E09DD093D02FEF80E7C2
S1134B2092E0215080409040E1F700C000008FE403
S1134B3057D0A2D0182FA0D0D82F9ED0082FA7D0FE
S1134B40C82F7FD01F736D2F70E0712B072E000CC0
S1134B50880B990BD9D620E038EF4FE756E435D6C9
S1134B6020E030E048EC52E4D1D760932D017093FB
S1134B702E0180932F0190933001C695C6956C2F1A
S1134B8070E020E4029F600D711D1124072E000CBB
S1134B90880B990BB9D620E038EF4FE756E415D6C9
S1134BA020E030E045E253E4B1D720E030E040E2D9
S1134BB052E4A2D56093290170932A0180932B01BA
S1134BC090932C01DF91CF911F910F910895109232
S1134BD0B90088E48093B80084E08093BC00089511
S1134BE0CF93DF93ECEBF0E024EAA9EBB0E0CBEB5E
S1134BF0D0E034E844E9208390819923ECF79C9138
S1134C00987F983011F09031B1F788833083908188
S1134C109923ECF79C91987F903211F0983529F400
S1134C204083908194FDFDCFE6CFDF91CF9108952D
S1134C3084EA8093BC00ECEBF0E080818823ECF7FD
S1134C40089584E98093BC00ECEBF0E0808184FD5E
S1134C50FDCF08958093BB0084E88093BC00ECEB07
S1134C60F0E080818823ECF79091B900987F81E08F
S1134C70983209F480E0089584EC8093BC00ECEB56
S1134C80F0E080818823ECF78091BB00089584E8EC
S1134C908093BC00ECEBF0E080818823ECF78091FA
S1134CA0BB0008950F931F93CF938C01C1DF80ED58
S1134CB0D1DF80E0CFDFF8018081CDEC8C9F912D96
S1134CC01124969596959695392F330F232F220FFD
S1134CD0220F230F821BF0E19F9F800D1124BADF66
S1134CE0F80181818C9F912D112496959695969526
S1134CF0392F330F232F220F220F230F821BF0E1B2
S1134D009F9F800D1124A6DFF80182818C9F912D35
S1134D101124969596959695392F330F232F220FAC
S1134D20220F230F821BF0E19F9F800D112492DF3D
S1134D30F80183818C9F912D1124969596959695D3
S1134D40392F330F232F220F220F230F821BF0E161
S1134D509F9F800D11247EDFF80184818C9F912D0B
S1134D601124969596959695392F330F232F220F5C
S1134D70220F230F821BF0E19F9F800D11246ADF15
S1134D80F80185818C9F912D112496959695969581
S1134D90392F330F232F220F220F230F821BF0E111
S1134DA09F9F800D112456DFF80186818C9FC12DB1
S1134DB01124C695C695C6952C2F220F922F990FB4
S1134DC0990F920F891BF0E1CF9F800D112442DFD0
S1134DD038DFCF911F910F910895CF93DF93EC01AA
S1134DE027DF80ED37DF80E035DF2BDF2FEF81EE2B
S1134DF094E0215080409040E1F700C0000018DFAB
S1134E0081ED28DF39DF982F92959F70990F292F14
S1134E10220F220F920F8F70890F88832DDF982F16
S1134E2092959F70990F292F220F220F920F8F7046
S1134E30890F898321DF982F92959F70990F292FCD
S1134E40220F220F920F8F70890F8A8315DF982FFC
S1134E5092959F70990F292F220F220F920F8F7016
S1134E60890F8B8309DF982F92959F70990F292FB3
S1134E70220F220F920F8F70890F8C83FDDE982FE3
S1134E8092959F70990F292F220F220F920F8F70E6
S1134E90890F8D83FCDE982F92959F70990F292F8F
S1134EA0220F220F920F8F70890F8E83CADEDF913B
S1134EB0CF91089584B1886284B924988CB58365B0
S1134EC08CBD2C9A2C9808958EBD0DB407FEFDCF91
S1134ED08EB50895DF92EF92FF920F931F93CF93B5
S1134EE0DF938B01D42E9BB141E050E07A0102C0E4
S1134EF0EE0CFF1C2A95E2F72E2D209592239BB9E8
S1134F00E3DFDD2049F0E8010D0D111D80E0DCDF59
S1134F108993C017D107D1F78BB1E82AEBB8DF9199
S1134F20CF911F910F91FF90EF90DF900895CF9351
S1134F30DF939BB1C1E0D0E002C0CC0FDD1F6A95C6
S1134F40E2F72C2F209592239BB9BEDF80E0BCDFD3
S1134F50D82F80E0B9DF9BB1C92BCBB92D2F30E01E
S1134F60A901582BCA01DF91CF910895E0CF08958C
S1134F701092C50087E68093C400E0ECF0E08081E5
S1134F808D7F808386E08093C20088E18093C10096
S1134F900895CF93C82F8A3011F48DE0FADFE0EC46
S1134FA0F0E0808185FFFDCFC093C60080E090E0F3
S1134FB0CF910895E0ECF0E080818823ECF78091B4
S1134FC0C60090E00895E1E8F0E0108210928000BD
S1134FD016BA80818460808380818064808310928B
S1134FE085001092840080E280936F0078948AB1E7
S1134FF08AB95D9A08958091D003823000F11092AD
S1135000D00380919403909195032091960330915D
S11350109703821B930B909393038093920380E2F4
S113502086BB209192033091930340E050E064E208
S113503074EF80E090E0DCD5CA01B90163C460E09C
S113504070E080E89FEB08951F920F920FB60F92C5
S113505011248F939F938091D00381110BC0809171
S1135060860090918700909397038093960380E243
S113507086BB0EC08091D003813051F480918600AC
S113508090918700909395038093940380E286BB6C
S11350908091D0038F5F8093D0039F918F910F9065
S11350A00FBE0F901F901895EAE7F0E080818064AE
S11350B08083808186FDFDCF809178009091790076
S11350C00895CF92DF92EF92FF921F93CF93DF93D5
S11350D0EC017C0110E00F2EF0EBCF2EF6E0DF2E7A
S11350E0F02DF601808191810E947F318A3031F068
S11350F0F70181937F011F5F103199F7C10FD11D13
S11351001882DF91CF911F91FF90EF90DF90CF90A5
S113511008958F929F92AF92BF92DF92EF92FF9287
S11351200F931F93CF93DF9300D0CDB7DEB77C01ED
S11351308A017A836983D12C2AC0422F50E04053DC
S113514051094A30510560F02D3211F02B32E1F44F
S1135150FC01218130E0205331092A303105A0F4CB
S11351608D2C912C5701A80CB91C4AE050E0BE01CB
S11351706F5F7F4F1CD7F5016083C801880D991DAF
S11351800E94063BD39403C001969A838983898144
S11351909A81FC0120812111D0CF0F900F90DF91D3
S11351A0CF911F910F91FF90EF90DF90BF90AF9040
S11351B09F908F900895CF93DF93CDB7DEB7C654F9
S11351C0D1090FB6F894DEBF0FBECDBFD1DEE0EB40
S11351D0F6E08FE391E09383828381E391E091830E
S11351E0808389E093E00E942732F1DC63DE0E9431
S11351F0AB01E9DEEAE7F0E0808187688083ECE7D1
S1135200F0E08081826480830F2EFEE1CF2EF1E0F6
S1135210DF2EF02D0F2EFAE0EF2EF1E0FF2EF02D11
S113522000E210E0C8010E94EB3AF60181936F019D
S1135230C80180960E94EB3AF70181937F010F5FCA
S11352401F4F0432110571F740E150E060E370E054
S11352508EE091E00E94DB3A8AB18AB95D9A4D9959
S113526039C083EF92E09F938F930E94D0310F90C7
S11352700F9013C019DF20910306309104062817FC
S1135280390728F411DF909304068093030687EE10
S113529093E00197F1F700C0000006DF6091030678
S11352A070910406C2968617970720F7072E000C04
S11352B0880B990B29D3AB01BC0180E090E00E94DC
S11352C0143B8CED92E09F938F930E94D0310F900A
S11352D00F9009C080E090E00E94F33ADED2709310
S11352E00406609303068AB18AB95E9A4E994CC04B
S11352F087EB91E00E94F73188E993E0E2DE08E968
S113530013E01F930F9388EC91E09F938F930E9477
S1135310BD3140E250E0B8018EE191E0FADE88ED63
S113532091E00E94F731C801CCDE1F930F9388EE01
S113533091E09F938F930E94BD31B8018EE091E07C
S11353409DD740E150E060E370E0C8010E94FD3A5F
S113535087EF91E00E94F731C801B3DE1F930F93EA
S113536088E092E09F938F930E94BD3140E450E027
S1135370B8018AE091E0CDDEEDB7FEB73C960FB6FA
S1135380F894FEBF0FBEEDBF80E190E00E94F83AB2
S113539090930D0680930C06219A40E069EB72E02D
S11353A085ED93E00E94E3190E94A00F7E01F9E3CA
S11353B0EF0EF11C3E012FE2620E711C2E0135E24C
S11353C0430E511C1E018BE1280E311C6E0191E12C
S11353D0C90ED11C8091FD02813029F480E396E04E
S11353E00E94F60EF7CF8091A803811109C0109294
S11353F0D003E0E2E6BB81E08093A8031092FF02B1
S11354008091D003823020F48091FF02882311F32D
S1135410FFEF23ED30E3F15020403040E1F700C0CE
S113542000001092A803E7DD2AE037ED43E45FE3D0
S11354306DD323E333E343EB5EE35FD127966CAF95
S11354407DAF8EAF9FAF279720E030E0A901B9D19F
S11354508823A4F020E030E04AE754E427966CADBA
S11354607DAD8EAD9FAD27974DD318166CF427965E
S11354701CAE1DAE1EAE1FAE279706C027961CAEEF
S11354801DAE1EAE1FAE279785E096E0A6DC0CDEAF
S1135490BC0180E090E036D24B015C0160910306D0
S11354A070910406072E000C880B990B2DD29B01DA
S11354B0AC01C501B40189D120E030E044EB53E4F0
S11354C025D34B015C0120E030E044EB53E41AD3D4
S11354D0181644F40F2E812C912CF4EBAF2EF3E428
S11354E0BF2EF02D12DB60912D0170912E01809161
S11354F02F0190913001870122E041E039D560917C
S1135500290170912A0180912B0190912C01830132
S113551022E041E02DD50E941502820122E041E003
S113552027D5810122E041E0C501B40121D58601DE
S113553022E041E027966CAD7DAD8EAD9FAD2797FF
S113554017D5DF92CF923F922F925F924F92FF92A4
S1135550EF927F926F9205E016E0F80180811F922E
S11355608F9381811F928F9382811F928F9328E161
S113557032E03F932F93E0E3F6E0FF93EF93D4D729
S1135580F80186811F928F9385811F928F93848166
S11355901F928F932CE432E03F932F93E1E0F0E0ED
S11355A0EC0FFD1FFF93EF93BFD742E0BE016F5F87
S11355B07F4F80E196E00E94361A2DB73EB7225EF7
S11355C03F4F0FB6F8943EBF0FBE2DBF811175C07B
S11355D08DB69EB640911A0650911B0660911C062A
S11355E070911D0680E196E00E94B91F7F926F9230
S11355F0FF92EF92DF92CF923F922F925F924F925F
S1135600F80180811F928F9381811F928F938281F1
S11356101F928F932FE532E03F932F931F921F9297
S11356201F921F9245D725969FAF8EAF2597EDB752
S1135630FEB776960FB6F894FEBF0FBEEDBF2DB73A
S11356403EB7281B390B0FB6F8943EBF0FBE2DBFD3
S11356508DB79EB701965C017F926F92FF92EF9295
S1135660DF92CF923F922F925F924F92F801808106
S11356701F928F9381811F928F9382811F928F93A8
S11356802FE532E03F932F93BF92AF924DD72EE098
S113569036E025964EAD5FAD25976A2D7B2D80E1D2
S11356A096E00E94691D80E196E00E94A91F0FB652
S11356B0F8949EBE0FBE8DBE18C04AE0BE016F5F57
S11356C07F4F80E196E00E94361A81110EC02EE0D1
S11356D036E04AE350E06FE772E080E196E00E9432
S11356E0691D80E196E00E94A91F1092FF0280E3E9
S11356F096E00E94F60E6ECE5058BB27AA270ED015
S1135700C7C1B8D130F0BDD120F031F49F3F11F4BE
S11357101EF49DC10EF4E095E7FB93C1E92FC9D1B6
S113572080F3BA17620773078407950718F071F4BA
S11357309EF5E1C10EF4E0950B2EBA2FA02D0B01BE
S1135740B90190010C01CA01A0011124FF27591BC2
S113575099F0593F50F4503E68F11A16F040A22FC8
S1135760232F342F4427585FF3CF46953795279539
S1135770A795F0405395C9F77EF41F16BA0B620B38
S1135780730B840BBAF09150A1F0FF0FBB1F661F7F
S1135790771F881FC2F70EC0BA0F621F731F841FC2
S11357A048F4879577956795B795F7959E3F08F0E8
S11357B0B3CF9395880F08F09927EE0F97958795A7
S11357C008951BD108F481E008950CD061C159D12A
S11357D040F050D130F021F45F3F19F032C1511143
S11357E08BC135C166D198F39923C9F35523B1F31D
S11357F0951B550BBB27AA2762177307840738F03C
S11358009F5F5F4F220F331F441FAA1FA9F333D09A
S11358100E2E3AF0E0E830D091505040E695001C4E
S1135820CAF729D0FE2F27D0660F771F881FBB1F0A
S1135830261737074807AB07B0E809F0BB0B802DE4
S1135840BF01FF2793585F4F2AF09E3F510568F030
S1135850F8C052C15F3FECF3983EDCF38695779530
S11358606795B795F7959F5FC9F7880F911D969532
S1135870879597F90895E1E0660F771F881FBB1F8E
S1135880621773078407BA0720F0621B730B840B3B
S1135890BA0BEE1F88F7E095089504D06894B1110F
S11358A02BC108950ED188F09F5790F0B92F9927F6
S11358B0B751A0F0D1F0660F771F881F991F1AF017
S11358C0BA95C9F712C0B13081F015D1B1E008958D
S11358D012C1672F782F8827B85F39F0B93FCCF30E
S11358E0869577956795B395D9F73EF4909580950D
S11358F0709561957F4F8F4F9F4F089597FB0EF4DE
S1135900A9D03EC0E89409C097FB3EF490958095D9
S1135910709561957F4F8F4F9F4F9923A9F0F92F71
S113592096E9BB279395F695879577956795B795EF
S1135930F111F8CFFAF4BB0F11F460FF1BC06F5FD5
S11359407F4F8F4F9F4F16C0882311F096E911C0E7
S1135950772321F09EE8872F762F05C0662371F008
S113596096E8862F70E060E02AF09A95660F771F1C
S1135970881FDAF7880F9695879597F90895E89424
S1135980F92F96EBFF2381F0121613061406440B2D
S11359909395F69587957795679557954040FF239E
S11359A0B9F71BC099270895882351F49850D2F76A
S11359B0872B762F652F542F432F322F20E0B1F3FE
S11359C0121613061406440B88233AF09A95440FD2
S11359D0551F661F771F881FCAF755234AF4440FC3
S11359E0551F11F460FF04C06F5F7F4F8F4F9F4FAF
S11359F0880F9695879597F90895990F0008550F84
S1135A00AA0BE0E8FEEF16161706E807F907C0F040
S1135A1012161306E407F50798F0621B730B840B48
S1135A20950B39F40A2661F0232B242B252B21F422
S1135A3008950A2609F4A140A6958FEF811D811DC2
S1135A40089597F99F6780E870E060E008959FEFFC
S1135A5080EC08959095809570956095509540954B
S1135A60309521953F4F4F4F5F4F6F4F7F4F8F4F73
S1135A709F4F089500240A9416161706180609065F
S1135A80089500240A9412161306140605060895B0
S1135A90092E0394000C11F4882352F0BB0F40F438
S1135AA0BF2B11F460FF04C06F5F7F4F8F4F9F4F78
S1135AB0089557FD9058440F551F59F05F3F71F0FA
S1135AC04795880F97FB991F61F09F3F79F0879561
S1135AD00895121613061406551FF2CF4695F1DFEA
S1135AE008C0161617061806991FF1CF869571057A
S1135AF0610508940895E894BB2766277727CB01AE
S1135B0097F908957ADF08F48FEF08950BD0C0CF8A
S1135B10B1DF28F0B6DF18F0952309F092CF97CFC4
S1135B201124EACFC6DFA0F3959FD1F3950F50E07F
S1135B30551F629FF001729FBB27F00DB11D639F3B
S1135B40AA27F00DB11DAA1F649F6627B00DA11DE1
S1135B50661F829F2227B00DA11D621F739FB00D87
S1135B60A11D621F839FA00D611D221F749F3327F7
S1135B70A00D611D231F849F600D211D822F762F90
S1135B806A2F11249F5750408AF0E1F088234AF08D
S1135B90EE0FFF1FBB1F661F771F881F91505040D9
S1135BA0A9F79E3F510570F04CCFA6CF5F3FECF3B1
S1135BB0983EDCF3869577956795B795F795E795C5
S1135BC09F5FC1F7FE2B880F911D9695879597F9D6
S1135BD00895DB018F939F9336D0BF91AF91A29F1D
S1135BE0800D911DA39F900DB29F900D11240895D7
S1135BF0A1E21A2EAA1BBB1BFD010DC0AA1FBB1FCD
S1135C00EE1FFF1FA217B307E407F50720F0A21B3E
S1135C10B30BE40BF50B661F771F881F991F1A94AB
S1135C2069F760957095809590959B01AC01BD01D5
S1135C30CF010895EE0FFF1F0024001C0BBE079038
S1135C40F691E02D099485D1A59F900DB49F900DF8
S1135C50A49F800D911D11240895B7FFF4CFF3DFA5
S1135C60821B930B0895DF93CF931F930F939A9DF9
S1135C70F02D219FF00D8B9DF00D8A9DE02DF10DEF
S1135C80039FF00D029FE00DF11D4E9DE00DF11DEF
S1135C905E9DF00D4F9DF00D7F936F93BF92AF9279
S1135CA05F934F93D50155D18B01AC01D70151D1ED
S1135CB0EB01E80FF91FD6011FD02F913F91D601B8
S1135CC048D1C60FD71FE81FF91FAF91BF9114D059
S1135CD02F913F913ED1C60FD71FE81FF91FD60160
