:100000000C94350A0C94600A0C94600A0C94600AF3
:100010000C94600A0C94600A0C942A3B0C94600ABD
:100020000C945B370C942E170C94600A0C94600AA5
:100030000C94713A0C94600A0C94600A0C94600A57
:100040000C94600A0C94600A0C94600A0C94600A88
:100050000C94600A0C94600A0C94600A0C94600A78
:100060000C94600A0C94600A0C94600A0C94600A68
:100070000C94600A0C94600A0C94600A0C94600A58
:100080000C94600A0C94600A0C94600A45324C325D
:100090009E33BC329E339E339E3397339E339E33C2
:1000A0009E339E339E339E339E339E339E339E33C8
:1000B0009E339E339E339E339E339E339E339E33B8
:1000C0009E339E339E339E339E339E339E339E33A8
:1000D0009E339E339E339E339E339E339E339E3398
:1000E0009E339E339E339E339E339E339E339E3388
:1000F00049334F336033713385336364696E6F7096
:10010000737578585B0000407A10F35A00A0724E65
:1001100018090010A5D4E80000E87648170000E4AC
:100120000B54020000CA9A3B000000E1F5050000F4
:1001300080969800000040420F000000A086010059
:100140000000102700000000E80300000000640029
:10015000000000000A000000000001000000000094
:100160002C76D888DC674F0823DFC1DFAE59E1B1B8
:10017000B796E5E3E453C63AE651997696E8E6C2C7
:100180008426EB898C9B62ED407C6FFCEFBC9C9FCE
:1001900040F2BAA56FA5F490055A2AF75C936B6CF0
:1001A000F9676DC11BFCE0E40D47FEF520E6B500E4
:1001B000D0ED902E0300943577050080841E080052
:1001C00000204E0A000000C80C333333330F986E02
:1001D00012831141EF8D2114893BE65516CFFEE6BF
:1001E000DB18D1844B381BF77C1D901DA4BBE42485
:1001F000203284725E228100C9F124ECA1E53D2702
:100200000D0A436F6E74656E742D547970653A20D3
:100210006170706C69636174696F6E2F782D777788
:10022000772D666F726D2D75726C656E636F646588
:10023000640D0A0D0A00436F6E74656E742D4C6573
:100240006E6774683A20000D0A557365722D416718
:10025000656E743A207467722F312E310D0A416336
:10026000636570743A202A2F2A0D0A000D0A0020B7
:10027000485454502F312E310D0A486F73743A2070
:1002800000504F535420000D0A557365722D41677D
:10029000656E743A207467722F312E310D0A4163F6
:1002A000636570743A20746578742F68746D6C0D92
:1002B0000A0D0A0020485454502F312E310D0A489F
:1002C0006F73743A2000474554200000010800066F
:1002D0000400014500008200004000202F686F6D7F
:1002E00065273B0A3C2F7363726970743E0A006C89
:1002F0006F636174696F6E2E68726566203D20279A
:10030000687474703A2F2F003C73637269707420A4
:10031000747970653D746578742F6A617661736372
:10032000726970743E0A003C7072653E0A0048545F
:1003300054502F312E302034303120556E61757479
:10034000686F72697A65640D0A436F6E74656E74C6
:100350002D547970653A20746578742F68746D6CCB
:100360000D0A0D0A3C68313E34303120556E6175FE
:1003700074686F72697A65643C2F68313E003C682E
:10038000313E323030204F4B3C2F68313E003C2F05
:100390007072653E003C2F6469763E0A3C2F626FA6
:1003A00064793E0A003C62723E3C68723E6279208B
:1003B00044616E69656C7320466926233335336565
:1003C00072733C2F68723E3C2F62723E003C696E35
:1003D00070757420747970653D227375626D6974EF
:1003E000222076616C75653D22486F6D6522207311
:1003F00074796C653D2277696474683A31303025D0
:1004000022206F6E636C69636B3D2277696E646F47
:10041000772E6C6F636174696F6E3D272F686F6D07
:1004200065273B22202F3E0A000A3C2F7461626C34
:10043000653E0A003C74723E0A3C746420636C6141
:1004400073733D627574746F6E20636F6C7370614B
:100450006E3D2232223E3C696E7075742074797054
:10046000653D7375626D69742076616C75653D22BA
:10047000436F6E6669726D22207374796C653D22DC
:1004800077696474683A31303025223E3C2F7464B9
:100490003E0A3C2F74723E0A3C2F666F726D3E001E
:1004A0003E3C2F74643E0A3C2F74723E000A3C743A
:1004B000643E3C666F726D20616374696F6E3D2FA0
:1004C000206D6574686F643D6765743E0A536563AB
:1004D0006F6E643A203C696E707574207479706533
:1004E0003D746578742073697A653D3132206E61A0
:1004F0006D653D7365632076616C75653D003E3CBE
:100500002F74643E003C74723E0A3C74643E3C6648
:100510006F726D20616374696F6E3D2F206D65741D
:10052000686F643D6765743E0A4461793A203C69AE
:100530006E70757420747970653D7465787420737D
:10054000697A653D3132206E616D653D6461792067
:1005500076616C75653D003E3C2F74643E0A3C2F0D
:1005600074723E000A3C74643E3C666F726D20619A
:100570006374696F6E3D2F206D6574686F643D67AD
:1005800065743E0A4D696E7574653A203C696E70FB
:10059000757420747970653D746578742073697A18
:1005A000653D3132206E616D653D6D696E2076610D
:1005B0006C75653D003E3C2F74643E003C74723E99
:1005C0000A3C74643E3C666F726D20616374696FAF
:1005D0006E3D2F206D6574686F643D6765743E0ADB
:1005E0004D6F6E74683A203C696E70757420747932
:1005F00070653D746578742073697A653D31322089
:100600006E616D653D6D6F6E74682076616C7565A9
:100610003D003E3C2F74643E0A3C2F74723E000A3B
:100620003C74643E3C666F726D20616374696F6EEA
:100630003D2F206D6574686F643D6765743E0A48A0
:100640006F75723A203C696E7075742074797065AC
:100650003D746578742073697A653D3132206E612E
:100660006D653D686F75722076616C75653D003E05
:100670003C2F74643E003C74723E0A3C74643E3C01
:10068000666F726D20616374696F6E3D2F206D65BA
:1006900074686F643D6765743E0A596561723A20FB
:1006A0003C696E70757420747970653D74657874FA
:1006B0002073697A653D3132206E616D653D7965E3
:1006C00061722076616C75653D003C74723E0A3C37
:1006D00074683E446174653C2F74683E3C74683EA7
:1006E00054696D653C2F74683E0A3C2F74723E005D
:1006F0003C74723E0A3C746820636F6C7370616E68
:100700003D2232223E5265616C2054696D65204362
:100710006C6F636B2053657474696E67733C2F74E0
:10072000683E0A3C2F74723E0A003C626F64793E58
:100730000A3C64697620636C6173733D63656E7413
:1007400065723E0A3C68323E576561746865722086
:1007500053746174696F6E3C2F68323E0A3C746159
:10076000626C653E0A003C2F7374796C653E0A002A
:10077000626F6479207B0A6261636B67726F756E6A
:10078000642D636F6C6F723A20706F77646572626C
:100790006C75653B0A7D0A0068322C206872207BEC
:1007A0000A746578742D616C69676E3A2063656EB2
:1007B0007465723B0A7D0A0074642E627574746FEE
:1007C0006E207B0A70616464696E673A20307078CD
:1007D0003B0A7D0A007461626C652C2074682C20D1
:1007E0007464207B0A626F726465723A203170789B
:1007F00020736F6C696420626C61636B3B0A626F8B
:10080000726465722D636F6C6C617073653A2063FE
:100810006F6C6C617073653B0A70616464696E67CC
:100820003A20313570783B0A746578742D616C69B3
:10083000676E3A2063656E7465723B0A7D0A0064D8
:1008400069762E63656E746572207B0A706F7369BA
:1008500074696F6E3A206162736F6C7574653B0AE0
:10086000746F703A203530253B0A6C6566743A2007
:100870003530253B0A6D617267696E2D7269676854
:10088000743A202D3530253B0A7472616E73666FA1
:10089000726D3A207472616E736C617465282D35C7
:1008A00030252C202D353025290A7D0A003C737413
:1008B000796C653E0A000A3C7072653E0A003C2F66
:1008C0007072653E003C2F6469763E0A3C2F626F71
:1008D00064793E0A003C62723E3C68723E62792056
:1008E00044616E69656C7320466926233335336530
:1008F00072733C2F68723E3C2F62723E003C696E00
:1009000070757420747970653D227375626D6974B9
:10091000222076616C75653D22486F6D65222073DB
:1009200074796C653D2277696474683A313030259A
:1009300022206F6E636C69636B3D2277696E646F12
:10094000772E6C6F636174696F6E3D272F686F6DD2
:1009500065273B22202F3E0A003C2F7461626C65A4
:100960003E0A003C74723E3C746420636C61737395
:100970003D627574746F6E3E3C696E707574207460
:100980007970653D227375626D6974222076616CA1
:1009900075653D2252657374617274222073747997
:1009A0006C653D2277696474683A313030252220C5
:1009B0006F6E636C69636B3D2277696E646F772E2F
:1009C0006C6F636174696F6E3D272F726573657418
:1009D000273B22202F3E3C2F74643E3C2F74723EF6
:1009E0000A003C74723E3C746420636C6173733D16
:1009F000627574746F6E3E3C696E707574207479A4
:100A000070653D7375626D69742076616C75653DC6
:100A100022436F6E6669726D22207374796C653D36
:100A20002277696474683A31303025223E3C2F7455
:100A3000643E3C2F74723E0A3C2F666F726D3E001E
:100A400022202F3E3C2F74643E3C2F74723E0A00DD
:100A50003C74723E3C74643E48616C6C2053656E1D
:100A6000736F723A203C696E70757420747970658A
:100A70003D746578742073697A653D3132206E610A
:100A80006D653D68616C6C2076616C75653D22001A
:100A900022202F3E3C2F74643E3C2F74723E0A008D
:100AA0003C74723E3C74643E54696D656F7574208D
:100AB000285365636F6E6473293A203C696E7075C4
:100AC0007420747970653D746578742073697A65F3
:100AD0003D3132206E616D653D74696D656F757471
:100AE0002076616C75653D220022202F3E3C2F74DC
:100AF000643E3C2F74723E0A003C74723E3C746447
:100B00003E506F72743A203C696E7075742074792F
:100B100070653D746578742073697A653D36206E22
:100B2000616D653D706F72742076616C75653D22F4
:100B30000022202F3E3C2F74643E3C2F74723E0AEC
:100B4000003C74723E3C74643E4761746577617921
:100B50002049503A203C696E707574207479706534
:100B60003D746578742073697A653D3132206E6119
:100B70006D653D677769702076616C75653D220013
:100B800022202F3E3C2F74643E3C2F74723E0A009C
:100B90003C74723E3C74643E44657374696E617467
:100BA000696F6E2049503A203C696E7075742074EC
:100BB0007970653D746578742073697A653D31326A
:100BC000206E616D653D7365727669702076616C2B
:100BD00075653D220022202F3E3C2F74643E3C2F41
:100BE00074723E0A003C74723E3C74643E3C666F14
:100BF000726D20616374696F6E3D2F206D6574683E
:100C00006F643D6765743E57656174686572205313
:100C1000746174696F6E2049503A203C696E70753A
:100C20007420747970653D746578742073697A6591
:100C30003D3132206E616D653D6D79697020766160
:100C40006C75653D22003C74723E0A3C74683E53EC
:100C5000657474696E67733C2F74683E0A3C2F7428
:100C6000723E0A003C626F64793E0A3C64697620F9
:100C7000636C6173733D63656E7465723E0A3C68B4
:100C8000323E576561746865722053746174696F90
:100C90006E3C2F68323E0A3C7461626C653E0A000D
:100CA0003C2F7374796C653E0A00626F6479207B17
:100CB0000A6261636B67726F756E642D636F6C6F30
:100CC000723A20706F77646572626C75653B0A7D5D
:100CD0000A0068322C206872207B0A746578742DB3
:100CE000616C69676E3A2063656E7465723B0A7D5C
:100CF0000A0074642E627574746F6E207B0A7061D2
:100D00006464696E673A203070783B0A7D0A00742B
:100D100061626C652C2074682C207464207B0A62EC
:100D20006F726465723A2031707820736F6C6964F9
:100D300020626C61636B3B0A626F726465722D6343
:100D40006F6C6C617073653A20636F6C6C6170736B
:100D5000653B0A70616464696E673A20313570786A
:100D60003B0A746578742D616C69676E3A2063651F
:100D70006E7465723B0A7D0A006469762E63656E47
:100D8000746572207B0A706F736974696F6E3A20A4
:100D90006162736F6C7574653B0A746F703A2035CD
:100DA00030253B0A6C6566743A203530253B0A6D68
:100DB000617267696E2D72696768743A202D3530EB
:100DC000253B0A7472616E73666F726D3A2074729D
:100DD000616E736C617465282D3530252C202D359E
:100DE0003025290A7D0A003C7374796C653E0A003F
:100DF0000A3C7072653E0A003C2F7072653E003CF2
:100E00002F6469763E0A3C2F626F64793E0A003C8B
:100E100062723E3C68723E62792044616E69656C24
:100E20007320466926233335336572733C2F68720D
:100E30003E3C2F62723E003C696E7075742074797E
:100E400070653D227375626D6974222076616C75E0
:100E5000653D225254432053657474696E67732252
:100E6000207374796C653D2277696474683A313017
:100E7000302522206F6E636C69636B3D2277696E4B
:100E8000646F772E6C6F636174696F6E3D272F728C
:100E90007463273B22202F3E0A003C696E707574F4
:100EA00020747970653D227375626D6974222076B5
:100EB000616C75653D2253657474696E6773222099
:100EC0007374796C653D2277696474683A313030A7
:100ED0002522206F6E636C69636B3D2277696E64B7
:100EE0006F772E6C6F636174696F6E3D272F73652A
:100EF0007474696E6773273B22202F3E0A000A3CF8
:100F00002F7461626C653E0A3C2F666F726D3E0AFB
:100F1000003C2F74643E0A3C2F74723E003C666FA6
:100F20006E7420636F6C6F723D22677265656E220E
:100F30003E4F70656E3C2F666F6E743E003C666F70
:100F40006E7420636F6C6F723D22726564223E4343
:100F50006C6F7365643C2F666F6E743E000A3C7460
:100F6000723E0A3C74643E426F782053746174751B
:100F7000733A2000206D2F733C2F74643E0A3C2F7F
:100F800074723E000A3C74723E0A3C74643E5769B7
:100F90006E642053706565643A20002623786230C1
:100FA0003B3C2F74643E0A3C2F74723E000A3C7432
:100FB000723E0A3C74643E57696E6420416E676CF1
:100FC000653A20002050613C2F74643E0A3C2F7427
:100FD000723E000A3C74723E3C74643E507265730B
:100FE000737572653A200020253C2F74643E0A3CDC
:100FF0002F74723E000A3C74723E0A3C74643E4890
:10100000756D69646974793A20002026237832313D
:1010100030333B3C2F74643E0A3C2F74723E000A0E
:101020003C74723E0A3C74643E54656D7065726136
:10103000747572653A20003C74723E0A3C74683ED6
:10104000496E666F726D6174696F6E3C2F74683E95
:101050000A3C2F74723E003C626F64793E0A3C6425
:10106000697620636C6173733D63656E7465723E6F
:101070000A3C68323E57656174686572205374613A
:1010800074696F6E3C2F68323E0A3C7461626C6515
:101090003E0A003C2F7374796C653E0A00626F64EF
:1010A00079207B0A6261636B67726F756E642D6372
:1010B0006F6C6F723A20706F77646572626C7565E1
:1010C0003B0A7D0A0068322C206872207B0A746516
:1010D00078742D616C69676E3A2063656E74657211
:1010E0003B0A7D0A0074642E627574746F6E207BF7
:1010F0000A70616464696E673A203070783B0A7DDB
:101100000A007461626C652C2074682C2074642061
:101110007B0A626F726465723A2031707820736F57
:101120006C696420626C61636B3B0A626F72646518
:10113000722D636F6C6C617073653A20636F6C6CB9
:10114000617073653B0A70616464696E673A20314F
:101150003570783B0A746578742D616C69676E3AF6
:101160002063656E7465723B0A7D0A006469762EA1
:1011700063656E746572207B0A706F736974696F42
:101180006E3A206162736F6C7574653B0A746F70A0
:101190003A203530253B0A6C6566743A2035302597
:1011A0003B0A6D617267696E2D72696768743A20D7
:1011B0002D3530253B0A7472616E73666F726D3A1D
:1011C000207472616E736C617465282D3530252C26
:1011D000202D353025290A7D0A003C7374796C6511
:1011E0003E0A000A3C7072653E0A00485454502F73
:1011F000312E3020323030204F4B0D0A436F6E7449
:10120000656E742D547970653A20746578742F6812
:10121000746D6C0D0A507261676D613A206E6F2DAE
:1012200063616368650D0A0D0A0053706163652090
:10123000496E766164657273206163746976617466
:1012400065642100000000000000000000000000B4
:10125000000000000000000000000000000000008E
:1012600000383838C0C0C000000000000000000096
:1012700000000000C0C0C038383800000000000086
:10128000000000000000000000000000000000005E
:10129000000000000000000000000000000000004E
:1012A000000000000000000000000000000000003E
:1012B00000E0E0E0E0FEFEFE8F8F8FFEFEFEFEFE11
:1012C000FEFEFEFEFEFEFEFE8F8F8FFEFEFEF0F0A7
:1012D000F0F080808080000000000000000000002E
:1012E00000000000000000000000000000000000FE
:1012F00000000000000000000000000000000000EE
:1013000000FFFFFFFF03030303FFFFFFFF0F0F0FAC
:101310000F0F0F0F0F0F0F0F0F0F0F0F0F0FFFFFFD
:10132000FFFF03030303FFFFFFFF000000000000B7
:1013300000000000000000000000000000000000AD
:10134000000000000000000000000000000000009D
:10135000000000000000000000000000000000008D
:10136000000F0F0F0F0F0F00000000000F0F0F0FE7
:101370000F0F00000000000000000000000000004F
:10138000000000000000000000000000000000005D
:101390000000000000000000000000485454240039
:1013A0007C14140800781414780038444428007C15
:1013B000545444000000000000447C44007C0810A9
:1013C0007C000C3040300C0078141478007C4444CD
:1013D00038007C545444007C14344800485454244D
:1013E00000000000000000000000000000000000FD
:1013F00000000000000000000000000000000000ED
:1014000000000000000000000000000000000000DC
:1014100000000000000000000000000000000000CC
:1014200000000000000000000000000000000000BC
:1014300000000000000000000000000043616C6933
:1014400062726174696F6E20636F6D706C65746534
:10145000210A0043616C6962726174696F6E207366
:10146000746172746564210A000011241FBECFEFFD
:10147000D0E4DEBFCDBF14BE0FB6F894A89580911E
:101480006000886180936000109260000FBE15E0DC
:10149000A0E0B1E0EAE3FFE900E00BBF02C0079083
:1014A0000D92A036B107D9F72EE1A0E6B5E001C054
:1014B0001D92AC3DB207E1F70E94A43B0C949B4FF8
:1014C0000C940000CF93DF93239A2B9884E70E941B
:1014D000D8398FEF0E94D83984EF0E94D83987E538
:1014E0000E94D8392B9A63E070E088E80E940B3A9A
:1014F000CDE5DBE19983888363E070E08AE80E94B0
:101500002A3A9B838A8363E070E08CE80E942A3A3F
:101510009D838C8363E070E08EE80E940B3A9F838A
:101520008E8363E070E080E90E942A3A9987888779
:1015300063E070E082E90E942A3A9B878A8763E031
:1015400070E084E90E942A3A9D878C8763E070E00E
:1015500086E90E942A3A9F878E8763E070E088E9D7
:101560000E942A3A998B888B63E070E08AE90E9496
:101570002A3A9B8B8A8B63E070E08CE90E942A3ABE
:101580009D8B8C8B63E070E08EE90E942A3A9F8BE2
:101590008E8BDF91CF9108952F923F924F925F9261
:1015A0006F927F928F929F92AF92BF92CF92DF9273
:1015B000EF92FF920F931F93CF93DF93CDB7DEB7D8
:1015C0006F970FB6F894DEBF0FBECDBF23E030E0BB
:1015D00046E0BE016F5F7F4F87EF0E94DE392981B1
:1015E0002D8F8A818E8FAB81AF8F20E030E048EC69
:1015F00052E460912F0170913001809131019091FE
:1016000032010E946C410E943340B82FA72F962FC1
:101610008827BC01CD01605871098109910925E035
:1016200030E040E050E00E941342DA01C90120930B
:101630007E1B30937F1B4093801B5093811B69015D
:101640007A01FF0CCC08DC2C7601392F4A2F5B2F56
:101650006C2D7C2D8C2D9C2D345F414051096109EE
:101660007109810991092F833A874B875C876D87C0
:101670007E878F87988BA22EB32EC42ED52EE62E72
:10168000F72E082F192F0E945742298B3A8B4B8B2C
:101690005C8B698F7A8F8B8F9C8F0F2EFDE58F2E41
:1016A000FBE19F2EF02DF40131852085932F990FBA
:1016B000990B492F592F692F792F892F0E94574253
:1016C0000CE00E947843222E332E442E552E662E97
:1016D000772E88879987D4011B963C911B971A9681
:1016E0002C91932F990F990BA988BA88CB88DC8805
:1016F000E98CFA8C0B8D1C8D492F592F692F792F6E
:10170000892F0E94574208E00E949143A22CB32CDB
:10171000C42CD52CE62CF72C088519850E94AF43E4
:1017200070588F4F9F4FF40126803780A22CB32C26
:10173000C12CD12CE12CF12C00E010E00E9457428A
:1017400001E20E949143288739874D8B5E8B6F8B16
:10175000788F582E492EA0E00E94C14309F465C13C
:101760000F2EFDE52F2EFBE13F2EF02DD1015196DE
:101770003C91519750962C91932F990F990BA988D2
:10178000BA88CB88DC88E98CFA8C0B8D1C8D492FAC
:10179000592F692F792F892F0E945742298B3A8B15
:1017A0004B8B5C8B662E772E882E992EF101378518
:1017B0002685932F990F990BAF80BA84CB84DC8454
:1017C000ED84FE840F851889492F592F692F792FB1
:1017D000892F0E94574201E10E947843A988BA8864
:1017E000CB88DC88E62CF72C082D192D0E94AF43FE
:1017F000A22EB32EC42ED52EE62EF72E8F83192FB0
:10180000FD8D4F2F50E060E070E0DB01CA01072E34
:101810007CE0880F991FAA1FBB1F7A95D1F7702D06
:101820002E8D422F50E060E070E0440F551F661F80
:10183000771F440F551F661F771F440F551F661FE4
:10184000771F440F551F661F771F482B592B6A2B94
:101850007B2B8F8D482B80E090E0A0E1B0E0841BD3
:10186000950BA60BB70B3C014D01990C6608762C25
:101870004301282F392F4A2F5B2F662D762D862D79
:10188000962D0FE10E947843622E732E842E952EA2
:10189000B62FA72F8A879B87F10135852485932F43
:1018A000990F990B492F592F692F792F892F03E20F
:1018B0000E9478430F810E94AF43A22EB32EC42E04
:1018C000D52EE62EF72E082F192F262D372D482D31
:1018D000592D6B2F7A2F8A859B850E94B8430F2E36
:1018E000F5E3AF2EF02D0F2EFCE0BF2EF02DC12C16
:1018F000D12CE12CF12C00E010E00E945742A8848A
:10190000B984CD88DE88EF88F88C052D142D0E94CF
:10191000AA422F833A874B875C876D877E878F87A4
:10192000988B0DE00E949143922E832E742E652E8B
:10193000562E472E88879987D10157963C91579705
:1019400056962C91932F990F990BA92CB82CC72C34
:10195000D62CE52CF42C082F1985492F592F692FE7
:10196000792F892F0E9457420E94574209E10E9415
:101970009143AF80BA84CB84DC84ED84FE840F85F0
:1019800018890E94AF4328873987442E552E662E2A
:10199000772E882E992EF10135892489932F990F5E
:1019A000990B492F592F692F792F892F0E94574260
:1019B00003E10E949143A22EB32EC42ED52EE62E13
:1019C000F72E082F192F28853985442D552D662D82
:1019D000772D882D992D0E94AF4308E00E949143F6
:1019E000A22EB32EC42ED52EE62EF72EE82F192FB9
:1019F000D10153963C91539752962C91932F990F66
:101A0000990B492F592F692F792F892F04E00E94B4
:101A100078430E2F0E94AF430E94644020E030E0E4
:101A200040E85BE30E946C4103C060E070E0CB01E2
:101A30006F960FB6F894DEBF0FBECDBFDF91CF918A
:101A40001F910F91FF90EF90DF90CF90BF90AF90DC
:101A50009F908F907F906F905F904F903F902F90CE
:101A60000895FC016634710508F473C083A18533C1
:101A700009F071C084A1803E09F06FC085A19091EA
:101A8000660589136CC093A589136BC085A58F78F3
:101A9000803829F081E08093600580E0089592A568
:101AA000945F61537109DF01A90FB11D9A968C9162
:101AB000807C71F09E5F11C081E0890FDF01A80F6B
:101AC000B11D9A962C91211102C09E5F06C0982FDD
:101AD000292F30E02617370778F3292F30E0DF0170
:101AE000A20FB31F9B968C91813099F088E0890FEB
:101AF000DF01A80FB11D9B968C91965F980F292F3F
:101B000030E02617370778F283E08093600580E0A5
:101B10000895DF01A20FB31FD3962C91243029F032
:101B200082E08093600580E008952AE0290F30E08C
:101B3000265D3F4FE20FF31FA1E6B5E025E635E055
:101B400091919D93A217B307D9F791E09093650502
:101B5000089580E0089580E0089580E0089580E091
:101B6000089580E008952A98962F6F71862B8EBD78
:101B70000DB407FEFDCF1EBC0DB407FEFDCF9923AB
:101B800024F41EBC0DB407FEFDCF2A9A8EB508952D
:101B90002A986F71862B8EBD0DB407FEFDCF4EBD0A
:101BA0000DB407FEFDCF2A9A0895FB012A982AE377
:101BB0002EBD0DB407FEFDCF009769F0DF01A80F21
:101BC000B91F1EBC0DB407FEFDCF9EB59193EA1759
:101BD000FB07B9F701C0DF011C922A9A0895FB01A7
:101BE0002A982AE72EBD0DB407FEFDCF09C09F013C
:101BF000280F391F91919EBD0DB407FEFDCF03C084
:101C00000097A9F703C02E173F07A1F72A9A089556
:101C10001F93CF93DF93182F1076C12FD0E08091C0
:101C2000690590E0C817D907A1F043E06FE180EAA9
:101C3000AFDFAE0155954795559547955595479515
:101C400055954795559547956FE180E8A1DF10932D
:101C50006905DF91CF911F910895CF93C82FD8DFE9
:101C60006C2F80E080DFCF910895CF93DF93C82F52
:101C7000D62FCEDF4D2F6C2F80E48ADFDF91CF91FE
:101C80000895CF93682F84EDF0DF61E082EDEDDF02
:101C90008AEEE3DF80FDFCCF60E082EDE6DF89EDD8
:101CA000DCDFC82F88EDD9DF2C2F30E0322F222740
:101CB000A901482BCA01CF910895CF93DF93D62F66
:101CC000C72F682F84EDD1DF6D2F86EDCEDF6C2F0F
:101CD00087EDCBDFC8E203C08C2F8A95F1F78AEE3F
:101CE000BCDF80FDF9CFDF91CF910895682F677039
:101CF00085E7BBCF0895CF93DF93EC01229A2A9A10
:101D00004FEF60E08FEF44DF80E090E00197F1F764
:101D1000109268051092670560E088E0A6DF60E039
:101D200089E0A3DF60E08CE0A0DF60E08DE09DDF74
:101D30006FEF8AE09ADF69E18BE097DF60E084E093
:101D400094DF6AE185E091DF6FEF86E08EDF6FE17F
:101D500087E08BDF60EB88E388DF6FE388E285DF75
:101D600060E389E282DF69EF80E37FDF67EF81E391
:101D70007CDF6DE080EC79DF60E081EC76DF42E3D0
:101D800062EC80E805DF62E186EC6FDF6CE087ECF7
:101D90006CDF62E184EC69DF6CED8AEC66DF65E0A4
:101DA0008BEC63DF688184EE60DF698185EE5DDF47
:101DB0006A8182EE5ADF6B8183EE57DF6C8180EEA1
:101DC00054DF6D8181EE51DF60E071E080E175DF0D
:101DD0008FE11EDF40EC6BE180E8DADE44E06FE18A
:101DE00080E8D6DEDF91CF91089581E14ADF92FB52
:101DF000882780F908950F931F93CF93DF93EC0109
:101E00008B018CE12ADF81FF0CC040E86FE180E8A4
:101E1000BFDE40E86FE180EABBDE42E06CE180EAD1
:101E2000B7DE60E082E021DF6AE183E01EDF6C2F35
:101E300086E01BDFCE01965E692F87E016DF40E06B
:101E400060E08AE7A5DEB801CE01C9DE48E06FE1B7
:101E500080E89EDEDF91CF911F910F910895AF92A0
:101E6000BF92CF92DF92EF92FF920F931F93CF9387
:101E7000DF936C017B0189E3F0DE882309F456C00F
:101E800060916705C091680580E0EFDE6C2F81E00E
:101E9000ECDE60E08AE367DEC82F60E08AE363DEA1
:101EA000D0E0D82BD0936805C093670560E08AE343
:101EB0005ADEB82E60E08AE356DEA82E60E08AE3A0
:101EC00052DE082F60E08AE34EDE07FF10C081E09B
:101ED000C81AD1080B2D10E01A2904501109C01698
:101EE000D10608F48601B701C8015FDE02C000E038
:101EF00010E07E0181E0E81AF108E1148AE1F806B9
:101F00003CF06FEF8CE0B1DE69E18DE0AEDE07C042
:101F10006C2F61508CE0A9DE6F2D8DE0A6DE40E4D1
:101F20006EE180E835DE802F912F02C080E090E0E6
:101F3000DF91CF911F910F91FF90EF90DF90CF90A5
:101F4000BF90AF900895CF92DF92EF92FF920F93E0
:101F50001F93CF93DF93EA0189019091820598172F
:101F600061F0E0917F05F091800540E050E060E095
:101F700070E084EF91E009955EC061115CC02D3086
:101F8000310508F458C0E0907F05F0908005E11419
:101F9000F10409F450C0C0907305D0907405F601A7
:101FA000E40FF51F808590E00E94A945892BB9F1C7
:101FB000F601EC0FFD1F218530E0205331092A3056
:101FC000310580F5F601EC0FFD1F838590E0AC0133
:101FD000405351094A30510540F5C901880F991FF6
:101FE000220F331F220F331F220F331F280F391FD9
:101FF000F601EC0FFD1F828590E0C097280F391F76
:10200000C901880F991F220F331F220F331F220F80
:10201000331F280F391FCA01820F931F08C080E0A9
:1020200090E005C080E090E002C080E090E0A80170
:10203000BE01F701099580E0DF91CF911F910F91CB
:10204000FF90EF90DF90CF900895CF92DF92EF92C4
:10205000FF92CF93DF93EC01DB01413061F46B0120
:1020600088E0C81AD108E12CF12C81E1C80ED11CFE
:10207000E11CF11C11C0423061F46B0188E0C81A08
:10208000D108E12CF12C86E0C80ED11CE11CF11C1A
:1020900003C0C12CD12C7601A230B105F0F09D0116
:1020A000FE01408150E060E070E0762F652F542FF4
:1020B00044278181482BC40ED51EE61EF71E32969A
:1020C000225031092230310560F7CD0102978E7F11
:1020D0000296C80FD91FA170BB27AB2B61F0888176
:1020E00090E0A0E0B0E0BA2FA92F982F8827C80E63
:1020F000D91EEA1EFB1EA701662777274115510549
:102100006105710571F0EE24FF24C40ED51EE61E94
:10211000F71EA7016627772741155105610571054F
:1021200091F7C60180959095DF91CF91FF90EF9048
:10213000DF90CF900895009741F026E0FC01ABE9D5
:10214000B5E001900D922A95E1F70895CF93DF93C2
:10215000FC0130812091970523273091050123232D
:1021600091F43196C8E9D5E0A6E0B1E0AC014C5F4E
:102170005F4F819129919D918227892331F4E41742
:10218000F507B9F703C081E001C081E0DF91CF918D
:102190000895FC01328DFB01208132130DC0DC015A
:1021A0005B9631964E963D912191321307C0A81748
:1021B000B907C9F781E0089580E0089580E00895A7
:1021C00069327105C8F0FC0124852830B9F42585F1
:1021D0002630B1F436A120919705321313C0B7967B
:1021E000A8E9B5E08A9631912D9132130DC0E81718
:1021F000F907C9F781E0089580E0089580E0089527
:1022000080E0089580E0089580E00895CF93DF9303
:10221000FC016A327105E0F084858830D9F4858547
:1022200081111AC096859534C1F4268D9091970539
:10223000291313C0DF015F96C8E9D5E0B2962D914E
:10224000999129130AC0AE17BF07C9F781E005C0ED
:1022500080E003C080E001C080E0DF91CF9108956D
:10226000FC01ABE9B5E09C012A5F3F4F8681819379
:102270008D918583E217F307C9F70895CF93DF9314
:10228000EC01188E198E80E48C8B1D8A8E8B40E0B9
:1022900064E170E0CE010E96D8DE988F898FDF91D1
:1022A000CF910895AC01A7E9B5E0FC017A962BE93E
:1022B00035E0908194839D919193A217B307C9F75C
:1022C000CA01DCCF0895FC01BA9686962291620F6E
:1022D000711D24816483442311F0208301C0108286
:1022E000672F7727E817F90789F70895CF93DF93CA
:1022F000EC018CA19AA19CA38AA38DA19BA19DA373
:102300008BA3CE01E0DF1AAA1BAA80E58EA7DF917E
:10231000CF910895CF93DF93EC01A2DF1C8A82E076
:102320008D8BABE9B5E0FE01769621EA35E0808140
:1023300082878D918193A217B307C9F7A7E9B5E00A
:10234000FE017C962BE935E0808182878D91819317
:10235000A217B307C9F7BE018AE290E04CDDDF9116
:10236000CF9108950F931F93CF93DF93EC018B01CF
:1023700077DFCE0197DF1AA28CA1883F18F09DA1CC
:102380009F5F9DA3885F8CA3BE01C80134DDDF91F0
:10239000CF911F910F910895FC01208930E0322FD9
:1023A00022278189282B2451310986A582958F7097
:1023B000A90164E0869F401951091124CA0199239B
:1023C00014F480E090E008959A012F5F3F4FFA01E6
:1023D0004491442369F0FB01F696DC01AE0FBF1F68
:1023E000F9014D936F5F7F4F449131964111F9CFC1
:1023F000CB010895222391F0A42FB52FAB014A5CA5
:102400005F4FFC01E40FF51F922F3D9131939150E6
:10241000E1F72150620F711D6F5F7F4FCB0108956F
:10242000FA0101900020E9F731979F01241B350B39
:10243000E1CF0895EF92FF920F931F93CF93DF9315
:1024400000D000D01F92CDB7DEB7909182059813CF
:10245000A5C08091810581112AC00091730510915A
:10246000740546EC52E060E070E0C801ADDF4091D9
:10247000790550917A05BC01C801A6DF4091770526
:1024800050917805BC01C801CBDF44EB52E0BC01A0
:10249000C8019ADF4091750550917605BC01C801CD
:1024A00093DF47E852E0BC01C8018EDF79C081307C
:1024B00009F068C0009173051091740541E852E07D
:1024C00060E070E0C80180DF4091790550917A05A5
:1024D000BC01C80179DF4091770550917805BC01B6
:1024E000C8019EDF4FE652E0BC01C8016DDF40919C
:1024F000750550917605BC01C80166DFE0907D0549
:10250000F0907E05E114F10449F04CE652E0BC0184
:10251000C8015ADFA701BC01C80156DF47E452E0F9
:10252000BC01C80151DF46E352E0BC01C8014CDFE9
:102530007C01E0917B05F0917C05DF010D9000208E
:10254000E9F7CD0101974AE0BE016F5F7F4F8E1B17
:102550009F0B0E94D2450091730510917405AE0146
:102560004F5F5F4FB701C8015BDF40E052E0BC0145
:10257000C8012ADF40917B0550917C05BC01C80150
:102580004FDF0EC0409177055091780560E070E014
:10259000809173059091740543DF02C080E090E064
:1025A0000F900F900F900F900F90DF91CF911F9190
:1025B0000F91FF90EF900895FF920F931F93CF9389
:1025C000DF93EC018B01F42E4BDE8F2D80618FA702
:1025D00084E0F81205C041E0B801CE0187DE09C0F1
:1025E0000115110511F401E010E041E0B801CE0140
:1025F0007DDE188A88E2898BCE0154DE84E088ABC8
:1026000019AA42E06CE170E0CE014A961EDD9AAB59
:102610008BABBE0186E390E0EEDBDF91CF911F91A3
:102620000F91FF9008950F931F93CF93DF93EC01C9
:102630008B01CB018896988B898BCE011FDE1AAA5D
:102640001BAAB801645E7F4F42E0CE014A96FDDCD2
:102650009AAB8BABBE01C801C696CDDBDF91CF91A3
:102660001F910F9108959C016115710551F0DB01D7
:10267000E7E9F5E04BE955E09D919193E417F50703
:10268000D9F72115310511F0C90155CD0895909361
:102690006C05809309010895CF93DF93EC01E0DD91
:1026A000188A8CE2898BCE01FDDD82E18FA740E0A4
:1026B00061E070E0CE011ADE1EA21FA280910D0122
:1026C00088A719A68D5F80930D0182E08EAB84E010
:1026D0008FAB85E088AF19AE80E68EA78AE088AB25
:1026E00019AA42E060E270E0CE014A96AEDC9AABF5
:1026F0008BABBE018AE390E07EDBDF91CF91089542
:102700000F931F93CF93DF93EC018B0160916A05C8
:1027100070916B0540E050DF89E18FA7B801CE01D1
:1027200082DFDF91CF911F910F910895DC01FA01B3
:102730006115710541F0680F791F84918D93319671
:102740006A177B07D1F70895CF92DF92EF92FF923D
:102750000F931F93CF93DF937C018091970588237C
:10276000C1F1D701CBE9D5E001EA15E0FE012FEF79
:102770002D93919115969C9315970E171F07C1F7EE
:10278000D72EC62E88E0F701848786E085874BEC3C
:1027900052E068E070E0C7010E96C8DFF701769658
:1027A0008991819311860C171D07D1F7CC2DDD2D52
:1027B000A7E9B5E0F7017C962BE935E0899182879E
:1027C0008D918193A217B307C9F7B7018AE290E010
:1027D00012DBDF91CF911F910F91FF90EF90DF906F
:1027E000CF90089581E090916E05923009F480E0D9
:1027F00008955093831B4093821B21E020936E0524
:1028000060936D05DC01EFE6F5E023E735E08D919F
:102810008193E217F307D9F70895DF92EF92FF92C1
:102820000F931F93CF93DF93EC01F62EE42ED52E5A
:10283000AAE8B5E0BC018BE995E040E955E02D91AF
:10284000FB012193BF01FC012191CF01FB012583F5
:10285000A417B507A1F788E08C871D8643ED52E0E9
:1028600069E070E0CE010E9661DF8CE2898B809189
:1028700004018B8B8F5F8093040186E08F8BA0E92E
:10288000B5E087E995E08E01065E1F4FB80144E987
:1028900055E02D91FB012483FC012191CF01FB0127
:1028A0002193BF01A417B507A1F7CE01E7DCDCA295
:1028B000EDA28BE08AA3FBA2FE01B696CE018E9616
:1028C00011928E179F07E1F780910D0188A78D5F08
:1028D00080930D0180E68EA782E08FA793E098ABEE
:1028E00019AA1AAA1BAA1CAA1DAA8EAB94E09FAB18
:1028F00088AF8EEE89AF42E060E270E0C801A5DBF0
:102900009AAB8BABBE018AE390E075DADF91CF9191
:102910001F910F91FF90EF90DF9008950F931F93F9
:102920009093860580938505709384056093830555
:10293000A22FB32FE0E9F5E024E935E08D918193F2
:10294000E217F307D9F7A02FB12FEAE8F5E020E965
:1029500035E08D918193E217F307D9F750938805FD
:102960004093870581E080938905809194058F5F6E
:10297000883018F48093940502C0109294058091D9
:1029800094051F910F9108958F929F92AF92BF92DD
:10299000CF92DF92EF92FF920F931F93CF93DF932B
:1029A0004C015B017A016901E8011FDA8823A9F073
:1029B000909278058092770582E080938105B092AD
:1029C0008005A0927F0586019701AE016AE172E160
:1029D00083EA9FE0A3DF80938205DF91CF911F916F
:1029E0000F91FF90EF90DF90CF90BF90AF909F90AE
:1029F0008F900895DF92EF92FF920F931F93CF93E2
:102A0000DF938C01EB01209709F050C080916E0597
:102A1000893069F480910A0190910B01892BD9F4D6
:102A2000E4D9882321F06FE675E0C8018DDE80913E
:102A30006E05813081F4D9D9882369F06FE675E09D
:102A4000C80182DE80916E05886080936E051092C9
:102A50000B0110920A0180910A0190910B010196DD
:102A600090930B0180930A0180918905813009F0D0
:102A700096C1BBD9882309F495C182E0809389056A
:102A800080910C018F5F80930C01409187055091DC
:102A900088056091940590E2699FB00111248F71BF
:102AA000682BC801BADEE12CF12CB0C189DB882388
:102AB00069F1D80155968C91813011F4C8012ADC56
:102AC00080916E0583FF71C1F8018589823009F01C
:102AD0006FC144E050E06FE675E0C8014C960E947B
:102AE000B045892B09F067C1A8014A5E5F4FE091AC
:102AF000821BF091831B60916D058FE695E009952F
:102B000082E080936E05E12CF12C80C1BE01C801EA
:102B10007DDB882309F452C1D80157968C915797D1
:102B20008130A1F492968C91883009F04AC1E091ED
:102B30009505F0919605309719F0C8014A960995C8
:102B4000BE01C8010FDCE12CF12C60C1C633D105F8
:102B500008F43AC1863009F03AC1F80184A18B30FB
:102B600009F0E7C0109374050093730560E975E000
:102B7000C8010FDB882309F42DC1D8019F96DC9092
:102B80009F97D2FE17C0E0918505F091860530979A
:102B900059F095968C9120E030E040E050E063E001
:102BA000829586958770099586E080938905E12C4A
:102BB000F12C2CC1C801F0DB7C01809189058230A9
:102BC000C1F59D2D90718D2D8271823109F540E006
:102BD00060E070E0C801F0DC88E1F80187A7E091CF
:102BE0008305F0918405309741F0D80193968C913C
:102BF000829586958770099502C080E090E023E079
:102C000020938905BC01C8010EDDE12CF12CFEC02A
:102C100081E080938905911104C0B7016F5F7F4FF8
:102C200002C060E070E044E0C801C6DCE12CF12C99
:102C3000EDC0833009F03EC0E114F10409F4DFC0B7
:102C400084E080938905E0918505F09186053097B1
:102C500009F454C0D8019E964C9142954F70B4E04F
:102C60004B9FA0011124CE0108974E5D5F4F841742
:102C7000950708F4AC01C701840F951FC817D90741
:102C800020F49E01241B350B01C09701D8019596B5
:102C90008C9160E08295869587700995882351F024
:102CA00049E0B701C80188DC85E080938905E12C03
:102CB000F12CACC080918905853051F4F80187A5CD
:102CC00084FF8BC086E080938905E12CF12C9EC0A7
:102CD0008630A1F4D8019F968C9184FD04C0B70181
:102CE0006F5F7F4F02C060E070E044E0C80164DCC9
:102CF00087E080938905E12CF12C88C0F80187A535
:102D000080FF0CC0B7016F5F7F4F41E0C80154DC0A
:102D100085E080938905E12CF12C78C0E114F10461
:102D200009F45EC040E0B701C80146DCE12CF12C9B
:102D30006DC090916C05891356C095A180910901D1
:102D4000981354C0D7A4D1FE05C0C801A5DCE12C5E
:102D5000F12C5CC0D4FE4DC0C8011EDB7C019093F9
:102D60006B0580936A05892B41F4D0FE4FC040E08B
:102D700060E070E0C80120DC49C0F801E6A4E694F8
:102D8000E694E694E694F4E0EF9E7001112482E26A
:102D9000E80EF11C2897CE15DF0570F137C0E12C45
:102DA000F12C34C0E12CF12C31C0E12CF12C2EC0DF
:102DB000E12CF12C2BC0E12CF12C28C0E12CF12CC2
:102DC00025C0E12CF12C22C0E12CF12C1FC0E12CFC
:102DD000F12C1CC0E12CF12C19C0E12CF12C16C0F7
:102DE000E12CF12C13C0E12CF12C10C0E12CF12CC2
:102DF0000DC0E12CF12C0AC0E12CF12C07C0D80148
:102E00009F968C9180FD7ECFE12CF12CC701DF9144
:102E1000CF911F910F91FF90EF90DF90089508954B
:102E2000613059F4A42FB52FE5E3F9E12BE339E143
:102E30008D918193E217F307D9F708951092A605B3
:102E400082E0809370001092B20094EF9093B300F0
:102E50008093B00087E08093B10008951F920F9295
:102E60000FB60F9211248F938091A6058F5F8093E8
:102E7000A6058091A605833338F01092A6058091AF
:102E8000A7058F5F8093A7058F910F900FBE0F90BE
:102E90001F9018954BEE51E160E070E088EA95E0F4
:102EA00093CA0895CF93DF93EC01F4DF43EE51E131
:102EB000BC01CE0189DA4AED51E1BC01CE0184DAD0
:102EC0004CE651E1BC01CE017FDA42E051E1BC01A8
:102ED000CE017ADA45EE50E1BC01CE0175DA45EC5F
:102EE00050E1BC01CE0170DA4DE950E1BC01CE01E8
:102EF0006BDA43E950E1BC01CE0166DA47E550E107
:102F0000BC01CE0161DA47E350E1BC01CE015CDADD
:102F10004FE150E1BC01CE0157DA4EE05EE1BC0169
:102F2000CE017EDA4AE050E1BC01CE014DDA45EF38
:102F30005FE0BC01CE0148DA42E05EE1BC01CE01B7
:102F40006FDA47EE5FE0BC01CE013EDA43ED5FE0B1
:102F5000BC01CE0139DA4AE15EE1BC01CE0160DAA2
:102F600044EC5FE0BC01CE012FDA4DEA5FE0BC012A
:102F7000CE012ADA4DEE5DE1BC01CE0151DA4BE91A
:102F80005FE0BC01CE0120DA44E85FE0BC01CE0185
:102F90001BDA4AE45EE1BC01CE0142DA44E75FE0BD
:102FA000BC01CE0111DA4DE55FE0BC01CE010CDAC7
:102FB0004091F71D5091F81D20913C0130913D0149
:102FC0004217530738F04DE35FE0BC01CE01FCD956
:102FD000BC0106C04DE15FE0BC01CE01F5D9BC01EA
:102FE00041E15FE0CE01F0D94EEF5EE0BC01CE01E1
:102FF000EBD94AE95EE0BC01CE01E6D947E35EE0E9
:10300000BC01CE01E1D94FE05EE0BC01CE01DCD9CC
:103010004FEF5DE0BC01CE01D7D948EF5DE0BC01C8
:10302000CE01D2D9BC0180E090E0DF91CF9108952C
:10303000AF92BF92CF92DF92EF92FF920F931F93C6
:10304000CF93DF93CDB7DEB7AD970FB6F894DEBF61
:103050000FBECDBF7C011EDF40EF5DE0BC01C701AC
:10306000B3D947EE5DE0BC01C701AED949E75DE0E9
:10307000BC01C701A9D94FE05DE0BC01C701A4D9DB
:1030800042EF5CE0BC01C7019FD942ED5CE0BC01AE
:10309000C7019AD94AEA5CE0BC01C70195D940EA68
:1030A0005CE0BC01C70190D944E65CE0BC01C7010B
:1030B0008BD946E45CE0BC01C70186D945EE5BE0F4
:1030C000BC01C70181D95C01E4E2F1E083811F9278
:1030D0008F9382811F928F9381811F928F93808122
:1030E0001F928F930EE311E01F930F939E012F5FAA
:1030F0003F4F69013F932F930E941347A601B501EB
:10310000C7018ED945ED5BE0BC01C7015DD940E93F
:103110005BE0BC01C70158D944E151E0BC01C701E3
:103120007FD940E85BE0BC01C7014ED941E45BE0D8
:10313000BC01C70149D96C01EEE0F1E083811F9227
:103140008F9382811F928F9381811F928F938081B1
:103150001F928F931F930F938E010F5E1F4F1F932C
:103160000F930E941347A801B601C70159D941E343
:103170005BE0BC01C70128D96C016091120170911C
:10318000130180E090E00E9468400B5E1F4F20E03A
:1031900041E00E94E14349EF5AE0B601C70114D96A
:1031A000A801BC01C7013CD949EE5AE0BC01C701E6
:1031B0000BD940EA5AE0BC01C70106D98C014AE0AC
:1031C000BE016F5D7F4F80910C1E90910D1E0E947D
:1031D000D245AE014F5D5F4FB801C70121D940E92B
:1031E0005AE0BC01C701F0D840E55AE0BC01C70174
:1031F000EBD88C014AE0BE016F5D7F4F80913C01AE
:1032000090913D010E94D245AE014F5D5F4FB801E4
:10321000C70106D940E45AE0BC01C701D5D842EE47
:1032200059E0BC01C701D0D843E659E0BC01C70151
:10323000CBD849E559E0BC01C701C6D84DEF58E0ED
:10324000BC01C701C1D845ED58E0BC01C701BCD8DD
:1032500045EC58E0BC01C701B7D84EEB58E0BC01C3
:10326000C701B2D8BC0180E090E00FB6F894DEBF91
:103270000FBECDBFAD960FB6F894DEBF0FBECDBF6B
:10328000DF91CF911F910F91FF90EF90DF90CF9042
:10329000BF90AF900895AF92BF92CF92DF92EF921E
:1032A000FF920F931F93CF93DF93CDB7DEB7E097D5
:1032B0000FB6F894DEBF0FBECDBF7C01EBDD46EB51
:1032C00058E0BC01C70180D84DEA58E0BC01C701F5
:1032D0007BD84FE358E0BC01C70176D845ED57E0F5
:1032E000BC01C70171D848EB57E0BC01C7016CD8DD
:1032F00048E957E0BC01C70167D840E757E0BC0187
:10330000C70162D846E657E0BC01C7015DD84AE272
:1033100057E0BC01C70158D840EF56E0BC01C701D7
:1033200053D84AEC56E0BC01C7014ED846E756E0F8
:10333000BC01C70149D85C010F2EFBEFCF2EFDE188
:10334000DF2EF02DF601668170E080E090E00E94B3
:1033500068408E010F5F1F4F20E041E00E94E14373
:10336000A801B501C7015CD84FE656E0BC01C70112
:103370002BD84FE156E0BC01C70126D85C01F6010D
:10338000628170E080E090E00E946840085E1F4F1C
:1033900020E041E00E94E143A801B501C70140D807
:1033A00042E156E0BC01C7010FD84CEB55E0BC012F
:1033B000C7010AD85C01F601658170E080E090E009
:1033C0000E9468400051110920E041E00E94E14361
:1033D000A801B501C70124D845EB55E0BC01C701E0
:1033E0000E94E41144E655E0BC01C7010E94E411CB
:1033F0005C01F601618170E080E090E00E9468402D
:10340000085E1F4F20E041E00E94E143A801B501A2
:10341000C70106D847E555E0BC01C7010E94E41189
:1034200045E055E0BC01C7010E94E4115C01F601D2
:10343000648170E080E090E00E94684000511109D2
:1034400020E041E00E94E143A801B501C7010E94CC
:1034500010124EEF54E0BC01C7010E94E4114DEA86
:1034600054E0BC01C7010E94E4115C01F6016081D7
:1034700070E080E090E00E946840085E1F4F20E00E
:1034800041E00E94E143A801B501C7010E9410126A
:1034900040EA54E0BC01C7010E94E41144E354E057
:1034A000BC01C7010E94E41149E254E0BC01C7011C
:1034B0000E94E4114DEC53E0BC01C7010E94E411ED
:1034C00045EA53E0BC01C7010E94E41145E953E01D
:1034D000BC01C7010E94E4114EE853E0BC01C701E2
:1034E0000E94E411BC0180E090E0E0960FB6F894F1
:1034F000DEBF0FBECDBFDF91CF911F910F91FF9027
:10350000EF90DF90CF90BF90AF900895A8959CE08A
:1035100088E10FB6F894A895809360000FBE909351
:10352000600081E090E00E949B4FFF920F931F93F9
:10353000CF93DF93CDB7DEB72A970FB6F894DEBFEF
:103540000FBECDBFFC0120812F3261F521812237D2
:1035500039F43381333671F43481303259F436C161
:10356000233741F4FC013085333751F43185303253
:1035700039F42EC1203209F42DC1283609F42CC1AA
:10358000223791F4FC012581243781F426812032F1
:1035900079F421E030E03093A2052093A105FF24C7
:1035A000F39407C0F12C05C0F12C03C0F12C01C02D
:1035B000F12C8C012AE431E040E1BE016F5F7F4FC6
:1035C000D3D2882359F040E250E0BE016F5F7F4FB5
:1035D00084E291E00E94DA3AFF24F3942FE431E090
:1035E00040E1BE016F5F7F4FC801BED2882389F0E2
:1035F000BE016F5F7F4F84E191E00E94BD4540E1D5
:1036000050E060E370E0CE0101960E947C4FFF2401
:10361000F39426E531E040E1BE016F5F7F4FC801C2
:10362000A3D2882359F040E450E0BE016F5F7F4F82
:103630008EE091E00E94DA3AFF24F3942BE531E02A
:103640004AE0BE016F5F7F4FC8018ED2882379F0B8
:10365000CE0101960E94814590931301809312013F
:10366000BC0180E790E00E94984FFF24F39428E883
:1036700031E04AE0BE016F5F7F4FC80175D28823F9
:1036800079F0CE0101960E94814590930D1E8093A2
:103690000C1EBC0180E190E00E94984FFF24F3943F
:1036A00020E631E04AE0BE016F5F7F4FC8015CD287
:1036B000882379F0CE0101960E94814590933D01C7
:1036C00080933C01BC0180E690E00E94984FFF246B
:1036D000F39425E631E048E0BE016F5F7F4FC801FB
:1036E00043D2882341F0CE0101960E948145809308
:1036F000011EFF24F3942AE631E048E0BE016F5F2B
:103700007F4FC80131D2882341F0CE0101960E943B
:1037100081458093001EFF24F39420E731E048E0C8
:10372000BE016F5F7F4FC8011FD2882341F0CE01D9
:1037300001960E9481458093FF1DFF24F39424E7A6
:1037400031E048E0BE016F5F7F4FC8010DD2882392
:1037500041F0CE0101960E9481458093FD1DFF241A
:10376000F39429E731E048E0BE016F5F7F4FC80165
:10377000FBD1882389F0CE0101960E948145809378
:10378000FC1D2DE731E048E0BE016F5F7F4FC801AF
:10379000EBD181110BC014C02DE731E048E0BE0130
:1037A0006F5F7F4FC801E0D1882339F0CE010196C9
:1037B0000E9481458093FB1D03C0F1E0FF120EC003
:1037C0008BEF9DE10E94E83581E009C084E007C0ED
:1037D00083E005C082E003C082E001C08FEF2A963B
:1037E0000FB6F894DEBF0FBECDBFDF91CF911F9112
:1037F0000F91FF900895CF92DF92EF92FF920F9377
:103800001F93CF93DF93CDB7DEB760970FB6F894D1
:10381000DEBF0FBECDBF2091A70530E040910C1E4A
:1038200050910D1E4217530730F41092A50581E008
:103830008093A40514C17C01F89481E08093A505D0
:1038400068EA75E088E893E10E942F0F8C011092DE
:103850003019BC0188EA95E0CDD86C01011511053D
:10386000A9F48091A405813089F41092A7051092E3
:10387000A405009112011091130125E339E141E300
:1038800059E16FE077E1C7017FD8E9C07894C114AE
:10389000D10431F4B80188EA95E00E94310DDFC00F
:1038A000860108551A4F4EE050E0B80181E891E0DA
:1038B0000E94C445892BD9F48CE09EE19F938F939D
:1038C00080E991E09F938F931F930F930E9441474C
:1038D00060910C1E70910D1E80E190E00E94984F47
:1038E0000F900F900F900F900F900F9032C04DE0FF
:1038F00050E0B80182EA91E00E94C445892B49F565
:103900008BEF9DE19F938F938CEF9DE19F938F931E
:103910008DEF9DE19F938F9381E09EE19F938F9325
:1039200080E09EE19F938F938FEF9DE19F938F9314
:1039300080EB91E09F938F931F930F930E944147D9
:103940008BEF9DE10E94E8350FB6F894DEBF0FBE05
:10395000CDBF44E050E0B8018CED91E00E94C44539
:10396000892B51F097DA4EE753E0BC0188EA95E0E5
:103970000E94E411BC016FC0C60184559A4FD5DD89
:103980008F3F51F44EE253E060E070E088EA95E04A
:103990000E94E411BC015FC0813009F043C0E4E241
:1039A000F1E083811F928F9382811F928F93818197
:1039B0001F928F9380811F928F938EE391E09F934C
:1039C0008F938E010F5F1F4F1F930F930E9413471A
:1039D00061DA47E253E0BC0188EA95E00E94E41115
:1039E00048E053E0BC0188EA95E00E94E4114FEE04
:1039F00052E0BC0188EA95E00E94E411A801BC01F4
:103A000088EA95E00E9410124CED52E0BC0188EA71
:103A100095E00E94E411BC010FB6F894DEBF0FBE22
:103A2000CDBF19C0833029F435DA88EA95E000DB90
:103A300012C0843029F42EDA88EA95E02CDC0BC021
:103A400029DA88EA95E02EDA8091A1059091A20505
:103A5000892B09F05BDD88EA95E00E94801360966F
:103A60000FB6F894DEBF0FBECDBFDF91CF911F918F
:103A70000F91FF90EF90DF90CF900895CF93DF9359
:103A8000E1E6F0E080E880831082C0E08C2F8A9528
:103A9000F1F788E291E00E947B0E81E00E94760EB1
:103AA000CA95F1F7CBD9789466E774E084E10E9477
:103AB0005D0E64E271E088E291E00E94331380E5DC
:103AC00090E00E94471340E157E161E08EE091E011
:103AD0000E94F9131092A70513C08091A7058B309F
:103AE00020F084E08093A3050FC068EA75E088E8C1
:103AF00093E10E942F0FBC0188EA95E00E94FA141E
:103B00000E94F2138111E9CF64E171E081E399E150
:103B10009ED082E08093A305D3E0C4E002C082304F
:103B2000A1F481E399E10E94A610882321F084E0AA
:103B30008093A30516C040E157E162E081E399E17B
:103B40000E94F913D093A30508C0833031F40E947A
:103B5000F213811102C0C093A3058091A3058430A4
:103B6000F1F6DF91CF9108951F93CF93DF93EC018E
:103B70009881892F8F7D09F454C09D3009F453C07A
:103B8000D90150E011E08C9189131CC02A173B0722
:103B900039F4FE01319780818F3311F08632B1F410
:103BA00011968C911197882321F01196FE01852F93
:103BB00010C0FE013196812F99819D3309F0852F28
:103BC000D90107C0D901FE01852F03C0D901FE012B
:103BD000852FEF0121969181992399F1903259F126
:103BE0009D3061F1882379F223C050E041505109A2
:103BF000141615069CF4DB01329620E09D932F5F8E
:103C0000BD019191392F3F7D49F09D3039F09632B9
:103C100029F0C22FD0E0C417D50784F3FB0110822E
:103C200012C080E010C080E00EC09632F1F6F6CFF0
:103C30008130D9F308C0813031F4F0CF813019F4EC
:103C4000EDCF813059F3DF91CF911F910895AF925D
:103C5000BF92DF92EF92FF920F931F93CF93DF9368
:103C600000D000D0CDB7DEB7FC01108211821282E5
:103C70001382DB019C91992309F448C07F018B01D9
:103C80000F5F1F4FD12C20E0233078F4492F50E0F4
:103C9000405351094A30510540F4E1E0F0E0EC0FA7
:103CA000FD1FE20FF11D90832F5F2223A1F09E32B2
:103CB00091F4E1E0F0E0EC0FFD1FE20FF11D108246
:103CC0005701AD0CB11CCE0101960E948145F50152
:103CD0008083D39420E0D8019D918D01992319F020
:103CE000B3E0BD1588F6E3E0DE1212C0E1E0F0E0DB
:103CF000EC0FFD1FE20FF11D1082CE0101960E9414
:103D00008145D70113968C9380E003C081E001C008
:103D100081E00F900F900F900F90DF91CF911F9146
:103D20000F91FF90EF90DF90BF90AF900895CF93E9
:103D3000DF9342305105C0F0DB01FC019A01CD91C7
:103D4000DD91C193D1932250310922303105B8F76A
:103D50009A01225031092E7F2E5F3F4F820F931F11
:103D6000620F731F417055274115510549F0DB0162
:103D7000FC01480F591F9D919193E417F507D9F75E
:103D8000DF91CF910895CF93DF93EC01A881B981A2
:103D90001097F9F04C91413258F04A3331F1FD015E
:103DA00031969F019191913228F09A33D1F704C056
:103DB000942F9D019A3381F4CD010196281739077C
:103DC00071F4403379F41296B983A88380E090E0CF
:103DD0000EC08FEF9FEF0BC080E090E008C08FEF28
:103DE0009FEF05C08FEF9FEF02C09D01E5CFDF91F0
:103DF000CF9108958F929F92AF92BF92CF92DF9210
:103E0000EF92FF920F931F93CF93DF93FC012481D6
:103E1000222309F446C0EC01C2A4D3A4E4A4F5A46F
:103E20005C01FEE2AF0EB11C01E010E0A7019601BB
:103E3000B50189810E94B731811135C01C828E8DF8
:103E40009F8DA8A1B9A1B701A601481B590B6A0B08
:103E50007B0B8E899F89A88DB98D481759076A07F2
:103E60007B0718F58B80912C82E088169104F8F07E
:103E70008E899F89A88DB98DC80ED91EEA1EFB1E9A
:103E800001E010E0A7019601B50189810E94B731D8
:103E9000E1E08E1A9108F1E08F16910449F780E075
:103EA00007C080E005C081E003C080E001C080E081
:103EB000DF91CF911F910F91FF90EF90DF90CF9006
:103EC000BF90AF909F908F9008958F929F92AF92E6
:103ED000BF92FF920F931F93CF93DF93EC014A01A0
:103EE0005B018AA59BA5ACA5BDA584179507A60770
:103EF000B707E1F0CE017EDFF82E811118C001E096
:103F000010E0A5019401BE01625D7F4F89810E948E
:103F10006531882331F0FF24F39488248A94982C07
:103F200054018AA69BA6ACA6BDA601C0F12C8F2D7C
:103F3000DF91CF911F910F91FF90BF90AF909F9015
:103F40008F900895CF93DF93EC011C828FEF9FEF4A
:103F5000DC018AA79BA7ACA7BDA7CE01B6DF811164
:103F600023C0FE01E45DFD4F8081918185359A4A31
:103F7000E9F4E85CF14080819181A281B381BB27A3
:103F800086349144A445B10599F0C058DF4F48816B
:103F900059816A817B81772781E0463451446445A9
:103FA000710539F480E005C083E003C082E001C000
:103FB00080E0DF91CF9108950097C9F0DC01ED9189
:103FC000FC9111973097A9F020812223A1F026813E
:103FD000378112968D919C9113972817390769F4B0
:103FE00081810E945E3180FD0AC080E0089589E0F1
:103FF000089589E0089589E0089589E0089583E0AF
:1040000008952F923F924F925F926F927F928F927C
:104010009F92AF92BF92CF92DF92EF92FF920F9357
:104020001F93CF93DF93CDB7DEB76D970FB6F8949C
:10403000DEBF0FBECDBF6C01CB01B42ED6011D92E9
:104040001C92A1DE7C0199230CF402C2FC01EE0F4C
:10405000FF1FE35CF64E008111810115110509F483
:10406000F9C1F60111830083D8018C91882369F08E
:1040700011968C910E945E3180FD07C0BB2009F42F
:10408000EBC182FFEBC18AE08BC2F8011082E182B2
:104090008E2D0E94A43080FDE3C1BB2009F400C234
:1040A00082FDE0C1FDC18081882329F044805580D4
:1040B0006680778004C04E2C5F2C672E762ED90147
:1040C0004D925D926D927D929D0170964E175F07A5
:1040D00051F74E01B1E18B0E911C6894772471F871
:1040E000F501C190D190E190F1905F01C114D1042C
:1040F000E104F10439F0B701A601C80123DF811101
:1041000002C00DC0872DA814B90451F703C0C12CFB
:10411000D12C7601833009F4A7C18111A7C1D80140
:10412000D9968D919C91DA978115924009F0A0C1A2
:10413000F801EC5BFF4F40805180612C712C4114E1
:1041400051046104710429F43E96408051806280DC
:104150007380F801468A578A608E718EA6ADA3835C
:104160008FEF8A0F823008F085C1F3ADF98B2F2FC6
:10417000F8012283222309F47FC1822F90E09C0161
:104180002150310982239323892B09F077C1FF96AF
:1041900020803180F80131862086C1018F709927F7
:1041A000892B09F06DC1EF5BFF4F80809180A12CBE
:1041B000B12C81149104A104B10429F43D968080AE
:1041C0009180A280B380F80104ACF5ADE02D30976A
:1041D00009F458C1B0E0A30192010E9447426A8FDE
:1041E0007B8F8C8F9D8F9F0140E050E02E8B3F8B0B
:1041F000488F598FC101929582958F7089279F7042
:104200008927280F391F411D511DDA01C9012A8D47
:104210003B8D4C8D5D8D280F391F4A1F5B1F2A8BEC
:104220003B8B4C8B5D8B82169306A406B50608F477
:104230002BC1C501B401621B730B840B950BE9897B
:104240002E2F30E040E050E00E94F141DA01C90138
:10425000211531054105510509F418C1263FFFE03C
:104260003F074105510518F0E2E0E98B02C0F1E09B
:10427000F98B863F9F4FA105B10508F028C1490180
:104280005A0182E0880E911CA11CB11CD8015296E3
:104290008D929D92AD92BC925597F801C28ED38EAD
:1042A000E48EF58E8E899F89A88DB98D8C0D9D1D0C
:1042B000AE1DBF1D868F978FA0A3B1A34A895B89CE
:1042C0006C897D894C0D5D1D6E1D7F1D46A357A316
:1042D00060A771A7F989F33069F5232809F0D8C0E0
:1042E000F801E65AFF4F80819181A281B381F801E4
:1042F00082A393A3A4A3B5A3880C991CAA1CBB1CDE
:10430000880C991CAA1CBB1CFFEF8F0EF1E09F1EAE
:10431000A11CB11C072E79E0B694A79497948794BA
:104320007A95D1F7702D481459046A047B0408F477
:10433000B1C0F9C0232809F4AFC02A8D3B8D4C8D44
:104340005D8D820F931FA41FB51FF80182A393A355
:10435000A4A3B5A3F989F23029F4880C991CAA1CEE
:10436000BB1C08C1A3E0B0E0A50194010E94474234
:10437000DC01CB01B695A7959795879521E0822220
:104380009924AA24BB24880E991EAA1EBB1EF2C023
:10439000B701A6014F5F5F4F6F4F7F4FC80195DD9B
:1043A000811139C0D80115961C92F801E45DFD4FCA
:1043B0008081918185359A4A89F5F80186A597A56E
:1043C000A0A9B1A982359245A146B14451F5F801A1
:1043D000EE5EFD4F80819181A281B3818237924749
:1043E000A144B14609F5349680819181A281B381BF
:1043F000F80186879787A08BB18BE65EFD4F8081A1
:104400009181A281B381F80182879387A487B587C0
:10441000F3E0F98B0BC0E3E0E98B08C0F3E0F98B24
:1044200005C0E3E0E98B02C0F3E0F98BE989D8012C
:10443000EC9380913B1990913C19019690933C1913
:1044400080933B1917969C938E93169780E0A8C093
:104450008BE0A6C08CE0A4C080E0A2C080E0A0C039
:1044600083E09EC08AE09CC081E09AC08DE098C045
:104470008DE096C08DE094C08DE092C08DE090C03C
:104480008DE08EC08DE08CC08DE08AC08DE088C04C
:104490008DE086C08DE084C08DE082C08DE080C05C
:1044A00040E050E0BA01C8014DDD813009F02FCE67
:1044B000F801E051FE4F9E012F5F3F4F5901A801C7
:1044C000405D5D4FE12CF12C70E060E0ECCD4901E6
:1044D0005A0162E0860E911CA11CB11CD8015296B3
:1044E0008D929D92AD92BC925597F801C28ED38E5B
:1044F000E48EF58E8E899F89A88DB98D8C0D9D1DBA
:10450000AE1DBF1D868F978FA0A3B1A38A899B89FB
:10451000AC89BD898C0D9D1DAE1DBF1D86A397A3C3
:10452000A0A7B1A7DACE8FEF9FEFDC01F801868755
:104530009787A08BB18B82879387A487B58780E804
:104540008583E25AFF4F80819181019709F420CF42
:10455000F3E0F98B6BCF8FEF9FEFDC01F8018687DB
:104560009787A08BB18B82879387A487B58780E8D4
:1045700085835CCFFFEF8F0EF1E09F1EA11CB11C65
:10458000072E79E0B694A794979487947A95D1F7FB
:10459000702D481459046A047B0408F47FCFDBCFE4
:1045A0006D960FB6F894DEBF0FBECDBFDF91CF91F1
:1045B0001F910F91FF90EF90DF90CF90BF90AF9041
:1045C0009F908F907F906F905F904F903F902F9033
:1045D00008950F931F93FC019A01AB0122503109FA
:1045E0004109510982899389A489B5890297A10952
:1045F000B109281739074A075B0768F4A281B0E0C0
:104600000E94474206A117A120A531A5600F711F86
:10461000821F931F03C060E070E0CB011F910F91D8
:104620000895AF92BF92CF92DF92EF92FF920F93D5
:104630001F93CF93DF93423051056105710508F454
:10464000AAC0FC01C288D388E488F5884C155D05B2
:104650006E057F0508F0A4C06A017B01EC01808132
:10466000823009F44BC0833009F469C0813009F00D
:104670009CC08A0116950795040F151FC801892F44
:1046800099278695468D578D60A171A1480F591FB6
:10469000611D711DCF0119DC81118CC05801FFEF24
:1046A000AF1ABF0A1170FE01E00FF11F16A5C50178
:1046B000892F992786954E8D5F8D68A179A1480F26
:1046C000591F611D711DCE0100DC811177C081E091
:1046D000B822CA0DDB1D8EA5612F70E0782BC0FEBD
:1046E00009C0729562956F7067277F70672780E0B9
:1046F00090E06FC07F7080E090E06BC0452F562F38
:10470000672F7727868D978DA0A1B1A1480F591FDC
:104710006A1F7B1FCF01D9DB811154C0B701A601ED
:10472000440F551F661F771F4E7F517066277727EE
:10473000C40FD51F6EA57FA580E090E04AC0868D8E
:10474000978DA0A1B1A1689416F8769567955795B5
:1047500047951694D1F7480F591F6A1F7B1FCF0149
:10476000B4DB811133C0B701A601440F551F661F8A
:10477000771F440F551F661F771F4C7F51706627A8
:104780007727C40FD51F8EA59FA5A8A9B9A9BC01DD
:10479000CD019F701EC061E070E080E090E019C024
:1047A00061E070E080E090E014C061E070E080E0E3
:1047B00090E00FC06FEF7FEFCB010BC06FEF7FEF8B
:1047C000CB0107C06FEF7FEFCB0103C06FEF7FEF2F
:1047D000CB01DF91CF911F910F91FF90EF90DF9070
:1047E000CF90BF90AF900895AF92BF92CF92DF92DB
:1047F000EF92FF920F931F93CF93DF93EC018B0106
:104800007D836C83CE80DF80E884F98481E0C816E4
:10481000D104E104F10409F489C0E881F9818289B5
:104820009389A489B589C816D906EA06FB0608F05B
:104830007FC0C114D104E104F104C1F4808183304C
:1048400041F482A193A1A4A1B5A10097A105B1054E
:1048500059F4808591850817190708F06BC062A18B
:1048600073A184A195A135C06C017D01A28080E176
:10487000A89E500111240A151B0530F1B701A601AD
:1048800088819981CEDE6B017C018FEFC816D80636
:10489000E806F80609F450C082E0C816D104E10425
:1048A000F10408F44BC0E881F98182899389A489D5
:1048B000B589C816D906EA06FB0608F041C00A19F0
:1048C0001B090A151B05D0F6B701A601888199813D
:1048D00080DECA86DB86EC86FD8661157105810562
:1048E000910581F19801329522952F7023273F7011
:1048F0002327DC01CB01820F931FA11DB11D8E87E1
:104900009F87A88BB98B888199818E960F7011270C
:10491000000F111F02951295107F1027007F10279E
:10492000080F191F1B8B0A8B80E00DC082E00BC0A3
:1049300082E009C082E007C081E005C082E003C0D8
:1049400082E001C082E0DF91CF911F910F91FF9033
:10495000EF90DF90CF90BF90AF9008954F925F920D
:104960006F927F929F92AF92BF92CF92DF92EF921F
:10497000FF920F931F93CF93DF9342305105610550
:10498000710508F4D6C0FC01C288D388E488F58894
:104990004C155D056E057F0508F0CFC068017901F3
:1049A0002A013B01EC018081823009F462C083302E
:1049B00009F484C0813009F0C4C08A0116950795B6
:1049C000040F151FC801892F99278695468D578D8D
:1049D00060A171A1480F591F611D711DCF0175DACA
:1049E000982E8111CDC05801FFEFAF1ABF0A117088
:1049F00040FE20C0FE01E00FF11F86A5282F2F707A
:104A000030E1C39EC0011124822B86A781E08C83F4
:104A10004E8D5F8D68A179A1C501892F9927869553
:104A2000480F591F611D711DCE014FDA882309F40B
:104A300090C08BC0FE01E00FF11FC6A681E08C8301
:104A40004E8D5F8D68A179A1C501892F9927869523
:104A5000480F591F611D711DCE0137DA882309F4F3
:104A600083C075C0FE01EA0DFB1DC6A681E08C83E4
:104A700087C0452F562F672F7727868D978DA0A14A
:104A8000B1A1480F591F6A1F7B1FCF011EDA982E54
:104A9000811176C0B301A201440F551F661F771F15
:104AA0004E7F517066277727425D5F4FFE01E40F0E
:104AB000F51FD182C08281E08C8362C0868D978D84
:104AC000A0A1B1A1689416F876956795579547957A
:104AD0001694D1F7480F591F6A1F7B1FCF01F5D9D4
:104AE000982E81114DC0B301A201440F551F661FBE
:104AF000771F440F551F661F771F4C7F5170662725
:104B00007727425D5F4FFE01E40FF51F00811181A1
:104B100022813381002711272227307FC02AD12A02
:104B2000E22AF32AC082D182E282F38281E08C837E
:104B300027C06894992491F823C06894992491F827
:104B40001FC06894992491F81BC0982E19C0982E04
:104B500017C081E0B822689413F8F694E794D794CC
:104B6000C7941694D1F77ECFE1E0BE22FE01EA0D94
:104B7000FB1D96A5907F8D2D8F70C92EC82A72CFF0
:104B8000892DDF91CF911F910F91FF90EF90DF90D2
:104B9000CF90BF90AF909F907F906F905F904F901D
:104BA00008954F925F926F927F928F929F92AF92F1
:104BB000BF92CF92DF92EF92FF920F931F93CF930A
:104BC000DF93EC012A013B01411551056105710597
:104BD000B9F48A849B84AC84BD8481149104A104BB
:104BE000B10459F18A899B89AC89BD8988169906D7
:104BF000AA06BB0630F1812C912C5401839421C06C
:104C000010DD6B017C01623071058105910508F4AE
:104C10008BC08FEFC816D806E806F80609F489C0DD
:104C20008A899B89AC89BD89C816D906EA06FB0624
:104C300008F484C05301420104C0812C912C54011A
:104C40008394750164012FEFC21AD20AE20AF20AB4
:104C50008A899B89AC89BD89C816D906EA06FB06F4
:104C600060F082E088169104A104B10408F46BC0DE
:104C7000C12CD12C76016894C1F8B701A601CE01F0
:104C8000D0DC611571058105910599F06F3F2FEF1B
:104C900072078207920709F45BC0613071058105D4
:104CA000910509F45AC0C814D904EA04FB0459F662
:104CB00059C00FEF1FEF2FEF3FE0B701A601CE0164
:104CC0004DDE81112AC0411451046104710441F088
:104CD00097018601B301A201CE0140DE81111DC002
:104CE000CA86DB86EC86FD868E859F85A889B98974
:104CF0008F3F2FEF9207A207B207C9F10197A109D1
:104D0000B1098E879F87A88BB98B8D8181608D8338
:104D10006C2D7D2D8E2D9F2D33C0813069F161E08A
:104D200070E080E090E02CC061E070E080E090E016
:104D300027C06FEF7FEF8FEF9FEF22C06C2D7D2D8F
:104D40008E2D9F2D1DC060E070E080E090E018C0C7
:104D50006FEF7FEF8FEF9FEF13C061E070E080E0B7
:104D600090E00EC060E070E080E090E009C06C2D43
:104D70007D2D8E2D9F2D04C06FEF7FEF8FEF9FEF66
:104D8000DF91CF911F910F91FF90EF90DF90CF9027
:104D9000BF90AF909F908F907F906F905F904F905B
:104DA00008957F928F929F92AF92BF92CF92DF929F
:104DB000EF92FF920F931F93CF93DF93DC01149632
:104DC000CD91DC911597219609F4FDC01E968D902A
:104DD0009D90AD90BC90519781149104A104B104B1
:104DE00009F4F3C07B018C016E01BFE0CB22DD240E
:104DF000C114D10409F0D1C0EFEF8E1A9E0AAE0A99
:104E0000BE0ADC011E968D929D92AD92BC92519786
:104E10001A964D915D916D917C911D9741155105AB
:104E20006105710549F4ED91FC9180859185C81764
:104E3000D90708F0CCC0B1C0DC01ED91FC91228112
:104E400030E021503109CE01929582958F708927EB
:104E50009F70892728233923232B09F09EC0CF0177
:104E6000E0DB4B015C01623071058105910508F4BE
:104E7000B0C06F3F7F4F8F4F9F4F09F4ACC0D80138
:104E8000ED91FC9182899389A489B5898816990648
:104E9000AA06BB0608F470C0EF2809F49EC0D8012A
:104EA0001A964D915D916D917C911D97CF0179DEA0
:104EB0004B015C01611571058105910509F48FC0F5
:104EC000613071058105910509F48BC06F3F7F4FFB
:104ED0008F4F9F4F09F487C0D8018D919C910E94FC
:104EE000FA1E811182C0F80180819181FC01BE9679
:104EF000825D9D4F1192E817F907E1F7D801ED9017
:104F0000FC90B501A401C70164DBF70162A773A798
:104F100084A795A7E12CF12C7724739419C074828F
:104F2000D8018D919C910E94FA1E811160C0D80118
:104F3000ED91FC9182A593A5A4A5B5A50196A11D0F
:104F4000B11D82A793A7A4A7B5A7BFEFEB1AFB0AD1
:104F5000D801ED91FC91828190E0E816F906F8F213
:104F600082A593A5A4A5B5A58E199F09A109B1098C
:104F700082A793A7A4A7B5A7F80182869386A486E3
:104F8000B586B501A4018081918123DBD8011E96ED
:104F90006D937D938D939C935197F801D583C48332
:104FA000808191818E96CC0CDD1CCC0CDD1CCC0C50
:104FB000DD1CCC0CDD1CCC0CDD1CC80ED91ED38A2C
:104FC000C28A80E015C084E013C084E011C084E090
:104FD0000FC082E00DC081E00BC084E009C087E013
:104FE00007C082E005C081E003C081E001C081E02C
:104FF000DF91CF911F910F91FF90EF90DF90CF90B5
:10500000BF90AF909F908F907F9008951F93CF9304
:10501000DF9300D000D000D0CDB7DEB79C838B8368
:105020007E836D83142F7A836983CE0101960E945B
:10503000C31E992334F1FC01EE0FFF1FE35CF64E13
:105040000190F081E02D309709F01082EB81FC8116
:105050003097E9F010822B813C81880F991FFC0169
:10506000E35CF64E31832083232B69F0113069F421
:1050700040E0BE016B5F7F4FCE0103960E9401208E
:105080000EC08BE00CC080E00AC080E008C0880F32
:10509000991FFC01E35CF64E1182108280E0269697
:1050A0000FB6F894DEBF0FBECDBFDF91CF911F9139
:1050B00008952F923F924F925F926F927F928F92BC
:1050C0009F92AF92BF92CF92DF92EF92FF920F9397
:1050D0001F93CF93DF93CDB7DEB7AE970FB6F8949B
:1050E000DEBF0FBECDBF7CA36BA3009709F492C2B5
:1050F000842E1C01DC011D921C924E71BE016D5D5F
:105100007F4FCE0101960E9401208111ECC2CE0199
:1051100047969E8B8D8BCBA0DCA0F60180818F32D1
:1051200011F08C3519F4FFEFCF1ADF0A282D2F71FB
:105130002DA71F82188619861A86D6018C91803277
:1051400068F460E070E0CE0101964EDB1C8A1B8A99
:10515000E12CF12C882309F492C298C26894BB24F4
:10516000B5F8A12C712C6894662463F8412C562C58
:105170004EA6F60103C0FD0101C0FD019F01DF0144
:105180008D918F32C1F38C35C1F36D897E89DB013E
:10519000CB010B96BD92A817B907E1F74A2D572D01
:1051A000C12CD12CE62CF42C912C3AA729A77EA354
:1051B0006DA3392DBFEFCB1ADB0A7191713208F460
:1051C0003AC27F3209F42EC27C3509F42BC27E32FA
:1051D00019F04E155F0590F028E0E216F10409F091
:1051E0006EC27E3209F06BC2330F330F452D5EA5C0
:1051F0000F2EFBE0EF2EF02DF12CDCCF77230CF4FB
:105200005EC2072F10E00232110509F42CC2A2EE93
:10521000B1E08D91882309F4FFC190E008171907C8
:10522000C1F786E025C2326006C08FE9870F8A3158
:1052300010F431607052ADA1BEA1A40FB51F7C93D4
:105240004F5F5F4FB7CF452B09F439C2DB019C910B
:10525000953E11F4E5E0EC93F8E0EF16F10411F45B
:10526000990C990C992D9370913009F48061992DC6
:105270009C70943009F48860DB011B968C936A2D36
:10528000772DCE010196B0DA8111E3C14F8558899F
:1052900069897A8989819A810E94651F8111D9C1A2
:1052A000EB88FC88F70180818823D1F0638563FD5A
:1052B0000FC04D895E89DA019701255F3F4F04C019
:1052C0002E173F0709F4C0C191918D919817C1F332
:1052D0006A2D772DCE01019664DD8823B9F2B9C11C
:1052E000ED89FE89938592FDC0C185E0C1C164FF4F
:1052F000BEC1D7015A968D919C915B97A0E0B0E01A
:10530000E981FA812081233061F4F70144895589CC
:1053100060E070E0BA0155274427842B952BA62B1B
:10532000B72B8F839887A987BA8723CF882309F45F
:1053300053C0843009F048C060E070E0CE010196AF
:1053400053DA811118C04F85588969897A89898112
:105350009A810E94651F81110EC0EB89FC898081B2
:10536000853E71F0882361F061E070E0CE01019626
:1053700018DD882341F3843009F4A5C18111A6C149
:105380004F85588969897A8989819A810E94651F28
:1053900081119CC1EB89FC89CF0180961192E8179D
:1053A000F907E1F76D897E894BE050E08B899C8994
:1053B0000E94971EE981FA8181E08483FDA5F8604F
:1053C000FDA7EB88FC8810C02DA528602DA7EB88D1
:1053D000FC88882349F087C1D7011B968C91817185
:1053E00009F07AC182FC7AC1BDA5B3FFC4C080E0D8
:1053F00090E0A0EFBEE4F70186879787A08BB18B82
:105400001386D701148E158E168E178EC980DA80FA
:10541000828C938CA12CB12CF6018081833069F4AD
:1054200054968D919C915597A0E0B0E0DC019927AE
:105430008827882A992AAA2ABB2AD7015B961C9218
:105440001E925A9755961C921E92549781E0F6012F
:10545000848381149104A104B10409F489C022A5B4
:1054600033A544A555A529A73AA74BA75CA7B2E049
:105470008B169104A104B10408F412C182899389A6
:10548000A489B58988169906AA06BB0608F00AC140
:105490008DA29EA2AFA2B8A64DA15EA16FA178A5D4
:1054A000C601BFD82B013C0161157105810591052D
:1054B000E1F1613071058105910509F4F5C06F3F97
:1054C0007F4F8F4F9F4F09F4F1C000E010E098012B
:1054D0004DA15EA16FA178A5C60140DA8111E7C098
:1054E000F60186859785A089B1898F3FFFEF9F07D9
:1054F000AF07BF0759F00196A11DB11DF6018687C0
:105500009787A08BB18B8581816085834DA25EA238
:105510006FA278A6F60182899389A489B589481675
:1055200059066A067B0608F4B7CF89819A81F1E0B3
:105530008F1A9108A108B108DC011A968D929D92EC
:10554000AD92BC921D9749A55AA56BA57CA50E945A
:10555000651F882369F0C7C08111C5C0F701838525
:1055600084FDBEC081FE02C080FDBCC083FE03C0BE
:10557000FDA5F062FDA7E981FA8182A593A5A4A506
:10558000B5A5F101828F938FA48FB58FF78EE68E2C
:10559000EDA5D1011496EC93149715961C920981F0
:1055A0001A81D7015A968D919C915B97A0E0B0E04B
:1055B000F8012081233061F4F7014489558960E0C6
:1055C00070E0BA0155274427842B952BA62BB72BC7
:1055D000F10186879787A08BB18BF701848D958D1C
:1055E000A68DB78DF10182879387A487B587168230
:1055F000178210861186168A178A108E118E1183D3
:105600000083D80116968D919C911797938382837E
:1056100080E069C089E067C08FEB870F8A3108F4AA
:1056200002CE03CE6DA17EA1932E29A53AA5C20E6E
:10563000D31E80E008CE6DA17EA1932E29A53AA5A8
:10564000C20ED31E84E0FFCDFA01838582FF4FCEC8
:1056500006C0ED89FE899385843051F444CEE1146F
:10566000F104C9F40CC086E003C084E001C085E009
:10567000EB88FC88982D9C7109F058CE6DCF182DC1
:105680001C7119F5E12CF12C86E015C0182D1C7148
:1056900009F04FCE10C0882D8C7109F09DCE5ECFE1
:1056A00082E005C082E003C082E001C081E088237F
:1056B00009F45ECF18C0882309F46ACF14C0EB88C0
:1056C000FC8886E0E3CF87E001C086E0FDA5F860B6
:1056D000FDA7EB88FC88EFCF87E005C088E003C01A
:1056E00084E001C087E0AE960FB6F894DEBF0FBE2F
:1056F000CDBFDF91CF911F910F91FF90EF90DF9081
:10570000CF90BF90AF909F908F907F906F905F9061
:105710004F903F902F9008952F923F924F925F921B
:105720006F927F928F929F92AF92BF92CF92DF92B1
:10573000EF92FF920F931F93CF93DF93EC014B01F6
:105740006A015901F901118210820E94DC1F811146
:105750006AC18D81811167C18C8181FF63C18E8196
:105760009F81A885B985AC01BD014C0D5D1D611DF2
:10577000711D481759076A077B0708F43DC1C1141A
:10578000D10409F439C14E815F8168857985DB01D7
:10579000CA019170AA27BB27892B8A2B8B2B09F072
:1057A000E5C0E881F98112811150DB01CA01072EA1
:1057B00079E0B695A795979587957A95D1F7702D4D
:1057C000182309F040C0452B462B472B79F46E85F2
:1057D0007F8588899989611571058105910591F405
:1057E00040E050E0BA01CF01DCD906C04A895B89AC
:1057F0006C897D89CF01D5D9611571058105910528
:1058000009F4FAC0613071058105910519F482E04F
:105810008D8309C16F3FFFEF7F078F079F0719F443
:1058200081E08D8300C16A8B7B8B8C8B9D8B4E843A
:105830005F846888798845284628472821F46E8740
:105840007F87888B998BE881F98142A553A564A550
:1058500075A58E899F89A88DB98D481759076A0744
:105860007B0741F4CF010E94FA1E882319F081E0E2
:105870008D83D9C0288039804A895B896C897D896C
:10588000C1010E94E922611571058105910519F494
:1058900082E08D83C8C02B013C01410E511C611C6C
:1058A000711C7601EF2CFF24E694E114F10409F455
:1058B0003EC0F1014281242F30E0C701810F911DCC
:1058C0002817390718F47901E11AF1088701A301B3
:1058D0009201B401F10181814AD5882319F081E058
:1058E0008D83A1C0E881F98182A593A5A4A5B5A562
:1058F00084199509A609B709A70160E070E084172B
:105900009507A607B70778F4982F8827990FB40151
:10591000680F791F40E052E0CF018E960E94971EDB
:10592000E881F9811482FE2CEE24FF0C4CC04E81DC
:105930005F81688579858A859B85AC85BD8548179B
:1059400059076A077B0770F0C1010E94FA1E88237D
:1059500019F081E08D8367C0E881F98142A653A6E2
:1059600064A675A64E8A5F8A688E798E8E819F8125
:10597000917020E032E07901E81AF90ACE14DF04D0
:1059800008F476014E895F89688D798D88819981C7
:105990000E94651F882319F081E08D8344C08E81A9
:1059A0009F81A885B9859170AA27BB278E962881EB
:1059B0003981A701B401820F931F0E94971EE881CD
:1059C000F98121E024838E0C9F1C8E819F81A88504
:1059D000B9858E0D9F1DA11DB11D8E839F83A88744
:1059E000B987F501808191818E0D9F1D9183808300
:1059F000CE18DF0809F0C7CE8E819F81A885B985B2
:105A00004A855B856C857D85481759076A077B0742
:105A100020F48A879B87AC87BD878C8180628C83CA
:105A200080E001C087E0DF91CF911F910F91FF903F
:105A3000EF90DF90CF90BF90AF909F908F907F902E
:105A40006F905F904F903F902F9008950F931F930A
:105A5000CF93DF93EC010E94DC1F982F811196C039
:105A60008C8185FF93C04A8D5B8D6C8D7D8D888187
:105A700099810E94651F982F811188C0EE8DFF8D3E
:105A80008385806283878A859B85AC85BD85848F6D
:105A9000958FA68FB78F8E859F85A889B989938F9B
:105AA000828FB58BA48B80E090E0A0EFBEE4868B64
:105AB000978BA08FB18F138A128A8C818F7D8C83F4
:105AC000E881F98181E084830990D881C02DCE01DD
:105AD0000E94FA1E982F811159C08881833009F0E5
