:100000000C9475010C9492010C9492010C94920141
:100010000C9492010C9492010C9492010C946D0F2B
:100020000C9492010C9492010C9491280C949201DE
:100030000C9492010C9492010C9492010C949201F4
:100040000C9492010C9492010C9492010C949201E4
:100050000C9492010C9492010C9492010C949201D4
:100060000C9492010C949201DE24E6244726582534
:10007000472647264726402647264726472647261F
:100080004726472647264726472647264726472608
:1000900047264726472647264726472647264726F8
:1000A00047264726472647264726472647264726E8
:1000B00047264726472647264726472647264726D8
:1000C000472647264726472647264726E925EF2580
:1000D000022615262B266364696E6F707375785837
:1000E0005B0000407A10F35A00A0724E180900100D
:1000F000A5D4E80000E87648170000E40B5402009D
:1001000000CA9A3B000000E1F505000080969800C7
:10011000000040420F000000A086010000001027F0
:1001200000000000E8030000000064000000000080
:100130000A00000000000100000000002C76D888B2
:10014000DC674F0823DFC1DFAE59E1B1B796E5E3C5
:10015000E453C63AE651997696E8E6C28426EB89DE
:100160008C9B62ED407C6FFCEFBC9C9F40F2BAA57B
:100170006FA5F490055A2AF75C936B6CF9676DC113
:100180001BFCE0E40D47FEF520E6B500D0ED902E17
:100190000300943577050080841E080000204E0A75
:1001A000000000C80C333333330F986E12831141B3
:1001B000EF8D2114893BE65516CFFEE6DB18D1847E
:1001C0004B381BF77C1D901DA4BBE42420328472A5
:1001D0005E228100C9F124ECA1E53D270D0A436FA1
:1001E0006E74656E742D547970653A206170706C10
:1001F00069636174696F6E2F782D7777772D666FDD
:10020000726D2D75726C656E636F6465640D0A0D99
:100210000A00436F6E74656E742D4C656E6774686A
:100220003A20000D0A557365722D4167656E743A68
:10023000207467722F312E310D0A4163636570742B
:100240003A202A2F2A0D0A000D0A00204854545043
:100250002F312E310D0A486F73743A2000504F53DE
:100260005420000D0A557365722D4167656E743A0E
:10027000207467722F312E310D0A416363657074EB
:100280003A20746578742F68746D6C0D0A0D0A003D
:1002900020485454502F312E310D0A486F73743A50
:1002A00020004745542000000108000604000145D5
:1002B000000082000040002043616C69627261743A
:1002C000696F6E20636F6D706C65746521004361AA
:1002D0006C6962726174696F6E20737461727465A7
:1002E00064210048656C6C6F000011241FBECFEFC5
:1002F000D8E0DEBFCDBF12E0A0E0B1E0E4ECF2E771
:1003000002C005900D92A839B107D9F727E0A8E9F6
:10031000B2E001C01D92AD37B207E1F70E94CE28CE
:100320000C9460390C940000CF93DF93529A5A9842
:1003300084E70E94D2278FEF0E94D22784EF0E9489
:10034000D22787E50E94D2275A9A62E070E088E8B7
:100350000E940728C7EFD3E09983888362E070E0AA
:100360008AE80E9429289B838A8362E070E08CE8F7
:100370000E9429289D838C8362E070E08EE80E94B1
:1003800007289F838E8362E070E080E90E9429281D
:100390009987888762E070E082E90E9429289B871C
:1003A0008A8762E070E084E90E9429289D878C8713
:1003B00062E070E086E90E9429289F878E8762E0CC
:1003C00070E088E90E942928998B888B62E070E0B0
:1003D0008AE90E9429289B8B8A8B62E070E08CE975
:1003E0000E9429289D8B8C8B62E070E08EE90E9430
:1003F00029289F8B8E8BDF91CF9108952F923F926A
:100400004F925F926F927F928F929F92AF92BF9224
:10041000CF92DF92EF92FF920F931F93CF93DF93D0
:10042000CDB7DEB76F970FB6F894DEBF0FBECDBF66
:1004300022E030E046E0BE016F5F7F4F87EF0E9411
:10044000D82789808D8E9A809E8E8B808F8E8C810E
:1004500090E0A0E0B0E0AC01BD01032E3CE0440F11
:10046000551F661F771F3A95D1F7302D9D81892F33
:1004700090E0A0E0B0E0880F991FAA1FBB1F880F73
:10048000991FAA1FBB1F880F991FAA1FBB1F880F88
:10049000991FAA1FBB1F842B952BA62BB72B2E8130
:1004A000822B0F2EF7EF6F2EF3E07F2EF02DF3014E
:1004B0004081518160E070E06C017D01689413F827
:1004C000F594E794D794C7941694D1F7C41AD50A33
:1004D000E60AF70A689412F8B595A7959795879557
:1004E0001694D1F7440F551F661F771F4C015D010D
:1004F000841A950AA60AB70AA5019401A281B381BC
:100500000E94092E4B015C01072E7BE0B594A79455
:10051000979487947A95D1F7702DA7019601C7011A
:10052000B6010E94C62D9B01AC01012E1CE0559521
:100530004795379527951A95D1F7102DA481B58148
:100540000E94092EDC01CB01072E7EE0B595A79510
:10055000979587957A95D1F7702D880D991DAA1DCD
:10056000BB1D8093180490931904A0931A04B093B0
:100570001B046C017D01FF0CCC08DC2C7601282FBC
:10058000392F4A2F5B2F6C2D7C2D8C2D9C2D345FA9
:100590004140510961097109810991092F833A8705
:1005A0004B875C876D877E878F87988BA22EB32EB3
:1005B000C42ED52EE62EF72E082F192F0E94112EAD
:1005C000298B3A8B4B8B5C8B698F7A8F8B8F9C8FAF
:1005D000D30119963C91199718962C91932F990F46
:1005E000990B492F592F692F792F892F0E94112E8E
:1005F0000CE00E94412F222E332E442E552E688768
:100600007987882E992EF30133852285932F990FB0
:10061000990BA988BA88CB88DC88E98CFA8C0B8D79
:100620001C8D492F592F692F792F892F0E94112E48
:1006300008E00E945A2FA22CB32CC42CD52CE8849D
:10064000F984082D192D0E94782F70588F4F9F4FD5
:10065000D30116962D903C901797A22CB32CC12C49
:10066000D12CE12CF12C00E010E00E94112E01E2CF
:100670000E945A2F288739874D8B5E8B6F8B788F1E
:10068000582E492EA0E00E948A2F09F465C10F2E32
:10069000F7EF2F2EF3E03F2EF02DF1013189208965
:1006A000932F990F990BA988BA88CB88DC88E98C9D
:1006B000FA8C0B8D1C8D492F592F692F792F892F7B
:1006C0000E94112E298B3A8B4B8B5C8B662E772EDA
:1006D000882E992ED1011F963C911F971E962C9122
:1006E000932F990F990BAF80BA84CB84DC84ED846F
:1006F000FE840F851889492F592F692F792F892F4B
:100700000E94112E01E10E94412FA988BA88CB884E
:10071000DC88E62CF72C082D192D0E94782FA22EAC
:10072000B32EC42ED52EE62EF72E8F83192F8D8C47
:10073000482D50E060E070E0DB01CA01072E7CE04C
:10074000880F991FAA1FBB1F7A95D1F7702D9E8C19
:10075000492D50E060E070E0440F551F661F771F81
:10076000440F551F661F771F440F551F661F771FC5
:10077000440F551F661F771F482B592B6A2B7B2B65
:100780008F8C482980E090E0A0E1B0E0841B950BBD
:10079000A60BB70B3C014D01990C6608762C430162
:1007A000282F392F4A2F5B2F662D762D862D962DDB
:1007B0000FE10E94412F622E732E842E952EB62FAC
:1007C000A72F8A879B87F10135852485932F990F61
:1007D000990B492F592F692F792F892F03E20E94F6
:1007E000412F0F810E94782FA22EB32EC42ED52E1A
:1007F000E62EF72E082F192F262D372D482D592D8F
:100800006B2F7A2F8A859B850E94812F0F2EF5E30F
:10081000AF2EF02D0F2EFCE0BF2EF02DC12CD12CD1
:10082000E12CF12C00E010E00E94112EA884B98484
:10083000CD88DE88EF88F88C052D142D0E946C2E53
:100840002F833A874B875C876D877E878F87988B4E
:100850000DE00E945A2F922E832E742E652E562E56
:10086000472E88879987D10157963C91579756967E
:100870002C91932F990F990BA92CB82CC72CD62CFF
:10088000E52CF42C082F1985492F592F692F792F22
:10089000892F0E94112E0E94112E09E10E945A2FC9
:1008A000AF80BA84CB84DC84ED84FE840F85188904
:1008B0000E94782F28873987442E552E662E772E52
:1008C000882E992EF10135892489932F990F990B40
:1008D000492F592F692F792F892F0E94112E03E15B
:1008E0000E945A2FA22EB32EC42ED52EE62EF72EFE
:1008F000082F192F28853985442D552D662D772DE4
:10090000882D992D0E94782F08E00E945A2FA22E40
:10091000B32EC42ED52EE62EF72EE82F192FD10197
:1009200053963C91539752962C91932F990F990B74
:10093000492F592F692F792F892F04E00E94412FC9
:100940000E2F0E94782F0E944E2C20E030E040E8CD
:100950005BE30E94592D03C060E070E0CB016F960D
:100960000FB6F894DEBF0FBECDBFDF91CF911F91C0
:100970000F91FF90EF90DF90CF90BF90AF909F903E
:100980008F907F906F905F904F903F902F90089541
:10099000FC016634710508F473C083A1853309F046
:1009A00071C084A1803E09F06FC085A190919E0224
:1009B00089136CC093A589136BC085A58F78803887
:1009C00029F081E08093980280E0089592A5945FD9
:1009D00061537109DF01A90FB11D9A968C91807C3A
:1009E00071F09E5F11C081E0890FDF01A80FB11D7A
:1009F0009A962C91211102C09E5F06C0982F292F34
:100A000030E02617370778F3292F30E0DF01A20FF7
:100A1000B31F9B968C91813099F088E0890FDF019C
:100A2000A80FB11D9B968C91965F980F292F30E0EF
:100A30002617370778F283E08093980280E00895C4
:100A4000DF01A20FB31FD3962C91243029F082E04E
:100A50008093980280E008952AE0290F30E0265D17
:100A60003F4FE20FF31FA9E9B2E02DE932E0919187
:100A70009D93A217B307D9F791E090939D02089533
:100A800080E0089580E0089580E0089580E0089572
:100A900080E008952A98962F6F71862B8EBD0DB435
:100AA00007FEFDCF1EBC0DB407FEFDCF992324F435
:100AB0001EBC0DB407FEFDCF2A9A8EB508952A9864
:100AC0006F71862B8EBD0DB407FEFDCF4EBD0DB4EC
:100AD00007FEFDCF2A9A0895FB012A982AE32EBD2E
:100AE0000DB407FEFDCF009769F0DF01A80FB91F15
:100AF0001EBC0DB407FEFDCF9EB59193EA17FB0710
:100B0000B9F701C0DF011C922A9A0895FB012A98C7
:100B10002AE72EBD0DB407FEFDCF09C09F01280FA7
:100B2000391F91919EBD0DB407FEFDCF03C0009704
:100B3000A9F703C02E173F07A1F72A9A08951F931C
:100B4000CF93DF93182F1076C12FD0E08091A102B0
:100B500090E0C817D907B1F043E06FE180EA0E9446
:100B60005F05AE0155954795559547955595479520
:100B700055954795559547956FE180E80E945F052B
:100B80001093A102DF91CF911F910895CF93C82FA9
:100B90000E949F056C2F80E00E944A05CF91089526
:100BA000CF93DF93C82FD62F0E949F054D2F6C2F18
:100BB00080E40E945F05DF91CF910895CF93682F65
:100BC00084ED0E94D00561E082ED0E94D0058AEE9E
:100BD0000E94C60580FDFBCF60E082ED0E94D0053B
:100BE00089ED0E94C605C82F88ED0E94C6052C2FEE
:100BF00030E0322F2227A901482BCA01CF91089556
:100C0000CF93DF93D62FC72F682F84ED0E94D00596
:100C10006D2F86ED0E94D0056C2F87ED0E94D005C8
:100C2000C8E203C08C2F8A95F1F78AEE0E94C605B0
:100C300080FDF8CFDF91CF910895682F677085E729
:100C40000E94D0050895CF93DF93EC01229A2A9A4F
:100C500084B1886284B924982B982D9880E58CBD46
:100C60008DB581608DBD4FEF60E08FEF0E945F0515
:100C700080E090E00197F1F71092A00210929F029D
:100C800060E088E00E94D00560E089E00E94D00525
:100C900060E08CE00E94D00560E08DE00E94D0050D
:100CA0006FEF8AE00E94D00569E18BE00E94D005D9
:100CB00060E084E00E94D0056AE185E00E94D005F2
:100CC0006FEF86E00E94D0056FE187E00E94D005BB
:100CD00060EB88E30E94D0056FE388E20E94D005B4
:100CE00060E389E20E94D00569EF80E30E94D005AD
:100CF00067EF81E30E94D0056DE080EC0E94D00593
:100D000060E081EC0E94D00542E362EC80E80E9442
:100D10005F0562E186EC0E94D0056CE087EC0E94E2
:100D2000D00562E184EC0E94D0056CED8AEC0E9453
:100D3000D00565E08BEC0E94D005688184EE0E94AE
:100D4000D005698185EE0E94D0056A8182EE0E94FD
:100D5000D0056B8183EE0E94D0056C8180EE0E94ED
:100D6000D0056D8181EE0E94D00560E071E080E1E8
:100D70000E9400068FE10E949F0540EC6BE180E835
:100D80000E945F0544E06FE180E80E945F05DF910B
:100D9000CF91089581E10E94DE0592FB882780F9BA
:100DA00008950F931F93CF93DF93EC018B016FE1B5
:100DB00080E00E944A0583FDFACF8CE10E94C605BF
:100DC00081FF13C040E86FE180E80E945F0540E8C2
:100DD0006FE180EA0E945F0542E06CE180EA0E94D8
:100DE0005F0580E395E70197F1F760E082E00E94FC
:100DF000D0056AE183E00E94D0056C2F86E00E9456
:100E0000D005CE01965E692F87E00E94D00540E0B4
:100E100060E08AE70E945F05B801CE010E94860566
:100E200048E06FE180E80E945F05DF91CF911F915C
:100E30000F910895AF92BF92CF92DF92EF92FF92FF
:100E40000F931F93CF93DF936C017B0189E30E9483
:100E5000C605882309F464C060919F02C091A00276
:100E600080E00E94D0056C2F81E00E94D00560E0F8
:100E70008AE30E944A05C82F60E08AE30E944A057F
:100E8000D0E0D82BD093A002C0939F0260E08AE309
:100E90000E944A05B82E60E08AE30E944A05A82E07
:100EA00060E08AE30E944A05082F60E08AE30E941E
:100EB0004A0507FF11C081E0C81AD1080B2D10E0C8
:100EC0001A2904501109C016D10608F48601B70189
:100ED000C8010E946C0502C000E010E07E0181E0C4
:100EE000E81AF108E1148AE1F8064CF06FEF8CE0A3
:100EF0000E94D00569E18DE00E94D00509C06C2FE9
:100F000061508CE00E94D0056F2D8DE00E94D005CD
:100F100040E46EE180E80E945F05802F912F02C0BF
:100F200080E090E0DF91CF911F910F91FF90EF90C3
:100F3000DF90CF90BF90AF900895CF92DF92EF9265
:100F4000FF920F931F93CF93DF93EA018901909152
:100F5000BA02981761F0E091B702F091B80240E050
:100F600050E060E070E084EF91E009955EC06111AF
:100F70005CC02D30310508F458C0E090B702F09005
:100F8000B802E114F10409F450C0C090AB02D09053
:100F9000AC02F601E40FF51F808590E00E94E62F79
:100FA000892BB9F1F601EC0FFD1F218530E02053AC
:100FB00031092A30310580F5F601EC0FFD1F8385DC
:100FC00090E0AC01405351094A30510540F5C90148
:100FD000880F991F220F331F220F331F220F331F39
:100FE000280F391FF601EC0FFD1F828590E0C09796
:100FF000280F391FC901880F991F220F331F220F95
:10100000331F220F331F280F391FCA01820F931F6E
:1010100008C080E090E005C080E090E002C080E081
:1010200090E0A801BE01F701099580E0DF91CF9122
:101030001F910F91FF90EF90DF90CF900895CF9286
:10104000DF92EF92FF92CF93DF93EC01DB0141300F
:1010500061F46B0188E0C81AD108E12CF12C81E120
:10106000C80ED11CE11CF11C11C0423061F46B01AF
:1010700088E0C81AD108E12CF12C86E0C80ED11CFA
:10108000E11CF11C03C0C12CD12C7601A230B105AA
:10109000F0F09D01FE01408150E060E070E0762FAD
:1010A000652F542F44278181482BC40ED51EE61E80
:1010B000F71E3296225031092230310560F7CD01FA
:1010C00002978E7F0296C80FD91FA170BB27AB2B4A
:1010D00061F0888190E0A0E0B0E0BA2FA92F982FAE
:1010E0008827C80ED91EEA1EFB1EA7016627772790
:1010F000411551056105710571F0EE24FF24C40E00
:10110000D51EE61EF71EA701662777274115510554
:101110006105710591F7C60180959095DF91CF919A
:10112000FF90EF90DF90CF900895009741F026E078
:10113000FC01A3EDB2E001900D922A95E1F708952C
:10114000CF93DF93FC0130812091CF022327309190
:101150000101232391F43196C0EDD2E0A2E0B1E089
:10116000AC014C5F5F4F819129919D91822789232A
:1011700031F4E417F507B9F703C081E001C081E05D
:10118000DF91CF910895FC01328DFB012081321354
:101190000DC0DC015B9631964E963D912191321344
:1011A00007C0A817B907C9F781E0089580E008953E
:1011B00080E0089569327105C8F0FC01248528306B
:1011C000B9F425852630B1F436A12091CF0232132F
:1011D00013C0B796A0EDB2E08A9631912D913213EB
:1011E0000DC0E817F907C9F781E0089580E0089578
:1011F00080E0089580E0089580E0089580E00895FB
:10120000CF93DF93FC016A327105E0F0848588306A
:10121000D9F4858581111AC096859534C1F4268D3F
:101220009091CF02291313C0DF015F96C0EDD2E089
:10123000B2962D91999129130AC0AE17BF07C9F72D
:1012400081E005C080E003C080E001C080E0DF9164
:10125000CF910895FC01A3EDB2E09C012A5F3F4FBE
:10126000868181938D918583E217F307C9F70895ED
:10127000CF93DF93EC01188E198E80E48C8B1D8A3E
:101280008E8B40E064E170E0CE010E960E941F0854
:10129000988F898FDF91CF910895AC01AFECB2E0C8
:1012A000FC017A9623ED32E0908194839D91919395
:1012B000A217B307C9F7CA010E9438090895FC01B3
:1012C000BA9686962291620F711D2481648344230D
:1012D00011F0208301C01082672F7727E817F907E4
:1012E00089F70895CF93DF93EC018CA19AA19CA379
:1012F0008AA38DA19BA19DA38BA3CE010E945F0910
:101300001AAA1BAA80E58EA7DF91CF910895CF93EB
:10131000DF93EC010E942A091C8A82E08D8BA3EDE9
:10132000B2E0FE01769629ED32E0808182878D91D0
:101330008193A217B307C9F7AFECB2E0FE017C9628
:1013400023ED32E0808182878D918193A217B307CC
:10135000C9F7BE018AE290E00E94D106DF91CF91E9
:1013600008950F931F93CF93DF93EC018B010E949D
:101370002A09CE010E944D091AA28CA1883F18F0BB
:101380009DA19F5F9DA3885F8CA3BE01C8010E94A1
:10139000D106DF91CF911F910F910895FC01208913
:1013A00030E0322F22278189282B2451310986A54C
:1013B00082958F70A90164E0869F4019510911241C
:1013C000CA01992314F480E090E008959A012F5FF8
:1013D0003F4FFA014491442369F0FB01F696DC018A
:1013E000AE0FBF1FF9014D936F5F7F4F4491319650
:1013F0004111F9CFCB010895222391F0A42FB52FED
:10140000AB014A5C5F4FFC01E40FF51F922F3D9149
:1014100031939150E1F72150620F711D6F5F7F4F43
:10142000CB010895FA0101900020E9F731979F015F
:10143000241B350B0E94FC090895EF92FF920F9335
:101440001F93CF93DF9300D000D01F92CDB7DEB7AC
:101450009091BA029813B8C08091B902811130C03E
:101460000091AB021091AC0242EA52E060E070E001
:10147000C8010E94E6094091B1025091B202BC013C
:10148000C8010E94E6094091AF025091B002BC0130
:10149000C8010E94120A40E952E0BC01C8010E9442
:1014A000E6094091AD025091AE02BC01C8010E9414
:1014B000E60943E652E0BC01C8010E94E60986C085
:1014C000813009F074C00091AB021091AC024DE57F
:1014D00052E060E070E0C8010E94E6094091B1026C
:1014E0005091B202BC01C8010E94E6094091AF02CE
:1014F0005091B002BC01C8010E94120A4BE452E0B4
:10150000BC01C8010E94E6094091AD025091AE02B3
:10151000BC01C8010E94E609E090B502F090B60255
:10152000E114F10459F048E452E0BC01C8010E9402
:10153000E609A701BC01C8010E94E60943E252E0A6
:10154000BC01C8010E94E60942E152E0BC01C801A9
:101550000E94E6097C01E091B302F091B402DF0140
:101560000D900020E9F7CD0101974AE0BE016F5FC1
:101570007F4F8E1B9F0B0E9409300091AB02109190
:10158000AC02AE014F5F5F4FB701C8010E94120A63
:101590004CED51E0BC01C8010E94E6094091B30244
:1015A0005091B402BC01C8010E94120A0FC04091C0
:1015B000AF025091B00260E070E08091AB02909178
:1015C000AC020E94120A02C080E090E00F900F90DF
:1015D0000F900F900F90DF91CF911F910F91FF907F
:1015E000EF900895FF920F931F93CF93DF93EC0139
:1015F0008B01F42E0E942A098F2D80618FA784E031
:10160000F81206C041E0B801CE010E9472090AC07A
:101610000115110511F401E010E041E0B801CE011F
:101620000E947209188A88E2898BCE010E944D09B6
:1016300084E088AB19AA42E06CE170E0CE014A96E2
:101640000E941F089AAB8BABBE0186E390E00E941C
:10165000D106DF91CF911F910F91FF9008950F93C5
:101660001F93CF93DF93EC018B01CB018896988B6E
:10167000898BCE010E9438091AAA1BAAB801645EA0
:101680007F4F42E0CE014A960E941F089AAB8BAB77
:10169000BE01C801C6960E94D106DF91CF911F916D
:1016A0000F9108959C016115710551F0DB01EFEC7C
:1016B000F2E043ED52E09D919193E417F507D9F7DD
:1016C0002115310519F0C9010E94950808959093DC
:1016D000A402809305010895CF93DF93EC010E944B
:1016E0002A09188A8CE2898BCE010E944D0982E179
:1016F0008FA740E061E070E0CE010E9472091EA257
:101700001FA28091090188A719A68D5F8093090106
:1017100082E08EAB84E08FAB85E088AF19AE80E6C7
:101720008EA78AE088AB19AA42E060E270E0CE01A1
:101730004A960E941F089AAB8BABBE018AE390E0E9
:101740000E94D106DF91CF910895DC01FA01611565
:10175000710541F0680F791F84918D9331966A1756
:101760007B07D1F70895CF92DF92EF92FF920F930C
:101770001F93CF93DF937C018091CF028823D1F117
:10178000D701C3EDD2E009ED12E0FE012FEF2D935A
:10179000919115969C9315970E171F07C1F7D72E99
:1017A000C62E88E0F701848786E0858747EA52E005
:1017B00068E070E0C7010E960E94A50BF7017696CF
:1017C0008991819311860C171D07D1F7CC2DDD2D42
:1017D000AFECB2E0F7017C9623ED32E0899182878D
:1017E0008D918193A217B307C9F7B7018AE290E000
:1017F0000E94D106DF91CF911F910F91FF90EF9042
:10180000DF90CF90089581E09091A602923009F484
:1018100080E0089550931D0440931C0421E0209320
:10182000A6026093A502DC01E7EAF2E02BEA32E0CF
:101830008D918193E217F307D9F70895DF92EF9224
:10184000FF920F931F93CF93DF93EC01F62EE42EBC
:10185000D52EA2ECB2E0BC0183ED92E048EC52E060
:101860002D91FB012193BF01FC012191CF01FB01CF
:101870002583A417B507A1F788E08C871D864FEA5A
:1018800052E069E070E0CE010E960E94A50B8CE25A
:10189000898B809100018B8B8F5F8093000186E0A4
:1018A0008F8BA8ECB2E08FEC92E08E01065E1F4FAA
:1018B000B8014CEC52E02D91FB012483FC012191F5
:1018C000CF01FB012193BF01A417B507A1F7CE01FA
:1018D0000E943809DCA2EDA28BE08AA3FBA2FE01E4
:1018E000B696CE018E9611928E179F07E1F78091E2
:1018F000090188A78D5F8093090180E68EA782E0A9
:101900008FA793E098AB19AA1AAA1BAA1CAA1DAA12
:101910008EAB94E09FAB88AF8EEE89AF42E060E281
:1019200070E0C8010E941F089AAB8BABBE018AE32E
:1019300090E00E94D106DF91CF911F910F91FF900F
:10194000EF90DF9008950F931F939093BE028093C2
:10195000BD027093BC026093BB02A22FB32FE8ECD0
:10196000F2E02CEC32E08D918193E217F307D9F786
:10197000A02FB12FE2ECF2E028EC32E08D918193C0
:10198000E217F307D9F75093C0024093BF0281E0FA
:101990008093C1028091CC028F5F883018F48093CD
:1019A000CC0202C01092CC028091CC021F910F9108
:1019B00008958F929F92AF92BF92CF92DF92EF9253
:1019C000FF920F931F93CF93DF934C015B017A013A
:1019D0006901E8010E94CA068823B1F09092B00222
:1019E0008092AF0282E08093B902B092B802A092D6
:1019F000B70286019701AE016DE17AE08DE997E0CB
:101A00000E94A30C8093BA02DF91CF911F910F9196
:101A1000FF90EF90DF90CF90BF90AF909F908F900E
:101A200008959093CE028093CD020895DF92EF92B5
:101A3000FF920F931F93CF93DF938C01EB012097BD
:101A400009F056C08091A602893079F48091060190
:101A500090910701892BF9F40E94CA06882329F086
:101A600067EA72E0C8010E94B30B8091A602813040
:101A700091F40E94CA06882371F067EA72E0C801F7
:101A80000E94B30B8091A60288608093A6021092F8
:101A900007011092060180910601909107010196BD
:101AA00090930701809306018091C102813009F073
:101AB000A8C10E94CA06882309F4A6C182E08093C7
:101AC000C102809108018F5F809308014091BF029D
:101AD0005091C0026091CC0290E2699FB001112444
:101AE0008F71682BC8010E941E0CE12CF12CC0C123
:101AF0000E94DA08882371F1D80155968C918130C3
:101B000019F4C8010E9487098091A60283FF7FC152
:101B1000F8018589823009F07DC144E050E067EA30
:101B200072E0C8014C960E94EE2F892B09F075C116
:101B3000A8014A5E5F4FE0911C04F0911D04609182
:101B4000A50287EA92E0099582E08093A602E12C43
:101B5000F12C8EC1BE01C8010E940009882309F43E
:101B60005FC1D80157968C9157978130A9F492960E
:101B70008C91883009F057C1E091CD02F091CE02EE
:101B8000309719F0C8014A960995BE01C8010E9414
:101B9000B109E12CF12C6CC1C633D10508F446C162
:101BA000863009F046C1F80184A18B3009F0F0C0FD
:101BB0001093AC020093AB0268EC72E0C8010E9483
:101BC000C308882309F438C1D8019F96DC909F97F9
:101BD000D2FE17C0E091BD02F091BE02309759F0DD
:101BE00095968C9120E030E040E050E063E08295F3
:101BF00086958770099586E08093C102E12CF12CCF
:101C000037C1C8010E94CE097C018091C102823097
:101C1000D9F59D2D90718D2D8271823119F540E09D
:101C200060E070E0C8010E94F20A88E1F80187A72D
:101C3000E091BB02F091BC02309741F0D80193963D
:101C40008C91829586958770099502C080E090E01E
:101C500023E02093C102BC01C8010E942F0BE12C9C
:101C6000F12C06C181E08093C102911104C0B7013B
:101C70006F5F7F4F02C060E070E044E0C8010E94E7
:101C8000F20AE12CF12CF4C0833009F03FC0E114DA
:101C9000F10409F4E6C084E08093C102E091BD0242
:101CA000F091BE02309709F456C0D8019E964C912F
:101CB00042954F70B4E04B9FA0011124CE010897CC
:101CC0004E5D5F4F8417950708F4AC01C701840F80
:101CD000951FC817D90720F49E01241B350B01C09E
:101CE0009701D80195968C9160E0829586958770D2
:101CF0000995882359F049E0B701C8010E94F20A0A
:101D000085E08093C102E12CF12CB2C08091C10228
:101D1000853051F4F80187A584FF91C086E0809357
:101D2000C102E12CF12CA4C08630A9F4D8019F9601
:101D30008C9184FD04C0B7016F5F7F4F02C060E0EB
:101D400070E044E0C8010E94F20A87E08093C1027B
:101D5000E12CF12C8DC0F80187A580FF0DC0B701E3
:101D60006F5F7F4F41E0C8010E94F20A85E08093D7
:101D7000C102E12CF12C7CC0E114F10409F462C031
:101D800040E0B701C8010E94F20AE12CF12C70C0BA
:101D90009091A402891359C095A1809105019813CF
:101DA00057C0D7A4D1FE06C0C8010E946C0BE12C1D
:101DB000F12C5EC0D4FE4FC0C8010E94CE097C0148
:101DC0009093A3028093A202892B49F4D0FE50C0C5
:101DD00040E060E070E0C8010E94F20A49C0F801EA
:101DE000E6A4E694E694E694E694F4E0EF9E7001AF
:101DF000112482E2E80EF11C2897CE15DF0570F160
:101E000037C0E12CF12C34C0E12CF12C31C0E12C95
:101E1000F12C2EC0E12CF12C2BC0E12CF12C28C090
:101E2000E12CF12C25C0E12CF12C22C0E12CF12C6D
:101E30001FC0E12CF12C1CC0E12CF12C19C0E12CAD
:101E4000F12C16C0E12CF12C13C0E12CF12C10C0A8
:101E5000E12CF12C0DC0E12CF12C0AC0E12CF12C6D
:101E600007C0D8019F968C9180FD79CFE12CF12C91
:101E7000C701DF91CF911F910F91FF90EF90DF90FD
:101E800008950895613059F4A42FB52FE3EEF3E0DF
:101E900029EE33E08D918193E217F307D9F7089586
:101EA0008091DA02811103C081E08093DA02089503
:101EB0001092DC02E4E6F0E080818F7B808382E098
:101EC000809370001092B20094EF9093B3008093CF
:101ED000B00087E08093B10008951F920F920FB673
:101EE0000F9211248F938091DC028F5F8093DC022C
:101EF0008091DC02833338F01092DC028091DD02A5
:101F00008F5F8093DD028F910F900FBE0F901F9017
:101F10001895CF92DF92EF92FF920F931F93CF937A
:101F2000DF936C0181E08093DB026EED72E080E074
:101F300091E00E941A077C011092DE03BC018EED35
:101F400092E00E94160DEC01E114F10499F48091E5
:101F5000DA02813079F41092DD021092DA0200E5A3
:101F600010E023EE33E04FED53E061E47FE0C60183
:101F70000E94D90C8091DD0290E0209153063091AF
:101F800054062817390728F41092DB0281E0809369
:101F9000DA02209731F4B7018EED92E00E94C80476
:101FA00025C0C252DD4F4EE050E0BE018FE291E00D
:101FB0000E94FB2F892BD1F483E596E09F938F93AA
:101FC0008EE391E09F938F93DF93CF930E9425310F
:101FD000609153067091540680E190E00E943D3973
:101FE0000F900F900F900F900F900F90DF91CF9167
:101FF0001F910F91FF90EF90DF90CF900895CF93B6
:10200000DF93E1E6F0E080E880831082C0E08C2F6F
:102010008A95F1F782E191E00E94230681E00E9417
:102020001D06CA95F1F70E94580F789466E774E090
:1020300084E10E9400066EE071E082E191E00E947E
:10204000520B80E590E00E94670B42E45FE061E0A4
:102050008AE091E00E940A0C0BC06EED72E080E015
:1020600091E00E941A07BC018EED92E00E94160DCD
:102070000E94030C8111F1CF60E571E08FED93E0D8
:102080000E94711082E08093D902D3E0C4E002C0C4
:102090008230A1F48FED93E00E94A008882321F004
:1020A00084E08093D90216C042E45FE062E08FEDE5
:1020B00093E00E940A0CD093D90208C0833031F417
:1020C0000E94030C811102C0C093D9028091D902F1
:1020D0008430F1F680E59FE00E94110DDF91CF91F1
:1020E0000895AF92BF92DF92EF92FF920F931F93EA
:1020F000CF93DF9300D000D0CDB7DEB7FC011082C4
:10210000118212821382DB019C91992309F448C049
:102110007F018B010F5F1F4FD12C20E0233078F41B
:10212000492F50E0405351094A30510540F4E1E055
:10213000F0E0EC0FFD1FE20FF11D90832F5F2223D3
:10214000A1F09E3291F4E1E0F0E0EC0FFD1FE20F10
:10215000F11D10825701AD0CB11CCE0101960E94F9
:10216000C52FF5018083D39420E0D8019D918D0186
:10217000992319F0B3E0BD1588F6E3E0DE1212C032
:10218000E1E0F0E0EC0FFD1FE20FF11D1082CE0147
:1021900001960E94C52FD70113968C9380E003C04F
:1021A00081E001C081E00F900F900F900F90DF91C0
:1021B000CF911F910F91FF90EF90DF90BF90AF9064
:1021C0000895CF93DF9342305105C0F0DB01FC014D
:1021D0009A01CD91DD91C193D193225031092230E2
:1021E0003105B8F79A01225031092E7F2E5F3F4FFB
:1021F000820F931F620F731F4170552741155105C0
:1022000049F0DB01FC01480F591F9D919193E417A0
:10221000F507D9F7DF91CF910895CF93DF93EC01C4
:10222000A881B9811097F9F04C91413258F04A33A6
:1022300031F1FD0131969F019191913228F09A334D
:10224000D1F704C0942F9D019A3381F4CD010196FA
:102250002817390771F4403379F41296B983A883AB
:1022600080E090E00EC08FEF9FEF0BC080E090E029
:1022700008C08FEF9FEF05C08FEF9FEF02C09D0159
:10228000E5CFDF91CF9108958F929F92AF92BF9249
:10229000CF92DF92EF92FF920F931F93CF93DF9332
:1022A000FC012481222309F446C0EC01C2A4D3A47A
:1022B000E4A4F5A45C01FEE2AF0EB11C01E010E065
:1022C000A7019601B50189810E944924811135C079
:1022D0001C828E8D9F8DA8A1B9A1B701A601481BB4
:1022E000590B6A0B7B0B8E899F89A88DB98D481776
:1022F00059076A077B0718F58B80912C82E08816B6
:102300009104F8F08E899F89A88DB98DC80ED91EC9
:10231000EA1EFB1E01E010E0A7019601B5018981CC
:102320000E944924E1E08E1A9108F1E08F16910491
:1023300049F780E007C080E005C081E003C080E08D
:1023400001C080E0DF91CF911F910F91FF90EF903E
:10235000DF90CF90BF90AF909F908F9008958F9215
:102360009F92AF92BF92FF920F931F93CF93DF93F1
:10237000EC014A015B018AA59BA5ACA5BDA584170C
:102380009507A607B707E9F0CE010E944411F82E81
:10239000811118C001E010E0A5019401BE01625D49
:1023A0007F4F89810E94F323882331F0FF24F39427
:1023B00088248A94982C54018AA69BA6ACA6BDA614
:1023C00001C0F12C8F2DDF91CF911F910F91FF90C4
:1023D000BF90AF909F908F900895CF93DF93EC01C3
:1023E0001C828FEF9FEFDC018AA79BA7ACA7BDA73C
:1023F000CE010E94AF11811123C0FE01E45DFD4FAB
:102400008081918185359A4AE9F4E85CF1408081C8
:102410009181A281B381BB2786349144A445B10543
:1024200099F0C058DF4F488159816A817B817727B5
:1024300081E0463451446445710539F480E005C0BB
:1024400083E003C082E001C080E0DF91CF91089576
:102450000097C9F0DC01ED91FC9111973097A9F03C
:1024600020812223A1F02681378112968D919C91A3
:1024700013972817390769F481810E94EC2380FDA6
:102480000AC080E0089589E0089589E0089589E010
:10249000089589E0089583E008952F923F924F9226
:1024A0005F926F927F928F929F92AF92BF92CF92E4
:1024B000DF92EF92FF920F931F93CF93DF93CDB7ED
:1024C000DEB76D970FB6F894DEBF0FBECDBF6C01BF
:1024D000CB01B42ED6011D921C920E940D117C01DD
:1024E00099230CF404C2FC01EE0FFF1FE551FC4FD1
:1024F000008111810115110509F4FBC1F601118359
:102500000083D8018C91882369F011968C910E94E8
:10251000EC2380FD07C0BB2009F4EDC182FFEDC1B3
:102520008AE08EC2F8011082E1828E2D0E9428235B
:1025300080FDE5C1BB2009F402C282FDE2C1FFC1FA
:102540008081882329F0448055806680778004C08C
:102550004E2C5F2C672E762ED9014D925D926D9296
:102560007D929D0170964E175F0751F74E01B1E1C4
:102570008B0E911C6894772471F8F501C190D1906D
:10258000E190F1905F01C114D104E104F10441F044
:10259000B701A601C8010E94ED11811102C00DC052
:1025A000872DA814B90449F703C0C12CD12C76019A
:1025B000833009F4A8C18111A8C1D801D9968D91A1
:1025C0009C91DA978115924009F0A1C1F801EC5B6A
:1025D000FF4F40805180612C712C411451046104E3
:1025E000710429F43E964080518062807380F80126
:1025F000468A578A608E718EA6ADA3838FEF8A0FAD
:10260000823008F086C1F3ADF98B2F2FF8012283B9
:10261000222309F480C1822F90E09C0121503109CE
:1026200082239323892B09F078C1FF962080318083
:10263000F80131862086C1018F709927892B09F016
:102640006EC1EF5BFF4F80809180A12CB12C811473
:102650009104A104B10429F43D9680809180A28068
:10266000B380F80104ACF5ADE02D309709F459C101
:10267000B0E0A30192010E94FE2D6A8F7B8F8C8FA8
:102680009D8F9F0140E050E02E8B3F8B488F598FEC
:10269000C101929582958F7089279F708927280F95
:1026A000391F411D511DDA01C9012A8D3B8D4C8D09
:1026B0005D8D280F391F4A1F5B1F2A8B3B8B4C8B6C
:1026C0005D8B82169306A406B50608F42CC1C501DD
:1026D000B401621B730B840B950BE9892E2F30E03C
:1026E00040E050E00E94D62DDA01C90121153105E4
:1026F0004105510509F419C1263FFFE03F07410597
:10270000510518F0E2E0E98B02C0F1E0F98B863F59
:102710009F4FA105B10508F02AC149015A0182E085
:10272000880E911CA11CB11CD80152968D929D92CD
:10273000AD92BC925597F801C28ED38EE48EF58E81
:102740008E899F89A88DB98D8C0D9D1DAE1DBF1DD5
:10275000868F978FA0A3B1A34A895B896C897D89F5
:102760004C0D5D1D6E1D7F1D46A357A360A771A76D
:10277000F989F33069F5232809F0D9C0F801E65A40
:10278000FF4F80819181A281B381F80182A393A33D
:10279000A4A3B5A3880C991CAA1CBB1C880C991C6B
:1027A000AA1CBB1CFFEF8F0EF1E09F1EA11CB11CE9
:1027B000072E79E0B694A794979487947A95D1F7E9
:1027C000702D481459046A047B0408F4B2C0FBC09D
:1027D000232809F4B0C02A8D3B8D4C8D5D8D820F6E
:1027E000931FA41FB51FF80182A393A3A4A3B5A3AD
:1027F000F989F23029F4880C991CAA1CBB1C0AC167
:10280000A3E0B0E0A50194010E94FE2DDC01CB0104
:10281000B695A7959795879521E082229924AA24B9
:10282000BB24880E991EAA1EBB1EF4C0B701A601C8
:102830004F5F5F4F6F4F7F4FC8010E94AF118111F3
:1028400039C0D80115961C92F801E45DFD4F8081D6
:10285000918185359A4A89F5F80186A597A5A0A9A1
:10286000B1A982359245A146B14451F5F801EE5E19
:10287000FD4F80819181A281B38182379247A1442B
:10288000B14609F5349680819181A281B381F80126
:1028900086879787A08BB18BE65EFD4F8081918103
:1028A000A281B381F80182879387A487B587F3E07B
:1028B000F98B0BC0E3E0E98B08C0F3E0F98B05C0AE
:1028C000E3E0E98B02C0F3E0F98BE989D801EC93EE
:1028D0008091E9039091EA0301969093EA03809333
:1028E000E90317969C938E93169780E0A9C08BE01E
:1028F000A7C08CE0A5C080E0A3C080E0A1C083E0B9
:102900009FC08AE09DC081E09BC08DE099C08DE0B2
:1029100097C08DE095C08DE093C08DE091C08DE0B3
:102920008FC08DE08DC08DE08BC08DE089C08DE0C3
:1029300087C08DE085C08DE083C08DE081C040E020
:1029400050E0BA01C8010E94ED11813009F02DCE8E
:10295000F801E051FE4F9E012F5F3F4F5901A80142
:10296000405D5D4FE12CF12C70E060E0E9CD490164
:102970005A0162E0860E911CA11CB11CD80152962E
:102980008D929D92AD92BC925597F801C28ED38ED6
:10299000E48EF58E8E899F89A88DB98D8C0D9D1D35
:1029A000AE1DBF1D868F978FA0A3B1A38A899B8977
:1029B000AC89BD898C0D9D1DAE1DBF1D86A397A33F
:1029C000A0A7B1A7D8CE8FEF9FEFDC01F8018687D3
:1029D0009787A08BB18B82879387A487B58780E880
:1029E0008583E25AFF4F80819181019709F41ECFC0
:1029F000F3E0F98B6ACF8FEF9FEFDC01F801868758
:102A00009787A08BB18B82879387A487B58780E84F
:102A100085835BCFFFEF8F0EF1E09F1EA11CB11CE1
:102A2000072E79E0B694A794979487947A95D1F776
:102A3000702D481459046A047B0408F47ECFDBCF60
:102A40006D960FB6F894DEBF0FBECDBFDF91CF916C
:102A50001F910F91FF90EF90DF90CF90BF90AF90BC
:102A60009F908F907F906F905F904F903F902F90AE
:102A700008950F931F93FC019A01AB012250310975
:102A80004109510982899389A489B5890297A109CD
:102A9000B109281739074A075B0768F4A281B0E03B
:102AA0000E94FE2D06A117A120A531A5600F711F60
:102AB000821F931F03C060E070E0CB011F910F9154
:102AC0000895AF92BF92CF92DF92EF92FF920F9351
:102AD0001F93CF93DF93423051056105710508F4D0
:102AE000AEC0FC01C288D388E488F5884C155D052A
:102AF0006E057F0508F0A8C06A017B01EC018081AA
:102B0000823009F44DC0833009F46CC0813009F083
:102B1000A0C08A0116950795040F151FC801892FBB
:102B200099278695468D578D60A171A1480F591F31
:102B3000611D711DCF010E94AF1181118FC058011D
:102B4000FFEFAF1ABF0A1170FE01E00FF11F16A5CB
:102B5000C501892F992786954E8D5F8D68A179A132
:102B6000480F591F611D711DCE010E94AF118111C7
:102B700079C081E0B822CA0DDB1D8EA5612F70E0FF
:102B8000782BC0FE09C0729562956F7067277F70C1
:102B9000672780E090E071C07F7080E090E06DC0BA
:102BA000452F562F672F7727868D978DA0A1B1A12E
:102BB000480F591F6A1F7B1FCF010E94AF1181115F
:102BC00055C0B701A601440F551F661F771F4E7FE2
:102BD000517066277727C40FD51F6EA57FA580E0AB
:102BE00090E04BC0868D978DA0A1B1A1689416F896
:102BF00076956795579547951694D1F7480F591FC5
:102C00006A1F7B1FCF010E94AF11811133C0B70132
:102C1000A601440F551F661F771F440F551F661FDF
:102C2000771F4C7F517066277727C40FD51F8EA55D
:102C30009FA5A8A9B9A9BC01CD019F701EC061E0E4
:102C400070E080E090E019C061E070E080E090E02A
:102C500014C061E070E080E090E00FC06FEF7FEFA4
:102C6000CB010BC06FEF7FEFCB0107C06FEF7FEFA2
:102C7000CB0103C06FEF7FEFCB01DF91CF911F91AD
:102C80000F91FF90EF90DF90CF90BF90AF9008959D
:102C9000AF92BF92CF92DF92EF92FF920F931F936A
:102CA000CF93DF93EC018B017D836C83CE80DF803B
:102CB000E884F98481E0C816D104E104F10409F440
:102CC0008BC0E881F98182899389A489B589C81666
:102CD000D906EA06FB0608F081C0C114D104E1045C
:102CE000F104C1F48081833041F482A193A1A4A1B5
:102CF000B5A10097A105B10559F480859185081704
:102D0000190708F06DC062A173A184A195A137C015
:102D10006C017D01A28080E1A89E500111240A155A
:102D20001B0538F1B701A601888199810E946115C0
:102D30006B017C018FEFC816D806E806F80609F487
:102D400051C082E0C816D104E104F10408F44CC07B
:102D5000E881F98182899389A489B589C816D90641
:102D6000EA06FB0608F042C00A191B090A151B05F2
:102D7000C8F6B701A601888199810E943915CA86D3
:102D8000DB86EC86FD86611571058105910581F173
:102D90009801329522952F7023273F702327DC015D
:102DA000CB01820F931FA11DB11D8E879F87A88B1A
:102DB000B98B888199818E960F701127000F111F92
:102DC00002951295107F1027007F1027080F191FFA
:102DD0001B8B0A8B80E00DC082E00BC082E009C033
:102DE00082E007C081E005C082E003C082E001C04C
:102DF00082E0DF91CF911F910F91FF90EF90DF90D4
:102E0000CF90BF90AF9008954F925F926F927F9254
:102E10009F92AF92BF92CF92DF92EF92FF920F9369
:102E20001F93CF93DF93423051056105710508F47C
:102E3000DBC0FC01C288D388E488F5884C155D05A9
:102E40006E057F0508F0D4C0680179012A013B01B5
:102E5000EC018081823009F465C0833009F488C0B8
:102E6000813009F0C9C08A0116950795040F151F16
:102E7000C801892F99278695468D578D60A171A12C
:102E8000480F591F611D711DCF010E94AF11982E6F
:102E90008111D1C05801FFEFAF1ABF0A117040FE77
:102EA00021C0FE01E00FF11F86A5282F2F7030E111
:102EB000C39EC0011124822B86A781E08C834E8D96
:102EC0005F8D68A179A1C501892F99278695480F43
:102ED000591F611D711DCE010E94AF11882309F495
:102EE00093C08EC0FE01E00FF11FC6A681E08C8367
:102EF0004E8D5F8D68A179A1C501892F992786958F
:102F0000480F591F611D711DCE010E94AF1188230A
:102F100009F485C077C0FE01EA0DFB1DC6A681E05D
:102F20008C8389C0452F562F672F7727868D978DE5
:102F3000A0A1B1A1480F591F6A1F7B1FCF010E949A
:102F4000AF11982E811177C0B301A201440F551F14
:102F5000661F771F4E7F517066277727425D5F4F50
:102F6000FE01E40FF51FD182C08281E08C8363C033
:102F7000868D978DA0A1B1A1689416F87695679576
:102F8000579547951694D1F7480F591F6A1F7B1F15
:102F9000CF010E94AF11982E81114DC0B301A20143
:102FA000440F551F661F771F440F551F661F771F5D
:102FB0004C7F517066277727425D5F4FFE01E40F1B
:102FC000F51F0081118122813381002711272227DB
:102FD000307FC02AD12AE22AF32AC082D182E2823B
:102FE000F38281E08C8327C06894992491F823C0F0
:102FF0006894992491F81FC06894992491F81BC093
:10300000982E19C0982E17C081E0B822689413F842
:10301000F694E794D794C7941694D1F77CCFE1E067
:10302000BE22FE01EA0DFB1D96A5907F8D2D8F70AF
:10303000C92EC82A70CF892DDF91CF911F910F9192
:10304000FF90EF90DF90CF90BF90AF909F907F90D8
:103050006F905F904F9008954F925F926F927F9222
:103060008F929F92AF92BF92CF92DF92EF92FF9298
:103070000F931F93CF93DF93EC012A013B0141157E
:10308000510561057105B9F48A849B84AC84BD84C3
:1030900081149104A104B10461F18A899B89AC89EE
:1030A000BD8988169906AA06BB0638F1812C912C99
:1030B0005401839422C00E9461156B017C0162302F
:1030C00071058105910508F48EC08FEFC816D806EA
:1030D000E806F80609F48CC08A899B89AC89BD8909
:1030E000C816D906EA06FB0608F487C05301420158
:1030F00004C0812C912C54018394750164012FEF3D
:10310000C21AD20AE20AF20A8A899B89AC89BD896D
:10311000C816D906EA06FB0660F082E0881691041C
:10312000A104B10408F46EC0C12CD12C76016894BE
:10313000C1F8B701A601CE010E94611561157105A4
:103140008105910599F06F3F2FEF72078207920773
:1031500009F45DC0613071058105910509F45CC019
:10316000C814D904EA04FB0451F65BC00FEF1FEF4B
:103170002FEF3FE0B701A601CE010E940417811195
:103180002BC0411451046104710449F09701860178
:10319000B301A201CE010E94041781111DC0CA868D
:1031A000DB86EC86FD868E859F85A889B9898F3F51
:1031B0002FEF9207A207B207C9F10197A109B10940
:1031C0008E879F87A88BB98B8D8181608D836C2DB5
:1031D0007D2D8E2D9F2D33C0813069F161E070E02F
:1031E00080E090E02CC061E070E080E090E027C0DB
:1031F0006FEF7FEF8FEF9FEF22C06C2D7D2D8E2D17
:103200009F2D1DC060E070E080E090E018C06FEF7F
:103210007FEF8FEF9FEF13C061E070E080E090E000
:103220000EC060E070E080E090E009C06C2D7D2D64
:103230008E2D9F2D04C06FEF7FEF8FEF9FEFDF91FB
:10324000CF911F910F91FF90EF90DF90CF90BF90A3
:10325000AF909F908F907F906F905F904F90089568
:103260007F928F929F92AF92BF92CF92DF92EF9216
:10327000FF920F931F93CF93DF93DC011496CD91B0
:10328000DC911597219609F401C11E968D909D90B1
:10329000AD90BC90519781149104A104B10409F43C
:1032A000F7C07B018C016E01BFE0CB22DD24C1148D
:1032B000D10409F0D5C0EFEF8E1A9E0AAE0ABE0AFD
:1032C000DC011E968D929D92AD92BC9251971A96FA
:1032D0004D915D916D917C911D9741155105610551
:1032E000710549F4ED91FC9180859185C817D90746
:1032F00008F0D0C0B5C0DC01ED91FC91228130E036
:1033000021503109CE01929582958F7089279F7047
:10331000892728233923232B09F0A2C0CF010E943B
:1033200061154B015C01623071058105910508F45E
:10333000B3C06F3F7F4F8F4F9F4F09F4AFC0D8018D
:10334000ED91FC9182899389A489B58988169906A3
:10335000AA06BB0608F472C0EF2809F4A1C0D80180
:103360001A964D915D916D917C911D97CF010E94B0
:103370002C184B015C01611571058105910509F45B
:1033800091C0613071058105910509F48DC06F3FD1
:103390007F4F8F4F9F4F09F489C0D8018D919C9129
:1033A0000E944411811184C0F80180819181FC0147
:1033B000BE96825D9D4F1192E817F907E1F7D8019B
:1033C000ED90FC90B501A401C7010E943915F701E9
:1033D00062A773A784A795A7E12CF12C7724739497
:1033E00019C07482D8018D919C910E944411811161
:1033F00061C0D801ED91FC9182A593A5A4A5B5A5C6
:103400000196A11DB11D82A793A7A4A7B5A7BFEFE1
:10341000EB1AFB0AD801ED91FC91828190E0E8164D
:10342000F906F8F282A593A5A4A5B5A58E199F0962
:10343000A109B10982A793A7A4A7B5A7F80182861D
:103440009386A486B586B501A401808191810E94EE
:103450003915D8011E966D937D938D939C9351974A
:10346000F801D583C483808191818E96CC0CDD1CBC
:10347000CC0CDD1CCC0CDD1CCC0CDD1CCC0CDD1C08
:10348000C80ED91ED38AC28A80E015C084E013C05A
:1034900084E011C084E00FC082E00DC081E00BC069
:1034A00084E009C087E007C082E005C081E003C076
:1034B00081E001C081E0DF91CF911F910F91FF90DA
:1034C000EF90DF90CF90BF90AF909F908F907F90C4
:1034D00008951F93CF93DF9300D000D000D0CDB7D5
:1034E000DEB79C838B837E836D83142F7A836983FD
:1034F000CE0101960E940D11992334F1FC01EE0FCB
:10350000FF1FE551FC4F0190F081E02D309709F04D
:103510001082EB81FC813097E9F010822B813C8195
:10352000880F991FFC01E551FC4F31832083232B29
:1035300069F0113069F440E0BE016B5F7F4FCE014E
:1035400003960E944D120EC08BE00CC080E00AC0B2
:1035500080E008C0880F991FFC01E551FC4F1182E3
:10356000108280E026960FB6F894DEBF0FBECDBF66
:10357000DF91CF911F9108952F923F924F925F92CA
:103580006F927F928F929F92AF92BF92CF92DF9273
:10359000EF92FF920F931F93CF93DF93CDB7DEB7D8
:1035A000E0970FB6F894DEBF0FBECDBF7CA36BA330
:1035B000009709F49BC249A71C01DC011D921C92D3
:1035C0004E71BE016D5D7F4FCE0101960E944D127E
:1035D0008111FDC2CE0147969E8B8D8BCBA0DCA0C6
:1035E000F60180818F3211F08C3519F4FFEFCF1A7C
:1035F000DF0A29A52F712FA71F82188619861A8620
:10360000D6018C91803270F460E070E0CE010196BA
:103610000E9448161C8A1B8AE12CF12C882309F48D
:10362000A2C2A8C26894BB24B5F8A12C712C6894DE
:10363000662463F8412C562C48AAF60103C0FD010C
:1036400001C0FD019F01DF018D918F32C1F38C35E7
:10365000C1F36D897E89DB01CB010B96BD928A1780
:103660009B07E1F74A2D572DC12CD12C862C942C89
:10367000F12C3EA72DA77EA36DA33F2DBFEFCB1A44
:10368000DB0A7191713208F441C27F3209F447C2FA
:103690007C3509F444C27E3219F04815590590F082
:1036A00028E08216910409F07EC27E3209F07BC2C6
:1036B000330F330F452D58A90F2EFBE08F2EF02D21
:1036C000912CDCCF77230CF013C23360A72FB0E02E
:1036D000A351BF4F7C910CC28D91882309F410C275
:1036E00090E080179107C1F786E036C2326006C0CD
:1036F0008FE9870F8A3110F431607052ADA1BEA1FD
:10370000A40FB51F7C934F5F5F4FB8CF452B09F4D3
:103710004AC2DB019C91953E11F4E5E0EC93F8E0A0
:103720008F16910411F4FF0CFF0C9F2D93709130B4
:1037300009F480619F2D9C70943009F48860DB014E
:103740001B968C936A2D772DCE0101960E94481608
:103750008111F3C14F85588969897A8989819A8154
:103760000E94AF118111E9C1EB88FC88F7018081CB
:103770008823D9F0638563FD0FC04D895E89DA0126
:103780009701255F3F4F04C02E173F0709F4D0C1B2
:1037900091918D919817C1F36A2D772DCE010196E5
:1037A0000E9430198823B1F2C8C1ED89FE89938542
:1037B00092FDCDC185E0D0C164FFCBC1D7015A963F
:1037C0008D919C915B97A0E0B0E0E981FA81208126
:1037D000233061F4F7014489558960E070E0BA0153
:1037E00055274427842B952BA62BB72B8F8398879F
:1037F000A987BA8722CF882309F455C0843009F0FD
:103800004AC060E070E0CE0101960E944816811126
:1038100019C04F85588969897A8989819A810E945E
:10382000AF1181110FC0EB89FC898081853E79F051
:10383000882369F061E070E0CE0101960E943019A2
:10384000882339F3843009F4B2C18111B3C14F85A3
:10385000588969897A8989819A810E94AF11811179
:10386000A9C1EB89FC89CF0180961192E817F9076D
:10387000E1F76D897E894BE050E08B899C890E943D
:10388000E110E981FA8181E08483FFA5F860FFA758
:10389000EB88FC8811C02FA528602FA7EB88FC8837
:1038A000882351F094C1D7011B968C91817109F046
:1038B00087C1B9A5B2FD86C1EFA5E3FFC8C080E00E
:1038C00090E0A1E4B6E4F70186879787A08BB18BDF
:1038D0001386D701148E158E168E178EC980DA8046
:1038E000828C938CA12CB12CF6018081833069F4F9
:1038F00054968D919C915597A0E0B0E0DC019927FA
:103900008827882A992AAA2ABB2AD7015B961C9263
:103910001E925A9755961C921E92549781E0F6017A
:10392000848381149104A104B10409F48DC022A5FB
:1039300033A544A555A529A73AA74BA75CA7B2E094
:103940008B169104A104B10408F41EC182899389E5
:10395000A489B58988169906AA06BB0608F016C17F
:103960008DA29EA2AFA2B8A64DA15EA16FA178A51F
:10397000C6010E9461152B013C016115710581058D
:103980009105E9F1613071058105910509F400C1E6
:103990006F3F7F4F8F4F9F4F09F4FCC000E010E056
:1039A00098014DA15EA16FA178A5C6010E940417E0
:1039B0008111F1C0F60186859785A089B1898F3F75
:1039C000FFEF9F07AF07BF0759F00196A11DB11D7B
:1039D000F60186879787A08BB18B8581816085836F
:1039E0004DA25EA26FA278A6F60182899389A4896E
:1039F000B589481659066A067B0608F4B5CF898151
:103A00009A81F1E08F1A9108A108B108DC011A9699
:103A10008D929D92AD92BC921D9749A55AA56BA51A
:103A20007CA50E94AF11882379F0D1C08111CFC04D
:103A3000F701838584FDC8C0F9A5F1FF02C080FDB0
:103A4000C5C029A523FF03C03FA530623FA7E98178
:103A5000FA8182A593A5A4A5B5A5F101828F938FC4
:103A6000A48FB58FF78EE68EEFA5D1011496EC9357
:103A7000149715961C9209811A81D7015A968D9137
:103A80009C915B97A0E0B0E0F8012081233061F4C5
:103A9000F7014489558960E070E0BA015527442751
:103AA000842B952BA62BB72BF10186879787A08BAC
:103AB000B18BF701848D958DA68DB78DF10182872D
:103AC0009387A487B5871682178210861186168A77
:103AD000178A108E118E11830083D80116968D914E
:103AE0009C9117979383828380E071C089E06FC0B7
:103AF000072F10E00232110571F1AFE5B1E0ECCD16
:103B00008FEB870F8A3108F4F1CDF2CD6DA17EA144
:103B1000F32E2DA53EA5C20ED31E84E0F7CD6DA1D8
:103B20007EA1F32E2DA53EA5C20ED31E80E0EECDC4
:103B3000FA01838582FF40CE06C0ED89FE89938518
:103B4000843051F435CEE114F104C9F40CC084E0A2
:103B500003C085E001C086E0EB88FC8899A59C71D4
:103B600009F049CE63CF09A50C7119F5E12CF12CB0
:103B700086E015C009A50C7109F040CE10C089A5DA
:103B80008C7109F090CE54CF82E005C082E003C072
:103B900082E001C081E0882309F456CF18C0882351
:103BA00009F462CF14C0EB88FC8886E0E3CF87E09D
:103BB00001C086E0FFA5F860FFA7EB88FC88EFCF87
:103BC00087E005C088E003C084E001C087E0E0969C
:103BD0000FB6F894DEBF0FBECDBFDF91CF911F911E
:103BE0000F91FF90EF90DF90CF90BF90AF909F909C
:103BF0008F907F906F905F904F903F902F9008959F
:103C00002F923F924F925F926F927F928F929F92EC
:103C1000AF92BF92CF92DF92EF92FF920F931F93DA
:103C2000CF93DF93EC014B016A015901F901118235
:103C300010820E94281281116DC18D8181116AC18B
:103C40008C8181FF66C18E819F81A885B985AC0179
:103C5000BD014C0D5D1D611D711D481759076A0797
:103C60007B0708F440C1C114D10409F43CC14E8162
:103C70005F8168857985DB01CA019170AA27BB271E
:103C8000892B8A2B8B2B09F0E8C0E881F9811281FE
:103C90001150DB01CA01072E79E0B695A7959795DB
:103CA00087957A95D1F7702D182309F042C0452BDE
:103CB000462B472B81F46E857F858889998961150C
:103CC000710581059105A1F440E050E0BA01CF01F2
:103CD0000E942C1807C04A895B896C897D89CF01B5
:103CE0000E942C18611571058105910509F4FBC02E
:103CF000613071058105910519F482E08D830AC157
:103D00006F3FFFEF7F078F079F0719F481E08D83D7
:103D100001C16A8B7B8B8C8B9D8B4E845F84688802
:103D2000798845284628472821F46E877F87888B25
:103D3000998BE881F98142A553A564A575A58E8963
:103D40009F89A88DB98D481759076A077B0741F4E9
:103D5000CF010E944411882319F081E08D83DAC0DD
:103D6000288039804A895B896C897D89C1010E94DC
:103D70003915611571058105910519F482E08D836E
:103D8000C9C02B013C01410E511C611C711C760104
:103D9000EF2CFF24E694E114F10409F43FC0F10193
:103DA0004281242F30E0C701810F911D2817390768
:103DB00018F47901E11AF1088701A3019201B40115
:103DC000F10181810E944924882319F081E08D83CB
:103DD000A1C0E881F98182A593A5A4A5B5A5841900
:103DE0009509A609B709A70160E070E08417950757
:103DF000A607B70778F4982F8827990FB401680FA2
:103E0000791F40E052E0CF018E960E94E110E881D8
:103E1000F9811482FE2CEE24FF0C4CC04E815F8190
:103E2000688579858A859B85AC85BD854817590746
:103E30006A077B0770F0C1010E944411882319F0C2
:103E400081E08D8367C0E881F98142A653A664A60C
:103E500075A64E8A5F8A688E798E8E819F81917059
:103E600020E032E07901E81AF90ACE14DF0408F400
:103E700076014E895F89688D798D888199810E944C
:103E8000AF11882319F081E08D8344C08E819F811A
:103E9000A885B9859170AA27BB278E96288139817C
:103EA000A701B401820F931F0E94E110E881F981FC
:103EB00021E024838E0C9F1C8E819F81A885B9856B
:103EC0008E0D9F1DA11DB11D8E839F83A887B9876D
:103ED000F501808191818E0D9F1D91838083CE1885
:103EE000DF0809F0C4CE8E819F81A885B9854A85F7
:103EF0005B856C857D85481759076A077B0720F429
:103F00008A879B87AC87BD878C8180628C8380E0A9
:103F100001C087E0DF91CF911F910F91FF90EF904B
:103F2000DF90CF90BF90AF909F908F907F906F90D9
:103F30005F904F903F902F9008950F931F93CF93D2
:103F4000DF93EC010E942812982F811198C08C8178
:103F500085FF95C04A8D5B8D6C8D7D8D88819981A3
:103F60000E94AF11982F81118AC0EE8DFF8D83853D
:103F7000806283878A859B85AC85BD85848F958F7C
:103F8000A68FB78F8E859F85A889B989938F828FD9
:103F9000B58BA48B80E090E0A1E4B6E4868B978B90
:103FA000A08FB18F138A128A8C818F7D8C83E881D8
:103FB000F98181E084830990D881C02DCE010E94CF
:103FC0004411982F81115BC08881833009F04DC066
:103FD0008D81813009F049C0BE01625D7F4FFB01D8
:103FE000CE01825D9D4F1192E817F907E1F785E553
:103FF0009AEAFE01E45DFD4F9183808382E592E5BC
:10400000A1E6B1E48EA79FA7A8ABB9AB82E792E780
:10401000A1E4B1E67A9780839183A283B3838E85EE
:104020009F85A889B989349680839183A283B383BD
:104030008A859B85AC85BD85349680839183A283D8
:10404000B3838A8D9B8DAC8DBD8D9C01AD012F5F9F
:104050003F4F4F4F5F4F2AA73BA74CA75DA701E0FB
:1040600010E089810E9449241D8240E050E060E018
:1040700089810E94BE2491E0811101C090E0892FC6
:10408000DF91CF911F910F910895CF93DF93EC01B2
:104090000E949D1F811107C0CE010E94281281112C
:1040A00002C019821882DF91CF9108954F925F92DA
:1040B0006F927F928F929F92AF92BF92CF92DF9238
:1040C000EF92FF920F931F93CF93DF9300D000D016
:1040D00000D0CDB7DEB79E838D836A017B010E943D
:1040E0002812811193C1AD81BE8115968C911597CF
:1040F00081118CC11A968D919D910D90BC91A02D2E
:104100008C159D05AE05BF0538F4ED81FE81248137
:1041100021FD02C06C017D01AD81BE8116964D90DE
:104120005D906D907C901997FD0116821782108624
:104130001186C114D104E104F10409F464C10081C1
:104140001181D80112968C90912CA12CB12C072EA4
:1041500079E0880C991CAA1CBB1C7A95D1F7702DAC
:10416000411451046104710409F440C0B1E04B1AD8
:10417000510861087108C701B601615071098109D0
:104180009109A50194010E94D62D29833A834B837E
:104190005C83C301B201A50194010E94D62D8981DF
:1041A0009A81AB81BC8182179307A407B507F0F011
:1041B00088279927DC0188199909AA09BB0948228F
:1041C00059226A227B22AD81BE8116964D925D9264
:1041D0006D927C921997C418D508E608F708529694
:1041E0004D915D916D917C91559737C0ED81FE8128
:1041F00046855785608971894115510561057105AD
:1042000031F540E050E0BA01C8010E942C18AB0122
:10421000BC01413051056105710531F482E0AD8189
:10422000BE8115968C93F2C04F3FBFEF5B076B07C3
:104230007B0729F481E0ED81FE818583E7C0AD81B4
:10424000BE811E964D935D936D937C935197ED8146
:10425000FE81428B538B648B758B41155105610533
:10426000710509F499C08C149D04AE04BF0408F0D4
:104270005FC0AD81BE8114968C91149781FF0CC0F4
:104280008D919C910E942C18AB01BC0141155105E8
:104290006105710549F44AC0AD81BE818D919C9143
:1042A0000E946115AB01BC014F3FBFEF5B076B077D
:1042B0007B0729F4ED81FE8181E08583A7C0423030
:1042C00051056105710568F0AD81BE81ED91FC91EC
:1042D00082899389A489B589481759076A077B079A
:1042E00028F0ED81FE8182E0858390C0AD81BE81A2
:1042F00052964D935D936D937C935597FD01868106
:104300009781A085B185880D991DAA1DBB1D868347
:104310009783A087B187C818D908EA08FB088C14CE
:104320009D04AE04BF0408F4A4CF02C0750164016B
:10433000ED81FE8186819781A085B1858C0D9D1DC3
:10434000AE1DBF1D86839783A087B187D701C601A5
:104350009170AA27BB27892B8A2B8B2B09F180818F
:1043600091810E943915611571058105910531F41E
:1043700082E0AD81BE8115968C9348C00B2EB9E0CA
:10438000F694E794D794C794BA95D1F7B02DC60E9A
:10439000D71EE81EF91E07C0C12CD12C760103C020
:1043A000C12CD12C7601ED81FE8186819781A0857B
:1043B000B185AC01BD01517066277727452B462B8F
:1043C000472B69F046895789608D718DC416D506D3
:1043D000E606F70621F0C68AD78AE08EF18EED81D7
:1043E000FE814285538564857585481759076A079C
:1043F0007B0758F482879387A487B587848180627E
:10440000848380E003C080E001C080E026960FB680
:10441000F894DEBF0FBECDBFDF91CF911F910F91FA
:10442000FF90EF90DF90CF90BF90AF909F908F90D4
:104430007F906F905F904F9008958EBD0DB407FEF2
:10444000FDCF8EB50895299A8FEF0E941D22089501
:1044500029988FEF0E941D2282E38093EE038FEF55
:104460000E941D228F3F49F08091EE038111F7CF0A
:104470000E94232280E090E0089581E090E008957A
:104480000F931F93CF93DF93082F192FEB0184E134
:104490008093EF038FEF0E941D228F3F39F48091AC
:1044A000EF038111F7CF80E090E022C08E3FF1F45E
:1044B000E02FF12F8FEF8EBD0DB407FEFDCF9EB51F
:1044C000DF0190838EBD0DB407FEFDCF9EB5119622
:1044D0009C9322973296209771F78FEF0E941D22AE
:1044E0008FEF0E941D2281E090E002C080E090E00A
:1044F000DF91CF911F910F910895FF920F931F931A
:10450000CF93DF93C82FD42F152F062FF72E882394
:1045100054F440E050E0BA0187E30E947D228230EB
:1045200008F04EC0CF77CC3039F10E9423220E9490
:104530002822892BF9F08C2F80640E941D228F2D58
:104540000E941D22802F0E941D22812F0E941D2269
:104550008D2F0E941D22CC2379F12BC08FEF0E945A
:104560001D22CAE08FEF0E941D2288234CF5C15006
:10457000C9F726C08FEF24C08CE40E941D228F2D26
:104580000E941D22802F0E941D22812F0E941D2229
:104590008D2F0E941D2281E00E941D22CC30F1F25D
:1045A000E0CF87E80E941D22DCCF81E00E941D221F
:1045B000D8CFC830B1F3F9CF85E90E941D22D1CF01
:1045C000DF91CF911F910F91FF9008951F93CF938B
:1045D000DF93EC01162F82E38093EE038FEF0E94AE
:1045E0001D228F3F31F08091EE038111F7CF90E0D3
:1045F0002BC0812F0E941D221D3F21F1FE019E0133
:104600003E5FDF0190819EBD0DB407FEFDCF119688
:104610009C919EBD0DB407FEFDCF3296E217F307C5
:1046200081F78FEF0E941D228FEF0E941D228FEFD6
:104630000E941D22282F2F7181E090E0253021F06B
:1046400080E002C081E090E0DF91CF911F9108955A
:10465000CF92DF92EF92FF920F931F93CF93DF934E
:1046600000D000D0CDB7DEB781119CC08091180179
:1046700081FF03C080911801A2C082E58CBD1AE0C1
:104680008FEF0E941D221150D9F740E050E0BA018F
:1046900080E00E947D22813009F08CC084E6809306
:1046A000EF034AEA51E060E070E088E00E947D227A
:1046B000813009F041C0CE0101966C017E0195E088
:1046C000E90EF11C86018FEF0E941D22F8018193F3
:1046D0008F01EE16FF06B9F78B81813009F06AC0B1
:1046E0008C818A3A09F066C08091EF03882349F0F3
:1046F00040E050E060E070E489EA0E947D22811190
:10470000F3CF8091EF03882309F454C040E050E0D8
:10471000BA018AE30E947D2281114CC08FEF0E9472
:104720001D22F60181936F01EE16FF06B9F789810C
:1047300086FD3AC084E039C040E050E0BA0189EA21
:104740000E947D22823018F001E011E002C002E0F8
:1047500019EA8091EF03882341F040E050E0BA016C
:10476000812F0E947D228111F4CF8091EF03882355
:1047700009F140E052E060E070E080E10E947D22BB
:10478000811118C00093ED030E942322002339F009
:10479000809118018E7F8093180180E58CBD8091F7
:1047A00018010DC081E00BC08CE08093ED030E94E6
:1047B0002322EECF1092ED030E942322F0CF0F9020
:1047C0000F900F900F90DF91CF911F910F91FF905D
:1047D000EF90DF90CF900895811103C08091180170
:1047E000089581E00895FF920F931F93CF93DF9375
:1047F000EB01811143C00115110509F441C08091FD
:10480000180180FD3FC08091ED0383FD09C0012E9A
:1048100019E0220F331F441F551F1A95D1F7102D91
:104820000230110528F40F2EF1E1FF2EF02D04C007
:104830000F2EF2E1FF2EF02DBA01A9018F2D0E945B
:104840007D22811114C060E072E0CE010E944022FE
:10485000892B21F0DE5F01501109A9F782E1F812DE
:1048600006C040E050E0BA018CE00E947D220E9428
:10487000232281E0012B39F480E005C084E003C0ED
:1048800084E001C083E0DF91CF911F910F91FF90F1
:104890000895CF92DF92EF92FF920F931F93CF93E1
:1048A000DF93EB0169017A01811158C001151105EF
:1048B00009F456C08091180180FD54C08091180100
:1048C00082FD52C08091ED0383FD09C00B2EB9E03B
:1048D000CC0CDD1CEE1CFF1CBA95D1F7B02D0130BD
:1048E000110599F4B701A60188E10E947D2281118A
:1048F0002EC06EEFCE010E94E62231E020E0892B2F
:1049000009F030E0032F122F22C0867031F0A80189
:1049100060E070E087E90E947D22B701A60189E18D
:104920000E947D22811113C06CEFCE010E94E6220D
:10493000892B21F0DE5F01501109B1F76DEF80E0A6
:1049400090E00E94E622892B11F401E010E00E9421
:10495000232281E0012B49F480E007C084E005C0F8
:1049600084E003C083E001C082E0DF91CF911F911A
:104970000F91FF90EF90DF90CF900895EF92FF920C
:104980000F931F93CF93DF93CDB7DEB760970FB62A
:10499000F894DEBF0FBECDBF811192C18091180186
:1049A00080FD90C18A01862F90E08733910508F041
:1049B0006EC1FC01EC5CFF4F0C94F82D0E94282284
:1049C00011E0892B09F478C110E076C140E050E095
:1049D000BA0189E00E947D2281115BC160E170E033
:1049E000CE0101960E944022892B09F454C189818D
:1049F0008295869586958370813031F5298530E0E2
:104A0000322F22278A85280F311D88858F7390E0E9
:104A1000A0E0B0E0DC01992788270196A11DB11D17
:104A2000820F931FA11DB11D072E7AE0880F991FD9
:104A3000AA1FBB1F7A95D1F7702DF801808391834F
:104A4000A283B38310E038C18985829586958695C7
:104A50008370288590E0F4E02F9F800D911D112434
:104A60009C012F5F3F4F8F81837090E0982F8827A4
:104A7000990F990F820F931FA0E0B0E03E813F7025
:104A80002B85221F2227221F320F2A852370220FF7
:104A9000230F275004C0880F991FAA1FBB1F2A95F8
:104AA000D2F7F80180839183A283B38310E004C11D
:104AB000F090ED03F2FE33C040E050E0BA018DE823
:104AC0000E947D228111E9C08FEF0E941D2260E1CA
:104AD00070E0CE0101960E944022892B09F4DFC0CC
:104AE0000F2EF0E3FF2EF02D8FEF0E941D22FA947F
:104AF000F110FACF2B8522952F7080E190E0A0E095
:104B0000B0E004C0880F991FAA1FBB1F2A95D2F7D7
:104B1000F80180839183A283B38310E0CDC040E08D
:104B200050E0BA0189E00E947D228111BAC060E1A3
:104B300070E0CE0101960E944022892B09F4B3C097
:104B4000F1FE20C02B852F738C85881F8827881F36
:104B500090E00196820F911D820F911D2E85229566
:104B6000269526952370215002C0880F991F2A95FB
:104B7000E2F7A0E0B0E0F80180839183A283B383E1
:104B800010E09AC08C85282F2370829586958770B7
:104B900090E0F8E02F9F800D911D112401962B8548
:104BA0002C7730E035952795359527952F5F3F4F2A
:104BB000829FA001839F500D929F500D1124CA0126
:104BC000A0E0B0E0F80180839183A283B38310E07A
:104BD00073C08091ED03FA01808310E06DC040E066
:104BE00050E0BA0189E00E947D2281115EC060E13F
:104BF00070E0C8010E94402211E0892B09F45CC0DA
:104C000010E05AC040E050E0BA018AE00E947D22E4
:104C100081114DC060E170E0C8010E94402211E0A6
:104C2000892B09F449C010E047C040E050E0BA01C8
:104C30008AE30E947D2281113CC078010C5F1F4FE6
:104C40008FEF0E941D22F70181937F010E171F072E
:104C5000B9F710E031C040E050E0BA018DE80E94A1
:104C60007D22811128C08FEF0E941D2260E470E038
:104C7000C8010E94402211E0892BF1F010E01CC015
:104C80008091180181608093180110E015C014E034
:104C900013C011E011C011E00FC011E00DC011E010
:104CA0000BC011E009C011E007C011E005C011E020
:104CB00003C011E001C011E00E942322812F03C034
:104CC00084E001C083E060960FB6F894DEBF0FBEAB
:104CD000CDBFDF91CF911F910F91FF90EF9008957D
:104CE0000F931F93CF93DF938EE40E94EB2681E016
:104CF0000E9425270E941C272FEF80E792E0215079
:104D000080409040E1F700C000008FE40E94EB2655
:104D10000E943727182F0E943727D82F0E94372745
:104D2000082F0E944227C82F0E941C271F736D2F37
:104D300070E0712B072E000C880B990B0E94562CEB
:104D400020E038EF4FE756E40E94A62B20E030E049
:104D500048EC52E40E94592D60931D0170931E018E
:104D600080931F0190932001C695C6956C2F70E02B
:104D700020E4029F600D711D1124072E000C880B8A
:104D8000990B0E94562C20E038EF4FE756E40E9422
:104D9000A62B20E030E045E253E40E94592D20E0AC
:104DA00030E040E252E40E94342B6093190170938A
:104DB0001A0180931B0190931C01DF91CF911F91E9
:104DC0000F9108951092B90088E48093B80084E0B0
:104DD0008093BC000895CF93DF93ECEBF0E024EADE
:104DE000A9EBB0E0CBEBD0E034E844E9208390813C
:104DF0009923ECF79C91987F983011F09031B1F79E
:104E00008883308390819923ECF79C91987F90322E
:104E100011F0983529F44083908194FDFDCFE6CFC1
:104E2000DF91CF91089584EA8093BC00ECEBF0E031
:104E300080818823ECF7089584E98093BC00ECEB33
:104E4000F0E0808184FDFDCF08958093BB0084E86D
:104E50008093BC00ECEBF0E080818823ECF790912C
:104E6000B900987F81E0983209F480E0089584ECDD
:104E70008093BC00ECEBF0E080818823ECF780911C
:104E8000BB00089584E88093BC00ECEBF0E08081E7
:104E90008823ECF78091BB000895CF93DF93EC015A
:104EA0000E94132780ED0E94252780E00E9425277D
:104EB0000E941C272FEF81EE94E02150804090400B
:104EC000E1F700C000000E94132781ED0E94252712
:104ED0000E943727982F92959F70990F292F220FA4
:104EE000220F920F8F70890F88830E943727982F87
:104EF00092959F70990F292F220F220F920F8F707A
:104F0000890F89830E943727982F92959F70990F58
:104F1000292F220F220F920F8F70890F8A830E94F0
:104F20003727982F92959F70990F292F220F220FC4
:104F3000920F8F70890F8B830E943727982F92953D
:104F40009F70990F292F220F220F920F8F70890FB8
:104F50008C830E943727982F92959F70990F292F45
:104F6000220F220F920F8F70890F8D830E9442278C
:104F7000982F92959F70990F292F220F220F920F31
:104F80008F70890F8E830E941C27DF91CF91089527
:104F900084B1886284B924988CB583658CBD2C9AC1
:104FA0002C9808958EBD0DB407FEFDCF8EB50895E3
:104FB000DF92EF92FF920F931F93CF93DF938B01BA
:104FC000D42E9BB141E050E07A0102C0EE0CFF1CF0
:104FD0002A95E2F72E2D209592239BB90E94D22785
:104FE000DD2051F0E8010D0D111D80E00E94D22757
:104FF0008993C017D107C9F78BB1E82AEBB8DF91C5
:10500000CF911F910F91FF90EF90DF900895CF9374
:10501000DF939BB1C1E0D0E002C0CC0FDD1F6A95E9
:10502000E2F72C2F209592239BB90E94D22780E093
:105030000E94D227D82F80E00E94D2279BB1C92B93
:10504000CBB92D2F30E0A901582BCA01DF91CF91A8
:1050500008950E94072808951092C50087E680935E
:10506000C400E0ECF0E080818D7F808386E0809357
:10507000C20088E18093C1000895CF93C82F8A3081
:1050800019F48DE00E943D28E0ECF0E0808185FF7E
:10509000FDCFC093C600CF910895E1E8F0E0108203
:1050A0001092800016BA8081846080838081806441
:1050B0008083109285001092840080E280936F00BC
:1050C00078948AB18AB95D9A089580911E048230DD
:1050D00018F110921E048091F2039091F303209135
:1050E000F4033091F503821B930B9093F1038093AB
:1050F000F00380E286BB2091F0033091F10340E0A1
:1051000050E064E274EF80E090E00E94D62DCA0186
:10511000B9010E94542C089560E070E080E89FEB94
:1051200008951F920F920FB60F9211248F939F93A1
:1051300080911E0481110BC08091860090918700A0
:105140009093F5038093F40380E286BB0EC08091B8
:105150001E04813051F480918600909187009093D5
:10516000F3038093F20380E286BB80911E048F5F7D
:1051700080931E049F918F910F900FBE0F901F90F0
:105180001895EAE7F0E0808180648083808186FD65
:10519000FDCF80917800909179000895CF93DF93AF
:1051A000CDB7DEB7CF54D1090FB6F894DEBF0FBE2E
:1051B000CDBF0E942C2881E291E090937A078093E2
:1051C000790783EE92E00E94A2300E94E2260E94BC
:1051D000C8270E9494010E944D28EAE7F0E08081F0
:1051E00087688083ECE7F0E08081826480838AB105
:1051F0008AB95D9A4D993DC08EEC92E09F938F9352
:105200000E944C300F900F9015C00E94C128209131
:105210005106309152062817390730F40E94C128F0
:10522000909352068093510687EE93E00197F1F731
:1052300000C000000E94C128609151067091520682
:10524000C2968617970708F7072E000C880B990B54
:105250000E94562CAB01BC0180E090E00E943539E1
:1052600088EB92E09F938F930E944C300F900F90A9
:105270000AC080E090E00E9429390E94182C7093A7
:1052800052066093510680E190E00E942F398C0114
:1052900090935406809353068DEE91E09F938F93E5
:1052A0000E94363082EF91E09F938F930E943630B8
:1052B0007E0198E0E90EF11CB80180E090E00E94C8
:1052C000542C870122E041E00E94A52FFF92EF922B
:1052D0000E94363086E992E00E947230219A40E0C6
:1052E00067E972E083E294E00E94691A0E94FF0F6E
:1052F0000F900F900F900F900F900F906E0120E481
:10530000C20ED11C7E0136E3E30EF11C3E018CE29D
:10531000680E711C1E0192E2290E311C2E0128E13B
:10532000420E511C2C961FAF0EAF2C978091DB02C2
:10533000813029F487E796E00E94890FF7CF8091AA
:10534000F603811109C010921E0490E296BB81E021
:105350008093F6031092DD0280911E04823020F4C7
:105360008091DD02882311F32FEF33ED80E321508C
:1053700030408040E1F700C000001092F6030E9428
:1053800065282AE037ED43E45FE30E94592D23E3CB
:1053900033E343EB5EE30E94352B60966CAF7DAF49
:1053A0008EAF9FAF609720E030E0A9010E94A12B53
:1053B0008823ACF020E030E04AE754E460966CAD1E
:1053C0007DAD8EAD9FAD60970E94542D18166CF484
:1053D00060961CAE1DAE1EAE1FAE609706C06096F6
:1053E0001CAE1DAE1EAE1FAE6097CE0101960E9490
:1053F0004D270E94C128BC0180E090E00E94542CFF
:105400004B015C016091510670915206072E000C11
:10541000880B990B0E94562C9B01AC01C501B4016D
:105420000E94A62B20E030E044EB53E40E94592D6B
:105430004B015C0120E030E044EB53E40E94542D2A
:10544000181644F40F2E812C912CF4EBAF2EF3E4BC
:10545000BF2EF02D0E94702660911D0170911E01DB
:1054600080911F0190912001860122E041E00E947D
:10547000A52F6091190170911A0180911B019091E3
:105480001C01870122E041E00E94A52F0E94FE013D
:10549000830122E041E00E94A52F810122E041E04A
:1054A000C501B4010E94A52F820122E041E060966F
:1054B0006CAD7DAD8EAD9FAD60970E94A52F5F92C4
:1054C0004F923F922F927F926F92DF92CF92FF92F4
:1054D000EF9289811F928F938A811F928F938B8184
:1054E0001F928F9326EF31E03F932F9327E736E00B
:1054F0003F932F930E9403318F811F928F938E8150
:105500001F928F938D811F928F932AE232E03F93F7
:105510002F932C969FAD2C979F932B962FAD2B9767
:105520002F930E94033142E0BE01685F7F4F87E501
:1055300096E00E94BC1A2DB73EB7225E3F4F0FB6D1
:10554000F8943EBF0FBE2DBF81116FC08DB69EB6C1
:105550004091610650916206609163067091640605
:1055600087E596E00E945620FF92EF92DF92CF925D
:105570005F924F923F922F927F926F9289811F92FA
:105580008F938A811F928F938B811F928F938DE3CC
:1055900092E09F938F931F921F921F921F920E94DF
:1055A000D3308C018DB79EB746960FB6F8949EBF48
:1055B0000FBE8DBF2DB73EB7201B310B0FB6F89431
:1055C0003EBF0FBE2DBF8DB79EB701965C01FF9207
:1055D000EF92DF92CF925F924F923F922F927F9203
:1055E0006F9289811F928F938A811F928F938B81F3
:1055F0001F928F932DE332E03F932F93BF92AF9290
:105600000E94033125E536E0A8016A2D7B2D87E550
:1056100096E00E94001E87E596E00E9445200FB6A6
:10562000F8949EBE0FBE8DBE18C04AE0BE01685FF2
:105630007F4F87E596E00E94BC1A81110EC025E5D8
:1056400036E04AE350E06DE572E087E596E00E94BF
:10565000001E87E596E00E9445201092DD0287E754
:1056600096E00E94890F62CE5058BB27AA270E945D
:105670004C2B0C941A2D0E940C2D38F00E94132DE7
:1056800020F039F49F3F19F426F40C94F92C0EF411
:10569000E095E7FB0C94F32CE92F0E942B2D58F397
:1056A000BA17620773078407950720F079F4A6F507
:1056B0000C944D2D0EF4E0950B2EBA2FA02D0B015E
:1056C000B90190010C01CA01A0011124FF27591B47
:1056D00099F0593F50F4503E68F11A16F040A22F4D
:1056E000232F342F4427585FF3CF469537952795BE
:1056F000A795F0405395C9F77EF41F16BA0B620BBD
:10570000730B840BBAF09150A1F0FF0FBB1F661F03
:10571000771F881FC2F70EC0BA0F621F731F841F46
:1057200048F4879577956795B795F7959E3F08F06C
:10573000B0CF9395880F08F09927EE0F979587952E
:1057400008950E94CF2C08F481E008950E94BA2B9E
:105750000C941A2D0E94132D58F00E940C2D40F02D
:1057600029F45F3F29F00C94F32C51110C944E2D29
:105770000C94F92C0E942B2D68F39923B1F3552337
:1057800091F3951B550BBB27AA2762177307840754
:1057900038F09F5F5F4F220F331F441FAA1FA9F3EA
:1057A00035D00E2E3AF0E0E832D091505040E695D8
:1057B000001CCAF72BD0FE2F29D0660F771F881F39
:1057C000BB1F261737074807AB07B0E809F0BB0B2C
:1057D000802DBF01FF2793585F4F3AF09E3F510540
:1057E00078F00C94F32C0C944E2D5F3FE4F3983E2C
:1057F000D4F3869577956795B795F7959F5FC9F729
:10580000880F911D9695879597F90895E1E0660FA9
:10581000771F881FBB1F621773078407BA0720F022
:10582000621B730B840BBA0BEE1F88F7E09508958B
:105830000E941F2C6894B1110C944E2D08950E9463
:10584000332D88F09F5798F0B92F9927B751B0F0B2
:10585000E1F0660F771F881F991F1AF0BA95C9F7F4
:1058600014C0B13091F00E944D2DB1E008950C9418
:105870004D2D672F782F8827B85F39F0B93FCCF3CB
:10588000869577956795B395D9F73EF49095809571
:10589000709561957F4F8F4F9F4F089597FB16F43A
:1058A0000E94FC2C0C94922CE89409C097FB3EF4C7
:1058B00090958095709561957F4F8F4F9F4F99235D
:1058C000A9F0F92F96E9BB279395F69587957795DB
:1058D0006795B795F111F8CFFAF4BB0F11F460FF9B
:1058E0001BC06F5F7F4F8F4F9F4F16C0882311F0F3
:1058F00096E911C0772321F09EE8872F762F05C007
:10590000662371F096E8862F70E060E02AF09A95A1
:10591000660F771F881FDAF7880F9695879597F996
:105920000895E894F92F96EBFF2381F012161306E1
:105930001406440B9395F69587957795679557953B
:105940004040FF23B9F71BC099270895882351F4DD
:105950009850D2F7872B762F652F542F432F322F55
:1059600020E0B1F3121613061406440B88233AF014
:105970009A95440F551F661F771F881FCAF7552336
:105980004AF4440F551F11F460FF04C06F5F7F4F4E
:105990008F4F9F4F880F9695879597F90895990F88
:1059A0000008550FAA0BE0E8FEEF16161706E807E9
:1059B000F907C0F012161306E407F50798F0621B0A
:1059C000730B840B950B39F40A2661F0232B242BDF
:1059D000252B21F408950A2609F4A140A6958FEFFE
:1059E000811D811D089597F99F6780E870E060E050
:1059F00008959FEF80EC089590958095709560953F
:105A000050954095309521953F4F4F4F5F4F6F4FC9
:105A10007F4F8F4F9F4F089500240A941616170644
:105A200018060906089500240A941216130614068F
:105A300005060895092E0394000C11F4882352F0F2
:105A4000BB0F40F4BF2B11F460FF04C06F5F7F4FAA
:105A50008F4F9F4F089557FD9058440F551F59F091
:105A60005F3F71F04795880F97FB991F61F09F3F4B
:105A700079F087950895121613061406551FF2CF74
:105A80004695F1DF08C0161617061806991FF1CFC4
:105A900086957105610508940895E894BB276627EB
:105AA0007727CB0197F908950E94CF2C08F48FEF48
:105AB00008950E946C2D0C941A2D0E940C2D38F024
:105AC0000E94132D20F0952311F00C94F32C0C94CC
:105AD000F92C11240C944E2D0E942B2D70F3959FC0
