:100000000C94270A0C94520A0C94520A0C94520A2B
:100010000C94520A0C94520A0C948F380C94520A85
:100020000C94520A0C948E170C94520A0C94520A97
:100030000C9494370C94520A0C94520A0C94520A61
:100040000C94520A0C94520A0C94520A0C94520AC0
:100050000C94520A0C94520A0C94520A0C94520AB0
:100060000C94520A0C94520A0C94520A0C94520AA0
:100070000C94520A0C94520A0C94520A0C94520A90
:100080000C94520A0C94520A0C94520A4C32533279
:10009000A533C332A533A533A5339E33A533A5338A
:1000A000A533A533A533A533A533A533A533A53390
:1000B000A533A533A533A533A533A533A533A53380
:1000C000A533A533A533A533A533A533A533A53370
:1000D000A533A533A533A533A533A533A533A53360
:1000E000A533A533A533A533A533A533A533A53350
:1000F00050335633673378338C336364696E6F7073
:10010000737578585B0000407A10F35A00A0724E65
:1001100018090010A5D4E80000E87648170000E4AC
:100120000B54020000CA9A3B000000E1F5050000F4
:1001300080969800000040420F000000A086010059
:100140000000102700000000E80300000000640029
:10015000000000000A000000000001000000000094
:100160002C76D888DC674F0823DFC1DFAE59E1B1B8
:10017000B796E5E3E453C63AE651997696E8E6C2C7
:100180008426EB898C9B62ED407C6FFCEFBC9C9FCE
:1001900040F2BAA56FA5F490055A2AF75C936B6CF0
:1001A000F9676DC11BFCE0E40D47FEF520E6B500E4
:1001B000D0ED902E0300943577050080841E080052
:1001C00000204E0A000000C80C333333330F986E02
:1001D00012831141EF8D2114893BE65516CFFEE6BF
:1001E000DB18D1844B381BF77C1D901DA4BBE42485
:1001F000203284725E228100C9F124ECA1E53D2702
:100200000D0A436F6E74656E742D547970653A20D3
:100210006170706C69636174696F6E2F782D777788
:10022000772D666F726D2D75726C656E636F646588
:10023000640D0A0D0A00436F6E74656E742D4C6573
:100240006E6774683A20000D0A557365722D416718
:10025000656E743A207467722F312E310D0A416336
:10026000636570743A202A2F2A0D0A000D0A0020B7
:10027000485454502F312E310D0A486F73743A2070
:1002800000504F535420000D0A557365722D41677D
:10029000656E743A207467722F312E310D0A4163F6
:1002A000636570743A20746578742F68746D6C0D92
:1002B0000A0D0A0020485454502F312E310D0A489F
:1002C0006F73743A2000474554200000010800066F
:1002D0000400014500008200004000202F686F6D7F
:1002E00065273B0A3C2F7363726970743E0A006C89
:1002F0006F636174696F6E2E68726566203D20279A
:10030000687474703A2F2F003C73637269707420A4
:10031000747970653D746578742F6A617661736372
:10032000726970743E0A003C7072653E0A0048545F
:1003300054502F312E302034303120556E61757479
:10034000686F72697A65640D0A436F6E74656E74C6
:100350002D547970653A20746578742F68746D6CCB
:100360000D0A0D0A3C68313E34303120556E6175FE
:1003700074686F72697A65643C2F68313E003C682E
:10038000313E323030204F4B3C2F68313E003C2F05
:100390007072653E003C2F6469763E0A3C2F626FA6
:1003A00064793E0A003C62723E3C68723E6279208B
:1003B00044616E69656C7320466926233335336565
:1003C00072733C2F68723E3C2F62723E003C696E35
:1003D00070757420747970653D227375626D6974EF
:1003E000222076616C75653D22486F6D6522207311
:1003F00074796C653D2277696474683A31303025D0
:1004000022206F6E636C69636B3D2277696E646F47
:10041000772E6C6F636174696F6E3D272F686F6D07
:1004200065273B22202F3E0A000A3C2F7461626C34
:10043000653E0A003C74723E0A3C746420636C6141
:1004400073733D627574746F6E20636F6C7370614B
:100450006E3D2232223E3C696E7075742074797054
:10046000653D7375626D69742076616C75653D22BA
:10047000436F6E6669726D22207374796C653D22DC
:1004800077696474683A31303025223E3C2F7464B9
:100490003E0A3C2F74723E0A3C2F666F726D3E001E
:1004A0003E3C2F74643E0A3C2F74723E000A3C743A
:1004B000643E3C666F726D20616374696F6E3D2FA0
:1004C000206D6574686F643D6765743E0A536563AB
:1004D0006F6E643A203C696E707574207479706533
:1004E0003D746578742073697A653D3132206E61A0
:1004F0006D653D7365632076616C75653D003E3CBE
:100500002F74643E003C74723E0A3C74643E3C6648
:100510006F726D20616374696F6E3D2F206D65741D
:10052000686F643D6765743E0A4461793A203C69AE
:100530006E70757420747970653D7465787420737D
:10054000697A653D3132206E616D653D6461792067
:1005500076616C75653D003E3C2F74643E0A3C2F0D
:1005600074723E000A3C74643E3C666F726D20619A
:100570006374696F6E3D2F206D6574686F643D67AD
:1005800065743E0A4D696E7574653A203C696E70FB
:10059000757420747970653D746578742073697A18
:1005A000653D3132206E616D653D6D696E2076610D
:1005B0006C75653D003E3C2F74643E003C74723E99
:1005C0000A3C74643E3C666F726D20616374696FAF
:1005D0006E3D2F206D6574686F643D6765743E0ADB
:1005E0004D6F6E74683A203C696E70757420747932
:1005F00070653D746578742073697A653D31322089
:100600006E616D653D6D6F6E74682076616C7565A9
:100610003D003E3C2F74643E0A3C2F74723E000A3B
:100620003C74643E3C666F726D20616374696F6EEA
:100630003D2F206D6574686F643D6765743E0A48A0
:100640006F75723A203C696E7075742074797065AC
:100650003D746578742073697A653D3132206E612E
:100660006D653D686F75722076616C75653D003E05
:100670003C2F74643E003C74723E0A3C74643E3C01
:10068000666F726D20616374696F6E3D2F206D65BA
:1006900074686F643D6765743E0A596561723A20FB
:1006A0003C696E70757420747970653D74657874FA
:1006B0002073697A653D3132206E616D653D7965E3
:1006C00061722076616C75653D003C74723E0A3C37
:1006D00074683E446174653C2F74683E3C74683EA7
:1006E00054696D653C2F74683E0A3C2F74723E005D
:1006F0003C74723E0A3C746820636F6C7370616E68
:100700003D2232223E5265616C2054696D65204362
:100710006C6F636B2053657474696E67733C2F74E0
:10072000683E0A3C2F74723E0A003C626F64793E58
:100730000A3C64697620636C6173733D63656E7413
:1007400065723E0A3C68323E576561746865722086
:1007500053746174696F6E3C2F68323E0A3C746159
:10076000626C653E0A003C2F7374796C653E0A002A
:10077000626F6479207B0A6261636B67726F756E6A
:10078000642D636F6C6F723A20706F77646572626C
:100790006C75653B0A7D0A0068322C206872207BEC
:1007A0000A746578742D616C69676E3A2063656EB2
:1007B0007465723B0A7D0A0074642E627574746FEE
:1007C0006E207B0A70616464696E673A20307078CD
:1007D0003B0A7D0A007461626C652C2074682C20D1
:1007E0007464207B0A626F726465723A203170789B
:1007F00020736F6C696420626C61636B3B0A626F8B
:10080000726465722D636F6C6C617073653A2063FE
:100810006F6C6C617073653B0A70616464696E67CC
:100820003A20313570783B0A746578742D616C69B3
:10083000676E3A2063656E7465723B0A7D0A0064D8
:1008400069762E63656E746572207B0A706F7369BA
:1008500074696F6E3A206162736F6C7574653B0AE0
:10086000746F703A203530253B0A6C6566743A2007
:100870003530253B0A6D617267696E2D7269676854
:10088000743A202D3530253B0A7472616E73666FA1
:10089000726D3A207472616E736C617465282D35C7
:1008A00030252C202D353025290A7D0A003C737413
:1008B000796C653E0A000A3C7072653E0A003C2F66
:1008C0007072653E003C2F6469763E0A3C2F626F71
:1008D00064793E0A003C62723E3C68723E62792056
:1008E00044616E69656C7320466926233335336530
:1008F00072733C2F68723E3C2F62723E003C696E00
:1009000070757420747970653D227375626D6974B9
:10091000222076616C75653D22486F6D65222073DB
:1009200074796C653D2277696474683A313030259A
:1009300022206F6E636C69636B3D2277696E646F12
:10094000772E6C6F636174696F6E3D272F686F6DD2
:1009500065273B22202F3E0A000A3C2F7461626CFF
:10096000653E0A003C74723E0A3C746420636C610C
:1009700073733D627574746F6E3E3C696E7075740E
:1009800020747970653D227375626D6974222076DA
:10099000616C75653D2252657374617274222073B7
:1009A00074796C653D2277696474683A313030251A
:1009B00022206F6E636C69636B3D2277696E646F92
:1009C000772E6C6F636174696F6E3D272F7265734C
:1009D0006574273B22202F3E3C2F74643E0A3C2F37
:1009E00074723E0A003C74723E0A3C746420636C6C
:1009F0006173733D627574746F6E3E3C696E7075A1
:100A00007420747970653D7375626D6974207661C8
:100A10006C75653D22436F6E6669726D222073743A
:100A2000796C653D2277696474683A3130302522EB
:100A30003E3C2F74643E0A3C2F74723E0A3C2F6683
:100A40006F726D3E003E3C2F696E7075743E0A3CBD
:100A50002F74643E0A3C2F74723E0A0A003C747282
:100A60003E0A3C74643E0A486F6C6C612053656EAC
:100A7000736F723A203C696E70757420747970657A
:100A80003D746578742073697A653D3132206E61FA
:100A90006D653D68616C6C2076616C75653D003EEE
:100AA0003C2F696E7075743E0A3C2F74643E0A3C9C
:100AB0002F74723E0A003C74723E0A3C74643E0A13
:100AC00054696D656F757420285365636F6E647328
:100AD000293A203C696E70757420747970653D7494
:100AE0006578742073697A653D3132206E616D6579
:100AF0003D74696D656F75742076616C75653D0038
:100B00003E3C2F696E7075743E0A3C2F74643E0A39
:100B10003C2F74723E003C74723E0A3C74643E0A80
:100B2000476174657761792049503A203C696E705D
:100B3000757420747970653D746578742073697A72
:100B4000653D3132206E616D653D67776970207655
:100B5000616C75653D003E3C2F696E7075743E0A90
:100B60003C2F74643E0A3C2F74723E003C74723E0B
:100B70000A3C74643E0A44657374696E6174696FFB
:100B80006E2049503A203C696E70757420747970FB
:100B9000653D746578742073697A653D3132206EE5
:100BA000616D653D7365727669702076616C7565FF
:100BB0003D003E3C2F696E7075743E0A3C2F746494
:100BC0003E0A3C2F74723E003C74723E0A3C7464D0
:100BD0003E0A3C666F726D20616374696F6E3D2FD3
:100BE000206D6574686F643D6765743E0A57656182
:100BF000746865722053746174696F6E2049503A4D
:100C0000203C696E70757420747970653D746578E8
:100C1000742073697A653D3132206E616D653D6D7A
:100C20007969702076616C75653D003C74723E0A8E
:100C30003C74683E53657474696E67733C2F7468C6
:100C40003E0A3C2F74723E003C626F64793E0A3C5F
:100C500064697620636C6173733D63656E7465725D
:100C60003E0A3C68323E5765617468657220537471
:100C70006174696F6E3C2F68323E0A3C7461626C2D
:100C8000653E0A003C2F7374796C653E0A00626F02
:100C90006479207B0A6261636B67726F756E642D85
:100CA000636F6C6F723A20706F77646572626C75F7
:100CB000653B0A7D0A0068322C206872207B0A742A
:100CC0006578742D616C69676E3A2063656E746532
:100CD000723B0A7D0A0074642E627574746F6E2014
:100CE0007B0A70616464696E673A203070783B0AF1
:100CF0007D0A007461626C652C2074682C20746419
:100D0000207B0A626F726465723A203170782073BA
:100D10006F6C696420626C61636B3B0A626F726422
:100D200065722D636F6C6C617073653A20636F6CD4
:100D30006C617073653B0A70616464696E673A2028
:100D4000313570783B0A746578742D616C69676E13
:100D50003A2063656E7465723B0A7D0A00646976A9
:100D60002E63656E746572207B0A706F7369746997
:100D70006F6E3A206162736F6C7574653B0A746FB5
:100D8000703A203530253B0A6C6566743A20353060
:100D9000253B0A6D617267696E2D72696768743AE6
:100DA000202D3530253B0A7472616E73666F726D4B
:100DB0003A207472616E736C617465282D3530252C
:100DC0002C202D353025290A7D0A003C7374796C5E
:100DD000653E0A000A3C7072653E0A003C2F707244
:100DE000653E003C2F6469763E0A3C2F626F647951
:100DF0003E0A003C62723E3C68723E627920446169
:100E00006E69656C732046692623333533657273CA
:100E10003C2F68723E3C2F62723E003C696E7075DA
:100E20007420747970653D227375626D6974222037
:100E300076616C75653D2252544320536574746924
:100E40006E677322207374796C653D2277696474D0
:100E5000683A3130302522206F6E636C69636B3DD8
:100E60002277696E646F772E6C6F636174696F6E41
:100E70003D272F727463273B22202F3E0A003C69D6
:100E80006E70757420747970653D227375626D693A
:100E900074222076616C75653D2253657474696EA9
:100EA000677322207374796C653D22776964746876
:100EB0003A3130302522206F6E636C69636B3D22BE
:100EC00077696E646F772E6C6F636174696F6E3DC6
:100ED000272F73657474696E6773273B22202F3E3A
:100EE0000A000A3C2F7461626C653E0A3C2F666FF3
:100EF000726D3E0A003C2F74643E0A3C2F74723EB1
:100F0000003C666F6E7420636F6C6F723D22677277
:100F100065656E223E4F70656E3C2F666F6E743E47
:100F2000003C666F6E7420636F6C6F723D22726559
:100F300064223E436C6F7365643C2F666F6E743E33
:100F4000000A3C74723E0A3C74643E426F7820533F
:100F500074617475733A2000206D2F733C2F746494
:100F60003E0A3C2F74723E000A3C74723E0A3C7486
:100F7000643E57696E642053706565643A200026AC
:100F8000237862303B3C2F74643E0A3C2F74723EDF
:100F9000000A3C74723E0A3C74643E57696E6420D9
:100FA000416E676C653A20002050613C2F74643EAE
:100FB0000A3C2F74723E000A3C74723E3C74643EDC
:100FC00050726573737572653A200020253C2F744A
:100FD000643E0A3C2F74723E000A3C74723E0A3C26
:100FE00074643E48756D69646974793A20002026FE
:100FF0002378323130333B3C2F74643E0A3C2F74EB
:10100000723E000A3C74723E0A3C74643E54656D44
:1010100070657261747572653A20003C74723E0AA4
:101020003C74683E496E666F726D6174696F6E3CA8
:101030002F74683E0A3C2F74723E003C626F6479E4
:101040003E0A3C64697620636C6173733D63656E30
:101050007465723E0A3C68323E5765617468657219
:101060002053746174696F6E3C2F68323E0A3C7481
:1010700061626C653E0A003C2F7374796C653E0AB0
:1010800000626F6479207B0A6261636B67726F75BF
:101090006E642D636F6C6F723A20706F7764657247
:1010A000626C75653B0A7D0A0068322C20687220EC
:1010B0007B0A746578742D616C69676E3A2063658C
:1010C0006E7465723B0A7D0A0074642E62757474D6
:1010D0006F6E207B0A70616464696E673A203070BD
:1010E000783B0A7D0A007461626C652C2074682C60
:1010F000207464207B0A626F726465723A203170DA
:101100007820736F6C696420626C61636B3B0A6268
:101110006F726465722D636F6C6C617073653A20D9
:10112000636F6C6C617073653B0A70616464696EB7
:10113000673A20313570783B0A746578742D616C9C
:1011400069676E3A2063656E7465723B0A7D0A00BA
:101150006469762E63656E746572207B0A706F73A6
:101160006974696F6E3A206162736F6C7574653B68
:101170000A746F703A203530253B0A6C6566743A04
:10118000203530253B0A6D617267696E2D72696783
:1011900068743A202D3530253B0A7472616E73668F
:1011A0006F726D3A207472616E736C617465282D74
:1011B0003530252C202D353025290A7D0A003C7339
:1011C00074796C653E0A000A3C7072653E0A0048FC
:1011D0005454502F312E3020323030204F4B0D0AD6
:1011E000436F6E74656E742D547970653A20746522
:1011F00078742F68746D6C0D0A507261676D613A76
:10120000206E6F2D63616368650D0A0D0A00000092
:1012100000000000000000000000000000000000CE
:101220000000000000000000000000383838C0C096
:10123000C000000000000000000000000000C0C06E
:10124000C038383800000000000000000000000036
:10125000000000000000000000000000000000008E
:10126000000000000000000000000000000000007E
:101270000000000000000000000000E0E0E0E0FEF0
:10128000FEFE8F8F8FFEFEFEFEFEFEFEFEFEFEFECB
:10129000FEFE8F8F8FFEFEFEF0F0F0F080808080EB
:1012A000000000000000000000000000000000003E
:1012B000000000000000000000000000000000002E
:1012C0000000000000000000000000FFFFFFFF031F
:1012D000030303FFFFFFFF0F0F0F0F0F0F0F0F0F82
:1012E0000F0F0F0F0F0F0F0FFFFFFFFF030303037E
:1012F000FFFFFFFF000000000000000000000000F2
:1013000000000000000000000000000000000000DD
:1013100000000000000000000000000000000000CD
:1013200000000000000000000000000F0F0F0F0F72
:101330000F00000000000F0F0F0F0F0F0000000044
:10134000000000000000000000000000000000009D
:10135000000000000000000000000000000000008D
:10136000000000000048545424007C141408007845
:101370001414780038444428007C5454440000007D
:10138000000000447C44007C08107C000C3040309D
:101390000C0078141478007C444438007C54544485
:1013A000007C14344800485454240000000000001D
:1013B000000000000000000000000000000000002D
:1013C000000000000000000000000000000000001D
:1013D000000000000000000000000000000000000D
:1013E00000000000000000000000000000000000FD
:1013F00000000000000000000000000000000000ED
:1014000000000000000043616C6962726174696FE2
:101410006E20636F6D706C657465210A0043616CAA
:101420006962726174696F6E20737461727465644D
:10143000210A00537061636520496E7661646572AC
:1014400073206163746976617465642100001124FE
:101450001FBECFEFD0E4DEBFCDBF14BE0FB6F894F1
:10146000A895809160008861809360001092600070
:101470000FBE14E0A0E0B1E0EEE9FCE900E00BBF34
:1014800002C007900D92A83FB107D9F726E1A8EF57
:10149000B4E001C01D92A339B207E1F70E94F83809
:1014A0000C944D4E0C940000CF93DF93239A2B980D
:1014B00084E70E94FE368FEF0E94FE3684EF0E9482
:1014C000FE3687E50E94FE362B9A63E070E088E8DE
:1014D0000E943137C4E1D3E19983888363E070E0EF
:1014E0008AE80E9450379B838A8363E070E08CE82F
:1014F0000E9450379D838C8363E070E08EE80E94E9
:1015000031379F838E8363E070E080E90E9450371B
:101510009987888763E070E082E90E9450379B8753
:101520008A8763E070E084E90E9450379D878C874A
:1015300063E070E086E90E9450379F878E8763E002
:1015400070E088E90E945037998B888B63E070E0E7
:101550008AE90E9450379B8B8A8B63E070E08CE9AC
:101560000E9450379D8B8C8B63E070E08EE90E9467
:1015700050379F8B8E8BDF91CF9108952F923F92A2
:101580004F925F926F927F928F929F92AF92BF9293
:10159000CF92DF92EF92FF920F931F93CF93DF933F
:1015A000CDB7DEB76F970FB6F894DEBF0FBECDBFD5
:1015B00023E030E046E0BE016F5F7F4F87EF0E947F
:1015C000043789808D8E9A809E8E8B808F8E8C8141
:1015D00090E0A0E0B0E0AC01BD01032E3CE0440F80
:1015E000551F661F771F3A95D1F7302D9D81892FA2
:1015F00090E0A0E0B0E0880F991FAA1FBB1F880FE2
:10160000991FAA1FBB1F880F991FAA1FBB1F880FF6
:10161000991FAA1FBB1F842B952BA62BB72B2E819E
:10162000822B0F2EF4E16F2EF3E17F2EF02DF301CC
:101630004081518160E070E06C017D01689413F895
:10164000F594E794D794C7941694D1F7C41AD50AA1
:10165000E60AF70A689412F8B595A79597958795C5
:101660001694D1F7440F551F661F771F4C015D017B
:10167000841A950AA60AB70AA5019401A281B3812A
:101680000E94EE404B015C01072E7BE0B594A794CD
:10169000979487947A95D1F7702DA7019601C70189
:1016A000B6010E9488409B01AC01012E1CE05595BB
:1016B0004795379527951A95D1F7102DA481B581B7
:1016C0000E94EE40DC01CB01072E7EE0B595A79588
:1016D000979587957A95D1F7702D880D991DAA1D3C
:1016E000BB1D8093351390933613A0933713B0939B
:1016F00038136C017D01FF0CCC08DC2C7601282FFF
:10170000392F4A2F5B2F6C2D7C2D8C2D9C2D345F17
:101710004140510961097109810991092F833A8773
:101720004B875C876D877E878F87988BA22EB32E21
:10173000C42ED52EE62EF72E082F192F0E94F44026
:10174000298B3A8B4B8B5C8B698F7A8F8B8F9C8F1D
:10175000D30119963C91199718962C91932F990FB4
:10176000990B492F592F692F792F892F0E94F44007
:101770000CE00E941542222E332E442E552E6887EF
:101780007987882E992EF30133852285932F990F1F
:10179000990BA988BA88CB88DC88E98CFA8C0B8DE8
:1017A0001C8D492F592F692F792F892F0E94F440C2
:1017B00008E00E942E42A22CB32CC42CD52CE88425
:1017C000F984082D192D0E944C4270588F4F9F4F5D
:1017D000D30116962D903C901797A22CB32CC12CB8
:1017E000D12CE12CF12C00E010E00E94F44001E249
:1017F0000E942E42288739874D8B5E8B6F8B788FA6
:10180000582E492EA0E00E945E4209F465C10F2EB9
:10181000F4E12F2EF3E13F2EF02DF10131892089E3
:10182000932F990F990BA988BA88CB88DC88E98C0B
:10183000FA8C0B8D1C8D492F592F692F792F892FE9
:101840000E94F440298B3A8B4B8B5C8B662E772E53
:10185000882E992ED1011F963C911F971E962C9190
:10186000932F990F990BAF80BA84CB84DC84ED84DD
:10187000FE840F851889492F592F692F792F892FB9
:101880000E94F44001E10E941542A988BA88CB88E1
:10189000DC88E62CF72C082D192D0E944C42A22E34
:1018A000B32EC42ED52EE62EF72E8F83192F8D8CB6
:1018B000482D50E060E070E0DB01CA01072E7CE0BB
:1018C000880F991FAA1FBB1F7A95D1F7702D9E8C88
:1018D000492D50E060E070E0440F551F661F771FF0
:1018E000440F551F661F771F440F551F661F771F34
:1018F000440F551F661F771F482B592B6A2B7B2BD4
:101900008F8C482980E090E0A0E1B0E0841B950B2B
:10191000A60BB70B3C014D01990C6608762C4301D0
:10192000282F392F4A2F5B2F662D762D862D962D49
:101930000FE10E941542622E732E842E952EB62F33
:10194000A72F8A879B87F10135852485932F990FCF
:10195000990B492F592F692F792F892F03E20E9464
:1019600015420F810E944C42A22EB32EC42ED52EBA
:10197000E62EF72E082F192F262D372D482D592DFD
:101980006B2F7A2F8A859B850E9455420F2EF5E397
:10199000AF2EF02D0F2EFCE0BF2EF02DC12CD12C40
:1019A000E12CF12C00E010E00E94F440A884B984FE
:1019B000CD88DE88EF88F88C052D142D0E944741D4
:1019C0002F833A874B875C876D877E878F87988BBD
:1019D0000DE00E942E42922E832E742E652E562EDE
:1019E000472E88879987D10157963C9157975696ED
:1019F0002C91932F990F990BA92CB82CC72CD62C6E
:101A0000E52CF42C082F1985492F592F692F792F90
:101A1000892F0E94F4400E94F44009E10E942E4266
:101A2000AF80BA84CB84DC84ED84FE840F85188972
:101A30000E944C4228873987442E552E662E772ED9
:101A4000882E992EF10135892489932F990F990BAE
:101A5000492F592F692F792F892F0E94F44003E1D4
:101A60000E942E42A22EB32EC42ED52EE62EF72E85
:101A7000082F192F28853985442D552D662D772D52
:101A8000882D992D0E944C4208E00E942E42A22EE1
:101A9000B32EC42ED52EE62EF72EE82F192FD10106
:101AA00053963C91539752962C91932F990F990BE3
:101AB000492F592F692F792F892F04E00E94154251
:101AC0000E2F0E944C420E941D3F20E030E040E873
:101AD0005BE30E94254003C060E070E0CB016F969D
:101AE0000FB6F894DEBF0FBECDBFDF91CF911F912F
:101AF0000F91FF90EF90DF90CF90BF90AF909F90AD
:101B00008F907F906F905F904F903F902F900895AF
:101B1000FC016634710508F473C083A1853309F0B4
:101B200071C084A1803E09F06FC085A19091FE0430
:101B300089136CC093A589136BC085A58F788038F5
:101B400029F081E08093F80480E0089592A5945FE5
:101B500061537109DF01A90FB11D9A968C91807CA8
:101B600071F09E5F11C081E0890FDF01A80FB11DE8
:101B70009A962C91211102C09E5F06C0982F292FA2
:101B800030E02617370778F3292F30E0DF01A20F66
:101B9000B31F9B968C91813099F088E0890FDF010B
:101BA000A80FB11D9B968C91965F980F292F30E05E
:101BB0002617370778F283E08093F80480E00895D1
:101BC000DF01A20FB31FD3962C91243029F082E0BD
:101BD0008093F80480E008952AE0290F30E0265D24
:101BE0003F4FE20FF31FA9EFB4E02DEF34E09191E6
:101BF0009D93A217B307D9F791E09093FD04089540
:101C000080E0089580E0089580E0089580E00895E0
:101C100080E008952A98962F6F71862B8EBD0DB4A3
:101C200007FEFDCF1EBC0DB407FEFDCF992324F4A3
:101C30001EBC0DB407FEFDCF2A9A8EB508952A98D2
:101C40006F71862B8EBD0DB407FEFDCF4EBD0DB45A
:101C500007FEFDCF2A9A0895FB012A982AE32EBD9C
:101C60000DB407FEFDCF009769F0DF01A80FB91F83
:101C70001EBC0DB407FEFDCF9EB59193EA17FB077E
:101C8000B9F701C0DF011C922A9A0895FB012A9836
:101C90002AE72EBD0DB407FEFDCF09C09F01280F16
:101CA000391F91919EBD0DB407FEFDCF03C0009773
:101CB000A9F703C02E173F07A1F72A9A08951F938B
:101CC000CF93DF93182F1076C12FD0E080910105BC
:101CD00090E0C817D907A1F043E06FE180EAAFDFD9
:101CE000AE01559547955595479555954795559509
:101CF0004795559547956FE180E8A1DF1093010561
:101D0000DF91CF911F910895CF93C82FD8DF6C2F0B
:101D100080E080DFCF910895CF93DF93C82FD62F37
:101D2000CEDF4D2F6C2F80E48ADFDF91CF910895B5
:101D3000CF93682F84EDF0DF61E082EDEDDF8AEE76
:101D4000E3DF80FDFCCF60E082EDE6DF89EDDCDFE4
:101D5000C82F88EDD9DF2C2F30E0322F2227A901A0
:101D6000482BCA01CF910895CF93DF93D62FC72F69
:101D7000682F84EDD1DF6D2F86EDCEDF6C2F87EDE0
:101D8000CBDFC8E203C08C2F8A95F1F78AEEBCDF67
:101D900080FDF9CFDF91CF910895682F677085E7B7
:101DA000BBCF0895CF93DF93EC01229A2A9A4FEF8D
:101DB00060E08FEF44DF80E090E00197F1F7109250
:101DC00000051092FF0460E088E0A6DF60E089E093
:101DD000A3DF60E08CE0A0DF60E08DE09DDF6FEFCF
:101DE0008AE09ADF69E18BE097DF60E084E094DFCE
:101DF0006AE185E091DF6FEF86E08EDF6FE187E0DB
:101E00008BDF60EB88E388DF6FE388E285DF60E3E8
:101E100089E282DF69EF80E37FDF67EF81E37CDFC8
:101E20006DE080EC79DF60E081EC76DF42E362EC2C
:101E300080E805DF62E186EC6FDF6CE087EC6CDF49
:101E400062E184EC69DF6CED8AEC66DF65E08BECC7
:101E500063DF688184EE60DF698185EE5DDF6A8122
:101E600082EE5ADF6B8183EE57DF6C8180EE54DFA8
:101E70006D8181EE51DF60E071E080E175DF8FE11F
:101E80001EDF40EC6BE180E8DADE44E06FE180E8E1
:101E9000D6DEDF91CF91089581E14ADF92FB88275A
:101EA00080F908950F931F93CF93DF93EC018B017B
:101EB0006FE180E0AFDE83FDFBCF8CE125DF81FFAA
:101EC00010C040E86FE180E8BADE40E86FE180EAE8
:101ED000B6DE42E06CE180EAB2DE80E395E701978E
:101EE000F1F760E082E018DF6AE183E015DF6C2F34
:101EF00086E012DFCE01965E692F87E00DDF40E0BD
:101F000060E08AE79CDEB801CE01C0DE48E06FE108
:101F100080E895DEDF91CF911F910F910895AF92E8
:101F2000BF92CF92DF92EF92FF920F931F93CF93C6
:101F3000DF936C017B0189E3E7DE882309F456C057
:101F40006091FF04C091000580E0E6DE6C2F81E027
:101F5000E3DE60E08AE35EDEC82F60E08AE35ADEFB
:101F6000D0E0D82BD0930005C093FF0460E08AE353
:101F700051DEB82E60E08AE34DDEA82E60E08AE3F1
:101F800049DE082F60E08AE345DE07FF10C081E0EC
:101F9000C81AD1080B2D10E01A2904501109C016D7
:101FA000D10608F48601B701C80156DE02C000E080
:101FB00010E07E0181E0E81AF108E1148AE1F806F8
:101FC0003CF06FEF8CE0A8DE69E18DE0A5DE07C094
:101FD0006C2F61508CE0A0DE6F2D8DE09DDE40E423
:101FE0006EE180E82CDE802F912F02C080E090E02F
:101FF000DF91CF911F910F91FF90EF90DF90CF90E5
:10200000BF90AF900895CF92DF92EF92FF920F931F
:102010001F93CF93DF93EA01890190911A059817D6
:1020200061F0E0911705F091180540E050E060E0A4
:1020300070E084EF91E009955EC061115CC02D30C5
:10204000310508F458C0E0901705F0901805E11428
:10205000F10409F450C0C0900B05D0900C05F601B6
:10206000E40FF51F808590E00E944644892BB9F16A
:10207000F601EC0FFD1F218530E0205331092A3095
:10208000310580F5F601EC0FFD1F838590E0AC0172
:10209000405351094A30510540F5C901880F991F35
:1020A000220F331F220F331F220F331F280F391F18
:1020B000F601EC0FFD1F828590E0C097280F391FB5
:1020C000C901880F991F220F331F220F331F220FC0
:1020D000331F280F391FCA01820F931F08C080E0E9
:1020E00090E005C080E090E002C080E090E0A801B0
:1020F000BE01F701099580E0DF91CF911F910F910B
:10210000FF90EF90DF90CF900895CF92DF92EF9203
:10211000FF92CF93DF93EC01DB01413061F46B015F
:1021200088E0C81AD108E12CF12C81E1C80ED11C3D
:10213000E11CF11C11C0423061F46B0188E0C81A47
:10214000D108E12CF12C86E0C80ED11CE11CF11C59
:1021500003C0C12CD12C7601A230B105F0F09D0155
:10216000FE01408150E060E070E0762F652F542F33
:1021700044278181482BC40ED51EE61EF71E3296D9
:10218000225031092230310560F7CD0102978E7F50
:102190000296C80FD91FA170BB27AB2B61F08881B5
:1021A00090E0A0E0B0E0BA2FA92F982F8827C80EA2
:1021B000D91EEA1EFB1EA701662777274115510588
:1021C0006105710571F0EE24FF24C40ED51EE61ED4
:1021D000F71EA7016627772741155105610571058F
:1021E00091F7C60180959095DF91CF91FF90EF9088
:1021F000DF90CF900895009741F026E0FC01A3E323
:10220000B5E001900D922A95E1F70895CF93DF9301
:10221000FC01308120912F052327309105012323D4
:1022200091F43196C0E3D5E0A6E0B1E0AC014C5F9B
:102230005F4F819129919D918227892331F4E41781
:10224000F507B9F703C081E001C081E0DF91CF91CC
:102250000895FC01328DFB01208132130DC0DC0199
:102260005B9631964E963D912191321307C0A81787
:10227000B907C9F781E0089580E0089580E00895E6
:1022800069327105C8F0FC0124852830B9F4258530
:102290002630B1F436A120912F05321313C0B79622
:1022A000A0E3B5E08A9631912D9132130DC0E81765
:1022B000F907C9F781E0089580E0089580E0089566
:1022C00080E0089580E0089580E00895CF93DF9343
:1022D000FC016A327105E0F084858830D9F4858587
:1022E00081111AC096859534C1F4268D90912F05E1
:1022F000291313C0DF015F96C0E3D5E0B2962D919C
:10230000999129130AC0AE17BF07C9F781E005C02C
:1023100080E003C080E001C080E0DF91CF910895AC
:10232000FC01A3E3B5E09C012A5F3F4F86818193C6
:102330008D918583E217F307C9F70895CF93DF9353
:10234000EC01188E198E80E48C8B1D8A8E8B40E0F8
:1023500064E170E0CE010E96D8DE988F898FDF9110
:10236000CF910895AC01AFE2B5E0FC017A9623E38A
:1023700035E0908194839D919193A217B307C9F79B
:10238000CA01DCCF0895FC01BA9686962291620FAD
:10239000711D24816483442311F0208301C01082C5
:1023A000672F7727E817F90789F70895CF93DF9309
:1023B000EC018CA19AA19CA38AA38DA19BA19DA3B2
:1023C0008BA3CE01E0DF1AAA1BAA80E58EA7DF91BE
:1023D000CF910895CF93DF93EC01A2DF1C8A82E0B6
:1023E0008D8BA3E3B5E0FE01769629E335E080818D
:1023F00082878D918193A217B307C9F7AFE2B5E049
:10240000FE017C9623E335E0808182878D91819364
:10241000A217B307C9F7BE018AE290E043DDDF915E
:10242000CF9108950F931F93CF93DF93EC018B010E
:1024300077DFCE0197DF1AA28CA1883F18F09DA10B
:102440009F5F9DA3885F8CA3BE01C8012BDDDF9138
:10245000CF911F910F910895FC01208930E0322F18
:1024600022278189282B2451310986A582958F70D6
:10247000A90164E0869F401951091124CA019923DA
:1024800014F480E090E008959A012F5F3F4FFA0125
:102490004491442369F0FB01F696DC01AE0FBF1FA7
:1024A000F9014D936F5F7F4F449131964111F9CF00
:1024B000CB010895222391F0A42FB52FAB014A5CE4
:1024C0005F4FFC01E40FF51F922F3D913193915026
:1024D000E1F72150620F711D6F5F7F4FCB010895AF
:1024E000FA0101900020E9F731979F01241B350B79
:1024F000E1CF0895EF92FF920F931F93CF93DF9355
:1025000000D000D01F92CDB7DEB790911A05981376
:10251000A5C08091190581112AC000910B05109169
:102520000C0546EC52E060E070E0C801ADDF409180
:10253000110550911205BC01C801A6DF40910F059D
:1025400050911005BC01C801CBDF44EB52E0BC0147
:10255000C8019ADF40910D0550910E05BC01C801DC
:1025600093DF47E852E0BC01C8018EDF79C08130BB
:1025700009F068C000910B0510910C0541E852E08C
:1025800060E070E0C80180DF4091110550911205B4
:10259000BC01C80179DF40910F0550911005BC01C5
:1025A000C8019EDF4FE652E0BC01C8016DDF4091DB
:1025B0000D0550910E05BC01C80166DFE0901505C0
:1025C000F0901605E114F10449F04CE652E0BC012C
:1025D000C8015ADFA701BC01C80156DF47E452E039
:1025E000BC01C80151DF46E352E0BC01C8014CDF29
:1025F0007C01E0911305F0911405DF010D9000209E
:10260000E9F7CD0101974AE0BE016F5F7F4F8E1B56
:102610009F0B0E946F4400910B0510910C05AE01B9
:102620004F5F5F4FB701C8015BDF40E052E0BC0184
:10263000C8012ADF4091130550911405BC01C8015F
:102640004FDF0EC040910F055091100560E070E023
:1026500080910B0590910C0543DF02C080E090E073
:102660000F900F900F900F900F90DF91CF911F91CF
:102670000F91FF90EF900895FF920F931F93CF93C8
:10268000DF93EC018B01F42E4BDE8F2D80618FA741
:1026900084E0F81205C041E0B801CE0187DE09C030
:1026A0000115110511F401E010E041E0B801CE017F
:1026B0007DDE188A88E2898BCE0154DE84E088AB07
:1026C00019AA42E06CE170E0CE014A961EDD9AAB99
:1026D0008BABBE0186E390E0E5DBDF91CF911F91EC
:1026E0000F91FF9008950F931F93CF93DF93EC0109
:1026F0008B01CB018896988B898BCE011FDE1AAA9D
:102700001BAAB801645E7F4F42E0CE014A96FDDC11
:102710009AAB8BABBE01C801C696C4DBDF91CF91EB
:102720001F910F9108959C016115710551F0DB0116
:10273000EFE2F5E043E355E09D919193E417F5074F
:10274000D9F72115310511F0C90155CD08959093A0
:102750000405809309010895CF93DF93EC01E0DD38
:10276000188A8CE2898BCE01FDDD82E18FA740E0E3
:1027700061E070E0CE011ADE1EA21FA280910D0161
:1027800088A719A68D5F80930D0182E08EAB84E04F
:102790008FAB85E088AF19AE80E68EA78AE088AB64
:1027A00019AA42E060E270E0CE014A96AEDC9AAB34
:1027B0008BABBE018AE390E075DBDF91CF9108958A
:1027C0000F931F93CF93DF93EC018B016091020570
:1027D0007091030540E050DF89E18FA7B801CE0179
:1027E00082DFDF91CF911F910F910895DC01FA01F3
:1027F0006115710541F0680F791F84918D933196B1
:102800006A177B07D1F70895CF92DF92EF92FF927C
:102810000F931F93CF93DF937C0180912F05882323
:10282000C1F1D701C3E3D5E009E315E0FE012FEFC5
:102830002D93919115969C9315970E171F07C1F72D
:10284000D72EC62E88E0F701848786E085874BEC7B
:1028500052E068E070E0C7010E96C8DFF701769697
:102860008991819311860C171D07D1F7CC2DDD2D91
:10287000AFE2B5E0F7017C9623E335E089918287EA
:102880008D918193A217B307C9F7B7018AE290E04F
:1028900009DBDF91CF911F910F91FF90EF90DF90B7
:1028A000CF90089581E090910605923009F480E080
:1028B000089550933A134093391321E0209306056D
:1028C00060930505DC01E7E0F5E02BE035E08D9154
:1028D0008193E217F307D9F70895DF92EF92FF9201
:1028E0000F931F93CF93DF93EC01F62EE42ED52E9A
:1028F000A2E2B5E0BC0183E395E048E255E02D910A
:10290000FB012193BF01FC012191CF01FB01258334
:10291000A417B507A1F788E08C871D8643ED52E028
:1029200069E070E0CE010E9661DF8CE2898B8091C8
:1029300004018B8B8F5F8093040186E08F8BA8E26C
:10294000B5E08FE295E08E01065E1F4FB8014CE2C4
:1029500055E02D91FB012483FC012191CF01FB0166
:102960002193BF01A417B507A1F7CE01E7DCDCA2D4
:10297000EDA28BE08AA3FBA2FE01B696CE018E9655
:1029800011928E179F07E1F780910D0188A78D5F47
:1029900080930D0180E68EA782E08FA793E098AB2D
:1029A00019AA1AAA1BAA1CAA1DAA8EAB94E09FAB57
:1029B00088AF8EEE89AF42E060E270E0C801A5DB2F
:1029C0009AAB8BABBE018AE390E06CDADF91CF91DA
:1029D0001F910F91FF90EF90DF9008950F931F9339
:1029E00090931E0580931D0570931C0560931B0535
:1029F000A22FB32FE8E2F5E02CE235E08D91819330
:102A0000E217F307D9F7A02FB12FE2E2F5E028E2B1
:102A100035E08D918193E217F307D9F750932005A4
:102A200040931F0581E08093210580912C058F5FE5
:102A3000883018F480932C0502C010922C058091E8
:102A40002C051F910F9108958F929F92AF92BF9284
:102A5000CF92DF92EF92FF920F931F93CF93DF936A
:102A60004C015B017A016901E80116DA8823A9F0BB
:102A70009092100580920F0582E080931905B09224
:102A80001805A092170586019701AE016AE772E169
:102A900083E090E1A3DF80931A05DF91CF911F912E
:102AA0000F91FF90EF90DF90CF90BF90AF909F90ED
:102AB0008F900895DF92EF92FF920F931F93CF9321
:102AC000DF938C01EB01209709F050C0809106053F
:102AD000893069F480910A0190910B01892BD9F416
:102AE000DBD9882321F067E075E0C8018DDE809195
:102AF0000605813081F4D0D9882369F067E075E05C
:102B0000C80182DE809106058860809306051092D8
:102B10000B0110920A0180910A0190910B0101961C
:102B200090930B0180930A0180912105813009F077
:102B300096C1B2D9882309F495C182E0809321051A
:102B400080910C018F5F80930C0140911F05509183
:102B5000200560912C0590E2699FB00111248F71CE
:102B6000682BC801BADEE12CF12CB0C189DB8823C7
:102B700069F1D80155968C91813011F4C8012ADC95
:102B80008091060583FF71C1F8018589823009F0C3
:102B90006FC144E050E067E075E0C8014C960E94C8
:102BA0004D44892B09F067C1A8014A5E5F4FE0914F
:102BB0003913F0913A136091050587E095E0099586
:102BC00082E080930605E12CF12C80C1BE01C80192
:102BD0007DDB882309F452C1D80157968C91579711
:102BE0008130A1F492968C91883009F04AC1E0912D
:102BF0002D05F0912E05309719F0C8014A960995D8
:102C0000BE01C8010FDCE12CF12C60C1C633D10537
:102C100008F43AC1863009F03AC1F80184A18B303A
:102C200009F0E7C010930C0500930B0568E275E00E
:102C3000C8010FDB882309F42DC1D8019F96DC90D1
:102C40009F97D2FE17C0E0911D05F0911E053097A9
:102C500059F095968C9120E030E040E050E063E040
:102C6000829586958770099586E080932105E12CF1
:102C7000F12C2CC1C801F0DB7C0180912105823050
:102C8000C1F59D2D90718D2D8271823109F540E045
:102C900060E070E0C801F0DC88E1F80187A7E0910E
:102CA0001B05F0911C05309741F0D80193968C914B
:102CB000829586958770099502C080E090E023E0B8
:102CC00020932105BC01C8010EDDE12CF12CFEC0D2
:102CD00081E080932105911104C0B7016F5F7F4FA0
:102CE00002C060E070E044E0C801C6DCE12CF12CD9
:102CF000EDC0833009F03EC0E114F10409F4DFC0F7
:102D000084E080932105E0911D05F0911E05309728
:102D100009F454C0D8019E964C9142954F70B4E08E
:102D20004B9FA0011124CE0108974E5D5F4F841781
:102D3000950708F4AC01C701840F951FC817D90780
:102D400020F49E01241B350B01C09701D8019596F4
:102D50008C9160E08295869587700995882351F063
:102D600049E0B701C80188DC85E080932105E12CAA
:102D7000F12CACC080912105853051F4F80187A574
:102D800084FF8BC086E080932105E12CF12C9EC04E
:102D90008630A1F4D8019F968C9184FD04C0B701C0
:102DA0006F5F7F4F02C060E070E044E0C80164DC08
:102DB00087E080932105E12CF12C88C0F80187A5DC
:102DC00080FF0CC0B7016F5F7F4F41E0C80154DC4A
:102DD00085E080932105E12CF12C78C0E114F10409
:102DE00009F45EC040E0B701C80146DCE12CF12CDB
:102DF0006DC090910405891356C095A18091090179
:102E0000981354C0D7A4D1FE05C0C801A5DCE12C9D
:102E1000F12C5CC0D4FE4DC0C8011EDB7C01909338
:102E2000030580930205892B41F4D0FE4FC040E09A
:102E300060E070E0C80120DC49C0F801E6A4E69437
:102E4000E694E694E694F4E0EF9E7001112482E2A9
:102E5000E80EF11C2897CE15DF0570F137C0E12C84
:102E6000F12C34C0E12CF12C31C0E12CF12C2EC01E
:102E7000E12CF12C2BC0E12CF12C28C0E12CF12C01
:102E800025C0E12CF12C22C0E12CF12C1FC0E12C3B
:102E9000F12C1CC0E12CF12C19C0E12CF12C16C036
:102EA000E12CF12C13C0E12CF12C10C0E12CF12C01
:102EB0000DC0E12CF12C0AC0E12CF12C07C0D80187
:102EC0009F968C9180FD7ECFE12CF12CC701DF9184
:102ED000CF911F910F91FF90EF90DF90089508958B
:102EE000613059F4A42FB52FEDEFF0E123E031E18B
:102EF0008D918193E217F307D9F7089510923E055B
:102F000082E0809370001092B20094EF9093B3002F
:102F10008093B00087E08093B10008951F920F92D4
:102F20000FB60F9211248F9380913E058F5F80938F
:102F30003E0580913E05833338F010923E05809126
:102F40003F058F5F80933F058F910F900FBE0F90CD
:102F50001F9018954FEC51E160E070E080E495E03F
:102F600093CA0895CF93DF93EC01F4DF47EC51E16E
:102F7000BC01CE0189DA4EEB51E1BC01CE0184DA0D
:102F800040E551E1BC01CE017FDA46EE50E1BC01E3
:102F9000CE017ADA49EC50E1BC01CE0175DA49EA9A
:102FA00050E1BC01CE0170DA41E850E1BC01CE0134
:102FB0006BDA47E750E1BC01CE0166DA4BE350E142
:102FC000BC01CE0161DA4BE150E1BC01CE015CDA1B
:102FD00043E050E1BC01CE0157DA41E955E1BC01C3
:102FE000CE017EDA4EEE5FE0BC01CE014DDA49ED56
:102FF0005FE0BC01CE0148DA45E855E1BC01CE01F5
:103000006FDA4BEC5FE0BC01CE013EDA47EB5FE0EC
:10301000BC01CE0139DA47EA55E1BC01CE0160DAE4
:1030200048EA5FE0BC01CE012FDA41E95FE0BC0174
:10303000CE012ADA4EE655E1BC01CE0151DA4FE766
:103040005FE0BC01CE0120DA48E65FE0BC01CE01C2
:103050001BDA41E056E1BC01CE0142DA48E55FE00F
:10306000BC01CE0111DA41E45FE0BC01CE010CDA13
:10307000409178155091791520913A0130913B019A
:103080004217530738F041E25FE0BC01CE01FCD9A2
:10309000BC0106C041E05FE0BC01CE01F5D9BC0136
:1030A00045EF5EE0CE01F0D942EE5EE0BC01CE011C
:1030B000EBD94EE75EE0BC01CE01E6D94BE15EE024
:1030C000BC01CE01E1D943EF5DE0BC01CE01DCD90A
:1030D00043EE5DE0BC01CE01D7D94CED5DE0BC0113
:1030E000CE01D2D9BC0180E090E0DF91CF9108956C
:1030F000AF92BF92CF92DF92EF92FF920F931F9306
:10310000CF93DF93CDB7DEB7A5970FB6F894DEBFA8
:103110000FBECDBF8C011EDF44ED5DE0BC01C801D8
:10312000B3D94BEC5DE0BC01C801AED94DE55DE023
:10313000BC01C801A9D943EF5CE0BC01C801A4D916
:1031400046ED5CE0BC01C8019FD946EB5CE0BC01E8
:10315000C8019AD94EE85CE0BC01C80195D944E8A1
:103160005CE0BC01C80190D948E45CE0BC01C80146
:103170008BD94BE25CE0BC01C80186D948EC5BE02E
:10318000BC01C80181D95C01E2E2F1E083811F92B8
:103190008F9382811F928F9381811F928F93808161
:1031A0001F928F930F2EFCE3EF2EF1E0FF2EF02DF8
:1031B000FF92EF929E012F5F3F4F69013F932F9344
:1031C0000E947245A601B501C8018AD942EB5BE0B5
:1031D000BC01C80159D94CE65BE0BC01C80154D917
:1031E00042E151E0BC01C8017BD946E55BE0BC018E
:1031F000C8014AD946E15BE0BC01C80145D96C0170
:10320000EEE0F1E083811F928F9382811F928F9372
:1032100081811F928F9380811F928F93FF92EF92F3
:103220007E0131E1E30EF11CFF92EF920E947245A4
:10323000A701B601C80154D940E05BE0BC01C80158
:1032400023D946EB5AE0BC01C8011ED97C014AE0F3
:10325000BE016F5D7F4F80918F15909190150E94F8
:103260006F44AE014F5D5F4FB701C80139D94FE9D7
:103270005AE0BC01C80108D94DE55AE0BC01C801BB
:1032800003D97C014AE0BE016F5D7F4F80913A0116
:1032900090913B010E946F44AE014F5D5F4FB701BB
:1032A000C8011ED945E45AE0BC01C801EDD845EE7D
:1032B00059E0BC01C801E8D844E659E0BC01C801A6
:1032C000E3D849E559E0BC01C801DED84DEF58E02C
:1032D000BC01C801D9D845ED58E0BC01C801D4D81B
:1032E00045EC58E0BC01C801CFD84EEB58E0BC011A
:1032F000C801CAD8BC0180E090E00FB6F894DEBFE8
:103300000FBECDBFA5960FB6F894DEBF0FBECDBFE2
:10331000DF91CF911F910F91FF90EF90DF90CF90B1
:10332000BF90AF900895AF92BF92CF92DF92EF928D
:10333000FF920F931F93CF93DF93CDB7DEB7E09744
:103340000FB6F894DEBF0FBECDBF7C0103DE46EBA7
:1033500058E0BC01C70198D84DEA58E0BC01C7014C
:1033600093D84FE358E0BC01C7018ED845ED57E034
:10337000BC01C70189D848EB57E0BC01C70184D81C
:1033800048E957E0BC01C7017FD840E757E0BC01DE
:10339000C7017AD846E657E0BC01C70175D84AE2B2
:1033A00057E0BC01C70170D840EF56E0BC01C7012F
:1033B0006BD84AEC56E0BC01C70166D846E756E038
:1033C000BC01C70161D85C010F2EFEE7CF2EF5E1ED
:1033D000DF2EF02DF601668170E080E090E00E9423
:1033E000213F8E010F5F1F4F20E041E00E947E428F
:1033F000A801B501C70174D84FE656E0BC01C7016A
:1034000043D84FE156E0BC01C7013ED85C01F6014C
:10341000628170E080E090E00E94213F085E1F4FD3
:1034200020E041E00E947E42A801B501C70158D8C2
:1034300042E156E0BC01C70127D84CEB55E0BC0186
:10344000C70122D85C01F601658170E080E090E060
:103450000E94213F0051110920E041E00E947E427C
:10346000A801B501C7013CD845EB55E0BC01C70137
:103470000BD844E655E0BC01C70106D85C01F60153
:10348000618170E080E090E00E94213F085E1F4F64
:1034900020E041E00E947E42A801B501C70120D88A
:1034A00047E555E0BC01C7010E94441245E055E0E4
:1034B000BC01C7010E9444125C01F601648170E006
:1034C00080E090E00E94213F0051110920E041E09E
:1034D0000E947E42A801B501C70102D84EEF54E018
:1034E000BC01C7010E9444124DEA54E0BC01C7016F
:1034F0000E9444125C01F601608170E080E090E07F
:103500000E94213F085E1F4F20E041E00E947E4262
:10351000A801B501C7010E94701240EA54E0BC0145
:10352000C7010E94441244E354E0BC01C7010E9459
:10353000441249E254E0BC01C7010E9444124DEC20
:1035400053E0BC01C7010E94441245EA53E0BC01AC
:10355000C7010E94441245E953E0BC01C7010E9423
:1035600044124EE853E0BC01C7010E944412BC0162
:1035700080E090E0E0960FB6F894DEBF0FBECDBFBE
:10358000DF91CF911F910F91FF90EF90DF90CF903F
:10359000BF90AF900895A8959CE088E10FB6F8948D
:1035A000A895809360000FBE9093600081E090E04A
:1035B0000E944D4EFF920F931F93CF93DF93CDB791
:1035C000DEB72A970FB6F894DEBF0FBECDBFFC0161
:1035D00020812F3261F52181223739F4338133364E
:1035E00071F43481303259F41DC1233741F4FC01A8
:1035F0003085333751F43185303239F415C12032FA
:1036000009F414C1283609F413C1223791F4FC01DE
:103610002581243781F42681203279F421E030E0BD
:1036200030933A0520933905FF24F39407C0F12C19
:1036300005C0F12C03C0F12C01C0F12C8C0128E451
:1036400031E040E1BE016F5F7F4FB3D2882359F074
:1036500040E250E0BE016F5F7F4F82E291E00E9446
:103660003F38FF24F3942DE431E040E1BE016F5F69
:103670007F4FC8019ED2882389F0BE016F5F7F4FC4
:1036800082E191E00E945A4440E150E060E370E042
:10369000CE0101960E94014EFF24F39424E531E00F
:1036A00040E1BE016F5F7F4FC80183D2882359F08C
:1036B00040E450E0BE016F5F7F4F8EE091E00E94DA
:1036C0003F38FF24F39421E831E04AE0BE016F5F08
:1036D0007F4FC8016ED2882379F0CE0101960E94F7
:1036E0001E449093901580938F15BC0180E190E06B
:1036F0000E941D4EFF24F39429E531E04AE0BE010B
:103700006F5F7F4FC80155D2882379F0CE010196B3
:103710000E941E4490933B0180933A01BC0180E6D5
:1037200090E00E941D4EFF24F3942EE531E048E026
:10373000BE016F5F7F4FC8013CD2882341F0CE01AC
:1037400001960E941E4480938415FF24F39423E67F
:1037500031E048E0BE016F5F7F4FC8012AD2882365
:1037600041F0CE0101960E941E4480938315FF24F0
:10377000F39429E631E048E0BE016F5F7F4FC80156
:1037800018D2882341F0CE0101960E941E448093F6
:103790008215FF24F3942DE631E048E0BE016F5F0F
:1037A0007F4FC80106D2882341F0CE0101960E94C6
:1037B0001E4480938015FF24F39422E731E048E013
:1037C000BE016F5F7F4FC801F4D1882389F0CE011D
:1037D00001960E941E4480937F1526E731E048E061
:1037E000BE016F5F7F4FC801E4D181110BC014C0CF
:1037F00026E731E048E0BE016F5F7F4FC801D9D1B5
:10380000882339F0CE0101960E941E4480937E15D4
:1038100003C0F1E0FF120EC08EE795E10E94F13582
:1038200081E009C084E007C083E005C082E003C0F6
:1038300082E001C08FEF2A960FB6F894DEBF0FBE6C
:10384000CDBFDF91CF911F910F91FF900895AF925F
:10385000BF92CF92DF92EF92FF920F931F93CF937D
:10386000DF93CDB7DEB760970FB6F894DEBF0FBE1B
:10387000CDBF2A9820913F0530E040918F1550919F
:1038800090154217530738F42A9A10923D0581E0AB
:1038900080933C0511C17C01F89481E080933D0543
:1038A00060E475E088EB9BE00E948F0F6C01109242
:1038B000F810BC0180E495E0FDD85C01C114D1048E
:1038C00091F480913C05813071F410923F05109283
:1038D0003C0501E510E02DEF30E149EF50E16FE6E6
:1038E00077E1C701B1D87894A114B10431F4B601DD
:1038F00080E495E00E94880DDFC08501005C1A4FCE
:103900004EE050E0B8018AE791E00E946144892BC3
:10391000D9F48FE895E19F938F9389E891E09F9385
:103920008F931F930F930E94A04560918F15709104
:10393000901580E190E00E941D4E0F900F900F9027
:103940000F900F900F9032C04DE050E0B8018BE91E
:1039500091E00E946144892B49F58EE795E19F93A0
:103960008F938FE795E19F938F9380E895E19F93E5
:103970008F9384E895E19F938F9383E895E19F93DC
:103980008F9382E895E19F938F9389EA91E09F93CB
:103990008F931F930F930E94A0458EE795E10E949D
:1039A000F1350FB6F894DEBF0FBECDBF44E050E056
:1039B000B80185ED91E00E946144892B51F0CADA8B
:1039C0004EE753E0BC0180E495E00E944412BC0144
:1039D0006FC0C5018C5B9A4FEDDD8F3F51F44EE215
:1039E00053E060E070E080E495E00E944412BC0186
:1039F0005FC0813009F043C0E2E2F1E083811F92B1
:103A00008F9382811F928F9381811F928F938081E8
:103A10001F928F938CE391E09F938F938E010F5FA2
:103A20001F4F1F930F930E94724594DA47E253E0B1
:103A3000BC0180E495E00E94441248E053E0BC01E0
:103A400080E495E00E9444124FEE52E0BC0180E415
:103A500095E00E944412A801BC0180E495E00E9418
:103A600070124CED52E0BC0180E495E00E944412DB
:103A7000BC010FB6F894DEBF0FBECDBF19C08330B6
:103A800029F468DA80E495E033DB12C0843029F44D
:103A900061DA80E495E047DC0BC05CDA80E495E015
:103AA00061DA8091390590913A05892B09F073DD2F
:103AB00080E495E00E94E01360960FB6F894DEBFB4
:103AC0000FBECDBFDF91CF911F910F91FF90EF906F
:103AD000DF90CF90BF90AF900895CF93DF93E1E652
:103AE000F0E080E880831082C0E08C2F8A95F1F7A7
:103AF00086E291E00E94D20E81E00E94CD0ECA952E
:103B0000F1F7FCD9789466E774E084E10E94B40E82
:103B100062E271E086E291E00E94931380E590E01A
:103B20000E94A71340E757E161E08EE091E00E9418
:103B300059140BC060E475E088EB9BE00E948F0F86
:103B4000BC0180E495E00E945A150E945214811134
:103B5000F1CF62E171E089EF90E19ED082E0809345
:103B60003B05D3E0C4E002C08230A1F489EF90E1CC
:103B70000E940611882321F084E080933B0516C043
:103B800040E757E162E089EF90E10E945914D09339
:103B90003B0508C0833031F40E945214811102C0E9
:103BA000C0933B0580913B058430F1F6DF91CF91C6
:103BB00008951F93CF93DF93EC019881892F8F7D18
:103BC00009F454C09D3009F453C0D90150E011E00C
:103BD0008C9189131CC02A173B0739F4FE013197D9
:103BE00080818F3311F08632B1F411968C91119748
:103BF000882321F01196FE01852F10C0FE01319619
:103C0000812F99819D3309F0852FD90107C0D901F2
:103C1000FE01852F03C0D901FE01852FEF012196FA
:103C20009181992399F1903259F19D3061F1882366
:103C300079F223C050E041505109141615069CF446
:103C4000DB01329620E09D932F5FBD019191392FCA
:103C50003F7D49F09D3039F0963229F0C22FD0E0F7
:103C6000C417D50784F3FB01108212C080E010C096
:103C700080E00EC09632F1F6F6CF8130D9F308C05D
:103C8000813031F4F0CF813019F4EDCF813059F328
:103C9000DF91CF911F910895AF92BF92DF92EF9283
:103CA000FF920F931F93CF93DF9300D000D0CDB737
:103CB000DEB7FC011082118212821382DB019C911B
:103CC000992309F448C07F018B010F5F1F4FD12C4E
:103CD00020E0233078F4492F50E0405351094A3016
:103CE000510540F4E1E0F0E0EC0FFD1FE20FF11DA3
:103CF00090832F5F2223A1F09E3291F4E1E0F0E067
:103D0000EC0FFD1FE20FF11D10825701AD0CB11C2D
:103D1000CE0101960E941E44F5018083D39420E0D9
:103D2000D8019D918D01992319F0B3E0BD1588F656
:103D3000E3E0DE1212C0E1E0F0E0EC0FFD1FE20F65
:103D4000F11D1082CE0101960E941E44D7011396E8
:103D50008C9380E003C081E001C081E00F900F9060
:103D60000F900F90DF91CF911F910F91FF90EF90E7
:103D7000DF90BF90AF900895CF93DF93423051050D
:103D8000C0F0DB01FC019A01CD91DD91C193D1938B
:103D90002250310922303105B8F79A0122503109F9
:103DA0002E7F2E5F3F4F820F931F620F731F417054
:103DB00055274115510549F0DB01FC01480F591FFA
:103DC0009D919193E417F507D9F7DF91CF9108956D
:103DD000CF93DF93EC01A881B9811097F9F04C9152
:103DE000413258F04A3331F1FD0131969F019191F2
:103DF000913228F09A33D1F704C0942F9D019A3361
:103E000081F4CD0101962817390771F4403379F414
:103E10001296B983A88380E090E00EC08FEF9FEFE9
:103E20000BC080E090E008C08FEF9FEF05C08FEFE0
:103E30009FEF02C09D01E5CFDF91CF9108958F9252
:103E40009F92AF92BF92CF92DF92EF92FF920F9329
:103E50001F93CF93DF93FC012481222309F446C0F2
:103E6000EC01C2A4D3A4E4A4F5A45C01FEE2AF0E6D
:103E7000B11C01E010E0A7019601B50189810E9403
:103E8000BE31811135C01C828E8D9F8DA8A1B9A134
:103E9000B701A601481B590B6A0B7B0B8E899F89C2
:103EA000A88DB98D481759076A077B0718F58B80CD
:103EB000912C82E088169104F8F08E899F89A88D54
:103EC000B98DC80ED91EEA1EFB1E01E010E0A70145
:103ED0009601B50189810E94BE31E1E08E1A9108F8
:103EE000F1E08F16910449F780E007C080E005C03B
:103EF00081E003C080E001C080E0DF91CF911F919D
:103F00000F91FF90EF90DF90CF90BF90AF909F9078
:103F10008F9008958F929F92AF92BF92FF920F93CE
:103F20001F93CF93DF93EC014A015B018AA59BA508
:103F3000ACA5BDA584179507A607B707E1F0CE018C
:103F40007EDFF82E811118C001E010E0A501940178
:103F5000BE01625D7F4F89810E946C31882331F000
:103F6000FF24F39488248A94982C54018AA69BA653
:103F7000ACA6BDA601C0F12C8F2DDF91CF911F9172
:103F80000F91FF90BF90AF909F908F900895CF9327
:103F9000DF93EC011C828FEF9FEFDC018AA79BA7C8
:103FA000ACA7BDA7CE01B6DF811123C0FE01E45D41
:103FB000FD4F8081918185359A4AE9F4E85CF140B2
:103FC00080819181A281B381BB2786349144A4452D
:103FD000B10599F0C058DF4F488159816A817B81D2
:103FE000772781E0463451446445710539F480E017
:103FF00005C083E003C082E001C080E0DF91CF9183
:1040000008950097C9F0DC01ED91FC91119730976C
:10401000A9F020812223A1F02681378112968D916B
:104020009C9113972817390769F481810E946531A3
:1040300080FD0AC080E0089589E0089589E0089530
:1040400089E0089589E0089583E008952F923F92D2
:104050004F925F926F927F928F929F92AF92BF9298
:10406000CF92DF92EF92FF920F931F93CF93DF9344
:10407000CDB7DEB76D970FB6F894DEBF0FBECDBFDC
:104080006C01CB01B42ED6011D921C92A1DE7C01E5
:1040900099230CF402C2FC01EE0FFF1FEB5FFE4EF2
:1040A000008111810115110509F4F9C1F60111838F
:1040B0000083D8018C91882369F011968C910E941D
:1040C000653180FD07C0BB2009F4EBC182FFEBC165
:1040D0008AE08BC2F8011082E1828E2D0E94AE3000
:1040E00080FDE3C1BB2009F400C282FDE0C1FDC137
:1040F0008081882329F0448055806680778004C0C1
:104100004E2C5F2C672E762ED9014D925D926D92CA
:104110007D929D0170964E175F0751F74E01B1E1F8
:104120008B0E911C6894772471F8F501C190D190A1
:10413000E190F1905F01C114D104E104F10439F080
:10414000B701A601C80123DF811102C00DC0872D70
:10415000A814B90451F703C0C12CD12C76018330C7
:1041600009F4A7C18111A7C1D801D9968D919C915D
:10417000DA978115924009F0A0C1F801EC5BFF4F7E
:1041800040805180612C712C4114510461047104F0
:1041900029F43E964080518062807380F801468AFF
:1041A000578A608E718EA6ADA3838FEF8A0F8230FF
:1041B00008F085C1F3ADF98B2F2FF801228322235C
:1041C00009F47FC1822F90E09C01215031098223A4
:1041D0009323892B09F077C1FF9620803180F80165
:1041E00031862086C1018F709927892B09F06DC116
:1041F000EF5BFF4F80809180A12CB12C8114910442
:10420000A104B10429F43D9680809180A280B380FE
:10421000F80104ACF5ADE02D309709F458C1B0E0D9
:10422000A30192010E94E4406A8F7B8F8C8F9D8F47
:104230009F0140E050E02E8B3F8B488F598FC1018A
:10424000929582958F7089279F708927280F391F33
:10425000411D511DDA01C9012A8D3B8D4C8D5D8DAB
:10426000280F391F4A1F5B1F2A8B3B8B4C8B5D8BA2
:1042700082169306A406B50608F42BC1C501B40145
:10428000621B730B840B950BE9892E2F30E040E005
:1042900050E00E94AA40DA01C9012115310541050B
:1042A000510509F418C1263FFFE03F0741055105BC
:1042B00018F0E2E0E98B02C0F1E0F98B863F9F4FF6
:1042C000A105B10508F028C149015A0182E0880E14
:1042D000911CA11CB11CD80152968D929D92AD9259
:1042E000BC925597F801C28ED38EE48EF58E8E89DE
:1042F0009F89A88DB98D8C0D9D1DAE1DBF1D868F0C
:10430000978FA0A3B1A34A895B896C897D894C0DE5
:104310005D1D6E1D7F1D46A357A360A771A7F98978
:10432000F33069F5232809F0D8C0F801E65AFF4FA9
:1043300080819181A281B381F80182A393A3A4A378
:10434000B5A3880C991CAA1CBB1C880C991CAA1C20
:10435000BB1CFFEF8F0EF1E09F1EA11CB11C072EAE
:1043600079E0B694A794979487947A95D1F7702DB5
:10437000481459046A047B0408F4B1C0F9C0232826
:1043800009F4AFC02A8D3B8D4C8D5D8D820F931F3C
:10439000A41FB51FF80182A393A3A4A3B5A3F98911
:1043A000F23029F4880C991CAA1CBB1C08C1A3E09C
:1043B000B0E0A50194010E94E440DC01CB01B69578
:1043C000A7959795879521E082229924AA24BB245A
:1043D000880E991EAA1EBB1EF2C0B701A6014F5F30
:1043E0005F4F6F4F7F4FC80195DD811139C0D801F4
:1043F00015961C92F801E45DFD4F80819181853511
:104400009A4A89F5F80186A597A5A0A9B1A9823590
:104410009245A146B14451F5F801EE5EFD4F808111
:104420009181A281B38182379247A144B14609F5B7
:10443000349680819181A281B381F8018687978724
:10444000A08BB18BE65EFD4F80819181A281B3810B
:10445000F80182879387A487B587F3E0F98B0BC0B7
:10446000E3E0E98B08C0F3E0F98B05C0E3E0E98BFA
:1044700002C0F3E0F98BE989D801EC938091031134
:104480009091041101969093041180930311179653
:104490009C938E93169780E0A8C08BE0A6C08CE01A
:1044A000A4C080E0A2C080E0A0C083E09EC08AE0FB
:1044B0009CC081E09AC08DE098C08DE096C08DE0F0
:1044C00094C08DE092C08DE090C08DE08EC08DE0F4
:1044D0008CC08DE08AC08DE088C08DE086C08DE004
:1044E00084C08DE082C08DE080C040E050E0BA0121
:1044F000C8014DDD813009F02FCEF801E051FE4FAB
:104500009E012F5F3F4F5901A801405D5D4FE12C97
:10451000F12C70E060E0ECCD49015A0162E0860EBA
:10452000911CA11CB11CD80152968D929D92AD9206
:10453000BC925597F801C28ED38EE48EF58E8E898B
:104540009F89A88DB98D8C0D9D1DAE1DBF1D868FB9
:10455000978FA0A3B1A38A899B89AC89BD898C0D53
:104560009D1DAE1DBF1D86A397A3A0A7B1A7DACE40
:104570008FEF9FEFDC01F80186879787A08BB18BC7
:1045800082879387A487B58780E88583E25AFF4FA7
:1045900080819181019709F420CFF3E0F98B6BCFF3
:1045A0008FEF9FEFDC01F80186879787A08BB18B97
:1045B00082879387A487B58780E885835CCFFFEFE8
:1045C0008F0EF1E09F1EA11CB11C072E79E0B6945E
:1045D000A794979487947A95D1F7702D481459042D
:1045E0006A047B0408F47FCFDBCF6D960FB6F89496
:1045F000DEBF0FBECDBFDF91CF911F910F91FF9016
:10460000EF90DF90CF90BF90AF909F908F907F9072
:104610006F905F904F903F902F9008950F931F934E
:10462000FC019A01AB0122503109410951098289EB
:104630009389A489B5890297A109B1092817390777
:104640004A075B0768F4A281B0E00E94E44006A13B
:1046500017A120A531A5600F711F821F931F03C0F2
:1046600060E070E0CB011F910F910895AF92BF926F
:10467000CF92DF92EF92FF920F931F93CF93DF932E
:10468000423051056105710508F4AAC0FC01C288D9
:10469000D388E488F5884C155D056E057F0508F024
:1046A000A4C06A017B01EC018081823009F44BC017
:1046B000833009F469C0813009F09CC08A011695E5
:1046C0000795040F151FC801892F99278695468DD8
:1046D000578D60A171A1480F591F611D711DCF0138
:1046E00019DC81118CC05801FFEFAF1ABF0A11709D
:1046F000FE01E00FF11F16A5C501892F99278695A8
:104700004E8D5F8D68A179A1480F591F611D711DE4
:10471000CE0100DC811177C081E0B822CA0DDB1D1B
:104720008EA5612F70E0782BC0FE09C0729562954E
:104730006F7067277F70672780E090E06FC07F70A1
:1047400080E090E06BC0452F562F672F7727868D2E
:10475000978DA0A1B1A1480F591F6A1F7B1FCF01E0
:10476000D9DB811154C0B701A601440F551F661F44
:10477000771F4E7F517066277727C40FD51F6EA510
:104780007FA580E090E04AC0868D978DA0A1B1A161
:10479000689416F876956795579547951694D1F7CE
:1047A000480F591F6A1F7B1FCF01B4DB811133C033
:1047B000B701A601440F551F661F771F440F551FF1
:1047C000661F771F4C7F517066277727C40FD51F50
:1047D0008EA59FA5A8A9B9A9BC01CD019F701EC037
:1047E00061E070E080E090E019C061E070E080E09E
:1047F00090E014C061E070E080E090E00FC06FEFE7
:104800007FEFCB010BC06FEF7FEFCB0107C06FEFE6
:104810007FEFCB0103C06FEF7FEFCB01DF91CF9133
:104820001F910F91FF90EF90DF90CF90BF90AF90CE
:104830000895AF92BF92CF92DF92EF92FF920F93C3
:104840001F93CF93DF93EC018B017D836C83CE802C
:10485000DF80E884F98481E0C816D104E104F10422
:1048600009F489C0E881F98182899389A489B5898D
:10487000C816D906EA06FB0608F07FC0C114D104A9
:10488000E104F104C1F48081833041F482A193A159
:10489000A4A1B5A10097A105B10559F48085918522
:1048A0000817190708F06BC062A173A184A195A134
:1048B00035C06C017D01A28080E1A89E50011124C9
:1048C0000A151B0530F1B701A60188819981CEDE5A
:1048D0006B017C018FEFC816D806E806F80609F4CC
:1048E00050C082E0C816D104E104F10408F44BC0C2
:1048F000E881F98182899389A489B589C816D90686
:10490000EA06FB0608F041C00A191B090A151B0537
:10491000D0F6B701A6018881998180DECA86DB8640
:10492000EC86FD86611571058105910581F198017F
:10493000329522952F7023273F702327DC01CB016E
:10494000820F931FA11DB11D8E879F87A88BB98BE6
:10495000888199818E960F701127000F111F029583
:104960001295107F1027007F1027080F191F1B8B2F
:104970000A8B80E00DC082E00BC082E009C082E0BB
:1049800007C081E005C082E003C082E001C082E090
:10499000DF91CF911F910F91FF90EF90DF90CF901B
:1049A000BF90AF9008954F925F926F927F929F92C7
:1049B000AF92BF92CF92DF92EF92FF920F931F932D
:1049C000CF93DF93423051056105710508F4D6C0DD
:1049D000FC01C288D388E488F5884C155D056E0516
:1049E0007F0508F0CFC0680179012A013B01EC0185
:1049F0008081823009F462C0833009F484C0813040
:104A000009F0C4C08A0116950795040F151FC80147
:104A1000892F99278695468D578D60A171A1480FE2
:104A2000591F611D711DCF0175DA982E8111CDC0FE
:104A30005801FFEFAF1ABF0A117040FE20C0FE01FF
:104A4000E00FF11F86A5282F2F7030E1C39EC00113
:104A50001124822B86A781E08C834E8D5F8D68A107
:104A600079A1C501892F99278695480F591F611D86
:104A7000711DCE014FDA882309F490C08BC0FE016E
:104A8000E00FF11FC6A681E08C834E8D5F8D68A17B
:104A900079A1C501892F99278695480F591F611D56
:104AA000711DCE0137DA882309F483C075C0FE0179
:104AB000EA0DFB1DC6A681E08C8387C0452F562FCB
:104AC000672F7727868D978DA0A1B1A1480F591F19
:104AD0006A1F7B1FCF011EDA982E811176C0B301A9
:104AE000A201440F551F661F771F4E7F5170662726
:104AF0007727425D5F4FFE01E40FF51FD182C08230
:104B000081E08C8362C0868D978DA0A1B1A168944D
:104B100016F876956795579547951694D1F7480FEF
:104B2000591F6A1F7B1FCF01F5D9982E81114DC0E7
:104B3000B301A201440F551F661F771F440F551F75
:104B4000661F771F4C7F517066277727425D5F4F46
:104B5000FE01E40FF51F00811181228133810027BE
:104B600011272227307FC02AD12AE22AF32AC082C5
:104B7000D182E282F38281E08C8327C068949924F9
:104B800091F823C06894992491F81FC068949924DF
:104B900091F81BC0982E19C0982E17C081E0B8223A
:104BA000689413F8F694E794D794C7941694D1F7C1
:104BB0007ECFE1E0BE22FE01EA0DFB1D96A5907FAF
:104BC0008D2D8F70C92EC82A72CF892DDF91CF917C
:104BD0001F910F91FF90EF90DF90CF90BF90AF901B
:104BE0009F907F906F905F904F9008954F925F924B
:104BF0006F927F928F929F92AF92BF92CF92DF92ED
:104C0000EF92FF920F931F93CF93DF93EC012A0152
:104C10003B014115510561057105B9F48A849B84F6
:104C2000AC84BD8481149104A104B10459F18A8932
:104C30009B89AC89BD8988169906AA06BB0630F106
:104C4000812C912C5401839421C010DD6B017C01D7
:104C5000623071058105910508F48BC08FEFC8168D
:104C6000D806E806F80609F489C08A899B89AC89C8
:104C7000BD89C816D906EA06FB0608F484C05301AC
:104C8000420104C0812C912C54018394750164016C
:104C90002FEFC21AD20AE20AF20A8A899B89AC89EA
:104CA000BD89C816D906EA06FB0660F082E08816C0
:104CB0009104A104B10408F46BC0C12CD12C76017D
:104CC0006894C1F8B701A601CE01D0DC6115710569
:104CD0008105910599F06F3F2FEF720782079207C8
:104CE00009F45BC0613071058105910509F45AC072
:104CF000C814D904EA04FB0459F659C00FEF1FEF9A
:104D00002FEF3FE0B701A601CE014DDE81112AC091
:104D1000411451046104710441F097018601B3010B
:104D2000A201CE0140DE81111DC0CA86DB86EC8661
:104D3000FD868E859F85A889B9898F3F2FEF9207C1
:104D4000A207B207C9F10197A109B1098E879F8710
:104D5000A88BB98B8D8181608D836C2D7D2D8E2DDF
:104D60009F2D33C0813069F161E070E080E090E018
:104D70002CC061E070E080E090E027C06FEF7FEF33
:104D80008FEF9FEF22C06C2D7D2D8E2D9F2D1DC08E
:104D900060E070E080E090E018C06FEF7FEF8FEF91
:104DA0009FEF13C061E070E080E090E00EC060E033
:104DB00070E080E090E009C06C2D7D2D8E2D9F2D40
:104DC00004C06FEF7FEF8FEF9FEFDF91CF911F91C7
:104DD0000F91FF90EF90DF90CF90BF90AF909F909A
:104DE0008F907F906F905F904F9008957F928F92F9
:104DF0009F92AF92BF92CF92DF92EF92FF920F936A
:104E00001F93CF93DF93DC011496CD91DC9115971E
:104E1000219609F4FDC01E968D909D90AD90BC909A
:104E2000519781149104A104B10409F4F3C07B01EA
:104E30008C016E01BFE0CB22DD24C114D10409F046
:104E4000D1C0EFEF8E1A9E0AAE0ABE0ADC011E9692
:104E50008D929D92AD92BC9251971A964D915D9113
:104E60006D917C911D97411551056105710549F4BE
:104E7000ED91FC9180859185C817D90708F0CCC0C9
:104E8000B1C0DC01ED91FC91228130E0215031096B
:104E9000CE01929582958F7089279F70892728234C
:104EA0003923232B09F09EC0CF01E0DB4B015C01CD
:104EB000623071058105910508F4B0C06F3F7F4FE6
:104EC0008F4F9F4F09F4ACC0D801ED91FC918289BE
:104ED0009389A489B58988169906AA06BB0608F4A1
:104EE00070C0EF2809F49EC0D8011A964D915D91CB
:104EF0006D917C911D97CF0179DE4B015C016115AD
:104F000071058105910509F48FC061307105810536
:104F1000910509F48BC06F3F7F4F8F4F9F4F09F46E
:104F200087C0D8018D919C910E941F1F811182C062
:104F3000F80180819181FC01BE96825D9D4F1192A6
:104F4000E817F907E1F7D801ED90FC90B501A4014D
:104F5000C70164DBF70162A773A784A795A7E12CBB
:104F6000F12C7724739419C07482D8018D919C918F
:104F70000E941F1F811160C0D801ED91FC9182A594
:104F800093A5A4A5B5A50196A11DB11D82A793A7C0
:104F9000A4A7B5A7BFEFEB1AFB0AD801ED91FC91CE
:104FA000828190E0E816F906F8F282A593A5A4A5FF
:104FB000B5A58E199F09A109B10982A793A7A4A736
:104FC000B5A7F80182869386A486B586B501A401AB
:104FD0008081918123DBD8011E966D937D938D9303
:104FE0009C935197F801D583C483808191818E96DB
:104FF000CC0CDD1CCC0CDD1CCC0CDD1CCC0CDD1C6D
:10500000CC0CDD1CC80ED91ED38AC28A80E015C024
:1050100084E013C084E011C084E00FC082E00DC0C2
:1050200081E00BC084E009C087E007C082E005C0D2
:1050300081E003C081E001C081E0DF91CF911F9149
:105040000F91FF90EF90DF90CF90BF90AF909F9027
:105050008F907F9008951F93CF93DF9300D000D05F
:1050600000D0CDB7DEB79C838B837E836D83142FF6
:105070007A836983CE0101960E94E81E992334F158
:10508000FC01EE0FFF1FEB5FFE4E0190F081E02D63
:10509000309709F01082EB81FC813097E9F01082A3
:1050A0002B813C81880F991FFC01EB5FFE4E318301
:1050B0002083232B69F0113069F440E0BE016B5F5F
:1050C0007F4FCE0103960E9426200EC08BE00CC0BD
:1050D00080E00AC080E008C0880F991FFC01EB5FE8
:1050E000FE4E1182108280E026960FB6F894DEBF45
:1050F0000FBECDBFDF91CF911F9108952F923F92A8
:105100004F925F926F927F928F929F92AF92BF92D7
:10511000CF92DF92EF92FF920F931F93CF93DF9383
:10512000CDB7DEB7AE970FB6F894DEBF0FBECDBFDA
:105130007CA36BA3009709F492C2842E1C01DC01AE
:105140001D921C924E71BE016D5D7F4FCE01019686
:105150000E9426208111ECC2CE0147969E8B8D8B3A
:10516000CBA0DCA0F60180818F3211F08C3519F4D0
:10517000FFEFCF1ADF0A282D2F712DA71F82188667
:1051800019861A86D6018C91803268F460E070E04E
:10519000CE0101964EDB1C8A1B8AE12CF12C882360
:1051A00009F492C298C26894BB24B5F8A12C712C62
:1051B0006894662463F8412C562C4EA6F60103C071
:1051C000FD0101C0FD019F01DF018D918F32C1F30F
:1051D0008C35C1F36D897E89DB01CB010B96BD92C5
:1051E000A817B907E1F74A2D572DC12CD12CE62C71
:1051F000F42C912C3AA729A77EA36DA3392DBFEFDC
:10520000CB1ADB0A7191713208F43AC27F3209F489
:105210002EC27C3509F42BC27E3219F04E155F0583
:1052200090F028E0E216F10409F06EC27E3209F037
:105230006BC2330F330F452D5EA50F2EFBE0EF2E13
:10524000F02DF12CDCCF77230CF45EC2072F10E099
:105250000232110509F42CC2ABEDB1E08D91882327
:1052600009F4FFC190E008171907C1F786E025C2CD
:10527000326006C08FE9870F8A3110F431607052B6
:10528000ADA1BEA1A40FB51F7C934F5F5F4FB7CFF9
:10529000452B09F439C2DB019C91953E11F4E5E000
:1052A000EC93F8E0EF16F10411F4990C990C992D98
:1052B0009370913009F48061992D9C70943009F4B9
:1052C0008860DB011B968C936A2D772DCE010196A9
:1052D000B0DA8111E3C14F85588969897A8989815A
:1052E0009A810E948A1F8111D9C1EB88FC88F7013D
:1052F00080818823D1F0638563FD0FC04D895E896D
:10530000DA019701255F3F4F04C02E173F0709F4CC
:10531000C0C191918D919817C1F36A2D772DCE015F
:10532000019664DD8823B9F2B9C1ED89FE899385C0
:1053300092FDC0C185E0C1C164FFBEC1D7015A96CC
:105340008D919C915B97A0E0B0E0E981FA8120818A
:10535000233061F4F7014489558960E070E0BA01B7
:1053600055274427842B952BA62BB72B8F83988703
:10537000A987BA8723CF882309F453C0843009F062
:1053800048C060E070E0CE01019653DA811118C088
:105390004F85588969897A8989819A810E948A1FF3
:1053A00081110EC0EB89FC898081853E71F08823D4
:1053B00061F061E070E0CE01019618DD882341F3D1
:1053C000843009F4A5C18111A6C14F855889698926
:1053D0007A8989819A810E948A1F81119CC1EB89F7
:1053E000FC89CF0180961192E817F907E1F76D89E2
:1053F0007E894BE050E08B899C890E94BC1EE9812C
:10540000FA8181E08483FDA5F860FDA7EB88FC8824
:1054100010C02DA528602DA7EB88FC88882349F0B3
:1054200087C1D7011B968C91817109F07AC182FCEA
:105430007AC1BDA5B3FFC4C080E090E0A0EFBEE498
:10544000F70186879787A08BB18B1386D701148EBF
:10545000158E168E178EC980DA80828C938CA12CC3
:10546000B12CF6018081833069F454968D919C9122
:105470005597A0E0B0E0DC0199278827882A992A6F
:10548000AA2ABB2AD7015B961C921E925A97559660
:105490001C921E92549781E0F6018483811491043A
:1054A000A104B10409F489C022A533A544A555A5DA
:1054B00029A73AA74BA75CA7B2E08B169104A104D9
:1054C000B10408F412C182899389A489B589881628
:1054D0009906AA06BB0608F00AC18DA29EA2AFA239
:1054E000B8A64DA15EA16FA178A5C601BFD82B01BA
:1054F0003C016115710581059105E1F1613071058E
:105500008105910509F4F5C06F3F7F4F8F4F9F4F85
:1055100009F4F1C000E010E098014DA15EA16FA177
:1055200078A5C60140DA8111E7C0F6018685978526
:10553000A089B1898F3FFFEF9F07AF07BF0759F0E1
:105540000196A11DB11DF60186879787A08BB18BAF
:105550008581816085834DA25EA26FA278A6F60147
:1055600082899389A489B589481659066A067B06FB
:1055700008F4B7CF89819A81F1E08F1A9108A108C8
:10558000B108DC011A968D929D92AD92BC921D9746
:1055900049A55AA56BA57CA50E948A1F882369F09E
:1055A000C7C08111C5C0F701838584FDBEC081FEDF
:1055B00002C080FDBCC083FE03C0FDA5F062FDA754
:1055C000E981FA8182A593A5A4A5B5A5F101828FF1
:1055D000938FA48FB58FF78EE68EEDA5D10114962B
:1055E000EC93149715961C9209811A81D7015A964B
:1055F0008D919C915B97A0E0B0E0F8012081233071
:1056000061F4F7014489558960E070E0BA015527DB
:105610004427842B952BA62BB72BF10186879787E0
:10562000A08BB18BF701848D958DA68DB78DF1017F
:1056300082879387A487B587168217821086118682
:10564000168A178A108E118E11830083D801169640
:105650008D919C9117979383828380E069C089E044
:1056600067C08FEB870F8A3108F402CE03CE6DA19D
:105670007EA1932E29A53AA5C20ED31E80E008CEA6
:105680006DA17EA1932E29A53AA5C20ED31E84E05A
:10569000FFCDFA01838582FF4FCE06C0ED89FE89DA
:1056A0009385843051F444CEE114F104C9F40CC064
:1056B00086E003C084E001C085E0EB88FC88982D7B
:1056C0009C7109F058CE6DCF182D1C7119F5E12C85
:1056D000F12C86E015C0182D1C7109F04FCE10C0BA
:1056E000882D8C7109F09DCE5ECF82E005C082E0EE
:1056F00003C082E001C081E0882309F45ECF18C0B6
:10570000882309F46ACF14C0EB88FC8886E0E3CFD5
:1057100087E001C086E0FDA5F860FDA7EB88FC8866
:10572000EFCF87E005C088E003C084E001C087E0D8
:10573000AE960FB6F894DEBF0FBECDBFDF91CF910E
:105740001F910F91FF90EF90DF90CF90BF90AF909F
:105750009F908F907F906F905F904F903F902F9091
:1057600008952F923F924F925F926F927F928F9205
:105770009F92AF92BF92CF92DF92EF92FF920F93E0
:105780001F93CF93DF93EC014B016A015901F9019B
:10579000118210820E94012081116AC18D818111C4
:1057A00067C18C8181FF63C18E819F81A885B98586
:1057B000AC01BD014C0D5D1D611D711D48175907E0
:1057C0006A077B0708F43DC1C114D10409F439C14B
:1057D0004E815F8168857985DB01CA019170AA27B6
:1057E000BB27892B8A2B8B2B09F0E5C0E881F98137
:1057F00012811150DB01CA01072E79E0B695A795F9
:10580000979587957A95D1F7702D182309F040C0A8
:10581000452B462B472B79F46E857F85888999899E
:10582000611571058105910591F440E050E0BA01E0
:10583000CF01DCD906C04A895B896C897D89CF019B
:10584000D5D9611571058105910509F4FAC061305A
:1058500071058105910519F482E08D8309C16F3FBF
:10586000FFEF7F078F079F0719F481E08D8300C149
:105870006A8B7B8B8C8B9D8B4E845F846888798848
:1058800045284628472821F46E877F87888B998B87
:10589000E881F98142A553A564A575A58E899F89E4
:1058A000A88DB98D481759076A077B0741F4CF01C6
:1058B0000E941F1F882319F081E08D83D9C02880A2
:1058C00039804A895B896C897D89C1010E940E23D8
:1058D000611571058105910519F482E08D83C8C0B9
:1058E0002B013C01410E511C611C711C7601EF2CF7
:1058F000FF24E694E114F10409F43EC0F101428171
:10590000242F30E0C701810F911D2817390718F4A3
:105910007901E11AF1088701A3019201B401F101B3
:1059200081812CD5882319F081E08D83A1C0E88185
:10593000F98182A593A5A4A5B5A584199509A60901
:10594000B709A70160E070E084179507A607B707BD
:1059500078F4982F8827990FB401680F791F40E0D9
:1059600052E0CF018E960E94BC1EE881F98114821C
:10597000FE2CEE24FF0C4CC04E815F81688579853A
:105980008A859B85AC85BD85481759076A077B07C3
:1059900070F0C1010E941F1F882319F081E08D83E0
:1059A00067C0E881F98142A653A664A675A64E8A0F
:1059B0005F8A688E798E8E819F81917020E032E0BF
:1059C0007901E81AF90ACE14DF0408F476014E8949
:1059D0005F89688D798D888199810E948A1F8823CB
:1059E00019F081E08D8344C08E819F81A885B9859F
:1059F0009170AA27BB278E9628813981A701B4010F
:105A0000820F931F0E94BC1EE881F98121E024834C
:105A10008E0C9F1C8E819F81A885B9858E0D9F1D40
:105A2000A11DB11D8E839F83A887B987F501808151
:105A300091818E0D9F1D91838083CE18DF0809F020
:105A4000C7CE8E819F81A885B9854A855B856C8587
:105A50007D85481759076A077B0720F48A879B874B
:105A6000AC87BD878C8180628C8380E001C087E039
:105A7000DF91CF911F910F91FF90EF90DF90CF902A
:105A8000BF90AF909F908F907F906F905F904F905E
:105A90003F902F9008950F931F93CF93DF93EC01C6
:105AA0000E940120982F811196C08C8185FF93C0A0
:105AB0004A8D5B8D6C8D7D8D888199810E948A1FB6
:105AC000982F811188C0EE8DFF8D8385806283873A
:105AD0008A859B85AC85BD85848F958FA68FB78F72
