:100000000C9478010C9495010C9495010C94950135
:100010000C9495010C9495010C9495010C94630F2C
:100020000C9495010C9495010C945C290C94950109
:100030000C9495010C9495010C9495010C949501E8
:100040000C9495010C9495010C9495010C949501D8
:100050000C9495010C9495010C9495010C949501C8
:100060000C9495010C949501F624FE2461267025CC
:100070006126612661265A2661266126612661264F
:100080006126612661266126612661266126612638
:100090006126612661266126612661266126612628
:1000A0006126612661266126612661266126612618
:1000B0006126612661266126612661266126612608
:1000C00061266126612661266126612603260926AE
:1000D0001C262F2645266364696E6F7073757858E9
:1000E0005B0000407A10F35A00A0724E180900100D
:1000F000A5D4E80000E87648170000E40B5402009D
:1001000000CA9A3B000000E1F505000080969800C7
:10011000000040420F000000A086010000001027F0
:1001200000000000E8030000000064000000000080
:100130000A00000000000100000000002C76D888B2
:10014000DC674F0823DFC1DFAE59E1B1B796E5E3C5
:10015000E453C63AE651997696E8E6C28426EB89DE
:100160008C9B62ED407C6FFCEFBC9C9F40F2BAA57B
:100170006FA5F490055A2AF75C936B6CF9676DC113
:100180001BFCE0E40D47FEF520E6B500D0ED902E17
:100190000300943577050080841E080000204E0A75
:1001A000000000C80C333333330F986E12831141B3
:1001B000EF8D2114893BE65516CFFEE6DB18D1847E
:1001C0004B381BF77C1D901DA4BBE42420328472A5
:1001D0005E228100C9F124ECA1E53D270D0A436FA1
:1001E0006E74656E742D547970653A206170706C10
:1001F00069636174696F6E2F782D7777772D666FDD
:10020000726D2D75726C656E636F6465640D0A0D99
:100210000A00436F6E74656E742D4C656E6774686A
:100220003A20000D0A557365722D4167656E743A68
:10023000207467722F312E310D0A4163636570742B
:100240003A202A2F2A0D0A000D0A00204854545043
:100250002F312E310D0A486F73743A2000504F53DE
:100260005420000D0A557365722D4167656E743A0E
:10027000207467722F312E310D0A416363657074EB
:100280003A20746578742F68746D6C0D0A0D0A003D
:1002900020485454502F312E310D0A486F73743A50
:1002A00020004745542000000108000604000145D5
:1002B000000082000040002043616C69627261743A
:1002C000696F6E20636F6D706C65746521004361AA
:1002D0006C6962726174696F6E20737461727465A7
:1002E000642100496E697469616C697A696E67009E
:1002F00011241FBECFEFD8E0DEBFCDBF12E0A0E0DB
:10030000B1E0EEE6F8E702C005900D92AA3BB10716
:10031000D9F726E0AAEBB2E001C01D92A83BB207D4
:10032000E1F70E94142A0C94353C0C940000CF9302
:10033000DF93529A5A9884E70E9492288FEF0E9486
:10034000922884EF0E94922887E50E9492285A9A68
:1003500062E070E088E80E94C728C9EAD3E0998388
:10036000888362E070E08AE80E94E9289B838A83A0
:1003700062E070E08CE80E94E9289D838C8362E053
:1003800070E08EE80E94C7289F838E8362E070E051
:1003900080E90E94E9289987888762E070E082E915
:1003A0000E94E9289B878A8762E070E084E90E94C6
:1003B000E9289D878C8762E070E086E90E94E92841
:1003C0009F878E8762E070E088E90E94E928998B18
:1003D000888B62E070E08AE90E94E9289B8B8A8B17
:1003E00062E070E08CE90E94E9289D8B8C8B62E0D2
:1003F00070E08EE90E94E9289F8B8E8BDF91CF9170
:1004000008952F923F924F925F926F927F928F92B8
:100410009F92AF92BF92CF92DF92EF92FF920F9393
:100420001F93CF93DF93CDB7DEB76F970FB6F894D6
:10043000DEBF0FBECDBF22E030E046E0BE016F5F01
:100440007F4F87EF0E94982889808D8E9A809E8E9C
:100450008B808F8E8C8190E0A0E0B0E0AC01BD017C
:10046000032E3CE0440F551F661F771F3A95D1F7C6
:10047000302D9D81892F90E0A0E0B0E0880F991F7A
:10048000AA1FBB1F880F991FAA1FBB1F880F991F88
:10049000AA1FBB1F880F991FAA1FBB1F842B952B58
:1004A000A62BB72B2E81822B0F2EF9EA6F2EF3E0AD
:1004B0007F2EF02DF3014081518160E070E06C01EE
:1004C0007D01689413F8F594E794D794C794169433
:1004D000D1F7C41AD50AE60AF70A689412F8B59556
:1004E000A795979587951694D1F7440F551F661FCA
:1004F000771F4C015D01841A950AA60AB70AA50167
:100500009401A281B3810E94AF2F4B015C01072EA1
:100510007BE0B594A794979487947A95D1F7702D42
:10052000A7019601C701B6010E946C2F9B01AC0187
:10053000012E1CE055954795379527951A95D1F7CB
:10054000102DA481B5810E94AF2FDC01CB01072EB5
:100550007EE0B595A795979587957A95D1F7702DFB
:10056000880D991DAA1DBB1D8093CA039093CB03D0
:10057000A093CC03B093CD036C017D01FF0CCC089C
:10058000DC2C7601282F392F4A2F5B2F6C2D7C2DE8
:100590008C2D9C2D345F41405109610971098109FD
:1005A00091092F833A874B875C876D877E878F877A
:1005B000988BA22EB32EC42ED52EE62EF72E082F02
:1005C000192F0E94B72F298B3A8B4B8B5C8B698F2D
:1005D0007A8F8B8F9C8FD30119963C91199718961F
:1005E0002C91932F990F990B492F592F692F792F00
:1005F000892F0E94B72F0CE00E94E730222E332E65
:10060000442E552E68877987882E992EF3013385DD
:100610002285932F990F990BA988BA88CB88DC88FB
:10062000E98CFA8C0B8D1C8D492F592F692F792F4E
:10063000892F0E94B72F08E00E940031A22CB32C12
:10064000C42CD52CE884F984082D192D0E941E3164
:1006500070588F4F9F4FD30116962D903C9017974F
:10066000A22CB32CC12CD12CE12CF12C00E010E0F9
:100670000E94B72F01E20E940031288739874D8BF5
:100680005E8B6F8B788F582E492EA0E00E94303100
:1006900009F465C10F2EF9EA2F2EF3E03F2EF02D5D
:1006A000F10131892089932F990F990BA988BA8874
:1006B000CB88DC88E98CFA8C0B8D1C8D492F592F47
:1006C000692F792F892F0E94B72F298B3A8B4B8B5B
:1006D0005C8B662E772E882E992ED1011F963C9129
:1006E0001F971E962C91932F990F990BAF80BA8468
:1006F000CB84DC84ED84FE840F851889492F592F23
:10070000692F792F892F0E94B72F01E10E94E730CE
:10071000A988BA88CB88DC88E62CF72C082D192DFF
:100720000E941E31A22EB32EC42ED52EE62EF72EF9
:100730008F83192F8D8C482D50E060E070E0DB0135
:10074000CA01072E7CE0880F991FAA1FBB1F7A954C
:10075000D1F7702D9E8C492D50E060E070E0440F81
:10076000551F661F771F440F551F661F771F440FC5
:10077000551F661F771F440F551F661F771F482B95
:10078000592B6A2B7B2B8F8C482980E090E0A0E1CD
:10079000B0E0841B950BA60BB70B3C014D01990CE7
:1007A0006608762C4301282F392F4A2F5B2F662DA0
:1007B000762D862D962D0FE10E94E730622E732E46
:1007C000842E952EB62FA72F8A879B87F10135851A
:1007D0002485932F990F990B492F592F692F792F22
:1007E000892F03E20E94E7300F810E941E31A22E62
:1007F000B32EC42ED52EE62EF72E082F192F262D18
:10080000372D482D592D6B2F7A2F8A859B850E9475
:1008100027310F2EF5E3AF2EF02D0F2EFCE0BF2E6B
:10082000F02DC12CD12CE12CF12C00E010E00E9425
:10083000B72FA884B984CD88DE88EF88F88C052D81
:10084000142D0E9412302F833A874B875C876D8767
:100850007E878F87988B0DE00E940031922E832E29
:10086000742E652E562E472E88879987D10157966C
:100870003C91579756962C91932F990F990BA92C31
:10088000B82CC72CD62CE52CF42C082F1985492F11
:10089000592F692F792F892F0E94B72F0E94B72FC8
:1008A00009E10E940031AF80BA84CB84DC84ED84FE
:1008B000FE840F8518890E941E3128873987442EAF
:1008C000552E662E772E882E992EF1013589248992
:1008D000932F990F990B492F592F692F792F892F12
:1008E0000E94B72F03E10E940031A22EB32EC42E26
:1008F000D52EE62EF72E082F192F28853985442D61
:10090000552D662D772D882D992D0E941E3108E0DA
:100910000E940031A22EB32EC42ED52EE62EF72E25
:10092000E82F192FD10153963C91539752962C9151
:10093000932F990F990B492F592F692F792F892FB1
:1009400004E00E94E7300E2F0E941E310E94F42D19
:1009500020E030E040E85BE30E94FF2E03C060E04F
:1009600070E0CB016F960FB6F894DEBF0FBECDBF1F
:10097000DF91CF911F910F91FF90EF90DF90CF907B
:10098000BF90AF909F908F907F906F905F904F90AF
:100990003F902F900895FC016634710508F473C0F0
:1009A00083A1853309F071C084A1803E09F06FC036
:1009B00085A19091C00289136CC093A589136BC067
:1009C00085A58F78803829F081E08093BA0280E095
:1009D000089592A5945F61537109DF01A90FB11DBC
:1009E0009A968C91807C71F09E5F11C081E0890F96
:1009F000DF01A80FB11D9A962C91211102C09E5FB4
:100A000006C0982F292F30E02617370778F3292FB3
:100A100030E0DF01A20FB31F9B968C91813099F0DB
:100A200088E0890FDF01A80FB11D9B968C91965F1E
:100A3000980F292F30E02617370778F283E080934C
:100A4000BA0280E00895DF01A20FB31FD3962C9164
:100A5000243029F082E08093BA0280E008952AE0F1
:100A6000290F30E0265D3F4FE20FF31FABEBB2E002
:100A70002FEB32E091919D93A217B307D9F791E044
:100A80009093BF02089580E0089580E0089580E08B
:100A9000089580E0089580E008952A98962F6F7158
:100AA000862B8EBD0DB407FEFDCF1EBC0DB407FE18
:100AB000FDCF992324F41EBC0DB407FEFDCF2A9A66
:100AC0008EB508952A986F71862B8EBD0DB407FEE2
:100AD000FDCF4EBD0DB407FEFDCF2A9A0895FB0150
:100AE0002A982AE32EBD0DB407FEFDCF009769F0CA
:100AF000DF01A80FB91F1EBC0DB407FEFDCF9EB5C8
:100B00009193EA17FB07B9F701C0DF011C922A9AFB
:100B10000895FB012A982AE72EBD0DB407FEFDCFEC
:100B200009C09F01280F391F91919EBD0DB407FE8A
:100B3000FDCF03C00097A9F703C02E173F07A1F709
:100B40002A9A08951F93CF93DF93182F1076C12F01
:100B5000D0E08091C30290E0C817D907B1F043E01C
:100B60006FE180EA0E946205AE0155954795559563
:100B700047955595479555954795559547956FE1F7
:100B800080E80E9462051093C302DF91CF911F910C
:100B90000895CF93C82F0E94A2056C2F80E00E9479
:100BA0004D05CF910895CF93DF93C82FD62F0E9484
:100BB000A2054D2F6C2F80E40E946205DF91CF913A
:100BC0000895CF93682F84ED0E94D30561E082EDF4
:100BD0000E94D3058AEE0E94C90580FDFBCF60E02C
:100BE00082ED0E94D30589ED0E94C905C82F88EDCA
:100BF0000E94C9052C2F30E0322F2227A901482B53
:100C0000CA01CF910895CF93DF93D62FC72F682FB6
:100C100084ED0E94D3056D2F86ED0E94D3056C2FC5
:100C200087ED0E94D305C8E203C08C2F8A95F1F7A7
:100C30008AEE0E94C90580FDF8CFDF91CF9108951B
:100C4000682F677085E70E94D3050895CF93DF93DF
:100C5000EC01229A2A9A84B1886284B924982B984C
:100C60002D9880E58CBD8DB581608DBD4FEF60E026
:100C70008FEF0E94620580E090E00197F1F71092FB
:100C8000C2021092C10260E088E00E94D30560E0D9
:100C900089E00E94D30560E08CE00E94D30560E00B
:100CA0008DE00E94D3056FEF8AE00E94D30569E1D1
:100CB0008BE00E94D30560E084E00E94D3056AE1E6
:100CC00085E00E94D3056FEF86E00E94D3056FE1B7
:100CD00087E00E94D30560EB88E30E94D3056FE3B1
:100CE00088E20E94D30560E389E20E94D30569EFA0
:100CF00080E30E94D30567EF81E30E94D3056DE096
:100D000080EC0E94D30560E081EC0E94D30542E3B1
:100D100062EC80E80E94620562E186EC0E94D305E5
:100D20006CE087EC0E94D30562E184EC0E94D3055D
:100D30006CED8AEC0E94D30565E08BEC0E94D30534
:100D4000688184EE0E94D305698185EE0E94D305F7
:100D50006A8182EE0E94D3056B8183EE0E94D305E7
:100D60006C8180EE0E94D3056D8181EE0E94D305D7
:100D700060E071E080E10E9403068FE10E94A2051D
:100D800040EC6BE180E80E94620544E06FE180E89E
:100D90000E946205DF91CF91089581E10E94E105F3
:100DA00092FB882780F908950F931F93CF93DF93C9
:100DB000EC018B016FE180E00E944D0583FDFACFCD
:100DC0008CE10E94C90581FF13C040E86FE180E813
:100DD0000E94620540E86FE180EA0E94620542E0FD
:100DE0006CE180EA0E94620580E395E70197F1F7E4
:100DF00060E082E00E94D3056AE183E00E94D305AF
:100E00006C2F86E00E94D305CE01965E692F87E0A5
:100E10000E94D30540E060E08AE70E946205B801C5
:100E2000CE010E94890548E06FE180E80E946205DA
:100E3000DF91CF911F910F910895AF92BF92CF9202
:100E4000DF92EF92FF920F931F93CF93DF936C018A
:100E50007B0189E30E94C905882309F464C060917D
:100E6000C102C091C20280E00E94D3056C2F81E0D4
:100E70000E94D30560E08AE30E944D05C82F60E020
:100E80008AE30E944D05D0E0D82BD093C202C093D4
:100E9000C10260E08AE30E944D05B82E60E08AE35B
:100EA0000E944D05A82E60E08AE30E944D05082FA0
:100EB00060E08AE30E944D0507FF11C081E0C81A77
:100EC000D1080B2D10E01A2904501109C016D106C3
:100ED00008F48601B701C8010E946F0502C000E056
:100EE00010E07E0181E0E81AF108E1148AE1F806D9
:100EF0004CF06FEF8CE00E94D30569E18DE00E9419
:100F0000D30509C06C2F61508CE00E94D3056F2D72
:100F10008DE00E94D30540E46EE180E80E94620506
:100F2000802F912F02C080E090E0DF91CF911F9140
:100F30000F91FF90EF90DF90CF90BF90AF9008950A
:100F4000CF92DF92EF92FF920F931F93CF93DF9395
:100F5000EA0189019091DC02981761F0E091D902D1
:100F6000F091DA0240E050E060E070E084EF91E060
:100F700009955EC061115CC02D30310508F458C080
:100F8000E090D902F090DA02E114F10409F450C0C3
:100F9000C090CD02D090CE02F601E40FF51F8085FF
:100FA00090E00E94AB32892BB9F1F601EC0FFD1FE6
:100FB000218530E0205331092A30310580F5F601D2
:100FC000EC0FFD1F838590E0AC01405351094A307E
:100FD000510540F5C901880F991F220F331F220FB9
:100FE000331F220F331F280F391FF601EC0FFD1F8F
:100FF000828590E0C097280F391FC901880F991F7B
:10100000220F331F220F331F220F331F280F391FC8
:10101000CA01820F931F08C080E090E005C080E005
:1010200090E002C080E090E0A801BE01F7010995C0
:1010300080E0DF91CF911F910F91FF90EF90DF90B3
:10104000CF900895CF92DF92EF92FF92CF93DF93EC
:10105000EC01DB01413061F46B0188E0C81AD10872
:10106000E12CF12C81E1C80ED11CE11CF11C11C056
:10107000423061F46B0188E0C81AD108E12CF12CF0
:1010800086E0C80ED11CE11CF11C03C0C12CD12C80
:101090007601A230B105F0F09D01FE01408150E0E3
:1010A00060E070E0762F652F542F44278181482B14
:1010B000C40ED51EE61EF71E32962250310922308C
:1010C000310560F7CD0102978E7F0296C80FD91FB8
:1010D000A170BB27AB2B61F0888190E0A0E0B0E06D
:1010E000BA2FA92F982F8827C80ED91EEA1EFB1EDB
:1010F000A70166277727411551056105710571F034
:10110000EE24FF24C40ED51EE61EF71EA701662797
:101110007727411551056105710591F7C601809545
:101120009095DF91CF91FF90EF90DF90CF90089551
:10113000009741F026E0FC01A5EFB2E001900D928E
:101140002A95E1F70895CF93DF93FC013081209138
:10115000F102232730910101232391F43196C2EF4C
:10116000D2E0A2E0B1E0AC014C5F5F4F81912991E8
:101170009D918227892331F4E417F507B9F703C05D
:1011800081E001C081E0DF91CF910895FC01328DB3
:10119000FB01208132130DC0DC015B9631964E9627
:1011A0003D912191321307C0A817B907C9F781E013
:1011B000089580E0089580E0089569327105C8F0CF
:1011C000FC0124852830B9F425852630B1F436A1F8
:1011D0002091F102321313C0B796A2EFB2E08A96C3
:1011E00031912D9132130DC0E817F907C9F781E04D
:1011F000089580E0089580E0089580E0089580E0FB
:10120000089580E00895CF93DF93FC016A32710561
:10121000E0F084858830D9F4858581111AC09685DF
:101220009534C1F4268D9091F102291313C0DF018A
:101230005F96C2EFD2E0B2962D91999129130AC020
:10124000AE17BF07C9F781E005C080E003C080E0AA
:1012500001C080E0DF91CF910895FC01A5EFB2E0DD
:101260009C012A5F3F4F868181938D918583E21790
:10127000F307C9F70895CF93DF93EC01188E198E09
:1012800080E48C8B1D8A8E8B40E064E170E0CE019F
:101290000E960E942208988F898FDF91CF91089532
:1012A000AC01A1EFB2E0FC017A9625EF32E090812B
:1012B00094839D919193A217B307C9F7CA010E9425
:1012C0003B090895FC01BA9686962291620F711D22
:1012D00024816483442311F0208301C01082672F8E
:1012E0007727E817F90789F70895CF93DF93EC0183
:1012F0008CA19AA19CA38AA38DA19BA19DA38BA342
:10130000CE010E9462091AAA1BAA80E58EA7DF916E
:10131000CF910895CF93DF93EC010E942D091C8A91
:1013200082E08D8BA5EFB2E0FE0176962BEF32E0E6
:10133000808182878D918193A217B307C9F7A1EFAE
:10134000B2E0FE017C9625EF32E0808182878D91AC
:101350008193A217B307C9F7BE018AE290E00E9409
:10136000D406DF91CF9108950F931F93CF93DF930E
:10137000EC018B010E942D09CE010E9450091AA296
:101380008CA1883F18F09DA19F5F9DA3885F8CA3CF
:10139000BE01C8010E94D406DF91CF911F910F9129
:1013A0000895FC01208930E0322F22278189282BE3
:1013B0002451310986A582958F70A90164E0869F2A
:1013C000401951091124CA01992314F480E090E0D6
:1013D00008959A012F5F3F4FFA014491442369F029
:1013E000FB01F696DC01AE0FBF1FF9014D936F5F55
:1013F0007F4F449131964111F9CFCB0108952223BB
:1014000091F0A42FB52FAB014A5C5F4FFC01E40FB4
:10141000F51F922F3D9131939150E1F72150620FCA
:10142000711D6F5F7F4FCB010895FA01019000207D
:10143000E9F731979F01241B350B0E94FF0908959E
:10144000EF92FF920F931F93CF93DF9300D000D0C2
:101450001F92CDB7DEB79091DC029813B8C080918F
:10146000DB02811130C00091CD021091CE0242EA20
:1014700052E060E070E0C8010E94E9094091D302A7
:101480005091D402BC01C8010E94E9094091D102E7
:101490005091D202BC01C8010E94150A40E952E0F5
:1014A000BC01C8010E94E9094091CF025091D002CD
:1014B000BC01C8010E94E90943E652E0BC01C80131
:1014C0000E94E90986C0813009F074C00091CD0204
:1014D0001091CE024DE552E060E070E0C8010E943C
:1014E000E9094091D3025091D402BC01C8010E9485
:1014F000E9094091D1025091D202BC01C8010E9479
:10150000150A4BE452E0BC01C8010E94E909409170
:10151000CF025091D002BC01C8010E94E909E090BD
:10152000D702F090D802E114F10459F048E452E0F7
:10153000BC01C8010E94E909A701BC01C8010E94C1
:10154000E90943E252E0BC01C8010E94E90942E115
:1015500052E0BC01C8010E94E9097C01E091D5027A
:10156000F091D602DF010D900020E9F7CD0101973F
:101570004AE0BE016F5F7F4F8E1B9F0B0E94D532EA
:101580000091CD021091CE02AE014F5F5F4FB701C7
:10159000C8010E94150A4CED51E0BC01C8010E942F
:1015A000E9094091D5025091D602BC01C8010E94C0
:1015B000150A0FC04091D1025091D20260E070E054
:1015C0008091CD029091CE020E94150A02C080E067
:1015D00090E00F900F900F900F900F90DF91CF91B0
:1015E0001F910F91FF90EF900895FF920F931F931B
:1015F000CF93DF93EC018B01F42E0E942D098F2DE8
:1016000080618FA784E0F81206C041E0B801CE01E6
:101610000E9475090AC00115110511F401E010E0DE
:1016200041E0B801CE010E947509188A88E2898BD1
:10163000CE010E94500984E088AB19AA42E06CE117
:1016400070E0CE014A960E9422089AAB8BABBE0195
:1016500086E390E00E94D406DF91CF911F910F9115
:10166000FF9008950F931F93CF93DF93EC018B01AD
:10167000CB018896988B898BCE010E943B091AAAD0
:101680001BAAB801645E7F4F42E0CE014A960E94D9
:1016900022089AAB8BABBE01C801C6960E94D40645
:1016A000DF91CF911F910F9108959C0161157105F4
:1016B00051F0DB01E1EFF2E045EF52E09D919193B3
:1016C000E417F507D9F72115310519F0C9010E9472
:1016D000980808959093C602809305010895CF93CA
:1016E000DF93EC010E942D09188A8CE2898BCE01D0
:1016F0000E94500982E18FA740E061E070E0CE01D6
:101700000E9475091EA21FA28091090188A719A62F
:101710008D5F8093090182E08EAB84E08FAB85E022
:1017200088AF19AE80E68EA78AE088AB19AA42E09E
:1017300060E270E0CE014A960E9422089AAB8BAB21
:10174000BE018AE390E00E94D406DF91CF91089514
:10175000DC01FA016115710541F0680F791F849170
:101760008D9331966A177B07D1F70895CF92DF9258
:10177000EF92FF920F931F93CF93DF937C018091A1
:10178000F1028823D1F1D701C5EFD2E00BEF12E0CF
:10179000FE012FEF2D93919115969C9315970E179F
:1017A0001F07C1F7D72EC62E88E0F701848786E091
:1017B000858747EA52E068E070E0C7010E960E9414
:1017C000A80BF70176968991819311860C171D0756
:1017D000D1F7CC2DDD2DA1EFB2E0F7017C9625EFFE
:1017E00032E0899182878D918193A217B307C9F75F
:1017F000B7018AE290E00E94D406DF91CF911F9159
:101800000F91FF90EF90DF90CF90089581E090913D
:10181000C802923009F480E008955093CF034093BA
:10182000CE0321E02093C8026093C702DC01E9ECFB
:10183000F2E02DEC32E08D918193E217F307D9F7B6
:101840000895DF92EF92FF920F931F93CF93DF9350
:10185000EC01F62EE42ED52EA4EEB2E0BC0185EF0D
:1018600092E04AEE52E02D91FB012193BF01FC0171
:101870002191CF01FB012583A417B507A1F788E0CB
:101880008C871D864FEA52E069E070E0CE010E962B
:101890000E94A80B8CE2898B809100018B8B8F5F5B
:1018A0008093000186E08F8BAAEEB2E081EF92E098
:1018B0008E01065E1F4FB8014EEE52E02D91FB01E6
:1018C0002483FC012191CF01FB012193BF01A417C7
:1018D000B507A1F7CE010E943B09DCA2EDA28BE087
:1018E0008AA3FBA2FE01B696CE018E9611928E17A8
:1018F0009F07E1F78091090188A78D5F8093090117
:1019000080E68EA782E08FA793E098AB19AA1AAA67
:101910001BAA1CAA1DAA8EAB94E09FAB88AF8EEECB
:1019200089AF42E060E270E0C8010E9422089AABF1
:101930008BABBE018AE390E00E94D406DF91CF9189
:101940001F910F91FF90EF90DF9008950F931F93D9
:101950009093E0028093DF027093DE026093DD02D9
:10196000A22FB32FEAEEF2E02EEE32E08D918193BA
:10197000E217F307D9F7A02FB12FE4EEF2E02AEE39
:1019800032E08D918193E217F307D9F75093E20289
:101990004093E10281E08093E3028091EE028F5F49
:1019A000883018F48093EE0202C01092EE0280910B
:1019B000EE021F910F9108958F929F92AF92BF9266
:1019C000CF92DF92EF92FF920F931F93CF93DF930B
:1019D0004C015B017A016901E8010E94CD06882370
:1019E000B1F09092D2028092D10282E08093DB0229
:1019F000B092DA02A092D90286019701AE0160E2AC
:101A00007AE080EA97E00E94A60C8093DC02DF91E6
:101A1000CF911F910F91FF90EF90DF90CF90BF90EB
:101A2000AF909F908F900895DF92EF92FF920F9367
:101A30001F93CF93DF938C01EB01209709F056C0E1
:101A40008091C802893079F4809106019091070154
:101A5000892BF9F40E94CD06882329F069EC72E005
:101A6000C8010E94B60B8091C802813091F40E9497
:101A7000CD06882371F069EC72E0C8010E94B60BB4
:101A80008091C80288608093C8021092070110926A
:101A9000060180910601909107010196909307013C
:101AA000809306018091E302813009F0A8C10E9471
:101AB000CD06882309F4A6C182E08093E3028091D9
:101AC00008018F5F809308014091E1025091E2028A
:101AD0006091EE0290E2699FB00111248F71682B32
:101AE000C8010E94210CE12CF12CC0C10E94DD082C
:101AF000882371F1D80155968C91813019F4C80171
:101B00000E948A098091C80283FF7FC1F8018589FC
:101B1000823009F07DC144E050E069EC72E0C80118
:101B20004C960E94B332892B09F075C1A8014A5E18
:101B30005F4FE091CE03F091CF036091C70289EC33
:101B400092E0099582E08093C802E12CF12C8EC1CD
:101B5000BE01C8010E940309882309F45FC1D801AE
:101B600057968C9157978130A9F492968C91883032
:101B700009F057C1E091EF02F091F002309719F0AF
:101B8000C8014A960995BE01C8010E94B409E12C1A
:101B9000F12C6CC1C633D10508F446C1863009F07A
:101BA00046C1F80184A18B3009F0F0C01093CE0239
:101BB0000093CD026AEE72E0C8010E94C608882335
:101BC00009F438C1D8019F96DC909F97D2FE17C0C8
:101BD000E091DF02F091E002309759F095968C91F8
:101BE00020E030E040E050E063E082958695877029
:101BF000099586E08093E302E12CF12C37C1C801FE
:101C00000E94D1097C018091E3028230D9F59D2D9B
:101C100090718D2D8271823119F540E060E070E0A5
:101C2000C8010E94F50A88E1F80187A7E091DD026A
:101C3000F091DE02309741F0D80193968C91829515
:101C400086958770099502C080E090E023E020939C
:101C5000E302BC01C8010E94320BE12CF12C06C149
:101C600081E08093E302911104C0B7016F5F7F4F61
:101C700002C060E070E044E0C8010E94F50AE12C77
:101C8000F12CF4C0833009F03FC0E114F10409F4F1
:101C9000E6C084E08093E302E091DF02F091E0028D
:101CA000309709F456C0D8019E964C9142954F70DA
:101CB000B4E04B9FA0011124CE0108974E5D5F4F09
:101CC0008417950708F4AC01C701840F951FC81746
:101CD000D90720F49E01241B350B01C09701D801C0
:101CE00095968C9160E082958695877009958823FA
:101CF00059F049E0B701C8010E94F50A85E08093D8
:101D0000E302E12CF12CB2C08091E302853051F462
:101D1000F80187A584FF91C086E08093E302E12C5F
:101D2000F12CA4C08630A9F4D8019F968C9184FD33
:101D300004C0B7016F5F7F4F02C060E070E044E015
:101D4000C8010E94F50A87E08093E302E12CF12CA0
:101D50008DC0F80187A580FF0DC0B7016F5F7F4F71
:101D600041E0C8010E94F50A85E08093E302E12C7E
:101D7000F12C7CC0E114F10409F462C040E0B70129
:101D8000C8010E94F50AE12CF12C70C09091C602A6
:101D9000891359C095A180910501981357C0D7A404
:101DA000D1FE06C0C8010E946F0BE12CF12C5EC071
:101DB000D4FE4FC0C8010E94D1097C019093C50296
:101DC0008093C402892B49F4D0FE50C040E060E00B
:101DD00070E0C8010E94F50A49C0F801E6A4E69443
:101DE000E694E694E694F4E0EF9E7001112482E21A
:101DF000E80EF11C2897CE15DF0570F137C0E12CF5
:101E0000F12C34C0E12CF12C31C0E12CF12C2EC08E
:101E1000E12CF12C2BC0E12CF12C28C0E12CF12C71
:101E200025C0E12CF12C22C0E12CF12C1FC0E12CAB
:101E3000F12C1CC0E12CF12C19C0E12CF12C16C0A6
:101E4000E12CF12C13C0E12CF12C10C0E12CF12C71
:101E50000DC0E12CF12C0AC0E12CF12C07C0D801F7
:101E60009F968C9180FD79CFE12CF12CC701DF91F9
:101E7000CF911F910F91FF90EF90DF9008950895FB
:101E8000613059F4A42FB52FE5E8F3E02BE833E0F7
:101E90008D918193E217F307D9F708951092FE020E
:101EA000E4E6F0E080818F7B808382E080937000A5
:101EB0001092B20094EF9093B3008093B00087E04B
:101EC0008093B10008951F920F920FB60F921124C4
:101ED0008F938091FE028F5F8093FE028091FE02BD
:101EE000833338F01092FE028091FF028F5F80935F
:101EF000FF028F910F900FBE0F901F901895CF92F9
:101F0000DF92EF92FF920F931F93CF93DF936C01B9
:101F100081E08093FD0260E073E080E890E00E9441
:101F20001D077C0110928003BC0180E093E00E94B9
:101F3000140DEC01E114F10499F48091FC0281305C
:101F400079F41092FF021092FC0200E510E025E8FF
:101F500033E041E853E06FE37FE0C6010E94DC0C10
:101F60008091FF0290E020910C0630910D06281719
:101F7000390728F41092FD0281E08093FC0220973B
:101F800031F4B70180E093E00E94CB045BC0C05005
:101F9000DD4F4EE050E0BE018DE491E00E94C7327B
:101FA000892BD9F48CE096E09F938F938CE591E098
:101FB0009F938F93DF93CF930E942F3460910C06F1
:101FC00070910D0680E190E00E94303C0F900F90E0
:101FD0000F900F900F900F9035C04DE050E0BE0174
:101FE0008EE691E00E94C732892B61F585E096E08C
:101FF0009F938F9386E096E09F938F9387E096E080
:102000009F938F938BE096E09F938F938AE096E067
:102010009F938F9389E096E09F938F938CE791E055
:102020009F938F93DF93CF930E942F3485E096E0A8
:102030000E9467278DB79EB740960FB6F8949EBF53
:102040000FBE8DBFDF91CF911F910F91FF90EF9049
:10205000DF90CF900895CF93DF93E1E6F0E080E842
:1020600080831082C0E08C2F8A95F1F782E291E0A4
:102070000E94260681E00E942006CA95F1F70E9480
:102080004E0F789466E774E084E10E9403066EE1E7
:1020900071E082E291E00E94550B80E590E00E94A1
:1020A0006A0B40E45FE061E08AE091E00E940D0C81
:1020B0000BC060E073E080E890E00E941D07BC0167
:1020C00080E093E00E94140D0E94060C8111F1CF74
:1020D0006EE071E081E893E00E94991082E08093C5
:1020E000FB02D3E0C4E002C08230A1F481E893E0B7
:1020F0000E94A308882321F084E08093FB0216C08D
:1021000040E45FE062E081E893E00E940D0CD09330
:10211000FB0208C0833031F40E94060C811102C01A
:10212000C093FB028091FB028430F1F6DF91CF91E6
:102130000895AF92BF92DF92EF92FF920F931F9399
:10214000CF93DF9300D000D0CDB7DEB7FC01108273
:10215000118212821382DB019C91992309F448C0F9
:102160007F018B010F5F1F4FD12C20E0233078F4CB
:10217000492F50E0405351094A30510540F4E1E005
:10218000F0E0EC0FFD1FE20FF11D90832F5F222383
:10219000A1F09E3291F4E1E0F0E0EC0FFD1FE20FC0
:1021A000F11D10825701AD0CB11CCE0101960E94A9
:1021B0008132F5018083D39420E0D8019D918D0177
:1021C000992319F0B3E0BD1588F6E3E0DE1212C0E2
:1021D000E1E0F0E0EC0FFD1FE20FF11D1082CE01F7
:1021E00001960E948132D70113968C9380E003C040
:1021F00081E001C081E00F900F900F900F90DF9170
:10220000CF911F910F91FF90EF90DF90BF90AF9013
:102210000895CF93DF9342305105C0F0DB01FC01FC
:102220009A01CD91DD91C193D19322503109223091
:102230003105B8F79A01225031092E7F2E5F3F4FAA
:10224000820F931F620F731F41705527411551056F
:1022500049F0DB01FC01480F591F9D919193E41750
:10226000F507D9F7DF91CF910895CF93DF93EC0174
:10227000A881B9811097F9F04C91413258F04A3356
:1022800031F1FD0131969F019191913228F09A33FD
:10229000D1F704C0942F9D019A3381F4CD010196AA
:1022A0002817390771F4403379F41296B983A8835B
:1022B00080E090E00EC08FEF9FEF0BC080E090E0D9
:1022C00008C08FEF9FEF05C08FEF9FEF02C09D0109
:1022D000E5CFDF91CF9108958F929F92AF92BF92F9
:1022E000CF92DF92EF92FF920F931F93CF93DF93E2
:1022F000FC012481222309F446C0EC01C2A4D3A42A
:10230000E4A4F5A45C01FEE2AF0EB11C01E010E014
:10231000A7019601B50189810E946124811135C010
:102320001C828E8D9F8DA8A1B9A1B701A601481B63
:10233000590B6A0B7B0B8E899F89A88DB98D481725
:1023400059076A077B0718F58B80912C82E0881665
:102350009104F8F08E899F89A88DB98DC80ED91E79
:10236000EA1EFB1E01E010E0A7019601B50189817C
:102370000E946124E1E08E1A9108F1E08F16910429
:1023800049F780E007C080E005C081E003C080E03D
:1023900001C080E0DF91CF911F910F91FF90EF90EE
:1023A000DF90CF90BF90AF909F908F9008958F92C5
:1023B0009F92AF92BF92FF920F931F93CF93DF93A1
:1023C000EC014A015B018AA59BA5ACA5BDA58417BC
:1023D0009507A607B707E9F0CE010E946C11F82E09
:1023E000811118C001E010E0A5019401BE01625DF9
:1023F0007F4F89810E940B24882331F0FF24F394BE
:1024000088248A94982C54018AA69BA6ACA6BDA6C3
:1024100001C0F12C8F2DDF91CF911F910F91FF9073
:10242000BF90AF909F908F900895CF93DF93EC0172
:102430001C828FEF9FEFDC018AA79BA7ACA7BDA7EB
:10244000CE010E94D711811123C0FE01E45DFD4F32
:102450008081918185359A4AE9F4E85CF140808178
:102460009181A281B381BB2786349144A445B105F3
:1024700099F0C058DF4F488159816A817B81772765
:1024800081E0463451446445710539F480E005C06B
:1024900083E003C082E001C080E0DF91CF91089526
:1024A0000097C9F0DC01ED91FC9111973097A9F0EC
:1024B00020812223A1F02681378112968D919C9153
:1024C00013972817390769F481810E94042480FD3D
:1024D0000AC080E0089589E0089589E0089589E0C0
:1024E000089589E0089583E008952F923F924F92D6
:1024F0005F926F927F928F929F92AF92BF92CF9294
:10250000DF92EF92FF920F931F93CF93DF93CDB79C
:10251000DEB76D970FB6F894DEBF0FBECDBF6C016E
:10252000CB01B42ED6011D921C920E9435117C0164
:1025300099230CF404C2FC01EE0FFF1FE357FC4F7C
:10254000008111810115110509F4FBC1F601118308
:102550000083D8018C91882369F011968C910E9498
:10256000042480FD07C0BB2009F4EDC182FFEDC14A
:102570008AE08EC2F8011082E1828E2D0E944023F3
:1025800080FDE5C1BB2009F402C282FDE2C1FFC1AA
:102590008081882329F0448055806680778004C03C
:1025A0004E2C5F2C672E762ED9014D925D926D9246
:1025B0007D929D0170964E175F0751F74E01B1E174
:1025C0008B0E911C6894772471F8F501C190D1901D
:1025D000E190F1905F01C114D104E104F10441F0F4
:1025E000B701A601C8010E941512811102C00DC0D9
:1025F000872DA814B90449F703C0C12CD12C76014A
:10260000833009F4A8C18111A8C1D801D9968D9150
:102610009C91DA978115924009F0A1C1F801EC5B19
:10262000FF4F40805180612C712C41145104610492
:10263000710429F43E964080518062807380F801D5
:10264000468A578A608E718EA6ADA3838FEF8A0F5C
:10265000823008F086C1F3ADF98B2F2FF801228369
:10266000222309F480C1822F90E09C01215031097E
:1026700082239323892B09F078C1FF962080318033
:10268000F80131862086C1018F709927892B09F0C6
:102690006EC1EF5BFF4F80809180A12CB12C811423
:1026A0009104A104B10429F43D9680809180A28018
:1026B000B380F80104ACF5ADE02D309709F459C1B1
:1026C000B0E0A30192010E94A42F6A8F7B8F8C8FB0
:1026D0009D8F9F0140E050E02E8B3F8B488F598F9C
:1026E000C101929582958F7089279F708927280F45
:1026F000391F411D511DDA01C9012A8D3B8D4C8DB9
:102700005D8D280F391F4A1F5B1F2A8B3B8B4C8B1B
:102710005D8B82169306A406B50608F42CC1C5018C
:10272000B401621B730B840B950BE9892E2F30E0EB
:1027300040E050E00E947C2FDA01C90121153105EB
:102740004105510509F419C1263FFFE03F07410546
:10275000510518F0E2E0E98B02C0F1E0F98B863F09
:102760009F4FA105B10508F02AC149015A0182E035
:10277000880E911CA11CB11CD80152968D929D927D
:10278000AD92BC925597F801C28ED38EE48EF58E31
:102790008E899F89A88DB98D8C0D9D1DAE1DBF1D85
:1027A000868F978FA0A3B1A34A895B896C897D89A5
:1027B0004C0D5D1D6E1D7F1D46A357A360A771A71D
:1027C000F989F33069F5232809F0D9C0F801E65AF0
:1027D000FF4F80819181A281B381F80182A393A3ED
:1027E000A4A3B5A3880C991CAA1CBB1C880C991C1B
:1027F000AA1CBB1CFFEF8F0EF1E09F1EA11CB11C99
:10280000072E79E0B694A794979487947A95D1F798
:10281000702D481459046A047B0408F4B2C0FBC04C
:10282000232809F4B0C02A8D3B8D4C8D5D8D820F1D
:10283000931FA41FB51FF80182A393A3A4A3B5A35C
:10284000F989F23029F4880C991CAA1CBB1C0AC116
:10285000A3E0B0E0A50194010E94A42FDC01CB010C
:10286000B695A7959795879521E082229924AA2469
:10287000BB24880E991EAA1EBB1EF4C0B701A60178
:102880004F5F5F4F6F4F7F4FC8010E94D71181117B
:1028900039C0D80115961C92F801E45DFD4F808186
:1028A000918185359A4A89F5F80186A597A5A0A951
:1028B000B1A982359245A146B14451F5F801EE5EC9
:1028C000FD4F80819181A281B38182379247A144DB
:1028D000B14609F5349680819181A281B381F801D6
:1028E00086879787A08BB18BE65EFD4F80819181B3
:1028F000A281B381F80182879387A487B587F3E02B
:10290000F98B0BC0E3E0E98B08C0F3E0F98B05C05D
:10291000E3E0E98B02C0F3E0F98BE989D801EC939D
:1029200080918B0390918C03019690938C038093FC
:102930008B0317969C938E93169780E0A9C08BE02B
:10294000A7C08CE0A5C080E0A3C080E0A1C083E068
:102950009FC08AE09DC081E09BC08DE099C08DE062
:1029600097C08DE095C08DE093C08DE091C08DE063
:102970008FC08DE08DC08DE08BC08DE089C08DE073
:1029800087C08DE085C08DE083C08DE081C040E0D0
:1029900050E0BA01C8010E941512813009F02DCE15
:1029A000F801E051FE4F9E012F5F3F4F5901A801F2
:1029B000405D5D4FE12CF12C70E060E0E9CD490114
:1029C0005A0162E0860E911CA11CB11CD8015296DE
:1029D0008D929D92AD92BC925597F801C28ED38E86
:1029E000E48EF58E8E899F89A88DB98D8C0D9D1DE5
:1029F000AE1DBF1D868F978FA0A3B1A38A899B8927
:102A0000AC89BD898C0D9D1DAE1DBF1D86A397A3EE
:102A1000A0A7B1A7D8CE8FEF9FEFDC01F801868782
:102A20009787A08BB18B82879387A487B58780E82F
:102A30008583E25AFF4F80819181019709F41ECF6F
:102A4000F3E0F98B6ACF8FEF9FEFDC01F801868707
:102A50009787A08BB18B82879387A487B58780E8FF
:102A600085835BCFFFEF8F0EF1E09F1EA11CB11C91
:102A7000072E79E0B694A794979487947A95D1F726
:102A8000702D481459046A047B0408F47ECFDBCF10
:102A90006D960FB6F894DEBF0FBECDBFDF91CF911C
:102AA0001F910F91FF90EF90DF90CF90BF90AF906C
:102AB0009F908F907F906F905F904F903F902F905E
:102AC00008950F931F93FC019A01AB012250310925
:102AD0004109510982899389A489B5890297A1097D
:102AE000B109281739074A075B0768F4A281B0E0EB
:102AF0000E94A42F06A117A120A531A5600F711F68
:102B0000821F931F03C060E070E0CB011F910F9103
:102B10000895AF92BF92CF92DF92EF92FF920F9300
:102B20001F93CF93DF93423051056105710508F47F
:102B3000AEC0FC01C288D388E488F5884C155D05D9
:102B40006E057F0508F0A8C06A017B01EC01808159
:102B5000823009F44DC0833009F46CC0813009F033
:102B6000A0C08A0116950795040F151FC801892F6B
:102B700099278695468D578D60A171A1480F591FE1
:102B8000611D711DCF010E94D71181118FC05801A5
:102B9000FFEFAF1ABF0A1170FE01E00FF11F16A57B
:102BA000C501892F992786954E8D5F8D68A179A1E2
:102BB000480F591F611D711DCE010E94D71181114F
:102BC00079C081E0B822CA0DDB1D8EA5612F70E0AF
:102BD000782BC0FE09C0729562956F7067277F7071
:102BE000672780E090E071C07F7080E090E06DC06A
:102BF000452F562F672F7727868D978DA0A1B1A1DE
:102C0000480F591F6A1F7B1FCF010E94D7118111E6
:102C100055C0B701A601440F551F661F771F4E7F91
:102C2000517066277727C40FD51F6EA57FA580E05A
:102C300090E04BC0868D978DA0A1B1A1689416F845
:102C400076956795579547951694D1F7480F591F74
:102C50006A1F7B1FCF010E94D711811133C0B701BA
:102C6000A601440F551F661F771F440F551F661F8F
:102C7000771F4C7F517066277727C40FD51F8EA50D
:102C80009FA5A8A9B9A9BC01CD019F701EC061E094
:102C900070E080E090E019C061E070E080E090E0DA
:102CA00014C061E070E080E090E00FC06FEF7FEF54
:102CB000CB010BC06FEF7FEFCB0107C06FEF7FEF52
:102CC000CB0103C06FEF7FEFCB01DF91CF911F915D
:102CD0000F91FF90EF90DF90CF90BF90AF9008954D
:102CE000AF92BF92CF92DF92EF92FF920F931F931A
:102CF000CF93DF93EC018B017D836C83CE80DF80EB
:102D0000E884F98481E0C816D104E104F10409F4EF
:102D10008BC0E881F98182899389A489B589C81615
:102D2000D906EA06FB0608F081C0C114D104E1040B
:102D3000F104C1F48081833041F482A193A1A4A164
:102D4000B5A10097A105B10559F4808591850817B3
:102D5000190708F06DC062A173A184A195A137C0C5
:102D60006C017D01A28080E1A89E500111240A150A
:102D70001B0538F1B701A601888199810E94891548
:102D80006B017C018FEFC816D806E806F80609F437
:102D900051C082E0C816D104E104F10408F44CC02B
:102DA000E881F98182899389A489B589C816D906F1
:102DB000EA06FB0608F042C00A191B090A151B05A2
:102DC000C8F6B701A601888199810E946115CA865B
:102DD000DB86EC86FD86611571058105910581F123
:102DE0009801329522952F7023273F702327DC010D
:102DF000CB01820F931FA11DB11D8E879F87A88BCA
:102E0000B98B888199818E960F701127000F111F41
:102E100002951295107F1027007F1027080F191FA9
:102E20001B8B0A8B80E00DC082E00BC082E009C0E2
:102E300082E007C081E005C082E003C082E001C0FB
:102E400082E0DF91CF911F910F91FF90EF90DF9083
:102E5000CF90BF90AF9008954F925F926F927F9204
:102E60009F92AF92BF92CF92DF92EF92FF920F9319
:102E70001F93CF93DF93423051056105710508F42C
:102E8000DBC0FC01C288D388E488F5884C155D0559
:102E90006E057F0508F0D4C0680179012A013B0165
:102EA000EC018081823009F465C0833009F488C068
:102EB000813009F0C9C08A0116950795040F151FC6
:102EC000C801892F99278695468D578D60A171A1DC
:102ED000480F591F611D711DCF010E94D711982EF7
:102EE0008111D1C05801FFEFAF1ABF0A117040FE27
:102EF00021C0FE01E00FF11F86A5282F2F7030E1C1
:102F0000C39EC0011124822B86A781E08C834E8D45
:102F10005F8D68A179A1C501892F99278695480FF2
:102F2000591F611D711DCE010E94D711882309F41C
:102F300093C08EC0FE01E00FF11FC6A681E08C8316
:102F40004E8D5F8D68A179A1C501892F992786953E
:102F5000480F591F611D711DCE010E94D711882392
:102F600009F485C077C0FE01EA0DFB1DC6A681E00D
:102F70008C8389C0452F562F672F7727868D978D95
:102F8000A0A1B1A1480F591F6A1F7B1FCF010E944A
:102F9000D711982E811177C0B301A201440F551F9C
:102FA000661F771F4E7F517066277727425D5F4F00
:102FB000FE01E40FF51FD182C08281E08C8363C0E3
:102FC000868D978DA0A1B1A1689416F87695679526
:102FD000579547951694D1F7480F591F6A1F7B1FC5
:102FE000CF010E94D711982E81114DC0B301A201CB
:102FF000440F551F661F771F440F551F661F771F0D
:103000004C7F517066277727425D5F4FFE01E40FCA
:10301000F51F00811181228133810027112722278A
:10302000307FC02AD12AE22AF32AC082D182E282EA
:10303000F38281E08C8327C06894992491F823C09F
:103040006894992491F81FC06894992491F81BC042
:10305000982E19C0982E17C081E0B822689413F8F2
:10306000F694E794D794C7941694D1F77CCFE1E017
:10307000BE22FE01EA0DFB1D96A5907F8D2D8F705F
:10308000C92EC82A70CF892DDF91CF911F910F9142
:10309000FF90EF90DF90CF90BF90AF909F907F9088
:1030A0006F905F904F9008954F925F926F927F92D2
:1030B0008F929F92AF92BF92CF92DF92EF92FF9248
:1030C0000F931F93CF93DF93EC012A013B0141152E
:1030D000510561057105B9F48A849B84AC84BD8473
:1030E00081149104A104B10461F18A899B89AC899E
:1030F000BD8988169906AA06BB0638F1812C912C49
:103100005401839422C00E9489156B017C016230B6
:1031100071058105910508F48EC08FEFC816D80699
:10312000E806F80609F48CC08A899B89AC89BD89B8
:10313000C816D906EA06FB0608F487C05301420107
:1031400004C0812C912C54018394750164012FEFEC
:10315000C21AD20AE20AF20A8A899B89AC89BD891D
:10316000C816D906EA06FB0660F082E088169104CC
:10317000A104B10408F46EC0C12CD12C760168946E
:10318000C1F8B701A601CE010E948915611571052C
:103190008105910599F06F3F2FEF72078207920723
:1031A00009F45DC0613071058105910509F45CC0C9
:1031B000C814D904EA04FB0451F65BC00FEF1FEFFB
:1031C0002FEF3FE0B701A601CE010E942C1781111D
:1031D0002BC0411451046104710449F09701860128
:1031E000B301A201CE010E942C1781111DC0CA8615
:1031F000DB86EC86FD868E859F85A889B9898F3F01
:103200002FEF9207A207B207C9F10197A109B109EF
:103210008E879F87A88BB98B8D8181608D836C2D64
:103220007D2D8E2D9F2D33C0813069F161E070E0DE
:1032300080E090E02CC061E070E080E090E027C08A
:103240006FEF7FEF8FEF9FEF22C06C2D7D2D8E2DC6
:103250009F2D1DC060E070E080E090E018C06FEF2F
:103260007FEF8FEF9FEF13C061E070E080E090E0B0
:103270000EC060E070E080E090E009C06C2D7D2D14
:103280008E2D9F2D04C06FEF7FEF8FEF9FEFDF91AB
:10329000CF911F910F91FF90EF90DF90CF90BF9053
:1032A000AF909F908F907F906F905F904F90089518
:1032B0007F928F929F92AF92BF92CF92DF92EF92C6
:1032C000FF920F931F93CF93DF93DC011496CD9160
:1032D000DC911597219609F401C11E968D909D9061
:1032E000AD90BC90519781149104A104B10409F4EC
:1032F000F7C07B018C016E01BFE0CB22DD24C1143D
:10330000D10409F0D5C0EFEF8E1A9E0AAE0ABE0AAC
:10331000DC011E968D929D92AD92BC9251971A96A9
:103320004D915D916D917C911D9741155105610500
:10333000710549F4ED91FC9180859185C817D907F5
:1033400008F0D0C0B5C0DC01ED91FC91228130E0E5
:1033500021503109CE01929582958F7089279F70F7
:10336000892728233923232B09F0A2C0CF010E94EB
:1033700089154B015C01623071058105910508F4E6
:10338000B3C06F3F7F4F8F4F9F4F09F4AFC0D8013D
:10339000ED91FC9182899389A489B5898816990653
:1033A000AA06BB0608F472C0EF2809F4A1C0D80130
:1033B0001A964D915D916D917C911D97CF010E9460
:1033C00054184B015C01611571058105910509F4E3
:1033D00091C0613071058105910509F48DC06F3F81
:1033E0007F4F8F4F9F4F09F489C0D8018D919C91D9
:1033F0000E946C11811184C0F80180819181FC01CF
:10340000BE96825D9D4F1192E817F907E1F7D8014A
:10341000ED90FC90B501A401C7010E946115F70170
:1034200062A773A784A795A7E12CF12C7724739446
:1034300019C07482D8018D919C910E946C118111E8
:1034400061C0D801ED91FC9182A593A5A4A5B5A575
:103450000196A11DB11D82A793A7A4A7B5A7BFEF91
:10346000EB1AFB0AD801ED91FC91828190E0E816FD
:10347000F906F8F282A593A5A4A5B5A58E199F0912
:10348000A109B10982A793A7A4A7B5A7F8018286CD
:103490009386A486B586B501A401808191810E949E
:1034A0006115D8011E966D937D938D939C935197D2
:1034B000F801D583C483808191818E96CC0CDD1C6C
:1034C000CC0CDD1CCC0CDD1CCC0CDD1CCC0CDD1CB8
:1034D000C80ED91ED38AC28A80E015C084E013C00A
:1034E00084E011C084E00FC082E00DC081E00BC019
:1034F00084E009C087E007C082E005C081E003C026
:1035000081E001C081E0DF91CF911F910F91FF9089
:10351000EF90DF90CF90BF90AF909F908F907F9073
:1035200008951F93CF93DF9300D000D000D0CDB784
:10353000DEB79C838B837E836D83142F7A836983AC
:10354000CE0101960E943511992334F1FC01EE0F52
:10355000FF1FE357FC4F0190F081E02D309709F0F9
:103560001082EB81FC813097E9F010822B813C8145
:10357000880F991FFC01E357FC4F31832083232BD5
:1035800069F0113069F440E0BE016B5F7F4FCE01FE
:1035900003960E9475120EC08BE00CC080E00AC03A
:1035A00080E008C0880F991FFC01E357FC4F11828F
:1035B000108280E026960FB6F894DEBF0FBECDBF16
:1035C000DF91CF911F9108952F923F924F925F927A
:1035D0006F927F928F929F92AF92BF92CF92DF9223
:1035E000EF92FF920F931F93CF93DF93CDB7DEB788
:1035F000AE970FB6F894DEBF0FBECDBF7CA36BA312
:10360000009709F499C2842E1C01DC011D921C92C2
:103610004E71BE016D5D7F4FCE0101960E94751205
:103620008111F3C2CE0147969E8B8D8BCBA0DCA07F
:10363000F60180818F3211F08C3519F4FFEFCF1A2B
:10364000DF0A282D2F712DA71F82188619861A864A
:10365000D6018C91803270F460E070E0CE0101966A
:103660000E9470161C8A1B8AE12CF12C882309F415
:1036700098C29EC26894BB24B5F8A12C712C6894A2
:10368000662463F8412C562C4EA6F60103C0FD01BA
:1036900001C0FD019F01DF018D918F32C1F38C3597
:1036A000C1F36D897E89DB01CB010B96BD92A81712
:1036B000B907E1F74A2D572DC12CD12CE62CF42C5B
:1036C000912C3AA729A77EA36DA3392DBFEFCB1A62
:1036D000DB0A7191713208F440C27F3209F434C2BE
:1036E0007C3509F431C27E3219F04E155F0590F039
:1036F00028E0E216F10409F074C27E3209F071C2CA
:10370000330F330F452D5EA50F2EFBE0EF2EF02D6E
:10371000F12CDCCF77230CF464C2072F10E00232C7
:10372000110509F432C2A9EAB1E08D91882309F4A8
:1037300005C290E008171907C1F786E02BC2326076
:1037400006C08FE9870F8A3110F431607052ADA145
:10375000BEA1A40FB51F7C934F5F5F4FB7CF452B22
:1037600009F43FC2DB019C91953E11F4E5E0EC9336
:10377000F8E0EF16F10411F4990C990C992D93705F
:10378000913009F48061992D9C70943009F488601F
:10379000DB011B968C936A2D772DCE0101960E943A
:1037A00070168111E8C14F85588969897A898981A4
:1037B0009A810E94D7118111DEC1EB88FC88F70144
:1037C00080818823D9F0638563FD0FC04D895E89B0
:1037D000DA019701255F3F4F04C02E173F0709F418
:1037E000C5C191918D919817C1F36A2D772DCE01A6
:1037F00001960E9458198823B1F2BDC1ED89FE8956
:10380000938592FDC4C185E0C5C164FFC2C1D701E3
:103810005A968D919C915B97A0E0B0E0E981FA8186
:103820002081233061F4F7014489558960E070E01C
:10383000BA0155274427842B952BA62BB72B8F83B2
:103840009887A987BA8721CF882309F455C0843087
:1038500009F04AC060E070E0CE0101960E94701647
:10386000811119C04F85588969897A8989819A811E
:103870000E94D71181110FC0EB89FC898081853EA0
:1038800079F0882369F061E070E0CE0101960E9432
:103890005819882339F3843009F4A7C18111A8C1CC
:1038A0004F85588969897A8989819A810E94D711BF
:1038B00081119EC1EB89FC89CF0180961192E81796
:1038C000F907E1F76D897E894BE050E08B899C898F
:1038D0000E940911E981FA8181E08483FDA5F860E5
:1038E000FDA7EB88FC8810C02DA528602DA7EB88CC
:1038F000FC88882349F089C1D7011B968C9181717E
:1039000009F07CC182FC7CC1BDA5B3FFC6C080E0CC
:1039100090E0A0EFBEE4F70186879787A08BB18B7C
:103920001386D701148E158E168E178EC980DA80F5
:10393000828C938CA12CB12CF6018081833069F4A8
:1039400054968D919C915597A0E0B0E0DC019927A9
:103950008827882A992AAA2ABB2AD7015B961C9213
:103960001E925A9755961C921E92549781E0F6012A
:10397000848381149104A104B10409F48BC022A5AD
:1039800033A544A555A529A73AA74BA75CA7B2E044
:103990008B169104A104B10408F414C1828993899F
:1039A000A489B58988169906AA06BB0608F00CC139
:1039B0008DA29EA2AFA2B8A64DA15EA16FA178A5CF
:1039C000C6010E9489152B013C0161157105810515
:1039D0009105E9F1613071058105910509F4F6C0A1
:1039E0006F3F7F4F8F4F9F4F09F4F2C000E010E010
:1039F00098014DA15EA16FA178A5C6010E942C1768
:103A00008111E7C0F60186859785A089B1898F3F2E
:103A1000FFEF9F07AF07BF0759F00196A11DB11D2A
:103A2000F60186879787A08BB18B8581816085831E
:103A30004DA25EA26FA278A6F60182899389A4891D
:103A4000B589481659066A067B0608F4B5CF898100
:103A50009A81F1E08F1A9108A108B108DC011A9649
:103A60008D929D92AD92BC921D9749A55AA56BA5CA
:103A70007CA50E94D711882369F0C7C08111C5C0F9
:103A8000F701838584FDBEC081FE02C080FDBCC0FD
:103A900083FE03C0FDA5F062FDA7E981FA8182A53E
:103AA00093A5A4A5B5A5F101828F938FA48FB58F9F
:103AB000F78EE68EEDA5D1011496EC93149715962A
:103AC0001C9209811A81D7015A968D919C915B971E
:103AD000A0E0B0E0F8012081233061F4F7014489CF
:103AE000558960E070E0BA0155274427842B952B57
:103AF000A62BB72BF10186879787A08BB18BF70197
:103B0000848D958DA68DB78DF10182879387A487CB
:103B1000B5871682178210861186168A178A108E2C
:103B2000118E11830083D80116968D919C91179761
:103B30009383828380E069C089E067C08FEB870F41
:103B40008A3108F4FCCDFDCD6DA17EA1932E29A56F
:103B50003AA5C20ED31E80E002CE6DA17EA1932EA7
:103B600029A53AA5C20ED31E84E0F9CDFA018385BA
:103B700082FF4BCE06C0ED89FE899385843051F4D7
:103B800040CEE114F104C9F40CC086E003C084E027
:103B900001C085E0EB88FC88982D9C7109F054CE1B
:103BA0006DCF182D1C7119F5E12CF12C86E015C094
:103BB000182D1C7109F04BCE10C0882D8C7109F0A6
:103BC0009BCE5ECF82E005C082E003C082E001C0F0
:103BD00081E0882309F45ECF18C0882309F46ACFF6
:103BE00014C0EB88FC8886E0E3CF87E001C086E064
:103BF000FDA5F860FDA7EB88FC88EFCF87E005C046
:103C000088E003C084E001C087E0AE960FB6F89468
:103C1000DEBF0FBECDBFDF91CF911F910F91FF90FF
:103C2000EF90DF90CF90BF90AF909F908F907F905C
:103C30006F905F904F903F902F9008952F923F92FA
:103C40004F925F926F927F928F929F92AF92BF92AC
:103C5000CF92DF92EF92FF920F931F93CF93DF9358
:103C6000EC014B016A015901F901118210820E9495
:103C7000501281116DC18D8181116AC18C8181FFCA
:103C800066C18E819F81A885B985AC01BD014C0DAF
:103C90005D1D611D711D481759076A077B0708F4F0
:103CA00040C1C114D10409F43CC14E815F816885D3
:103CB0007985DB01CA019170AA27BB27892B8A2B42
:103CC0008B2B09F0E8C0E881F98112811150DB01EA
:103CD000CA01072E79E0B695A795979587957A95AD
:103CE000D1F7702D182309F042C0452B462B472BE6
:103CF00081F46E857F8588899989611571058105B3
:103D00009105A1F440E050E0BA01CF010E9454189F
:103D100007C04A895B896C897D89CF010E9454184C
:103D2000611571058105910509F4FBC061307105CC
:103D30008105910519F482E08D830AC16F3FFFEF81
:103D40007F078F079F0719F481E08D8301C16A8B7C
:103D50007B8B8C8B9D8B4E845F846888798845280B
:103D60004628472821F46E877F87888B998BE881C6
:103D7000F98142A553A564A575A58E899F89A88D53
:103D8000B98D481759076A077B0741F4CF010E9494
:103D90006C11882319F081E08D83DAC02880398086
:103DA0004A895B896C897D89C1010E946115611511
:103DB00071058105910519F482E08D83C9C02B013D
:103DC0003C01410E511C611C711C7601EF2CFF243B
:103DD000E694E114F10409F43FC0F1014281242F7B
:103DE00030E0C701810F911D2817390718F47901B8
:103DF000E11AF1088701A3019201B401F101818167
:103E00000E946124882319F081E08D83A1C0E8819C
:103E1000F98182A593A5A4A5B5A584199509A6093C
:103E2000B709A70160E070E084179507A607B707F8
:103E300078F4982F8827990FB401680F791F40E014
:103E400052E0CF018E960E940911E881F981148217
:103E5000FE2CEE24FF0C4CC04E815F816885798575
:103E60008A859B85AC85BD85481759076A077B07FE
:103E700070F0C1010E946C11882319F081E08D83DC
:103E800067C0E881F98142A653A664A675A64E8A4A
:103E90005F8A688E798E8E819F81917020E032E0FA
:103EA0007901E81AF90ACE14DF0408F476014E8984
:103EB0005F89688D798D888199810E94D7118823C7
:103EC00019F081E08D8344C08E819F81A885B985DA
:103ED0009170AA27BB278E9628813981A701B4014A
:103EE000820F931F0E940911E881F98121E0248348
:103EF0008E0C9F1C8E819F81A885B9858E0D9F1D7C
:103F0000A11DB11D8E839F83A887B987F50180818C
:103F100091818E0D9F1D91838083CE18DF0809F05B
:103F2000C4CE8E819F81A885B9854A855B856C85C5
:103F30007D85481759076A077B0720F48A879B8786
:103F4000AC87BD878C8180628C8380E001C087E074
:103F5000DF91CF911F910F91FF90EF90DF90CF9065
:103F6000BF90AF909F908F907F906F905F904F9099
:103F70003F902F9008950F931F93CF93DF93EC0101
:103F80000E945012982F811198C08C8185FF95C096
:103F90004A8D5B8D6C8D7D8D888199810E94D711B2
:103FA000982F81118AC0EE8DFF8D83858062838773
:103FB0008A859B85AC85BD85848F958FA68FB78FAD
:103FC0008E859F85A889B989938F828FB58BA48BA5
:103FD00080E090E0A0EFBEE4868B978BA08FB18F3E
:103FE000138A128A8C818F7D8C83E881F98181E02C
:103FF00084830990D881C02DCE010E946C11982F26
:1040000081115BC08881833009F04DC08D81813082
:1040100009F049C0BE01625D7F4FFB01CE01825DA8
:104020009D4F1192E817F907E1F785E59AEAFE013D
:10403000E45DFD4F9183808382E592E5A1E6B1E4E2
:104040008EA79FA7A8ABB9AB82E792E7A1E4B1E640
:104050007A9780839183A283B3838E859F85A88975
:10406000B989349680839183A283B3838A859B85A3
:10407000AC85BD85349680839183A283B3838A8D7A
:104080009B8DAC8DBD8D9C01AD012F5F3F4F4F4F80
:104090005F4F2AA73BA74CA75DA701E010E08981ED
:1040A0000E9461241D8240E050E060E089810E940E
:1040B000D62491E0811101C090E0892FDF91CF914A
:1040C0001F910F910895CF93DF93EC010E94BB1FC6
:1040D000811107C0CE010E945012811102C01982C5
:1040E0001882DF91CF9108954F925F926F927F92E5
:1040F0008F929F92AF92BF92CF92DF92EF92FF92F8
:104100000F931F93CF93DF9300D000D000D0CDB793
:10411000DEB79E838D836A017B010E94501281115C
:1041200093C1AD81BE8115968C91159781118CC17B
:104130001A968D919D910D90BC91A02D8C159D0589
:10414000AE05BF0538F4ED81FE81248121FD02C05A
:104150006C017D01AD81BE8116964D905D906D9094
:104160007C901997FD011682178210861186C11462
:10417000D104E104F10409F464C100811181D80182
:1041800012968C90912CA12CB12C072E79E0880CE2
:10419000991CAA1CBB1C7A95D1F7702D41145104AF
:1041A0006104710409F440C0B1E04B1A5108610880
:1041B0007108C701B6016150710981099109A50112
:1041C00094010E947C2F29833A834B835C83C30133
:1041D000B201A50194010E947C2F89819A81AB8153
:1041E000BC8182179307A407B507F0F088279927A9
:1041F000DC0188199909AA09BB09482259226A22B7
:104200007B22AD81BE8116964D925D926D927C921D
:104210001997C418D508E608F70852964D915D9194
:104220006D917C91559737C0ED81FE81468557850C
:1042300060897189411551056105710531F540E0CD
:1042400050E0BA01C8010E945418AB01BC014130D2
:1042500051056105710531F482E0AD81BE8115968D
:104260008C93F2C04F3FBFEF5B076B077B0729F4CE
:1042700081E0ED81FE818583E7C0AD81BE811E9620
:104280004D935D936D937C935197ED81FE81428BAD
:10429000538B648B758B411551056105710509F4CC
:1042A00099C08C149D04AE04BF0408F05FC0AD81BA
:1042B000BE8114968C91149781FF0CC08D919C91B6
:1042C0000E945418AB01BC014115510561057105EF
:1042D00049F44AC0AD81BE818D919C910E9489159F
:1042E000AB01BC014F3FBFEF5B076B077B0729F4B6
:1042F000ED81FE8181E08583A7C0423051056105D3
:10430000710568F0AD81BE81ED91FC918289938940
:10431000A489B589481759076A077B0728F0ED81FA
:10432000FE8182E0858390C0AD81BE8152964D931F
:104330005D936D937C935597FD0186819781A08550
:10434000B185880D991DAA1DBB1D86839783A08703
:10435000B187C818D908EA08FB088C149D04AE047C
:10436000BF0408F4A4CF02C075016401ED81FE8191
:1043700086819781A085B1858C0D9D1DAE1DBF1DC9
:1043800086839783A087B187D701C6019170AA273A
:10439000BB27892B8A2B8B2B09F1808191810E946D
:1043A0006115611571058105910531F482E0AD81DA
:1043B000BE8115968C9348C00B2EB9E0F694E79415
:1043C000D794C794BA95D1F7B02DC60ED71EE81E64
:1043D000F91E07C0C12CD12C760103C0C12CD12CF1
:1043E0007601ED81FE8186819781A085B185AC0142
:1043F000BD01517066277727452B462B472B69F067
:1044000046895789608D718DC416D506E606F70674
:1044100021F0C68AD78AE08EF18EED81FE81428539
:10442000538564857585481759076A077B0758F4D3
:1044300082879387A487B58784818062848380E0A4
:1044400003C080E001C080E026960FB6F894DEBF7E
:104450000FBECDBFDF91CF911F910F91FF90EF90D5
:10446000DF90CF90BF90AF909F908F907F906F9094
:104470005F904F900895299A8FEF0E949228089597
:1044800029988FEF0E94922882E3809390038FEF08
:104490000E9492288F3F49F0809190038111F7CFBD
:1044A0000E943B2280E090E0089581E090E0089532
:1044B000FF920F931F93CF93DF93C82FD42F152F05
:1044C000062FF72E882354F440E050E0BA0187E32A
:1044D0000E945822823008F04EC0CF77CC3039F19C
:1044E0000E943B220E944022892BF9F08C2F80648D
:1044F0000E9492288F2D0E949228802F0E9492283D
:10450000812F0E9492288D2F0E949228CC2379F12E
:104510002BC08FEF0E949228CAE08FEF0E94922852
:1045200088234CF5C150C9F726C08FEF24C08CE416
:104530000E9492288F2D0E949228802F0E949228FC
:10454000812F0E9492288D2F0E94922881E00E9444
:104550009228CC30F1F2E0CF87E80E949228DCCF9D
:1045600081E00E949228D8CFC830B1F3F9CF85E915
:104570000E949228D1CFDF91CF911F910F91FF9090
:1045800008950F931F93CF93DF93082F192FEB01FB
:1045900084E1809391038FEF0E9492288F3F39F43A
:1045A000809191038111F7CF80E090E022C08E3F8F
:1045B000F1F4E02FF12F8FEF8EBD0DB407FEFDCF8C
:1045C0009EB5DF0190838EBD0DB407FEFDCF9EB575
:1045D00011969C9322973296209771F78FEF0E9445
:1045E00092288FEF0E94922881E090E002C080E044
:1045F00090E0DF91CF911F910F9108951F93CF937A
:10460000DF93EC01162F82E3809390038FEF0E94DB
:1046100092288F3F31F0809190038111F7CF90E085
:104620002BC0812F0E9492281D3F21F1FE019E0187
:104630003E5FDF0190819EBD0DB407FEFDCF119658
:104640009C919EBD0DB407FEFDCF3296E217F30795
:1046500081F78FEF0E9492288FEF0E9492288FEFB0
:104660000E949228282F2F7181E090E0253021F0C0
:1046700080E002C081E090E0DF91CF911F9108952A
:10468000CF92DF92EF92FF920F931F93CF93DF931E
:1046900000D000D0CDB7DEB781119CC08091280139
:1046A00081FF03C080912801A2C082E58CBD1AE081
:1046B0008FEF0E9492281150D9F740E050E0BA01E4
:1046C00080E00E945822813009F08CC084E68093FB
:1046D00091034AEA51E060E070E088E00E945822CD
:1046E000813009F041C0CE0101966C017E0195E058
:1046F000E90EF11C86018FEF0E949228F801819348
:104700008F01EE16FF06B9F78B81813009F06AC080
:104710008C818A3A09F066C080919103882349F020
:1047200040E050E060E070E489EA0E945822811184
:10473000F3CF80919103882309F454C040E050E006
:10474000BA018AE30E94582281114CC08FEF0E9467
:104750009228F60181936F01EE16FF06B9F7898161
:1047600086FD3AC084E039C040E050E0BA0189EAF1
:104770000E945822823018F001E011E002C002E0ED
:1047800019EA80919103882341F040E050E0BA019A
:10479000812F0E9458228111F4CF809191038823A8
:1047A00009F140E052E060E070E080E10E945822B0
:1047B000811118C000938F030E943B22002339F01F
:1047C000809128018E7F8093280180E58CBD8091A7
:1047D00028010DC081E00BC08CE080938F030E9404
:1047E0003B22EECF10928F030E943B22F0CF0F901E
:1047F0000F900F900F90DF91CF911F910F91FF902D
:10480000EF90DF90CF900895811103C0809128012F
:10481000089581E00895FF920F931F93CF93DF9344
:10482000EB01811143C00115110509F441C08091CC
:10483000280180FD3FC080918F0383FD09C0012EB8
:1048400019E0220F331F441F551F1A95D1F7102D61
:104850000230110528F40F2EF1E1FF2EF02D04C0D7
:104860000F2EF2E1FF2EF02DBA01A9018F2D0E942B
:104870005822811114C060E072E0CE010E94C12272
:10488000892B21F0DE5F01501109A9F782E1F812AE
:1048900006C040E050E0BA018CE00E9458220E941D
:1048A0003B2281E0012B39F480E005C084E003C0A5
:1048B00084E001C083E0DF91CF911F910F91FF90C1
:1048C0000895CF92DF92EF92FF920F931F93CF93B1
:1048D000DF93EB0169017A01811158C001151105BF
:1048E00009F456C08091280180FD54C080912801B0
:1048F00082FD52C080918F0383FD09C00B2EB9E069
:10490000CC0CDD1CEE1CFF1CBA95D1F7B02D01308C
:10491000110599F4B701A60188E10E94582281117E
:104920002EC06EEFCE010E94FE2231E020E0892BE6
:1049300009F030E0032F122F22C0867031F0A80159
:1049400060E070E087E90E945822B701A60189E182
:104950000E945822811113C06CEFCE010E94FE22EA
:10496000892B21F0DE5F01501109B1F76DEF80E076
:1049700090E00E94FE22892B11F401E010E00E94D9
:104980003B2281E0012B49F480E007C084E005C0B0
:1049900084E003C083E001C082E0DF91CF911F91EA
:1049A0000F91FF90EF90DF90CF900895EF92FF92DC
:1049B0000F931F93CF93DF93CDB7DEB760970FB6FA
:1049C000F894DEBF0FBECDBF811194C18091280144
:1049D00080FD92C18A01862F90E08733910508F00F
:1049E00070C1FC01EC5CFF4F0C949E2F0E94402292
:1049F00011E0892B09F47AC110E078C140E050E061
:104A0000BA0189E00E94582281115DC160E170E025
:104A1000CE0101960E94C122892B09F456C18981D9
:104A20008295869586958370813031F5298530E0B1
:104A3000322F22278A85280F311D88858F7390E0B9
:104A4000A0E0B0E0DC01992788270196A11DB11DE7
:104A5000820F931FA11DB11D072E7AE0880F991FA9
:104A6000AA1FBB1F7A95D1F7702DF801808391831F
:104A7000A283B38310E03AC1898582958695869595
:104A80008370288590E0F4E02F9F800D911D112404
:104A90009C012F5F3F4F8F81837090E0982F882774
:104AA000990F990F820F931FA0E0B0E03E813F70F5
:104AB0002B85221F2227221F320F2A852370220FC7
:104AC000230F275004C0880F991FAA1FBB1F2A95C8
:104AD000D2F7F80180839183A283B38310E006C1EB
:104AE00080918F0382FF33C040E050E0BA018DE82F
:104AF0000E9458228111EBC08FEF0E94922860E142
:104B000070E0CE0101960E94C122892B09F4E1C018
:104B10000F2EF0E3FF2EF02D8FEF0E949228FA94D3
:104B2000F110FACF2B8522952F7080E190E0A0E064
:104B3000B0E004C0880F991FAA1FBB1F2A95D2F7A7
:104B4000F80180839183A283B38310E0CFC040E05B
:104B500050E0BA0189E00E9458228111BCC060E196
:104B600070E0CE0101960E94C122892B09F4B5C0E4
:104B700080918F0381FF20C02B852F738C85881F28
:104B80008827881F90E00196820F911D820F911D4A
:104B90002E852295269526952370215002C0880FD8
:104BA000991F2A95E2F7A0E0B0E0F8018083918395
:104BB000A283B38310E09AC08C85282F237082953E
:104BC0008695877090E0F8E02F9F800D911D11244D
:104BD00001962B852C7730E03595279535952795CF
:104BE0002F5F3F4F829FA001839F500D929F500DDA
:104BF0001124CA01A0E0B0E0F80180839183A28370
:104C0000B38310E073C080918F03FA01808310E0BA
:104C10006DC040E050E0BA0189E00E945822811145
:104C20005EC060E170E0C8010E94C12211E0892BE2
:104C300009F45CC010E05AC040E050E0BA018AE0DC
:104C40000E94582281114DC060E170E0C8010E94AD
:104C5000C12211E0892B09F449C010E047C040E0AF
:104C600050E0BA018AE30E94582281113CC07801C9
:104C70000C5F1F4F8FEF0E949228F70181937F01F5
:104C80000E171F07B9F710E031C040E050E0BA013D
:104C90008DE80E945822811128C08FEF0E9492282F
:104CA00060E470E0C8010E94C12211E0892BF1F09C
:104CB00010E01CC08091280181608093280110E0E1
:104CC00015C014E013C011E011C011E00FC011E0D5
:104CD0000DC011E00BC011E009C011E007C011E0E8
:104CE00005C011E003C011E001C011E00E943B22A9
:104CF000812F03C084E001C083E060960FB6F89472
:104D0000DEBF0FBECDBFDF91CF911F910F91FF90FE
:104D1000EF9008950F931F93CF93DF938EE40E943B
:104D2000052781E00E943F270E9436272FEF80E76A
:104D300092E0215080409040E1F700C000008FE4F5
:104D40000E9405270E945127182F0E945127D82F13
:104D50000E945127082F0E945C27C82F0E943627E7
:104D60001F736D2F70E0712B072E000C880B990BB1
:104D70000E94FC2D20E038EF4FE756E40E944C2DB6
:104D800020E030E048EC52E40E94FF2E60932D01B9
:104D900070932E0180932F0190933001C695C69594
:104DA0006C2F70E020E4029F600D711D1124072E0E
:104DB000000C880B990B0E94FC2D20E038EF4FE788
:104DC00056E40E944C2D20E030E045E253E40E947E
:104DD000FF2E20E030E040E252E40E94DA2C6093A3
:104DE000290170932A0180932B0190932C01DF916C
:104DF000CF911F910F9108951092B90088E480938C
:104E0000B80084E08093BC000895CF93DF93ECEB6F
:104E1000F0E024EAA9EBB0E0CBEBD0E034E844E9E1
:104E2000208390819923ECF79C91987F983011F022
:104E30009031B1F78883308390819923ECF79C916E
:104E4000987F903211F0983529F44083908194FD39
:104E5000FDCFE6CFDF91CF91089584EA8093BC0027
:104E6000ECEBF0E080818823ECF7089584E98093EF
:104E7000BC00ECEBF0E0808184FDFDCF08958093D1
:104E8000BB0084E88093BC00ECEBF0E080818823D9
:104E9000ECF79091B900987F81E0983209F480E0B6
:104EA000089584EC8093BC00ECEBF0E080818823D3
:104EB000ECF78091BB00089584E88093BC00ECEB94
:104EC000F0E080818823ECF78091BB0008950F9378
:104ED0001F93CF938C010E942D2780ED0E943F27C6
:104EE00080E00E943F27F8018081CDEC8C9F912DBE
:104EF0001124969596959695392F330F232F220FCF
:104F0000220F230F821BF0E19F9F800D11240E942E
:104F10003F27F80181818C9F912D112496959695BC
:104F20009695392F330F232F220F220F230F821B29
:104F3000F0E19F9F800D11240E943F27F80182819C
:104F40008C9F912D1124969596959695392F330F18
:104F5000232F220F220F230F821BF0E19F9F800D32
:104F600011240E943F27F80183818C9F912D1124E9
:104F7000969596959695392F330F232F220F220F52
:104F8000230F821BF0E19F9F800D11240E943F2779
:104F9000F80184818C9F912D112496959695969574
:104FA000392F330F232F220F220F230F821BF0E103
:104FB0009F9F800D11240E943F27F80185818C9FBF
:104FC000912D1124969596959695392F330F232F71
:104FD000220F220F230F821BF0E19F9F800D1124CF
:104FE0000E943F27F80186818C9FC12D1124C69510
:104FF000C695C6952C2F220F922F990F990F920FBD
:10500000891BF0E1CF9F800D11240E943F270E9451
:105010003627CF911F910F910895CF93DF93EC0125
:105020000E942D2780ED0E943F2780E00E943F27AD
:105030000E9436272FEF81EE94E02150804090406F
:10504000E1F700C000000E942D2781ED0E943F275C
:105050000E945127982F92959F70990F292F220F08
:10506000220F920F8F70890F88830E945127982FEB
:1050700092959F70990F292F220F220F920F8F70F8
:10508000890F89830E945127982F92959F70990FBD
:10509000292F220F220F920F8F70890F8A830E946F
:1050A0005127982F92959F70990F292F220F220F29
:1050B000920F8F70890F8B830E945127982F9295A2
:1050C0009F70990F292F220F220F920F8F70890F37
:1050D0008C830E945127982F92959F70990F292FAA
:1050E000220F220F920F8F70890F8D830E945C27F1
:1050F000982F92959F70990F292F220F220F920FB0
:105100008F70890F8E830E943627DF91CF9108958B
:1051100084B1886284B924988CB583658CBD2C9A3F
:105120002C9808958EBD0DB407FEFDCF8EB5089561
:10513000DF92EF92FF920F931F93CF93DF938B0138
:10514000D42E9BB141E050E07A0102C0EE0CFF1C6E
:105150002A95E2F72E2D209592239BB90E94922842
:10516000DD2051F0E8010D0D111D80E00E94922814
:105170008993C017D107C9F78BB1E82AEBB8DF9143
:10518000CF911F910F91FF90EF90DF900895CF93F3
:10519000DF939BB1C1E0D0E002C0CC0FDD1F6A9568
:1051A000E2F72C2F209592239BB90E94922880E051
:1051B0000E949228D82F80E00E9492289BB1C92B90
:1051C000CBB92D2F30E0A901582BCA01DF91CF9127
:1051D00008950E94C72808951092C50087E680931D
:1051E000C400E0ECF0E080818D7F808386E08093D6
:1051F000C20088E18093C1000895CF93C82F8A3000
:1052000019F48DE00E94FD28E0ECF0E0808185FF3C
:10521000FDCFC093C60080E090E0CF910895E0EC10
:10522000F0E080818823ECF78091C60090E008953B
:10523000E1E8F0E010821092800016BA808184606C
:105240008083808180648083109285001092840026
:1052500080E280936F0078948AB18AB95D9A08954C
:105260008091D003823018F11092D0038091940382
:10527000909195032091960330919703821B930B95
:10528000909393038093920380E286BB20919203D4
:105290003091930340E050E064E274EF80E090E0EE
:1052A0000E947C2FCA01B9010E94FA2D089560E086
:1052B00070E080E89FEB08951F920F920FB60F9257
:1052C00011248F939F938091D00381110BC0809103
:1052D000860090918700909397038093960380E2D5
:1052E00086BB0EC08091D003813051F4809186003E
:1052F00090918700909395038093940380E286BBFE
:105300008091D0038F5F8093D0039F918F910F90F6
:105310000FBE0F901F901895EAE7F0E0808180643F
:105320008083808186FDFDCF809178009091790007
:105330000895CF92DF92EF92FF921F93CF93DF9366
:10534000EC017C0110E00F2EF0EBCF2EF6E0DF2E0B
:10535000F02DF601808191810E9402338A3031F074
:10536000F70181937F011F5F103199F7C10FD11DA4
:105370001882DF91CF911F91FF90EF90DF90CF9037
:1053800008958F929F92AF92BF92DF92EF92FF9219
:105390000F931F93CF93DF9300D0CDB7DEB77C017F
:1053A0008A017A836983D12C2BC0422F50E040536D
:1053B00051094A30510560F02D3211F02B32E9F4D9
:1053C000FC01218130E0205331092A303105A8F455
:1053D0008D2C912C5701A80CB91C4AE050E0BE015D
:1053E0006F5F7F4F0E946B31F5016083C801880DAC
:1053F000991D0E941A3CD39403C001969A83898315
:1054000089819A81FC0120812111CFCF0F900F90CB
:10541000DF91CF911F910F91FF90EF90DF90BF90A0
:10542000AF909F908F900895CF93DF93CDB7DEB765
:10543000C654D1090FB6F894DEBF0FBECDBF0E948F
:10544000EC28E0EBF6E08FE391E09383828381E345
:1054500091E09183808383EE92E00E94AC330E94BE
:10546000FC260E9488280E9497010E941829EAE7DA
:10547000F0E0808187688083ECE7F0E080818264DF
:1054800080830F2EFEE1CF2EF1E0DF2EF02D0F2EC8
:10549000FAE0EF2EF1E0FF2EF02D00E210E0C8015F
:1054A0000E94FC3BF60181936F01C80180960E9427
:1054B000FC3BF70181937F010F5F1F4F0432110501
:1054C00071F740E150E060E370E08EE091E00E940F
:1054D000EC3B8AB18AB95D9A4D993DC08EEC92E061
:1054E0009F938F930E9456330F900F9015C00E9488
:1054F0008C2920910306309104062817390730F4CF
:105500000E948C29909304068093030687EE93E013
:105510000197F1F700C000000E948C2960910306FA
:1055200070910406C2968617970708F7072E000C9D
:10553000880B990B0E94FC2DAB01BC0180E090E030
:105540000E94283C88EB92E09F938F930E945633F1
:105550000F900F900AC080E090E00E94043C0E94EF
:10556000BE2D70930406609303068AB18AB95E9AD1
:105570004E9952C087EB91E00E947C3388E993E01A
:105580000E94992908E913E01F930F9388EC91E09A
:105590009F938F930E94403340E250E0B8018EE128
:1055A00091E00E94C12988ED91E00E947C33C801FE
:1055B0000E9499291F930F9388EE91E09F938F93F8
:1055C0000E944033B8018EE091E00E94C03240E179
:1055D00050E060E370E0C8010E94103C87EF91E06A
:1055E0000E947C33C8010E9499291F930F9388E081
:1055F00092E09F938F930E94403340E450E0B801C3
:105600008AE091E00E94C129EDB7FEB73C960FB643
:10561000F894FEBF0FBEEDBF80E190E00E940A3C0F
:1056200090930D0680930C06219A40E069EB72E09E
:1056300085ED93E00E94911A0E942B107E01F9E300
:10564000EF0EF11C3E012FE2620E711C2E0135E2BD
:10565000430E511C1E018BE1280E311C6E0191E19D
:10566000C90ED11C8091FD02813029F480E396E0BF
:105670000E947F0FF7CF8091A803811109C010927B
:10568000D003E0E2E6BB81E08093A8031092FF0222
:105690008091D003823020F48091FF02882311F39F
:1056A000FFEF23ED30E3F15020403040E1F700C040
:1056B00000001092A8030E9430292AE037ED43E44D
:1056C0005FE30E94FF2E23E333E343EB5EE30E949C
:1056D000DB2C27966CAF7DAF8EAF9FAF279720E076
:1056E00030E0A9010E94472D8823ACF020E030E093
:1056F0004AE754E427966CAD7DAD8EAD9FAD2797FC
:105700000E94FA2E18166CF427961CAE1DAE1EAE23
:105710001FAE279706C027961CAE1DAE1EAE1FAE4D
:10572000279785E096E00E940D280E948C29BC01F5
:1057300080E090E00E94FA2D4B015C01609103062D
:1057400070910406072E000C880B990B0E94FC2D0B
:105750009B01AC01C501B4010E944C2D20E030E05A
:1057600044EB53E40E94FF2E4B015C0120E030E04B
:1057700044EB53E40E94FA2E181644F40F2E812CA9
:10578000912CF4EBAF2EF3E4BF2EF02D0E948A266D
:1057900060912D0170912E0180912F019091300127
:1057A000870122E041E00E944B3160912901709114
:1057B0002A0180912B0190912C01830122E041E08C
:1057C0000E944B310E940102820122E041E00E94CE
:1057D0004B31810122E041E0C501B4010E944B310F
:1057E000860122E041E027966CAD7DAD8EAD9FAD88
:1057F00027970E944B31DF92CF923F922F925F9278
:105800004F92FF92EF927F926F9205E016E0F801BF
:1058100080811F928F9381811F928F9382811F922B
:105820008F9328E132E03F932F93E0E3F6E0FF937C
:10583000EF930E940D34F80186811F928F9385812A
:105840001F928F9384811F928F932CE432E03F93B9
:105850002F93E1E0F0E0EC0FFD1FFF93EF930E9428
:105860000D3442E0BE016F5F7F4F80E196E00E9401
:10587000E41A2DB73EB7225E3F4F0FB6F8943EBFF5
:105880000FBE2DBF811177C08DB69EB640911A060E
:1058900050911B0660911C0670911D0680E196E0F8
:1058A0000E9474207F926F92FF92EF92DF92CF92CC
:1058B0003F922F925F924F92F80180811F928F93B7
:1058C00081811F928F9382811F928F932FE532E007
:1058D0003F932F931F921F921F921F920E94DD33BE
:1058E00025969FAF8EAF2597EDB7FEB776960FB68C
:1058F000F894FEBF0FBEEDBF2DB73EB7281B390B86
:105900000FB6F8943EBF0FBE2DBF8DB79EB7019660
:105910005C017F926F92FF92EF92DF92CF923F9263
:105920002F925F924F92F80180811F928F93818115
:105930001F928F9382811F928F932FE532E03F93C6
:105940002F93BF92AF920E940D342EE036E0259641
:105950004EAD5FAD25976A2D7B2D80E196E00E94CC
:105960001E1E80E196E00E9463200FB6F8949EBE52
:105970000FBE8DBE18C04AE0BE016F5F7F4F80E151
:1059800096E00E94E41A81110EC02EE036E04AE350
:1059900050E06FE772E080E196E00E941E1E80E119
:1059A00096E00E9463201092FF0280E396E00E943E
:1059B0007F0F58CE5058BB27AA270E94F22C0C9478
:1059C000C02E0E94B22E38F00E94B92E20F039F479
:1059D0009F3F19F426F40C949F2E0EF4E095E7FBFC
:1059E0000C94992EE92F0E94D12E58F3BA17620712
:1059F00073078407950720F079F4A6F50C94F32E2D
:105A00000EF4E0950B2EBA2FA02D0B01B9019001D9
:105A10000C01CA01A0011124FF27591B99F0593F1D
:105A200050F4503E68F11A16F040A22F232F342F65
:105A30004427585FF3CF469537952795A795F040B3
:105A40005395C9F77EF41F16BA0B620B730B840BC8
:105A5000BAF09150A1F0FF0FBB1F661F771F881F80
:105A6000C2F70EC0BA0F621F731F841F48F48795D8
:105A700077956795B795F7959E3F08F0B0CF9395CA
:105A8000880F08F09927EE0F9795879508950E9443
:105A9000752E08F481E008950E94602D0C94C02EAC
:105AA0000E94B92E58F00E94B22E40F029F45F3FB8
:105AB00029F00C94992E51110C94F42E0C949F2ED5
:105AC0000E94D12E68F39923B1F3552391F3951BCE
:105AD000550BBB27AA2762177307840738F09F5F0F
